:020000040800F2
:10000000A00E0020F10100087B4F00086D3B0008A6
:10001000794F0008790A0008F9670008000000001D
:100020000000000000000000000000007D560008F5
:100030007B0A00080000000009500008A5560008CF
:100040000B0200080B0200080B0200080B0200085C
:100050000B0200080B0200080B0200080B0200084C
:100060000B0200080B0200080B0200080B0200083C
:100070000B0200080B0200080B0200080B0200082C
:100080000B020008000000000B0200080B02000831
:100090000B0200080B0200080B0200080B0200080C
:1000A00021570008395700082D5700080B02000897
:1000B00045570008515700085D5700080B0200081B
:1000C0000B0200080B0200080B0200080B020008DC
:1000D0000B020008956700080B0200080B020008DD
:1000E0000B0200080B0200080B0200080B020008BC
:1000F0000B0200080B0200080B02000800000000C1
:10010000000000000B020008000000000B020008C5
:100110000B02000800000000695700080B020008ED
:100120000B0200080B0200080B0200080B0200087B
:100130000B02000800000000000000000B02000895
:100140000B0200080B020008000000000000000085
:10015000000000000000000000000000000000009F
:100160000000000000000000000000000B0200087A
:100170000B0200080000000000000000000000006A
:10018000000000000B02000800000000000000005A
:10019000000000000000000000000000000000005F
:1001A00000000000000000000B0200080B02000825
:1001B0000B0200080B0200080B0200080000000000
:1001C000000000000B02000800000000000000001A
:1001D0000B0200080B020008DFF810D000F01AFB39
:1001E0000048004701740008AFF30080A00E002013
:1001F0000648804706480047FEE7FEE7FEE7FEE7C1
:10020000FEE7FEE7FEE7FEE7FEE7FEE71157000820
:10021000D90100082DE9F05F0546002092469B4673
:1002200088460646814640241BE02846414647460C
:10023000224600F074F953465A46C01A914110D331
:1002400011461846224600F05BF92D1A67EB0108AB
:100250004F4622460120002100F052F917EB000919
:100260004E41201EA4F10104DFDC484631462A46F7
:100270004346BDE8F09FD2B201E000F8012B491ED1
:10028000FBD270470022F6E710B513460A46044633
:100290001946FFF7F0FF204610BD2DE9FE4F81EA19
:1002A000030404F0004421F0004100944FF0000BDF
:1002B00023F0004350EA01045ED052EA03045BD00D
:1002C000C3F30A54C1F30A552C44A4F2F334019445
:1002D000A0FB0254C1F3130141F48011C3F31303D3
:1002E00043F4801301FB024400FB034E840A970A87
:1002F00044EA815447EA8357A4FB076802958D0AB4
:1003000005FB07854FEA932C04FB0C542705029D3F
:100310004FEA065847EA1637B5EB08056EEB070CAF
:10032000870E920E47EA811742EA8312A7FB020169
:10033000B6EB0B0164EB00042B0D43EA0C335E18A3
:1003400044EB1C50DA465146E7FB0201C5F31304A7
:100350004FEA0B3343EA14534FEA0432019C43EA59
:100360000603A4F10C040294009CCDE900B400F053
:100370002CF903B0BDE8F08F00200146F9E72DE924
:10038000F04D81EA030404F0004B21F000451446CF
:100390004FF0000A23F0004150EA050220D054EA51
:1003A00001021DD0C5F30A570246C5F31303C1F37A
:1003B0001300C1F30A5640F4801543F48013A7EBF1
:1003C0000608101BD64608F2FD3873EB050002D371
:1003D00008F1010801E092185B41B8F1000F03DA5F
:1003E00000200146BDE8F08D00204FF48011064644
:1003F00084460EE0171B73EB050705D3121B63EB56
:10040000050306434CEA010C49084FEA30009218F4
:100410005B4150EA0107EDD152EA030012D082EAB3
:10042000040083EA0501084305D0101BAB4106D246
:100430000122002306E000224FF0004302E06FF0AB
:10044000010253101AEB06004CEB085110EB0A00A6
:1004500041EB0B01BDE8F04D00F0A8B80EB540F23D
:10046000334102910021CDE900110A460B4600F00C
:10047000ACF803B000BD00F0004230F000400AD0FC
:10048000C10D01F56071C0F3160042EA0151C208C6
:1004900040071143704700200146704701F00043B8
:1004A00030B421F0004150EA010206D00A0DA2F555
:1004B0006072C1F31301002A02DC30BC00207047D7
:1004C000440F44EAC104C100E01830BC00EBC25044
:1004D00000F035B830B50B4601460020202201243B
:1004E00009E021FA02F59D4205D303FA02F5491B02
:1004F00004FA02F52844151EA2F10102F1DC30BD18
:10050000202A04DB203A00FA02F1002070479140D3
:10051000C2F1200320FA03F3194390407047202AC8
:1005200004DB203A21FA02F00021704721FA02F39D
:10053000D040C2F12002914008431946704700297B
:10054000A8BF7047401C490008BF20F00100704759
:1005500010B4B0FA80FC00FA0CF050EA010404BFB9
:1005600010BC704749B1CCF1200421FA04F411FA0F
:100570000CF118BF012121430843A3EB0C01CB1D53
:100580004FEA00614FEA102042BF002010BC7047C4
:1005900000EBC35010440029A4BF10BC7047401C9E
:1005A000490008BF20F0010010BC704710B5141EB0
:1005B00073F1000408DA401C41F1000192185B411C
:1005C0001A4301D120F0010010BD2DE9F04D9246F3
:1005D0009B4611B1B1FA81F202E0B0FA80F220320A
:1005E0009046FFF78DFF04460F4640EA0A0041EAB5
:1005F0000B0153465A46084313D0114653EA0100F3
:1006000019D0C8F140025046FFF789FF05460E4653
:10061000504659464246FFF773FF084305D0012074
:1006200004E020463946BDE8F08D0020054346EA47
:10063000E0762C4337430A986305E40AA0EB0800F0
:100640000022FD0A44EA47540A3002D50020014640
:10065000E9E7010510196941DDE90845001969411B
:10066000BDE8F04DA2E72DE9FE4F804681EA030088
:10067000C00F0C46009021F0004123F00045B8EB7C
:100680000200A94105D24046214690461C460B4631
:10069000024623F00040104347D0270DC7F30A005D
:1006A000C3F30A510290401A019040286BDAC3F359
:1006B000130040F4801B0098924620B10023D2EB37
:1006C000030A63EB0B0B01985946C0F140025046F8
:1006D000FFF716FF06460D4650465946019A00F0B0
:1006E000ABF810EB08006141002487EA115284EA5C
:1006F000E7731A4340D0009A62B3019A012A4FEA85
:10070000075215DC001B61EB02014FF0004202EAC8
:100710000752CDE90042001C41F5801132462B46BC
:10072000FFF753FF03B0BDE8F08F40462146F9E7DD
:10073000001B61EB0201001C41F5801300185B41B6
:100740002018A2F5001747EB030140EAD570B6194F
:100750006D4111E06D084FEA360645EAC0754FEA73
:100760000752001B61EB0201001C41F58011490892
:100770004FEA30000019514132462B4603B0BDE824
:10078000F04FFFF713BF0098012240000023D0EB89
:10079000020263EBE073009821464FEAE074B8EB85
:1007A000000061EB0401E9E783F000435BE781F0BF
:1007B000004158E7C1F30A52C1F3130140F2FF337D
:1007C00041F480119A4202DA00200146704740F25B
:1007D00033439A42A2F2334202DC5242FFF79FBEF9
:1007E000FFF78EBE30B5041E71F1000404DB4FF03C
:1007F0000044404264EB0101141E73F1000405DB68
:100800001C464FF00043524263EB0403994208BF79
:10081000904230BD064C074D06E0E06840F0010311
:1008200094E8070098471034AC42F6D3FFF7D8FCA1
:10083000C0880008E0880008202A06DBCB17203A91
:1008400041FA02F043EAE07306E041FA02F3D040D5
:10085000C2F1200291400843194670472DE9F0414A
:10086000044600270D46006804F084F80646206818
:1008700004F07CF830435DD02068C1682E4E8901B9
:1008800005D5617F012902D1217F01290BD0022DDD
:100890001DD0206804F06EF8B8B120688168C1F3FB
:1008A000400169B111E00125244902E08F4232D2B2
:1008B0007F1C0268D2435206F8D440210160E8E769
:1008C0008168314041F010018160012D11D0206814
:1008D00004F04CF848B120688168C1F3400121B9A7
:1008E0008168314041F020018160022D08D0032D44
:1008F00004D0042500F052FF064617E00C25F9E766
:100900000825F7E700F04AFF801B05280ED920686C
:10091000806828420AD0E06D40F01000E065206E4B
:1009200040F0010020660120BDE8F0812068806869
:100930002842E7D10020F7E7C0FFFF7F000040A377
:1009400070B50446006881688268C1F3400112F006
:10095000010F28D039BB816801F00D01012914D1A4
:100960008168124A1140891C816021680320086057
:1009700000F014FF054612E000F010FF401B0228B3
:100980000DD920688068C00709D0E06D40F01000E4
:10099000E065206E40F001002066012070BD2068F7
:1009A0008068C007E8D1002070BD0000C0FFFF7F55
:1009B000F8B50446002000902068816811F0010F0E
:1009C00041D18168214A11422ED18168D543294005
:1009D000491C81601E48806800F0E07000020DD55F
:1009E0001C481D490068B0FBF1F0401C00EB4000C2
:1009F000800000E0401E00900028FBD100F0CEFEF9
:100A000006461BE0816811F0010F03D1816829407F
:100A1000491C816000F0C2FE801B02280ED92068AC
:100A20000068C043C00709D0E06D40F01000E065E9
:100A3000206E40F0010020660120F8BD20680168AA
:100A4000C943C907DED10020F8BD00003F00008087
:100A50000003005074000020400D030010B504F0A6
:100A60002FFD044CA06404F14800008804F008FE47
:100A7000E07010BD00000020FEE77047002240F645
:100A8000B83306E00021491C89B29942FBD3521CBD
:100A900092B28242F6D3704772B6FEE710B50446B2
:100AA00000F032FC204600F077FA80B2FFF7D6FC67
:100AB0009FED071B53EC112BFFF7EFFB9FED061B80
:100AC00053EC112BFFF7E9FB41EC100B10BD0000BC
:100AD0006666666666660A40000000000000303FF9
:100AE000F8B500260446009690F858000D460128F7
:100AF0000BD0012084F858002046FFF721FF0100A9
:100B0000E06D04D040F010002AE00220F8BD20F48F
:100B1000885040F00200E06520688268134B1A405C
:100B200005F080431A4342F000428260104A206878
:100B30000EE0009B5B1C0093934209D3E06D20F014
:100B4000020040F01000E06584F858600120F8BD14
:100B50008368DB0FEDD1E06D20F0020040F0010072
:100B6000E06584F858600846F8BD0000C0FFFF3F0C
:100B700002DE04002DE9F84F00270446009790F8A4
:100B80005800DFF8E0930D46B846012811D0012641
:100B900084F85860206803F0EDFE60B1E06D40F02D
:100BA0002000E0655FF0010784F858803846BDE812
:100BB000F88F0220FBE7D5E900210C23206803EA27
:100BC00091131844036B01F01F014FF01F0C0CFA36
:100BD00001FCC2F3846223EA0C038A4013430363DB
:100BE000206803F0C7FE8246206803F0BFFE5AEA81
:100BF00000003CD1AA6829682068B2F1004F37D0C4
:100C000003F0C4FE2068416921F000414161206881
:100C10006969C268C2F3C102520091402A69042A7C
:100C200031D000EB82002B68026EDFF83CC303F08A
:100C3000F84302EA0C020B431A4342F000410166FA
:100C400020682A69A96900EB8200026E22F0807296
:100C50000A430266297F22682869012910D00021F1
:100C600002EB8000026E22F000720A4302667DE011
:100C7000002203F08BFE2068416941F00041C5E786
:100C80004FF00071ECE7002103F06AFE400320689A
:100C90004FF0000172D003F063FE90FAA0F0B0FABA
:100CA00080F1286842036ED090FAA0F0B0FA80F08C
:100CB000814204D100221146206803F076FE012112
:100CC000206803F04DFE400320684FF001015DD025
:100CD00003F046FE90FAA0F0B0FA80F128684203D3
:100CE00059D090FAA0F0B0FA80F0814204D10022ED
:100CF0000121206803F059FE0221206803F030FE34
:100D0000400320684FF0020148D003F029FE90FA1A
:100D1000A0F0B0FA80F12868420344D090FAA0F025
:100D2000B0FA80F0814204D100220221206803F051
:100D30003CFE0321206803F013FE400320684FF0BF
:100D4000030133D003F00CFE90FAA0F0B0FA80F16A
:100D5000286842032FD090FAA0F0B0FA80F08142C8
:100D600004D100220321206803F01FFE206881685F
:100D700011F0010F22D0ACE000E004E003F0F0FD40
:100D8000C0F384618DE7C0F3846091E703F0E8FD70
:100D9000C0F38461A2E7C0F38460A6E703F0E0FD3E
:100DA000C0F38461B7E7C0F38460BBE703F0D8FD0C
:100DB000C0F38461CCE7C0F38460D0E72A7B296864
:100DC00050F8B03FC1F3120C23EA0C0302F0180CE8
:100DD000664A22FA0CF20A4013430360E968494567
:100DE00077D1286841031CD090FAA0F1B1FA81F1C3
:100DF000491C01F01F0109294FEA403132D800296E
:100E000012D000BF90FAA0F1B1FA81F101F1010115
:100E100001F01F0106FA01F609D100BFC0F3846199
:100E200009E0C0F38461E3E7C0F38461EEE790FA80
:100E3000A0F1B1FA81F101F1010101F01F0146EACF
:100E4000816102D1C0F3846003E090FAA0F0B0FAAF
:100E500080F000F1010000F01F0000EB400041EACB
:100E6000005132E000290ED090FAA0F1B1FA81F1E0
:100E700001F1010101F01F0106FA01F606D100BFE0
:100E8000C0F3846106E0C0F38461F1E790FAA0F159
:100E9000B1FA81F101F1010101F01F0146EA81611E
:100EA00002D1C0F3846003E090FAA0F0B0FA80F0C1
:100EB00000F1010000F01F002D4A00EB400002EBA2
:100EC000005041EA000141F00071AA68206803F077
:100ED0005DFD28482A6802423FF466AE26488168D4
:100EE000264B01F0E0719A4202D0254B9A421CD168
:100EF0000B021AD42268B2F1A04F7FF455AE82687B
:100F000041F4000122F0E0720A4382601D481E494C
:100F10000068B0FBF1F0401C00EB4000800000E0F6
:100F2000401E00900028FBD13EE6184D184BAA4207
:100F300007D1CD0105D422689A42F5D041F08071E5
:100F400009E0144DAA42EFD14A02EDD422689A4238
:100F5000EAD041F48001826822F0E0720A438260A4
:100F600022E6000000007F4000F0FF03FFFF0700C3
:100F7000000020FE0000088000030050000021C394
:100F80001000C09074000020400D0300000052C704
:100F900000010050000084CB0068006C7047000026
:100FA000F8B54FF0000504002E46009502D0E06D24
:100FB00010B107E00120F8BD204600F0EBF82666EE
:100FC00084F8586020688168C1F3407119B1816864
:100FD000684A1140816020688168C1F3007189B955
:100FE0008168654A114041F08051816063486449DD
:100FF0000068B0FBF1F04000801C00E0401E009053
:101000000028FBD120688168C1F3007141B9E16D0E
:1010100041F01001E165216E41F0010121660125D9
:1010200003F0A8FCE16DC90600D430B1E06D40F0DA
:101030001000E06501252846F8BDE06D20F48070C1
:1010400040F00200E0652068806810F0010F11D1C7
:101050004FF0A04080684B4900F00100896801F022
:101060000101084306D148486168826822F47C1275
:101070000A438260E168E06B627F0843A16841EA4D
:101080004231084394F8241040EA0140012904D178
:10109000218D3E4A02EB41410843E16A29B101F446
:1010A0007871226B014342EA01002268D168384B13
:1010B00019400143D16020680169626B21F04061F1
:1010C00011430161206803F051FC70BB207F94F84C
:1010D0003810800340EA41022168C86844F20203E4
:1010E00098431043C86020690028206801690AD02D
:1010F00041F480310161206850F8C01F22696FF30C
:101100000D01114307E021F480310161206850F89E
:10111000C01F6FF30D01016094F8400001280CD04E
:101120002068016921F001010161606901282068DE
:10113000016B21F00F0111D013E0D4E91101084334
:10114000D4E913121143084321680A6940F2FC7381
:101150009A43104340F001000861E6E7226A521EFC
:1011600011430163E06D20F0020040F00100E065F2
:1011700061E70000C0FFFF5FC0FFFF7F7400002039
:10118000400D030000010050000300500000FEFF6E
:101190000740F0FF10B598B00446142111A8FFF7DE
:1011A00071F844216846FFF76DF8154920688842B8
:1011B00023D1C401400500940F90684600F0ECFB79
:1011C00008B1FFF769FC0F48C16C41F40051C164DC
:1011D000C16C01F400511691C16C41F00201C1646F
:1011E000C06C11A900F0020016900320CDE9114057
:1011F00000201390044800F0A3F918B010BD0000BF
:101200000001005000100240000400482DE9F041A8
:1012100004463B480F46816801F01F05A169082973
:101220000FD085B1052D0ED0092D0CD0806800F4AB
:10123000604060B1E06D40F02000E0650120BDE855
:10124000F081082604E02068C068C007F1E70426A2
:1012500000F0A4FA804615E0781C13D000F09EFA46
:10126000A0EB0800B84200D867B920680068304297
:1012700008D1E06D40F00400E065002084F85800DB
:101280000320DCE7206800683042E5D0E06D40F4E0
:101290000070E065206803F071FB80B1607F70B979
:1012A0002068006800070AD5E06D20F48070E065D2
:1012B000E06DC00403D4E06D40F00100E065114A28
:1012C00020684FF0A041904201D10B4600E0034658
:1012D000834210D07DB1052D0DD0092D0BD0904249
:1012E00000D00146C968082E07D0490401D40C215A
:1012F00001600020A3E7C168F5E70821F8E70000D6
:1013000000030050000100502DE9F0410446384828
:10131000806800F01F05206803F02CFB18B1022143
:101320000846BDE8F08194F8580001280CD001204F
:1013300084F858002046FFF73BFB01004FF0000304
:1013400004D084F85830EBE70220EAE7E06D40F67D
:101350000162904340F48070E065264A20684FF0B7
:10136000A046904201D1374600E00746874200D0B0
:101370001DB9E76D27F48017E765E76DFF0404D515
:10138000276E27F00607276600E023661C27076004
:1013900084F858302068904201D1334600E003467B
:1013A000834215D0A5B1052D12D0092D10D0E36DC3
:1013B00043F48013E365904200D13046C068800159
:1013C000AED5E06D20F4005040F48050E065A7E712
:1013D000C268920105D5E26D22F4005242F48052B7
:1013E000E2658268044B1A40121D826098E7000093
:1013F0000003005000010050C0FFFF7F10B50446FD
:1014000090F85800012808D0012084F858000321E2
:101410002046FFF723FA10B10BE0022010BD204652
:10142000FFF78EFA28B9E16D21F4885141F00101EE
:10143000E165002184F8581010BD10B590F82530F2
:1014400000210122022B03D00421C163012122E0EB
:1014500003681C6824F00E041C60836C1C6824F470
:1014600080741C6003681C6824F001041C6090F800
:101470004430046C03F01F0302FA03F36360D0E905
:1014800013345C60436D33B11C6824F480741C60B9
:10149000D0E916345C6080F82520002280F82420F2
:1014A000084610BD70B590F8252000240121234680
:1014B000022A07D00422C26380F8251080F8243065
:1014C000012429E00268156825F00E051560026800
:1014D000156825F001051560826C156825F4807586
:1014E000156090F84420056C02F01F0201FA02F228
:1014F0006A60D0E913255560426D32B1156825F454
:1015000080751560D0E91625556080F8251080F8A3
:101510002430816B01B18847204670BD70B5044608
:1015200000F03CF90546601C02D0044840680444C1
:1015300000F034F9401BA042FAD370BD68000020CF
:101540002DE9F04FDFF82092002301260324A9F1B2
:10155000040B85B00F2709F1040AABF1040EFAE081
:1015600006FA03F52A407CD091F804C00CF0030C75
:10157000BCF1010F02D0BCF1020F26D1D0F808C097
:10158000CDF800C04FEA430C04FA0CF8CDF810C0B7
:10159000DDF800C02CEA080CCDF800C0D1F80C80B2
:1015A000DDF810C008FA0CF8DDF800C048EA0C08B5
:1015B000C0F80880D0F804C02CEA050C0D79C5F3FA
:1015C00000159D4045EA0C0545600D79ED43AD07DA
:1015D0000ED0C5684FEA430804FA08FC25EA0C055A
:1015E000D1F808C00CFA08FC4CEA050CC0F80CC095
:1015F0000D7905F00305022D16D1DD0800EB850CF1
:10160000CDF808C0DCF820805D074FEAD56C07FAFA
:101610000CF528EA05080D6905FA0CF5DDF808C097
:1016200045EA0805CCF8205005684FEA430CCDF890
:1016300008C004FA0CFC25EA0C0591F804C00CF073
:101640000308DDF808C008FA0CF848EA0508C0F8F5
:1016500000804D6815F4403F7CD0444DD5F860C003
:1016600000E077E04CF0010CC5F860C02D6E23F06F
:10167000030C05F0010500953D4D65440295AD68EC
:101680004FEA837C4FEA1C7807FA08FC25EA0C0530
:10169000B0F1904F06D0DFF8DCC0604505D14FF0C7
:1016A000010C20E04FF0000C1DE0DFF8CCC06045DD
:1016B00002D14FF0020C16E0DFF8C0C0604502D145
:1016C0004FF0030C0FE0DFF8B8C0604502D14FF0D7
:1016D000040C08E0DFF8ACC0604502D14FF0050C07
:1016E00001E04FF0060C0CFA08FC4CEA050C029DD8
:1016F000C5F808C0D9F80050CC46D1F8048095430D
:101700005FEAC82800D51543CCF80050DAF800503D
:10171000D446D1F8048095435FEA882800D5154364
:10172000CCF80050DBF80050DC46D1F8048095433B
:101730005FEA883800D51543CCF80050DEF8005039
:10174000F446D1F8048095435FEAC83800D51543C4
:10175000CCF800505B1C0A6832FA03F57FF400AF46
:1017600005B0BDE8F08F0000080401400010024001
:10177000000001400004004800080048000C004838
:1017800000100048001400480069084000D0012003
:1017900070470AB181617047816270470148806873
:1017A00070470000680000200248816842681144C8
:1017B000816070476800002010B50024032000F00D
:1017C00073F80F2000F008F808B1012401E000F0E0
:1017D00025F8204610BD000070B50E4E05460024C9
:1017E000706898B14FF47A71B1FBF0F00A4909685A
:1017F000B1FBF0F000F0F8FE40B9102D06D2002247
:101800002946501E00F030F8356000E001242046E3
:1018100070BD000068000020740000200A4882B0FB
:10182000016E41F001010166016E01F001010091BC
:10183000816D41F080518165806D00F08050009095
:1018400002B000F0A1B8000000100240002809DB3F
:1018500000F01F02012191404009800000F1E020CA
:10186000C0F8001170470000F0B40E4B1B680C4626
:10187000C3F30223C3F10705042D00D90425191D64
:10188000072901D2002300E0DB1E012606FA05F13C
:10189000491E214099409E40761E16403143F0BCBF
:1018A00004F0D0BF0CED00E0064900F00702086824
:1018B0004FF6FF03184040EA0220034A1043086035
:1018C000704700000CED00E00000FA052B492C4B9E
:1018D0000A6832214A432B4940B1B0F5007F0868BD
:1018E00029D020F4C06040F480602CE00868C0F388
:1018F0004120022804D051F8800F20F4807022E0AB
:10190000D1F8800020F48070C1F88000086820F4CD
:10191000C06040F400700860B2FBF3F0401C00E0CF
:10192000401E4A69520501D50028F9D14869400591
:101930000AD503207047C0F34120022806D051F891
:10194000800F40F48070086000207047D1F880005C
:1019500040F48070C1F88000086820F4C06040F452
:1019600000700860B2FBF3F0401C00E0401E4A69C2
:101970005205DBD50028F9D1D8E70000740000201B
:1019800040420F00007000400248816841F48041ED
:1019900081607047007000402DE9F84304460068FC
:1019A00000269D4D00035ED5A86D0027C00008D419
:1019B000A86D40F08050A865A86D012700F0805008
:1019C0000090DFF85892D9F8001041F48071C9F8FE
:1019D0000010FFF7E3FE804606E000BFFFF7DEFEE3
:1019E000A0EB080002282BD8D9F80000C005F5D5D7
:1019F000D5F8900010F4407014D0216C814211D0C1
:101A0000D5F89000D5F8901020F4407041F4803162
:101A1000C5F89010D5F8901021F48031C5F89010D9
:101A2000C5F89000C00711D0FFF7B8FE804641F21C
:101A3000883907E0FFF7B2FEA0EB0801494501D95C
:101A400003260BE0D5F890008007F3D5D5F8900079
:101A5000216C20F440700843C5F890001FB1A86DB8
:101A600020F08050A8652078C00707D0D5F88800FE
:101A7000616820F003000843C5F8880020788007DB
:101A800007D5D5F88800A16820F00C000843C5F8F8
:101A900088002078400707D5D5F88800E16820F055
:101AA00030000843C5F888002078000707D5D5F82E
:101AB0008800216920F0C0000843C5F8880020781C
:101AC000800607D5D5F88800616920F44060084396
:101AD000C5F888002078400607D5D5F88800A169A8
:101AE00020F440500843C5F888002078000607D548
:101AF000D5F88800E16920F440400843C5F8880023
:101B00002088C00507D5D5F88800216A20F4403028
:101B10000843C5F888002088800507D5D5F88800D7
:101B2000616A20F440200843C5F8880020884005F9
:101B30000FD5D5F88800A16A20F440100843C5F8F5
:101B40008800A06AB0F5801F03D1E86840F48010D7
:101B5000E860208800050FD5D5F88800E16A20F4F8
:101B600040000843C5F88800E06AB0F5800F03D153
:101B7000E86840F48010E8602088C0040FD5D5F8EC
:101B80008800216B20F040700843C5F88800206B66
:101B9000B0F1807F03D1E86840F48010E8602088CD
:101BA0004FF0006180040ED5D5F88800626B20F0FC
:101BB00040601043C5F88800606B884203D1E86834
:101BC00040F48010E860208840040ED5D5F88800E5
:101BD000A26B20F040601043C5F88800A06B8842DB
:101BE00003D1E86840F48010E860208800040FD535
:101BF000D5F88800E16B20F040500843C5F8880014
:101C0000E06BB0F1805F03D1E86840F48030E860B9
:101C10003046BDE8F883000000100240007000402C
:101C20002DE9F0470E4605004FF0000725D0DFF8FC
:101C3000AC81D8F8000000F00F00B0420CD2D8F808
:101C4000001021F00F013143C8F80010D8F800004F
:101C500000F00F00B04210D12968614CC80741F272
:101C6000883A5AD06868DFF87C91032808D00228A7
:101C700020682DD0400500282CDB0120BDE8F0872E
:101C800020688001F9D5E06800F00302E068C0F345
:101C90000310401C032A19D0534A00BFB2FBF0F0D6
:101CA000E268C2F306225043E268C2F34162521C6A
:101CB0005200B0FBF2F0484517D9A06810F0F00FC1
:101CC0000CD0880711D5A86840B10EE0474AE5E777
:101CD0008003D0E700F0B6F8484506D9A06820F0A8
:101CE000F00040F08000A0608027A068696820F0C4
:101CF00003000843A060FFF751FD814606E000BFE6
:101D0000FFF74CFDA0EB090151453AD8A06869687E
:101D100000F00C00B0EB810FF2D12868810714D5D8
:101D2000400703D5A06840F4E060A0602878000771
:101D300005D5A06820F4605040F4E060A060A06881
:101D4000A96820F0F000084304E0802F03D1A068C8
:101D500020F0F000A060D8F80010404601F00F011C
:101D6000B14216D9016821F00F0131430160FFF73C
:101D700015FD074607E000BFFFF710FDC11B5145E9
:101D800001D903207AE7D8F8000000F00F00B04234
:101D9000F2D12878400705D5A068E96820F4E06012
:101DA0000843A0602878000706D5A068296920F4B8
:101DB000605040EAC100A06000F044F8A1680C4AFD
:101DC000C1F30311515C01F01F01C84009490860CB
:101DD00009480068BDE8F047FFF7FEBC002002405C
:101DE0000010024000B4C4040024F40000366E0168
:101DF000D8760008740000206800002005480649D5
:101E000000688968054AC1F30221515C01F01F0195
:101E1000C84070477400002000100240E8760008B7
:101E20000548064900688968054AC1F3C221515C2A
:101E300001F01F01C84070477400002000100240EC
:101E4000E8760008184910B58868C0F38102174881
:101E5000012A0BD08A68164BC2F38102022A06D0EF
:101E60008A68C2F38102032A03D0002010BD1846FD
:101E700010BDCA6802F00304CA68C2F30312521C00
:101E8000032C02D0B0FBF2F001E0B3FBF2F0CA6821
:101E9000C968C2F306225043C1F34161491C49009D
:101EA000B0FBF1F010BD0000001002400024F4006F
:101EB00000366E012DE9F84304007AD02078F84D01
:101EC000C00747D0A868E96800F00C0001F00301E2
:101ED0000C2802D0082817D001E0032914D060682C
:101EE000B0F5803F17D0B0F5A02F286817D020F4A8
:101EF00080302860286820F4802028606068E0B185
:101F0000FFF74CFC064614E02868800322D5606881
:101F10000028D2D01EE0286840F48030EDE740F47D
:101F200080202860F7E700BFFFF738FC801B64289B
:101F300070D828688003F7D50CE0FFF72FFC064621
:101F400005E000BFFFF72AFC801B6428F0D8286852
:101F50008003F7D4207880074CD5A868E96800F0A2
:101F60000C0001F003010C2802D004280DD001E080
:101F700002290AD0E068002828682BD040F480703D
:101F80002860FFF70BFC064619E02868400502D5DB
:101F9000E068002891D06868217C20F0FE4040EA8B
:101FA00001606860BF480068FFF716FC002800D198
:101FB00020E072E1FFF7F2FB801B0228B8D8286806
:101FC0004005F7D56868217C20F0FE4040EA0160BA
:101FD00068600FE020F480702860FFF7DFFB0646A2
:101FE00005E000BFFFF7DAFB801B0228A0D82868B5
:101FF0004005F7D42078000729D560690028D5F876
:10200000940013D040F00100C5F89400FFF7C6FB20
:10201000064606E090E000BFFFF7C0FB801B0228E9
:1020200086D8D5F894008007F6D510E020F001009E
:10203000C5F89400FFF7B2FB064604E0FFF7AEFBDD
:10204000801B022878D8D5F894008007F6D4207831
:10205000400761D5A86D0026C00008D4A86D40F0E7
:102060008050A865A86D012600F0805000908E4831
:102070000168C90511D40168804641F4807101608E
:10208000FFF78CFB074604E0FFF788FBC01B022824
:1020900052D8D8F80000C005F6D5A068012815D0A0
:1020A0000528D5F8900016D020F00100C5F8900062
:1020B000D5F8900020F00400C5F89000A06841F227
:1020C0008838B8B1FFF76AFB07460EE0D5F89000F4
:1020D00040F00100F0E740F00400C5F89000F5E79B
:1020E000FFF75CFBC11B414526D8D5F8900080075F
:1020F000F6D50CE0FFF752FB074604E0FFF74EFB76
:10210000C11B414518D8D5F890008007F6D41EB100
:10211000A86D20F08050A8652078800629D5A06998
:102120000028D5F8980013D040F00100C5F89800B9
:10213000FFF734FB064606E075E000BFFFF72EFB15
:10214000801B02286FD8D5F898008007F6D510E0DC
:1021500020F00100C5F89800FFF720FB064604E0D8
:10216000FFF71CFB801B02285DD8D5F8980080077C
:10217000F6D4E069F0B3A968C1F3810103295DD009
:102180000228286820F08070286003D0FFF706FB43
:1021900004464BE0FFF702FB064604E0FFF7FEFAB9
:1021A000801B02283FD828688001F7D4F4E9080191
:1021B0006FF00F0202EB01110843218A5204490813
:1021C00002EB4151A26841EA02210843217D4FF010
:1021D0007E42490802EB41610843217B40EAC1602D
:1021E000E968324A11400843E860286840F080708E
:1021F000286000E05EE0E86840F08070E860FFF78B
:10220000CDFA044605E000BFFFF7C8FA001B02281C
:1022100009D828688001F7D54CE000BFFFF7BEFA67
:10222000001B022802D90320BDE8F883286880013A
:10223000F4D4E8681E490840E8603BE00128F3D088
:10224000E868226A00F00301914226D1616A00F039
:10225000F0020901103991421FD1A26A00F4FE4137
:10226000B1EB022F19D194F82C2000F07841B1EB9A
:10227000C26F12D1218E00F4C00249084905A1F5B0
:102280000011914209D194F8341000F0C06049085F
:102290004906A1F1007181420CD00120C4E7000081
:1022A0000010024068000020007000400C809F0178
:1022B000FCFFEEFE0020B7E710B500680B46416852
:1022C0000D480140080CD870C1F304245C7001F083
:1022D0003F049C70C1F34231197052B903F060F8A9
:1022E000D870587803F05CF85870987803F058F874
:1022F0009870002010BD00003FFFFF0010B50B4696
:1023000001688968596001680969C1F30E01996023
:10231000006801680D480140C1F305401870C1F321
:1023200006245C7001F07F049C70890DD97052B94D
:1023300003F036F81870587803F032F8587098782F
:1023400003F02EF89870002010BD00007F7F7F0002
:1023500070B504004FF0010040D094F8250028B972
:10236000002084F82400204600F040F8022084F881
:1023700025002068C168C943C90630D5CA21416219
:10238000216853204862204603F020F810BB2068E3
:102390008169154A11408161216888696268A36971
:1023A000104322691A43104388612189E06840EA9A
:1023B000014021680861204603F02DF850B9D4E9A6
:1023C0000721114322686369956925F060452B4315
:1023D000194391612268FF21516208B170BD00204C
:1023E000012184F8251070BDBFFF8FFB10B592B09E
:1023F000044644216846FDF745FF1049206888429D
:102400001AD14FF4002000904FF4407010906846AD
:10241000FFF7C2FA08B1FEF73FFB094850F8901FDA
:1024200041F4004140F83819016841F480610160CD
:10243000006800F48060119012B010BD00280040C8
:102440000010024070B5044690F824000B460128A5
:102450001BD0012684F82460022084F82500B2B144
:102460009878D97840EA014558781978000240EA0E
:10247000413005432168CA204862216853204862E0
:10248000204602F0A3FFD0B120E0022070BD5878B2
:10249000C10603D500F0EF000A305870D87802F07A
:1024A00088FF0504587802F084FF45EA00259878F3
:1024B00002F07FFF0543187845EA4035DAE708481F
:1024C000054020684560204602F0A5FF2268FF21F4
:1024D000516208B984F82560002184F8241070BD89
:1024E0003FFFFF002DE9F041044690F8240090469C
:1024F0000D46012811D0012784F82470022084F8A9
:1025000025002168CA20486221685320486220467D
:1025100002F05CFF002618B129E00220BDE8F0813E
:102520002068B8F1000F80694FEA406024D000288D
:1025300000DBEE70A8782978EA7840EA01406978F3
:10254000090241EA8251084318490840216808609D
:102550002068816921F480218161D5E90301084364
:1025600021688A6910438861204602F054FF22687E
:10257000FF215162A0B115E0002800DBEE70287841
:1025800002F017FF0304687802F013FF43EA002308
:10259000A87802F00EFF0343E87843EA8050D3E7BF
:1025A00084F8257084F82460B8E700007F7F7F00FE
:1025B00070B504460B482168C860FFF7EFF8054680
:1025C0004FF47A7607E000BFFFF7E8F8401BB0420F
:1025D00001D9032070BD2068C0688006F4D50020B2
:1025E00070BD00005F00010010B5401EB0F1807F9B
:1025F00001D3012010BD4FF0E02460610F2160176E
:1026000004F020F90020A06107202061002010BD07
:10261000704770477047000030B590F83C20012AA1
:1026200042D0012280F83C20CA688B6822F44072B4
:102630001A434B6822F480621A430B6822F400624A
:102640001A430B6922F480521A434B6922F4005258
:102650001A430B6B22F480421A430B8B22F4702234
:1026600042EA0342CB6922F080521A430F4D0368BD
:102670000024AB4202D00E4DAB4210D10D8D22F49E
:10268000700242EA05520D6A22F080722A434D6AB6
:1026900022F000722A43C96A22F000520A435A64A7
:1026A00080F83C40002030BD022030BD002C0140AD
:1026B000003401407047704770470000F0B590F853
:1026C0003C20012A3AD0012580F83C50022280F8B3
:1026D0003D2003685A689C68194E1A4FB34201D0D6
:1026E000BB4204D122F4700C4A6842EA0C02DFF8C3
:1026F00058C002EA0C02D1F800C04CEA020CC3F840
:1027000004C00268B2420DD0B2F1804F0AD00F4B24
:102710009A4207D00E4B9A4204D0BA4202D00D4BD7
:102720009A4204D1896824F080031943916080F8AB
:102730003D50002180F83C100846F0BD0220F0BD5D
:10274000002C0140003401408FFFFFFD00040040D9
:102750000008004000400140704710B5040003D05D
:1027600094F83D0010B107E0012010BD002084F86E
:102770003C00204600F022F8022084F83D00211D94
:10278000206802F0F7FF012084F8480084F83E003A
:1027900084F83F0084F8400084F8410084F8420047
:1027A00084F8430084F8440084F8450084F8460027
:1027B00084F8470084F83D00002010BD10B586B0B5
:1027C000044614216846FDF75DFD21684B48B1F1D0
:1027D000804F15D04A4A914236D1816D41F00201B5
:1027E0008165806D002200F00200059011461D20D9
:1027F000FFF73AF85FF01D00FFF728F806B010BDAC
:10280000816D41F001018165816D01F0010105914A
:10281000C16C41F00101C164C06C694600F0010067
:10282000059002200090019000200290039001206A
:1028300004904FF09040FEF783FE002211461C20CA
:10284000FFF712F81C20D7E72E4A91420ED1816D76
:1028500041F004018165806D002200F004000590C4
:1028600011461E20FFF700F81E20C5E7264A9142B8
:102870000ED1816D41F010018165806D002200F064
:102880001000059011463620FEF7EEFF3620B3E724
:102890001E4A91420ED1016E41F480310166006EF4
:1028A000002200F48030059011461820FEF7DCFF6E
:1028B0001820A1E7164A91420ED1016E41F4003171
:1028C0000166006E002200F40030059011461920C8
:1028D000FEF7CAFF19208FE70E4A91428ED1016E92
:1028E00041F480210166006E002200F480200590F2
:1028F00011461A20FEF7B8FF1A207DE700100240AB
:10290000000400400008004000100040004001406A
:10291000004401400048014090F83D10012901D0D9
:1029200001207047022180F83D100168CA6842F01A
:102930000102CA600068104988420ED0B0F1804F91
:102940000BD00E49884208D00D49884205D00D4968
:10295000884202D00C49884207D181680B4A114055
:10296000062906D0B1F5803F03D0016841F001018E
:102970000160002070470000002C0140000400406E
:102980000008004000340140004001400700010001
:1029900070B5044690F83C000025012814D00126AB
:1029A00084F83C60022084F83D0022689068364B31
:1029B000184020F47F409060086870282ED010DC0A
:1029C00010F00F0F03D021E04FF0020070BD4FEA6E
:1029D0002012072A1AD2DFE802F0525252524A3825
:1029E00040002A4BC21A984249D009DCB0F5805FFA
:1029F0000DD0B0F5005F1CD0B0F1101F06D13EE045
:102A0000102A3CD0202A3AD0502A38D0012584F808
:102A10003D60002084F83C00284670BDCB68D1E9B9
:102A20000121206802F011FF2068816841F07701E0
:102A300009E0CB68D1E90121206802F006FF206897
:102A4000816841F480418160E1E7CA684968206893
:102A500003F0A6F85021206806E0CA68496820689B
:102A600003F0E6F86021206802F0FAFECFE7CA68BA
:102A70004968206803F094F840212068F4E7226850
:102A800001461046F0E7000088FFCEFF200010004E
:102A900090F83C20012A0CD0012200F83C2F0223A0
:102AA000437050F83C3C5961427000210170084667
:102AB000704702207047000008B50168B1F1804FEF
:102AC0000FD00E4A91420BD1017F012908D10C4948
:102AD0000091A1F11803A1F108020C3902F096FA55
:102AE00008BD017F0129FBD10549091FA1F116038A
:102AF000A1F10C0200911039F0E700000004004041
:102B0000F80000202DE9F041054690F83C00002631
:102B10000C46012810D0012085F83C0072B1042A2F
:102B20001CD0082A2CD00C2A50D00126002085F871
:102B30003C003046BDE8F0810220FBE7D4E90012FA
:102B4000E368286803F03EF82868816921F00C01E9
:102B5000816128688169A26811430FE0D4E90012FD
:102B6000E368286803F076F82868816921F44061F9
:102B7000816128688169A26841EA02218161D5E703
:102B80002868D4E9002C277B036A016A21F480714C
:102B90000162C16923F4206321F0030141EA0C01C1
:102BA00021F0F00C39074FF420674CEA116107EA75
:102BB00002221A43C16102622868C16921F00C0136
:102BC000C1612868C169A26811432BE02868D4E973
:102BD0000021E768036AD0F820C02CF4805CC0F8BC
:102BE00020C0D0F81CC023F420432CF4407C4CEAD5
:102BF000012121F4704C4FF6FF7101EA07314FF4C7
:102C0000204741EA0C0107EA02321A43C16102621D
:102C10002868C16921F44061C1612868C169A2685E
:102C200041EA0221C16181E710B5040003D094F8A4
:102C30003D0010B107E0012010BD002084F83C00E9
:102C4000204600F022F8022084F83D00211D206873
:102C500002F090FD012084F8480084F83E0084F8DA
:102C60003F0084F8400084F8410084F8420084F872
:102C7000430084F8440084F8450084F8460084F852
:102C8000470084F83D00002010BD704710B5044691
:102C900079B1042912D0082915D00C2918D010298F
:102CA00019D094F8430000BF94F84720012817D1A9
:102CB00014E094F83E0094F84420F7E794F83F00BD
:102CC00094F84520F2E794F8400094F84620EDE7A8
:102CD00094F84100E8E794F84200E5E7012A01D0C2
:102CE000012010BD022081B3042934D0082937D037
:102CF0000C293AD010293BD084F8430084F84700CF
:102D00000122206802F094FD1B49206888420ED001
:102D1000B0F1804F0BD01949884208D01849884239
:102D200005D01849884202D01749884207D18168E6
:102D3000164A1140062906D0B1F5803F03D001683C
:102D400041F001010160002010BDFFE784F83E0062
:102D500084F84400D4E784F83F0084F84500CFE7C6
:102D600084F8400084F84600CAE784F84100C5E7CB
:102D700084F84200C2E70000002C0140000400403B
:102D800000080040003401400040014007000100FD
:102D900030B50446002571B1042911D0082914D09A
:102DA0000C2917D0102918D094F8430094F8472024
:102DB000012817D114E094F83E0094F84420F7E776
:102DC00094F83F0094F84520F2E794F8400094F816
:102DD0004620EDE794F84100E8E794F84200E5E783
:102DE000012A01D0012030BD022079B1042916D07A
:102DF00008291DD00C2949D010294AD084F8430055
:102E000084F847000C2947D001253DE084F83E00B6
:102E100084F844002068C26842F0020210E084F89E
:102E20003F0084F845002068C26842F0040207E0D1
:102E300084F8400084F846002068C26842F0080226
:102E4000C2600122206802F0F3FC16492068884223
:102E50000ED0B0F1804F0BD01349884208D01349EF
:102E6000884205D01249884202D01249884207D1CF
:102E70008168114A1140062906D0B1F5803F03D080
:102E8000016841F001010160284630BD84F841002D
:102E9000B6E784F84200B3E72068C26842F0100247
:102EA000CEE70000002C0140000400400008004074
:102EB0000034014000400140070001002DE9F041CD
:102EC00004460068C66805694FF00007A90713D5D6
:102ED000B10711D5F91E01610120207720688069B2
:102EE0008007204602D0FFF7E7FD04E000F0E0F89D
:102EF000204600F0A2F92777680716D5700714D589
:102F000021686FF004000861022020772068806942
:102F100010F4407F204602D0FFF7CEFD04E000F021
:102F2000C7F8204600F089F92777280715D530071C
:102F300013D521686FF0080008610420207720680D
:102F4000C0698007204602D0FFF7B6FD04E000F01C
:102F5000AFF8204600F071F92777E80616D5F0069D
:102F600014D521686FF010000861082020772068D0
:102F7000C06910F4407F204602D0FFF79DFD04E0B9
:102F800000F096F8204600F058F92777E80708D0B7
:102F9000F00706D021686FF001000861204600F0BC
:102FA000CBF9280601D4A80408D5300606D5216837
:102FB0006FF4025008612046FFF72BFBE80508D5A7
:102FC000300606D521686FF4807008612046FFF74F
:102FD0001FFB680608D5700606D521686FF0400013
:102FE0000861204600F0AFFAA80608D5B00606D55D
:102FF00021686FF0200008612046FFF70BFBE80214
:1030000008D5F00206D521686FF4801008612046CB
:10301000FFF751FBA80208D5B00206D521686FF46E
:10302000001008612046FFF745FB680208D57002D2
:1030300006D521686FF4800008612046FFF73CFB4D
:1030400028020AD5300208D521686FF40000086113
:103050002046BDE8F041FFF77FBBBDE8F0810000EE
:1030600010B586B0044614216846FDF70BF90E49E9
:103070002068884216D10D48C16C41F00101C1643D
:10308000C06C694600F0010005908020009002208D
:103090000190002002900390012004904FF0904096
:1030A000FEF74EFA06B010BD004801400010024085
:1030B000704770B5044690F83C0000260D46012884
:1030C0000BD0012084F83C000C2A4AD007DC82B1E6
:1030D000042A20D0082A06D131E0022070BD102A2F
:1030E00053D0142A63D00126002084F83C003046D7
:1030F00070BD206802F0BEFB2068816941F00801C4
:1031000081612068816921F0040181612068816901
:103110002A69114311E0206802F0FAFB20688169F6
:1031200041F4006181612068816921F480618161DD
:10313000206881692A6941EA02218161D4E7206817
:1031400002F02EFC2068C16941F00801C1612068CD
:10315000C16921F00401C1612068C1692A69114374
:1031600011E0206802F064FC2068C16941F400614C
:10317000C1612068C16921F48061C1612068C169B1
:103180002A6941EA0221C161AEE7206802F098FC99
:103190002068016D41F0080101652068016D21F092
:1031A000040101652068016D2A69114311E020685E
:1031B00002F0BEFC2068016D41F4006101652068E9
:1031C000016D21F4806101652068016D2A6941EA81
:1031D0000221016588E710B5040003D094F83D0092
:1031E00010B107E0012010BD002084F83C0020460B
:1031F00000F022F8022084F83D00211D206802F032
:10320000B9FA012084F8480084F83E0084F83F00B1
:1032100084F8400084F8410084F8420084F84300B8
:1032200084F8440084F8450084F8460084F8470098
:1032300084F83D00002010BD7047704730B504464B
:10324000022269B1042912D0082917D00C291CD0F8
:10325000102921D094F84300012824D0012030BD4A
:1032600094F83E000128F9D184F83E201DE094F83E
:103270003F000128F2D184F83F2016E094F8400086
:103280000128EBD184F840200FE094F84100012898
:10329000E4D184F8412008E094F842000128DDD10F
:1032A00084F8422001E084F843200122206802F0E3
:1032B000BFFA194B20681949194A984209D0884227
:1032C00007D0904205D0174DA84202D0164DA84213
:1032D00003D1456C45F400454564206898420CD004
:1032E000B0F1804F09D0114B984206D0104B984254
:1032F00003D0884201D0904207D181680D4A114025
:10330000062906D0B1F5803F03D0016841F00101E4
:103310000160002030BD0000002C0140003401405D
:1033200000400140004401400048014000040040CA
:1033300000080040070001002DE9FC5F0646006818
:103340007049002401254FF0020A884254D16E4F83
:1033500001213846FEF718FA8DF8000002213846A0
:10336000FEF712FA8DF8010004213846FEF70CFA38
:103370008DF8020001214FF09040FEF705FA634BF3
:103380008DF80300A3F108000021EC46A3F1040B23
:1033900003F1040900F11C021CF801705F54002FB6
:1033A000475C15D0022F5FD019F801700FB31BF8DE
:1033B000018008F1010808F0FF080BF80180B8F15E
:1033C000140F16D3514F08377D5409F8014010E00F
:1033D00027B1012F06D0022F06D00AE0455422F86B
:1033E000114006E000F801A032F811707F1C22F8AD
:1033F0001170491C0429CFDB45493068884262D1ED
:1034000044480178684604F045F9404E00202C36C7
:1034100006F10802404B6F46A6F10809A2F1180117
:1034200017F800C006F800C0BCF1000F11F800C08A
:1034300030D0BCF1020F48D012F800C0BCF1000F30
:103440003ED019F8008008F1010808F0FF0809F8DB
:103450000080B8F1140F33D3DFF8B0C00CF13C0C8E
:103460000CF8005014542BE032F81170FA2F0ED2E1
:1034700019F8017097F0010709F8017002D00BF8F4
:10348000014002E0214F0C377D544454B1E71F4FF7
:103490001037F9E7BCF1000F06D0BCF1010F07D0DF
:1034A000BCF1020F06D00BE00D5423F8104007E0EA
:1034B00001F800A033F810C00CF1010C23F810C083
:1034C000401C0828ACDBBDE8FC9F33F810C0BCF101
:1034D000FA0F11D212F800C09CF0010C02F800C0E3
:1034E00002D009F8004005E0DFF820C00CF1440CE0
:1034F0000CF800500C54E3E7DFF810C00CF14C0C52
:10350000F6E70000000800400004004886000020A4
:103510000010004003000020700A00200246002036
:1035200041B1042909D008290AD00C2901D1106819
:10353000006C70471068406B70471068806B704774
:103540001068C06B7047704790F88410012918D03C
:10355000012180F884102421C0F8881001680A68CD
:103560000B6823F001030B6022F000510022426639
:10357000036819602021C0F8881080F88420104664
:103580007047022070477047704770B5044690F846
:10359000840001281DD0012084F884002420C4F870
:1035A000880020680568026822F001020260206835
:1035B000826822F060620A438260204602F066FB65
:1035C000206805602020C4F88800002084F884006A
:1035D00070BD022070BD70B5044690F884000128CB
:1035E0001DD0012084F884002420C4F888002068BD
:1035F0000568026822F0010202602068826822F0F9
:1036000060420A438260204602F040FB2068056069
:103610002020C4F88800002084F8840070BD0220B7
:1036200070BD7047704770472DE9F041036804464C
:10363000D86919689A6840F60F0528424FF00005CE
:103640004FF002060AD187067ED501F0200702F06E
:10365000805C57EA0C0777D0616F3AE1B24FDFF830
:10366000CCC2174001EA0C0C57EA0C0C6CD05FEA94
:10367000C07C0CD05FEAC15C09D54FF0010CC3F8E7
:1036800020C0D4F8903043F00103C4F89030830791
:1036900009D5D30707D023681E62D4F8903043F0D1
:1036A0000403C4F8903043070AD5D30708D026682E
:1036B00004233362D4F8903043F00203C4F890300E
:1036C00003070CD501F020033B4308D026680823EC
:1036D0003362D4F8903043F00803C4F89030030507
:1036E0000BD54B0109D526684FF400633362D4F83B
:1036F000903043F02003C4F89030D4F89030002B81
:103700003DD0800609D501F0200002F08051084329
:1037100003D0616F09B120468847D4F89000216832
:103720008968490602D410F0280F2AD0204602F0FA
:1037300093FB2068806840061ED52068083050E85A
:10374000001F21F0400100E021E040E80012002AC3
:10375000F3D1D4F8800078B175498163D4F8800042
:10376000FDF7A0FE00280AD0D4F88000816B00E0AD
:103770002046BDE8F04108472046FFF754FFBDE86A
:10378000F0812046FFF74FFFC4F89050F7E7D4F8D8
:103790006CC02027BCF1010F7ED15FEAC06C7BD5E5
:1037A0005FEAC16C78D510201862206880684006F6
:1037B00045D5D4F88010086840680004000CDED0BD
:1037C000B4F85C208242DAD9A4F85E000868006888
:1037D00080062CD4216851E8000F20F4807041E865
:1037E0000002002AF6D12068083050E8001F21F0BE
:1037F000010140E80012002AF5D12068083050E8A5
:10380000001F21F0400140E80012002AF5D1C4F861
:103810008C70E566206850E8001F21F0100140E838
:103820000012002AF6D1D4F88000FDF706FE2667C4
:10383000B4F85C00B4F85E10401A81B230E0B4F81D
:103840005C00B4F85E10401A81B2B4F85E00002843
:1038500095D0002993D0226852E8000F20F4907090
:1038600042E80003002BF6D12F4BDB4320680830E1
:1038700050E8002F1A4040E8002CBCF1000FF5D1B1
:10388000C4F88C70E5666567226852E8000F20F086
:10389000100042E8000300E006E0002BF4D12667A8
:1038A0002046FFF770FE6AE7C60209D5560207D523
:1038B0004FF4801018622046BDE8F041FFF7B2BE19
:1038C00003060AD501F0800302F40002134304D07A
:1038D000A16F00297FF44CAF51E7420611D54A068B
:1038E0000FD52046026852E8001F21F0400142E84F
:1038F0000013002BF6D1C0F88870856700F035F909
:103900003DE7020206D54A0004D52046BDE8F04155
:10391000FFF787BEC001C6D50029C4DA2046BDE83E
:10392000F041FFF731BE000001000010200100044B
:10393000455E000810B5040003D0D4F8880010B12B
:1039400007E0012010BD002084F88400204600F02C
:1039500027F82420C4F888002068016821F00101BC
:103960000160A06A10B1204602F0B2F9204602F0D0
:1039700005FD0128E6D02068416821F490414160AE
:103980002068816821F02A0181602068016841F087
:10399000010101602046BDE8104002F0FDB90000C1
:1039A00010B598B00446142111A8FCF76BFC442113
:1039B0006846FCF767FC1B492068884230D101202B
:1039C0000024CDE900046846FDF7E6FF08B1FDF7E5
:1039D00063F81548016E41F480410166016E01F4FF
:1039E00080411691C16C41F00101C164C06C11A904
:1039F00000F0010016904FF4C06011900220CDE954
:103A000012040720CDE914404FF09040FDF798FDD7
:103A1000002211462520FDF727FF2520FDF716FF80
:103A200018B010BD003801400010024030B4D0F88A
:103A30008C30202B02D0022030BC7047A9B1A2B13B
:103A40000023C3660A4C0368A3420BD05B681B02C9
:103A500008D5046854E8003F43F0806344E800352B
:103A6000002DF6D130BC02F0C3BD0120E4E7000018
:103A70000080004030B40E4A0168914215D10D49D2
:103A800000230A781D2A07D20B4C4D78A554521CEE
:103A9000D2B20A70A35402E00B7001220A620549F7
:103AA000012230BC491CFFF7C1BF30BC7047000089
:103AB00000380140DC000020800A00202DE9F84396
:103AC0000446D0F88800984616460D46202802D0B5
:103AD0000220BDE8F883A5B19EB10020C4F8900093
:103AE0002120C4F888001834FDF758FEA6878146C7
:103AF000E68754F8100C2027183CB0F5805F02D000
:103B000003E00120E5E7206910B12E46002510E012
:103B100000260EE08021204602F0F2FDC0B9DEB1A1
:103B200016F8010B21688862B4F85600401EA4F80C
:103B30005600B4F856004B464FF00002CDF8008016
:103B40000028E7D14FF04001204602F0D9FD40B1F6
:103B5000C4F888700320BCE735F8020BC0F30800F6
:103B6000E0E7C4F888700020B3E77047FEE770B55F
:103B70000824002501F04AFD13E06806050E002028
:103B800001F02CFD142003F0C7FA142003F0C4FA4E
:103B9000012001F023FD142003F0BEFA01F02AFDFC
:103BA0000543641EE4B2E8D2002001F017FD1420A2
:103BB00003F0B2FA01F04CFD284670BD10B50020AC
:103BC00001F03AFD142003F0A7FA142003F0A4FA40
:103BD000012001F003FD142003F09EFA002001F003
:103BE000FDFCBDE81040142003F096BA70B5044601
:103BF000082516E001F0F2FC142003F08DFA04F021
:103C0000800001F019FD142003F086FA6006040E0E
:103C1000142003F081FA012001F0E0FC142003F0ED
:103C20007BFA6D1EEDB24FF00000E3D201F0D6FC3E
:103C3000BDE87040142003F06FBA10B5012001F008
:103C4000FBFC142003F068FA142003F065FA01204D
:103C500001F0C4FC142003F05FFA002001F0BEFC68
:103C6000BDE81040142003F057BA10B5012001F050
:103C7000E3FC142003F050FA012001F0AFFC142003
:103C800003F04AFA002001F0D7FC142003F044FAB4
:103C9000002001F0A3FCBDE81040142003F03CBA62
:103CA00010B5002001F09AFC142003F035FA002032
:103CB00001F0C2FC142003F02FFA012001F08EFC69
:103CC000142003F029FA012001F0B6FCBDE81040F1
:103CD000142003F021BA10B5052401F097FC14203C
:103CE00003F01AFA012001F079FC142003F014FA11
:103CF00005E0641EA4B2142003F00EFA6CB101F0CA
:103D000079FC0028F5D101F0A3FC002001F066FC4D
:103D1000142003F001FA002010BD01F099FCFFF718
:103D2000BFFF012010BD70B515460E460446FFF7D3
:103D30009CFFA020FFF75AFFFFF7CDFF3046FFF7AB
:103D400055FFFFF7C8FFFFF790FFA120FFF74EFFD9
:103D5000FFF7C1FF09E0FFF70AFF04F8010B15B1F7
:103D6000FFF72CFF01E0FFF768FF6D1EEDB2F2D206
:103D7000BDE87040FFF794BF70B515460E46044687
:103D8000FFF773FFA020FFF731FFFFF7A4FF3046D6
:103D900002E000BF14F8010BFFF728FFFFF79BFFBD
:103DA0006D1EEDB2F6D2FFF77BFFBDE870404FF419
:103DB000FA7003F0B1B900002DE9F047BB48026882
:103DC000BB494B6AD21A322A72D3026888464A62C9
:103DD000C879DFF8E0A2002600286AD19AF800002E
:103DE000B54C0127D14604F11405012820D198F8DB
:103DF00000104046491CC9B288F80010032900D9B8
:103E0000067088F8017094ED030A84ED010A608958
:103E10002080208A208168892880288A288195ED41
:103E2000030A002085ED010A00F086F989F8006098
:103E3000494699F80100DFF87892012809F16009F4
:103E40000AD198F80020404662B1012A0DD0022A1A
:103E500014D0032A09D04E7088789FED980A012863
:103E600013D078E088F80770F5E74278521CD2B298
:103E70004270032AEFD988F80170ECE7A9F80260D4
:103E8000A9F80060A9F80460E5E798F8002040462A
:103E90003AB18B4B9FED8B1A012A0BD0032A33D0FA
:103EA00058E0027A32B3427B22BB88F80E7051E0B0
:103EB000F9E0F0E098F80100012804D002280DD0C4
:103EC000032818D046E0608942F2107200F57A703B
:103ED00080B2608190423DD962813BE0D4ED030A1B
:103EE00070EE800A10EE900AC4ED030A984231DDAC
:103EF00084ED031A2EE0208A401C00B22082502854
:103F000028DD5020208225E098F801000A220128AF
:103F100004D002280AD0032815D01BE06889401C71
:103F200080B268810A2815D96A8113E0D5ED030AA9
:103F300070EE800A10EE900AC5ED030A984209DD82
:103F400085ED031A06E0288A801C80B228820A28A0
:103F500000D92A828E70C878012863D198F8002091
:103F6000404632B1DFED580A012A09D0032A31D088
:103F700057E0027A2AB3827B1ABB88F80D7050E0B2
:103F800098F80100012804D002280DD0032819D088
:103F900047E060894FF47A72A0F57A7080B2608150
:103FA00090423ED262813CE094ED031A31EE400A29
:103FB00084ED030AB5EEC00AF1EE10FA31D2C4ED79
:103FC000030A2EE0208A401E00B22082002828DA50
:103FD000268226E098F80100012804D002280AD0A1
:103FE000032816D01DE06889401E0004000C68817B
:103FF00017D16F8115E095ED031A31EE400A85ED7A
:10400000030AB5EEC00AF1EE10FA0AD2C5ED030AB2
:1040100007E0288A801E80B22882022801D202206E
:104020002882CE7004212948FDF7AEFB78BB012120
:104030004FF09040FDF7A8FB48BB25488188C82970
:1040400025D9C088C82822D94FF4FA606081208021
:10405000B0EE080A84ED030A84ED010A1E202082D6
:104060002081A9F80260A9F80060A9F804606F81B6
:104070002F800620288228819FED160A164885ED9C
:10408000030A85ED010A8670C67088F8006098F80A
:104090000700002807D08AF800608AF801608AF8D3
:1040A00002608AF80360BDE8F0870000700000201D
:1040B000000000208E0000200C0700209A99993EF5
:1040C00033335340333353400000000000040048B2
:1040D0009A0000206666663F9600002000B585B015
:1040E00014216846FCF7CEF84FF6FF7000900020D0
:1040F0000321CDE90201019069460248FDF720FA4B
:1041000005B000BD0008004800B585B01421684620
:10411000FCF7B8F84FF6FF700090012001900320E3
:1041200003900020029069460248FDF709FA05B0A5
:1041300000BD00000008004870B500240646214676
:10414000204600F0E3FA00F021FB4FF496353046AC
:1041500000F0F0FA641CAC42F9D370BD30B587B002
:1041600014216846FCF78EF81E48C16C41F004012A
:10417000C164C16C01F004010591C16C41F0010101
:10418000C164C16C01F001010591C16C41F00201F3
:10419000C164C06C012500F0020005904FF4487026
:1041A000CDE9000500240394694602940E48FDF70A
:1041B000C7F9280203940090CDE901544FF09044D0
:1041C00069462046FDF7BCF9FFF79EFFA06940F461
:1041D0008070A06104481830016841F408710160E2
:1041E00007B030BD0010024000040048203AD2B2AF
:1041F000034B02EB420203EB021200F019B800007D
:10420000F076000870B515460C460646B1F5A07F5D
:1042100009D340F23F1406E021463046FFF7E6FF9F
:10422000103CA4B26D1C2A78002AF5D170BD0000A4
:104230002DE9F04791468A460026044600F066FACA
:10424000DFF84080012700BF00F0A0FA5FF0000512
:1042500039F8160007FA05F10842404601D14088B6
:1042600000E0008800F066FA6D1C102DF0D3641C8D
:10427000E4B25146204600F049FA761C182EE3D3EA
:10428000BDE8F0877800002010B5FFF767FF002039
:1042900000F0F4F9084CA080A088A0F50241303964
:1042A00006D000F07CFF002000F0E8F9A08010BDEF
:1042B00000F0ECFEF7E70000780000202DE9F04167
:1042C000B9480168B94CA26A891A64297AD300688E
:1042D000A062B748FCF7E2FB51EC100BFCF7DEF8EC
:1042E000E06402F01FFFB34E84ED140A238A308885
:1042F0000121002204F16005984202D2A779002F23
:104300007AD0984200D9A27196ED011AD4ED130A21
:10431000B4EEE01AF1EE10FA02D22079002871D042
:10432000B4EEE01AF1EE10FA00DD2271B6F90800E1
:1043300000EE900AF8EEE00AF4EEC00AF1EE10FA90
:1043400002D26379002B62D000EE900AF8EEE00A08
:10435000F4EEC00AF1EE10FA00DD627121784FF63A
:10436000FF70002958D001297ED002297DD000F0AD
:10437000D9F915219048FBF785FF90A18E4802F0EE
:104380004DFA8D4AC0213020FFF73CFF15218A48A5
:10439000FBF778FF874C8BA114348748628902F0C1
:1043A0003DFA854AF0216020FFF72CFF1521824855
:1043B000FBF768FFE068FCF75EF841EC100B53EC8C
:1043C000102B00E0EDE082A17B4802F027FA7A4A48
:1043D000F0217820FFF716FF15217748FBF752FFF1
:1043E000228A7EA1744802F019FA734AF0219020C3
:1043F000BDE8F041FFF706BF2888401C2880A17166
:1044000082E7FFE76888401C688021718EE7A888F2
:10441000401CA8806171A1E700F084F9152166486D
:10442000FBF730FF70A1644802F0F8F9624AC0213E
:104430003020FFF7E7FE15215F48FBF723FF228AB4
:104440006BA15D4802F0EAF95B4AF0216020FFF7BA
:10445000D9FE15215848FBF715FF94ED150ABDEE5E
:10446000C00A10EE102A01E030E068E063A1524873
:1044700002F0D4F9504AF0217820FFF7C3FE15214D
:104480004D48FBF7FFFEE06CFBF7F5FF41EC100B2E
:104490005DA153EC102B484802F0C0F9464AF021C8
:1044A0009020FFF7AFFE15214348FBF7EBFE206D90
:1044B000FBF7E1FF41EC100B56A153EC102B3E48EB
:1044C00002F0ACF9F0213C4AA82091E700F02AF96B
:1044D00015213948FBF7D6FE51A1374802F09EF965
:1044E000354AC0213020FFF78DFE15213248FBF7F9
:1044F000C9FE72894DA1304802F090F92E4AF02190
:104500006020FFF77FFE15212B48FBF7BBFEF0680C
:10451000FBF7B1FF41EC100B47A153EC102B2648E1
:1045200002F07CF9244AF0217820FFF76BFE152178
:104530002148FBF7A7FEB6F9102042A152E700F090
:10454000F1F815211C48FBF79DFE41A11A4802F025
:1045500065F9194AC0213020FFF754FE152116488D
:10456000FBF790FE2A883CA1134802F057F9124A43
:10457000F0216020FFF746FE15210F48FBF782FE71
:104580006A8838A10C4802F049F90B4AF0217820DA
:10459000FFF738FE15210848FBF774FEAA8834A1FE
:1045A00020E7BDE8F081000070000020000000203E
:1045B000340700200C070020180100204653455402
:1045C0002020000046503D256420202020000000CF
:1045D00056503D252E3166202020200054543D2584
:1045E000642020202000000044415441202000008D
:1045F000463D25642020202000000000443D256425
:104600002525202020200000413D252E3166202038
:1046100020200000543D252E31662020202000005F
:1046200050415241202020200000000046483D25F6
:10463000642020202000000041483D252E316620C6
:104640002020200054483D25642020200000000048
:104650005245434420200000464E3D256420202042
:1046600020000000414E3D25642020202000000055
:10467000544E3D25642020202000000070B51D49C7
:104680000A6842F400720A600A6842F480720A60A2
:10469000184C103C226842F020022260164A10603A
:1046A000086840F02000086000BF00BF00BF20681D
:1046B00040F020002060206840F480702060FFF708
:1046C0000DFD4FF09041886A40F48070886200BF11
:1046D00000BF00BF0848001F006885B2886940F429
:1046E00080708861FFF710FD206840F40070206042
:1046F000284670BD280400481408004801B5BDF8DC
:1047000000000149488008BD7800002010B50C4623
:104710000146202000F068F82146BDE81040212025
:1047200000F062B801B5BDF800000149088008BD7D
:1047300078000020134A116841F40071116011499A
:1047400010390B6843F480730B600B6843F020034F
:104750000B600D4B1860106840F02000106000BF27
:1047600000BF00BF086840F020000860086840F4FF
:104770008070086000BF00BF00BF086840F4007090
:104780000860704728040048140800481449086865
:1047900040F400700860086840F4807008601048B9
:1047A0001038026842F0200202600E4B22221A608A
:1047B0000A6842F020020A6000BF00BF00BF016823
:1047C00041F020010160016841F48071016000BF87
:1047D00000BF00BF016841F4007101607047000034
:1047E0002804004814080048184B10B51A6842F411
:1047F00000721A601A6842F480721A60134A103A02
:10480000146844F020041460114C2060186840F0D3
:104810002000186000BF00BF00BF106840F02000FB
:104820001060106840F4807010602160186840F0DB
:104830002000186000BF00BF00BF106840F02000DB
:104840001060106840F48070106010BD28040048AB
:104850001408004870B50D4D044601220421284675
:10486000FCF797FF0A4E01224FF6FF713046FCF726
:1048700090FF210200223046FCF78BFF2846BDE85E
:10488000704000220421FCF784BF0000000C0048A7
:104890000008004810B5094C012204212046FCF70D
:1048A00078FF01224FF6FF710548FCF772FF2046A2
:1048B0000022BDE810400421FCF76BBF000C00484B
:1048C0000008004824490A682448036AD21A642A66
:1048D00041D3096801620146C2798978012A09D069
:1048E00001F0FE018170417B0029817805D081F0C3
:1048F000020104E081F00101F4E701F0FD018170A3
:10490000817B0029817802D081F0040101E001F06F
:10491000FB01817081790029817802D041F0080182
:1049200001E001F0F701817001790029817802D05E
:1049300041F0100101E001F0EF018170417900299F
:10494000817802D041F0200101E001F0DF018170A7
:10495000C8B2FFF77FBF7047700000200000002042
:1049600000EB8100006E00F0F84070478068C0F3F3
:10497000C00070478068C0F380007047C06810F4C2
:10498000406F01D00020704701207047042303EAE4
:10499000D15310B518444369C1F3045107248C4026
:1049A000A3438A401343436110BD00EB8100016EB5
:1049B00021F00041114301667047000030B589B015
:1049C00020216846FBF75EFC194818490024016065
:1049D0004902C0E90114C46004250461C0E9054529
:1049E000047744770121016280F82440C4620463A3
:1049F00080F83840C46380F84040FCF7D1FA08B131
:104A0000FCF74AF80B48009006200190072002901E
:104A10007F200594CDE9030569460548FCF7AAF80F
:104A2000002801D0FCF738F809B030BD0001005073
:104A3000340700200080F03E2DE9F04786B01421B5
:104A40006846FBF71FFC4748C16C41F00401C16494
:104A5000C16C01F004010591C16C41F02001C164F9
:104A6000C16C01F020010591C16C41F00101C164EC
:104A7000C16C01F001010591C16C41F00201C164FA
:104A8000C16C01F002010591C16C41F00801C164E3
:104A9000C06C354E00F008004FF47F4405900122B1
:104AA00021463046FCF775FE4FF090480022482121
:104AB0004046FCF76EFEDFF8B49000220421484621
:104AC000FCF767FEDFF8A8A00022C0215046FCF7E3
:104AD00060FE0125CDE90045002402946946304678
:104AE0000394FCF72DFDCDE900546946404602953C
:104AF000FCF726FD08200090CDE9015469464046A8
:104B00000394FCF71DFD40260227CDE90065CDE9A1
:104B1000025769464046FCF713FD07208DE8310037
:104B200069465046FCF70CFD04200090CDE9015485
:104B3000694648460394FCF703FD0096CDE901540D
:104B4000694650460394FCF7FBFC8020CDE9000544
:104B5000CDE9024769465046FCF7F2FC06B0BDE8D5
:104B6000F08700000010024000080048000C0048D8
:104B70000004004810B586B014216846FBF782FB9C
:104B8000214800241F490594C0E900147D2181605B
:104B900041F27071C0E903144FF080414461C0E9F3
:104BA00006410462FDF7D4FB08B1FBF775FF232033
:104BB0008DF8000059208DF8010055208DF8020075
:104BC00001940394012269460F480494FDF78AFC7E
:104BD00008B1FBF761FF05208DF8140003208DF864
:104BE000150001208DF8160024208DF817000122F1
:104BF00005A90548FDF726FC002801D0FBF74CFF6E
:104C000006B010BD00280040A007002010B588B0F5
:104C10000024184800940194029403940494059489
:104C20001349069401604F21C0E901144FF6FF714A
:104C3000C0E9031444618461FDF78FFD08B1FBF7FF
:104C40002BFF4FF48050009069460A48FDF7A0FE04
:104C500008B1FBF721FF049404A906480694FDF768
:104C60002DFD002801D0FBF717FF08B010BD000094
:104C700000400140F80800200C4810B50A490160C6
:104C80004F21416000214FF6FF72C0E9021201611D
:104C900041618161FDF761FD002803D0BDE810404E
:104CA000FBF7FABE10BD000000440140440900209B
:104CB00010B594B01C210DA8FBF7E4FA3421684626
:104CC000FBF7E0FA20481F490024016041F63F71DC
:104CD000C0E901146421C0E9031444618461FDF753
:104CE0003CFD08B1FBF7D8FE1748FEF774FA08B18F
:104CF000FBF7D2FE60200D903220CDE90E04109417
:104D00001194129400220DA90F481394FEF7D1F9C3
:104D100008B1FBF7C1FE00944FF40050CDE9044008
:104D20000194029403940694694607480C94FDF795
:104D300073FC08B1FBF7B0FE0348FEF791F914B01D
:104D400010BD0000004801409009002030B58BB034
:104D500000240594274804940694079408940A9420
:104D600009940094019402944FF0804103940160EF
:104D70004F21C0E901144FF6FF71C0E903148461AB
:104D8000FDF7EBFC08B1FBF787FE4FF48050049071
:104D900004A91848FDF7FCFD08B1FBF77DFE154896
:104DA000FDF742FF08B1FBF777FE089408A9114808
:104DB0000A94FDF783FC08B1FBF76EFE0225CDE9EE
:104DC00000450294002269460A480394FDF79AFEC2
:104DD00008B1FBF761FE0120CDE9005004226946CD
:104DE0000448FDF78FFE002801D0FBF755FE0BB0FD
:104DF00030BD0000C807002010B588B00024174857
:104E00000094019402940394049405941249069426
:104E100001604F21C0E901144FF6FF71C0E903148E
:104E20008461FDF79AFC08B1FBF736FE4FF4805021
:104E3000009069460948FDF7ABFD08B1FBF72CFE71
:104E4000049404A905480694FDF738FC002801D015
:104E5000FBF722FE08B010BD00040040140800203B
:104E600010B588B00024174800940194029403946C
:104E7000049405941249069401604F21C0E901147D
:104E800042F20F71C0E903148461FDF766FC08B1BA
:104E9000FBF702FE4FF48050009069460948FDF789
:104EA00077FD08B1FBF7F8FD049404A905480694C2
:104EB000FDF704FC002801D0FBF7EEFD08B010BDA3
:104EC00000080040600800203EB500240F48009410
:104ED00001940D49029401604F21C0E9011442F28E
:104EE0000F718461C160FDF738FC08B1FBF7D4FD98
:104EF0000094694605480294FDF7E0FB002801D0C4
:104F0000FBF7CAFD3EBD000000100040AC080020C9
:104F1000184810B5164901604FF416514160002140
:104F200081600C22C160C0E904128161C16101622B
:104F300041628162FEF7FEFC08B1FBF7ADFD002186
:104F40000C48FEF748FB08B1FBF7A6FD0021094815
:104F5000FEF71BFB08B1FBF79FFD0648FEF7F4FACE
:104F6000002803D0BDE81040FBF796BD10BD00003F
:104F700000380140DC090020FEE7FEE70068C36A54
:104F80005B1C53436422B3FBF2F251B104290AD0F3
:104F900008290AD00C290AD010290AD0C26400209E
:104FA00070474263FBE78263F9E7C263F7E7026495
:104FB000F5E78264F3E7000070B5044611480D463A
:104FC000B0FBF2F62168CB6A5B1CB6FBF3F35B1E09
:104FD0008B625B1CB0FBF3F1B1FBF2F12668491E5A
:104FE000F162B0FBF3F0B0FBF2F0401EE060012193
:104FF0002046FDF74DFD29462046FEF71FF900200B
:1050000070BD000000B4C404704700002DE9F041F9
:105010000C461E46154607460021DDF81880FEF7AF
:105020007DFA00EE100A04213846B8EE400A84EDFD
:10503000000AFEF773FA00EE100A00213846B8EEB7
:10504000400A85ED000A00F0C3FA0421384600F05A
:10505000BFFA94ED000ADFED0B0A80EE801ABCEE79
:10506000C10A10EE100A3080D5ED000A94ED001A46
:1050700080EE810ADFED040A20EE200A88ED000AA6
:10508000BDE8F081002474490000C84230B5012118
:105090000020FFF7A9FB4FF47A70FBF7EFFC00212B
:1050A0000120FFF7A1FB41F290711020FFF79CFB5C
:1050B0004FF41C516020FFF797FB01216120FFF79F
:1050C00093FB02214620FFF78FFB48F210011320CB
:1050D000FFF78AFB48F2FE011220FFF785FB4FF431
:1050E000A0610220FFF780FB41F230010320FFF7AF
:1050F0007BFB40F2033421463020FFF775FB21464D
:105100003120FFF771FB21463220FFF76DFBE51ED2
:1051100029463320FFF768FB03213420FFF764FBA7
:1051200021463520FFF760FB14213620FFF75CFB9A
:1051300021463720FFF758FB21463820FFF754FB64
:1051400021463920FFF750FB29463A20FFF74CFB58
:1051500003213B20FFF748FB21463C20FFF744FB9F
:105160004FF4A0513D20FFF73FFB4FF40071922018
:10517000FFF73AFB21469320FFF736FB40F60D017F
:105180009020FFF731FB41F218010320FFF72CFBC1
:10519000BDE8304040F273110720FFF725BB10B582
:1051A00043F20801E320FFF71FFB1221E720FFF77E
:1051B0001BFB41F23121EF20FFF716FB00210120FC
:1051C000FFF712FB4FF4E0610220FFF70DFB41F205
:1051D00030010320FFF708FB00210420FFF704FB48
:1051E00040F207210820FFF7FFFA00210920FFF70E
:1051F000FBFA00210A20FFF7F7FA00210C20FFF745
:10520000F3FA00210D20FFF7EFFA00210F20FFF73E
:10521000EBFA00211020FFF7E7FA07211120FFF732
:10522000E3FA00211220FFF7DFFA00211320FFF735
:10523000DBFAC820FCF772F941F290611020FFF709
:10524000D3FA40F227211120FFF7CEFA3220FCF7E3
:1052500065F91D211220FFF7C7FA3220FCF75EF92D
:105260004FF400611320FFF7BFFA14212920FFF744
:10527000BBFA0B212B20FFF7B7FA3220FCF74EF9CF
:1052800000212020FFF7B0FA00212120FFF7ACFA1F
:1052900007213020FFF7A8FA40F207713120FFF70D
:1052A000A3FA06213220FFF79FFA40F2047135205D
:1052B000FFF79AFA41F604713620FFF795FA0421B8
:1052C0003720FFF791FA00213820FFF78DFA40F2DE
:1052D00006713920FFF788FA40F201713C20FFF790
:1052E00083FA0F213D20FFF77FFA00215020FFF7BE
:1052F0007BFAEF215120FFF777FA00215220FFF7C8
:1053000073FA40F23F115320FFF76EFA4FF41C512D
:105310006020FFF769FA01216120FFF765FA00219B
:105320006A20FFF761FA00218020FFF75DFA002173
:105330008120FFF759FA00218220FFF755FA00215A
:105340008320FFF751FA00218420FFF74DFA002156
:105350008520FFF749FA10219020FFF745FA002138
:105360009220FFF741FA03219320FFF73DFA4FF413
:1053700088719520FFF738FA00219720FFF734FA5B
:1053800000219820FFF730FA41F218010320FFF7BF
:105390002BFABDE8104040F273110720FFF724BA42
:1053A000010901EB810100F00F0000EB4100C0B2E8
:1053B00070470022014602E00A39C9B2521C0A298C
:1053C000FAD2100741EA1060704700002DE9F04161
:1053D000044600680025C168490619D4C16841F037
:1053E0008001C160FCF7DAF906464FF47A780327AA
:1053F00008E000BFFCF7D2F9801B404502D9032525
:1054000084F825702068C068400601D4032DF1D1CE
:105410002846BDE8F08170B5044600680025C168E3
:1054200021F08001C160206881694FF00306890680
:1054300007D42046FDF7BCF898B184F82560032511
:105440000FE0816921F0200181612046FDF7B0F86D
:1054500010B184F8256003252068816941F020019E
:105460008161284670BD00000F4910B50A680F48D9
:10547000C36AD21A642A16D30968C1620C49002291
:10548000098801820B4991ED000A0B4980ED150A4C
:105490000A48FCF733FF05490022BDE810401C31E3
:1054A0000648FCF709BF10BD700000200000002076
:1054B000DE000020F400002004010020A0070020EE
:1054C00070B50F48FBF720FF4FF0FF3529460C4819
:1054D000FBF79CFE0A48FBF75FFD60F30F040848EA
:1054E000FBF712FF29460648FBF790FE0448FBF73E
:1054F00053FD60F31F440248FBF780FF204670BD58
:1055000034070020164830B4C2791649012A05D064
:10551000002A01D10968C16330BC70470A68C36BB7
:10552000D31A114A128902EB4204C4EBC212B3EB44
:10553000C20F02D230BC00F01DB80968C36BC91A93
:10554000B1EBC20FE8D90021C17101220272427A87
:10555000027341728172C17230BC04A001F04EB975
:105560000000002070000020200700206F6B0D0A53
:105570000000000012490A681248036BD21A322A4E
:105580001DD309680163104A417A90ED130A02EBBA
:105590008102491C82ED000A41720C4B817A028A19
:1055A00023F81120491C8172C17AA3F5167290ED7F
:1055B000150A02EB8102491C82ED000AC172704794
:1055C000700000200000002030010020E0050020D5
:1055D000036800225A62FDF759BB000008B1044875
:1055E00001E003481030016841F04001016070475C
:1055F0001804004810B580210348FCF7C5F80128BD
:1056000000D0002010BD00000004004800B585B0A7
:1056100014216846FAF736FE8020009000200190A1
:10562000012002900220039069460248FBF788FFA0
:1056300005B000BD0004004808B1044801E003487B
:105640001030016841F08001016070471804004883
:1056500000B585B014216846FAF714FE802000904A
:105660001120019000200290022003906946024818
:10567000FBF766FF05B000BD00040048704700005E
:10568000014640F6B47081420AD2C2105FF00100B8
:1056900002FB00F38B4204D8401CC0B20828F7D9A3
:1056A00000207047FCF780B810B594B038216846E8
:1056B000FAF7E8FD14210EA8FAF7E4FD4FF40070A4
:1056C000FCF704F90120009000040190022003245B
:1056D000CDE907041421CDE90A100C900D9009942E
:1056E0006846FCF7E7FB08B172B6FEE70F20CDE98C
:1056F0000E04002010901190129002210EA8FCF7C9
:105700008FFA002801D072B6FEE714B010BD000079
:105710000248016841F470010160704788ED00E0C3
:105720000148FDF7CBBB0000F80800200148FDF759
:10573000C5BB0000900900200148FDF7BFBB000079
:10574000440900200148FDF7B9BB0000C80700204C
:105750000148FDF7B3BB0000140800200148FDF725
:10576000ADBB0000600800200148FDF7A7BB0000AA
:10577000AC0800202DE9F0430268264B264D274E49
:10578000274C4FF08049984207D0484505D0A842A1
:1057900003D0B04201D0A04203D122F070074A6882
:1057A0003A43204FDFF880C0DFF8808098420DD068
:1057B00048450BD0A84209D0B04207D0A04205D03E
:1057C000B84203D0604501D0404503D122F4407572
:1057D000CA682A434D6922F080022A4302608A681F
:1057E000C2620A688262984207D0A04205D0B842DD
:1057F00003D0604501D0404501D109690163012111
:1058000041610169C90703D0016921F0010101610A
:10581000BDE8F083002C0140000400400008004077
:105820000034014000400140004401400048014074
:1058300010B501F01F030121046A99408C430462F2
:10584000016A9A401143016210BD10B5846842EAB2
:10585000032224F47F440A432243826010BD0000E7
:105860008268034B1A400A4342F007018160704787
:105870008FFFCFFF2DE9F043056A026A22F0010293
:105880000262436882691C4C25F0020522400C68C4
:1058900022F0030214438A68194E2A43174D194F08
:1058A000DFF864C0DFF86490A84207D0B04205D0AA
:1058B000B84203D0604501D0484506D122F008081F
:1058C000CA6842EA080222F00402A84207D0B042A5
:1058D00005D0B84203D0604501D0484505D14D6997
:1058E00023F440731D438B692B43436084614968F3
:1058F00041630262BDE8F0838FFFFEFF002C014090
:105900000034014000400140004401400048014093
:10591000F0B5056A026A22F01002026242688369E9
:10592000194C1B4E23400C6823F4407343EA0424B3
:1059300025F020038D6843EA0513144DA84201D0D9
:10594000B04206D1CF6823F0800343EA071323F067
:105950004003A8420AD0B04208D00E4DA84205D05C
:105960000D4DA84202D00D4DA84207D14D6922F439
:10597000406242EA85028D6942EA850242608461A2
:10598000496881630362F0BDFF8FFFFE002C014078
:105990000034014000400140004401400048014003
:1059A000F0B5056A026A22F4807202624368C26935
:1059B000194C1B4E22400C6822F00302144325F4BC
:1059C00000728D6842EA0522144DA84201D0B0420F
:1059D00006D1CF6822F4006242EA072222F48062F4
:1059E000A8420AD0B04208D00E4DA84205D00E4DB4
:1059F000A84202D00D4DA84207D14D6923F440536F
:105A000043EA05138D6943EA05134360C46149689D
:105A1000C1630262F0BD00008FFFFEFF002C014059
:105A20000034014000400140004401400048014072
:105A3000F0B5056A026A22F4805202624268C369C4
:105A4000194C1B4E23400C6823F4407343EA042492
:105A500025F400538D6843EA0533144DA84201D064
:105A6000B04206D1CF6823F4004343EA073323F45E
:105A70008043A8420AD0B04208D00E4DA84205D0BB
:105A80000D4DA84202D00D4DA84207D14D6922F418
:105A9000404242EA85128D6942EA85124260C46141
:105AA000496801640362F0BDFF8FFFFE002C0140D6
:105AB00000340140004001400044014000480140E2
:105AC00030B5056A026A22F4803202624268036DD0
:105AD000114C23400C681C4325F400330D8943EA24
