:020000040800F2
:1000000020080020F1010008874D00081D3B000872
:10001000854D0008790900081165000800000000FE
:10002000000000000000000000000000B1530008C4
:100030007B09000800000000154E0008B3530008BB
:100040000B0200080B0200080B0200080B0200085C
:100050000B0200080B0200080B0200080B0200084C
:100060000B0200080B0200080B0200080B0200083C
:100070000B0200080B0200080B0200080B0200082C
:100080000B020008000000000B0200080B02000831
:100090000B0200080B0200080B0200080B0200080C
:1000A0000B0200080B0200082D5400080B02000888
:1000B0003954000845540008515400080B02000848
:1000C0000B0200080B0200080B0200080B020008DC
:1000D0000B0200087D6400080B0200080B020008F8
:1000E0000B0200080B0200080B0200080B020008BC
:1000F0000B0200080B0200080B02000800000000C1
:10010000000000000B020008000000000B020008C5
:100110000B020008000000000B0200080B020008A0
:100120000B0200080B0200080B0200080B0200087B
:100130000B02000800000000000000000B02000895
:100140000B0200080B020008000000000000000085
:10015000000000000000000000000000000000009F
:100160000000000000000000000000000B0200087A
:100170000B0200080000000000000000000000006A
:10018000000000000B02000800000000000000005A
:10019000000000000000000000000000000000005F
:1001A00000000000000000000B0200080B02000825
:1001B0000B0200080B0200080B0200080000000000
:1001C000000000000B02000800000000000000001A
:1001D0000B0200080B020008DFF810D000F01AFB39
:1001E00000480047596E0008AFF300802008002047
:1001F0000648804706480047FEE7FEE7FEE7FEE7C1
:10020000FEE7FEE7FEE7FEE7FEE7FEE71D54000817
:10021000D90100082DE9F05F0546002092469B4673
:1002200088460646814640241BE02846414647460C
:10023000224600F074F953465A46C01A914110D331
:1002400011461846224600F05BF92D1A67EB0108AB
:100250004F4622460120002100F052F917EB000919
:100260004E41201EA4F10104DFDC484631462A46F7
:100270004346BDE8F09FD2B201E000F8012B491ED1
:10028000FBD270470022F6E710B513460A46044633
:100290001946FFF7F0FF204610BD2DE9FE4F81EA19
:1002A000030404F0004421F0004100944FF0000BDF
:1002B00023F0004350EA01045ED052EA03045BD00D
:1002C000C3F30A54C1F30A552C44A4F2F334019445
:1002D000A0FB0254C1F3130141F48011C3F31303D3
:1002E00043F4801301FB024400FB034E840A970A87
:1002F00044EA815447EA8357A4FB076802958D0AB4
:1003000005FB07854FEA932C04FB0C542705029D3F
:100310004FEA065847EA1637B5EB08056EEB070CAF
:10032000870E920E47EA811742EA8312A7FB020169
:10033000B6EB0B0164EB00042B0D43EA0C335E18A3
:1003400044EB1C50DA465146E7FB0201C5F31304A7
:100350004FEA0B3343EA14534FEA0432019C43EA59
:100360000603A4F10C040294009CCDE900B400F053
:100370002CF903B0BDE8F08F00200146F9E72DE924
:10038000F04D81EA030404F0004B21F000451446CF
:100390004FF0000A23F0004150EA050220D054EA51
:1003A00001021DD0C5F30A570246C5F31303C1F37A
:1003B0001300C1F30A5640F4801543F48013A7EBF1
:1003C0000608101BD64608F2FD3873EB050002D371
:1003D00008F1010801E092185B41B8F1000F03DA5F
:1003E00000200146BDE8F08D00204FF48011064644
:1003F00084460EE0171B73EB050705D3121B63EB56
:10040000050306434CEA010C49084FEA30009218F4
:100410005B4150EA0107EDD152EA030012D082EAB3
:10042000040083EA0501084305D0101BAB4106D246
:100430000122002306E000224FF0004302E06FF0AB
:10044000010253101AEB06004CEB085110EB0A00A6
:1004500041EB0B01BDE8F04D00F0A8B80EB540F23D
:10046000334102910021CDE900110A460B4600F00C
:10047000ACF803B000BD00F0004230F000400AD0FC
:10048000C10D01F56071C0F3160042EA0151C208C6
:1004900040071143704700200146704701F00043B8
:1004A00030B421F0004150EA010206D00A0DA2F555
:1004B0006072C1F31301002A02DC30BC00207047D7
:1004C000440F44EAC104C100E01830BC00EBC25044
:1004D00000F035B830B50B4601460020202201243B
:1004E00009E021FA02F59D4205D303FA02F5491B02
:1004F00004FA02F52844151EA2F10102F1DC30BD18
:10050000202A04DB203A00FA02F1002070479140D3
:10051000C2F1200320FA03F3194390407047202AC8
:1005200004DB203A21FA02F00021704721FA02F39D
:10053000D040C2F12002914008431946704700297B
:10054000A8BF7047401C490008BF20F00100704759
:1005500010B4B0FA80FC00FA0CF050EA010404BFB9
:1005600010BC704749B1CCF1200421FA04F411FA0F
:100570000CF118BF012121430843A3EB0C01CB1D53
:100580004FEA00614FEA102042BF002010BC7047C4
:1005900000EBC35010440029A4BF10BC7047401C9E
:1005A000490008BF20F0010010BC704710B5141EB0
:1005B00073F1000408DA401C41F1000192185B411C
:1005C0001A4301D120F0010010BD2DE9F04D9246F3
:1005D0009B4611B1B1FA81F202E0B0FA80F220320A
:1005E0009046FFF78DFF04460F4640EA0A0041EAB5
:1005F0000B0153465A46084313D0114653EA0100F3
:1006000019D0C8F140025046FFF789FF05460E4653
:10061000504659464246FFF773FF084305D0012074
:1006200004E020463946BDE8F08D0020054346EA47
:10063000E0762C4337430A986305E40AA0EB0800F0
:100640000022FD0A44EA47540A3002D50020014640
:10065000E9E7010510196941DDE90845001969411B
:10066000BDE8F04DA2E72DE9FE4F804681EA030088
:10067000C00F0C46009021F0004123F00045B8EB7C
:100680000200A94105D24046214690461C460B4631
:10069000024623F00040104347D0270DC7F30A005D
:1006A000C3F30A510290401A019040286BDAC3F359
:1006B000130040F4801B0098924620B10023D2EB37
:1006C000030A63EB0B0B01985946C0F140025046F8
:1006D000FFF716FF06460D4650465946019A00F0B0
:1006E000ABF810EB08006141002487EA115284EA5C
:1006F000E7731A4340D0009A62B3019A012A4FEA85
:10070000075215DC001B61EB02014FF0004202EAC8
:100710000752CDE90042001C41F5801132462B46BC
:10072000FFF753FF03B0BDE8F08F40462146F9E7DD
:10073000001B61EB0201001C41F5801300185B41B6
:100740002018A2F5001747EB030140EAD570B6194F
:100750006D4111E06D084FEA360645EAC0754FEA73
:100760000752001B61EB0201001C41F58011490892
:100770004FEA30000019514132462B4603B0BDE824
:10078000F04FFFF713BF0098012240000023D0EB89
:10079000020263EBE073009821464FEAE074B8EB85
:1007A000000061EB0401E9E783F000435BE781F0BF
:1007B000004158E7C1F30A52C1F3130140F2FF337D
:1007C00041F480119A4202DA00200146704740F25B
:1007D00033439A42A2F2334202DC5242FFF79FBEF9
:1007E000FFF78EBE30B5041E71F1000404DB4FF03C
:1007F0000044404264EB0101141E73F1000405DB68
:100800001C464FF00043524263EB0403994208BF79
:10081000904230BD064C074D06E0E06840F0010311
:1008200094E8070098471034AC42F6D3FFF7D8FCA1
:10083000CC810008EC810008202A06DBCB17203A87
:1008400041FA02F043EAE07306E041FA02F3D040D5
:10085000C2F12002914008431946704770B5044622
:10086000006881688268C1F3400112F0010F28D04E
:1008700039BB816801F00D01012914D18168124A48
:100880001140891C816021680320086000F0D2FFBC
:10089000054612E000F0CEFF401B02280DD920686B
:1008A0008068C00709D0E06D40F01000E065206E60
:1008B00040F001002066012070BD20688068C007FC
:1008C000E8D1002070BD0000C0FFFF7FF8B50446EE
:1008D000002000902068816811F0010F41D18168EB
:1008E000214A11422ED18168D5432940491C81609B
:1008F0001E48806800F0E07000020DD51C481D49BC
:100900000068B0FBF1F0401C00EB4000800000E00C
:10091000401E00900028FBD100F08CFF06461BE033
:10092000816811F0010F03D181682940491C816061
:1009300000F080FF801B02280ED920680068C043A9
:10094000C00709D0E06D40F01000E065206E40F077
:10095000010020660120F8BD20680168C943C9076D
:10096000DED10020F8BD00003F00008000030050F1
:1009700068000020400D0300FEE77047002240F6AB
:10098000B83306E00021491C89B29942FBD3521CBE
:1009900092B28242F6D3704772B6FEE710B50446B3
:1009A00000F01CFD204600F02BFB80B2FFF756FD47
:1009B0009FED071B53EC112BFFF76FFC9FED061B00
:1009C00053EC112BFFF769FC41EC100B10BD00003C
:1009D0006666666666660A40000000000000303FFA
:1009E0002DE9F0410E462DED028B0746002500F063
:1009F000F5FC0A21384600F073FC384600F000FB95
:100A000000240DE0384600F0E9FC0A21384600F0E9
:100A100067FC384600F0F4FA80B2641C0544E4B286
:100A2000B442EFD33046FFF719FD41EC180B2846CE
:100A3000FFF714FD53EC182BFFF7A1FC9FED081BEB
:100A400053EC112BFFF729FC9FED071B53EC112BE7
:100A5000FFF723FCBDEC028B41EC100BBDE8F081ED
:100A60006666666666660A40000000000000303F69
:100A7000F8B500260446009690F858000D46012867
:100A80000BD0012084F858002046FFF7E7FE010054
:100A9000E06D04D040F010002AE00220F8BD20F400
:100AA000885040F00200E06520688268134B1A40CD
:100AB00005F080431A4342F000428260104A2068E9
:100AC0000EE0009B5B1C0093934209D3E06D20F085
:100AD000020040F01000E06584F858600120F8BD85
:100AE0008368DB0FEDD1E06D20F0020040F00100E3
:100AF000E06584F858600846F8BD0000C0FFFF3F7D
:100B000002DE04002DE9F047044690F858009CB03E
:100B10000E464FF00009012815D0012084F8580036
:100B200000251795189520684FF0A04840450ED134
:100B3000284F0097384603F013FE8246206803F0E2
:100B40000FFE60B10EE002201CB0BDE8F087E06D42
:100B500040F02000E06584F858500120F4E7BAF135
:100B6000000F09D0E06D40F02000E0654FF0010972
:100B700084F858504846E7E71748326840F61F7136
:100B8000002A826822F4604216D094F8383042EA93
:100B9000433273681A438260D8F80820BB6802F0B9
:100BA000010203F001031A43E2D1B36832681A4329
:100BB00083688B431A430BE08260D8F80820BB6837
:100BC00002F0010203F001031A43D1D182688A4383
:100BD0008260CDE700010050000300502DE9F84F7E
:100BE00000270446009790F85800DFF8E0930D4680
:100BF000B846012811D0012684F85860206803F017
:100C0000ABFD60B1E06D40F02000E0655FF00107F2
:100C100084F858803846BDE8F88F0220FBE7D5E914
:100C200000210C23206803EA91131844036B01F0A0
:100C30001F014FF01F0C0CFA01FCC2F3846223EA7F
:100C40000C038A4013430363206803F085FD82464A
:100C5000206803F07DFD5AEA00003CD1AA682968AB
:100C60002068B2F1004F37D003F086FD206841695B
:100C700021F00041416120686969C268C2F3C10284
:100C8000520091402A69042A31D000EB82002B687F
:100C9000026EDFF83CC303F0F84302EA0C020B4398
:100CA0001A4342F00041016620682A69A96900EBF5
:100CB0008200026E22F080720A430266297F226857
:100CC0002869012910D0002102EB8000026E22F079
:100CD00000720A4302667DE0002203F04DFD2068A9
:100CE000416941F00041C5E74FF00071ECE7002198
:100CF00003F028FD400320684FF0000172D003F09C
:100D000021FD90FAA0F0B0FA80F1286842036ED07D
:100D100090FAA0F0B0FA80F0814204D1002211468E
:100D2000206803F038FD0121206803F00BFD40032B
:100D300020684FF001015DD003F004FD90FAA0F0AF
:100D4000B0FA80F12868420359D090FAA0F0B0FAC6
:100D500080F0814204D100220121206803F01BFDB4
:100D60000221206803F0EEFC400320684FF00201EE
:100D700048D003F0E7FC90FAA0F0B0FA80F12868C0
:100D8000420344D090FAA0F0B0FA80F0814204D13E
:100D900000220221206803F0FEFC0321206803F0FA
:100DA000D1FC400320684FF0030133D003F0CAFCAC
:100DB00090FAA0F0B0FA80F1286842032FD090FAA0
:100DC000A0F0B0FA80F0814204D100220321206813
:100DD00003F0E1FC2068816811F0010F22D0ACE043
:100DE00000E004E003F0AEFCC0F384618DE7C0F3E3
:100DF000846091E703F0A6FCC0F38461A2E7C0F32E
:100E00008460A6E703F09EFCC0F38461B7E7C0F3FB
:100E10008460BBE703F096FCC0F38461CCE7C0F3C9
:100E20008460D0E72A7B296850F8B03FC1F3120CE8
:100E300023EA0C0302F0180C664A22FA0CF20A406C
:100E400013430360E968494577D1286841031CD002
:100E500090FAA0F1B1FA81F1491C01F01F010929B2
:100E60004FEA403132D8002912D000BF90FAA0F1E9
:100E7000B1FA81F101F1010101F01F0106FA01F659
:100E800009D100BFC0F3846109E0C0F38461E3E7E6
:100E9000C0F38461EEE790FAA0F1B1FA81F101F1BB
:100EA000010101F01F0146EA816102D1C0F38460B3
:100EB00003E090FAA0F0B0FA80F000F1010000F039
:100EC0001F0000EB400041EA005132E000290ED043
:100ED00090FAA0F1B1FA81F101F1010101F01F01D5
:100EE00006FA01F606D100BFC0F3846106E0C0F344
:100EF0008461F1E790FAA0F1B1FA81F101F1010109
:100F000001F01F0146EA816102D1C0F3846003E071
:100F100090FAA0F0B0FA80F000F1010000F01F009C
:100F20002D4A00EB400002EB005041EA000141F085
:100F30000071AA68206803F01FFC28482A68024252
:100F40003FF466AE26488168264B01F0E0719A4274
:100F500002D0254B9A421CD10B021AD42268B2F15E
:100F6000A04F7FF455AE826841F4000122F0E07298
:100F70000A4382601D481E490068B0FBF1F0401C26
:100F800000EB4000800000E0401E00900028FBD1F4
:100F90003EE6184D184BAA4207D1CD0105D4226870
:100FA0009A42F5D041F0807109E0144DAA42EFD188
:100FB0004A02EDD422689A42EAD041F48001826864
:100FC00022F0E0720A43826022E6000000007F40C7
:100FD00000F0FF03FFFF0700000020FE0000088074
:100FE00000030050000021C31000C09068000020E2
:100FF000400D0300000052C700010050000084CBE8
:101000000068006C70470000F8B54FF00005040060
:101010002E46009502D0E06D10B107E00120F8BD2A
:10102000204600F0EBF8266684F858602068816856
:10103000C1F3407119B18168684A1140816020682C
:101040008168C1F3007189B98168654A114041F036
:1010500080518160634864490068B0FBF1F0400052
:10106000801C00E0401E00900028FBD120688168B1
:10107000C1F3007141B9E16D41F01001E165216EEC
:1010800041F001012166012503F066FBE16DC9060F
:1010900000D430B1E06D40F01000E0650125284635
:1010A000F8BDE06D20F4807040F00200E06520683B
:1010B000806810F0010F11D14FF0A04080684B49BB
:1010C00000F00100896801F00101084306D1484899
:1010D0006168826822F47C120A438260E168E06BF6
:1010E000627F0843A16841EA4231084394F8241022
:1010F00040EA0140012904D1218D3E4A02EB4141E1
:101100000843E16A29B101F47871226B014342EA94
:1011100001002268D168384B19400143D160206832
:101120000169626B21F0406111430161206803F0A5
:101130000FFB70BB207F94F83810800340EA410217
:101140002168C86844F2020398431043C8602069CC
:101150000028206801690AD041F4803101612068CB
:1011600050F8C01F22696FF30D01114307E021F40D
:1011700080310161206850F8C01F6FF30D010160DC
:1011800094F8400001280CD02068016921F0010189
:101190000161606901282068016B21F00F0111D005
:1011A00013E0D4E911010843D4E9131211430843B1
:1011B00021680A6940F2FC739A43104340F0010031
:1011C0000861E6E7226A521E11430163E06D20F0D8
:1011D000020040F00100E06561E70000C0FFFF5F32
:1011E000C0FFFF7F68000020400D03000001005099
:1011F000000300500000FEFF0740F0FF2DE9F04320
:1012000097B00446142111A8FFF73CF84421684622
:10121000FFF738F84FF0005021682D4D0327DFF815
:10122000B49086132C4C4FF00008B1F1A04F10D0B1
:101230002A4A914248D100960F90684600F0F8FB88
:1012400008B1FFF7A9FB2868401C2860012824D0BA
:101250002BE000960F90684600F0EAFB08B1FFF71C
:101260009BFB2868401C2860012807D1E06C40F4F3
:101270000050E064E06C00F400501690E06C40F028
:101280000200E064E06C11A900F0020016904FF437
:10129000805081E88101484614E0E06C40F4005041
:1012A000E064E06C00F400501690E06C40F0020046
:1012B000E064E06C11AA00F00200169082E8C00120
:1012C00011A9484600F088F917B0BDE8F083000086
:1012D00058000020000400480010024000010050A7
:1012E0002DE9F04104463B480F46816801F01F0597
:1012F000A16908290FD085B1052D0ED0092D0CD07C
:10130000806800F4604060B1E06D40F02000E0656E
:101310000120BDE8F081082604E02068C068C0070D
:10132000F1E7042600F086FA804615E0781C13D019
:1013300000F080FAA0EB0800B84200D867B9206836
:101340000068304208D1E06D40F00400E065002004
:1013500084F858000320DCE7206800683042E5D0BC
:10136000E06D40F40070E065206803F0FDF980B1A5
:10137000607F70B92068006800070AD5E06D20F42E
:101380008070E065E06DC00403D4E06D40F00100C2
:10139000E065114A20684FF0A041904201D10B4610
:1013A00000E00346834210D07DB1052D0DD0092DFC
:1013B0000BD0904200D00146C968082E07D04904DE
:1013C00001D40C2101600020A3E7C168F5E70821E2
:1013D000F8E7000000030050000100502DE9F04143
:1013E00004463848806800F01F05206803F0B4F90F
:1013F00018B102210846BDE8F08194F85800012890
:101400000CD0012084F858002046FFF75FFA010055
:101410004FF0000304D084F85830EBE70220EAE7ED
:10142000E06D40F60162904340F48070E065264A2A
:1014300020684FF0A046904201D1374600E00746B1
:10144000874200D01DB9E76D27F48017E765E76D87
:10145000FF0404D5276E27F00607276600E0236601
:101460001C27076084F858302068904201D1334629
:1014700000E00346834215D0A5B1052D12D0092DF9
:1014800010D0E36D43F48013E365904200D1304601
:10149000C0688001AED5E06D20F4005040F480506B
:1014A000E065A7E7C268920105D5E26D22F400521B
:1014B00042F48052E2658268044B1A40121D826039
:1014C00098E700000003005000010050C0FFFF7FBC
:1014D00010B590F8253000210122022B03D0042101
:1014E000C163012122E003681C6824F00E041C6023
:1014F000836C1C6824F480741C6003681C6824F0EE
:1015000001041C6090F84430046C03F01F0302FADD
:1015100003F36360D0E913345C60436D33B11C683E
:1015200024F480741C60D0E916345C6080F82520B7
:10153000002280F82420084610BD70B590F82520C0
:10154000002401212346022A07D00422C26380F826
:10155000251080F82430012429E00268156825F060
:101560000E0515600268156825F001051560826C8E
:10157000156825F48075156090F84420056C02F01C
:101580001F0201FA02F26A60D0E913255560426D2C
:1015900032B1156825F480751560D0E916255560BF
:1015A00080F8251080F82430816B01B188472046EF
:1015B00070BD000070B5044600F03CF90546601CA3
:1015C00002D004484068044400F034F9401BA042B3
:1015D000FAD370BD5C0000202DE9F04FDFF82092B7
:1015E000002301260324A9F1040B85B00F2709F17C
:1015F000040AABF1040EFAE006FA03F52A407CD0A7
:1016000091F804C00CF0030CBCF1010F02D0BCF146
:10161000020F26D1D0F808C0CDF800C04FEA430C25
:1016200004FA0CF8CDF810C0DDF800C02CEA080C64
:10163000CDF800C0D1F80C80DDF810C008FA0CF825
:10164000DDF800C048EA0C08C0F80880D0F804C0F3
:101650002CEA050C0D79C5F300159D4045EA0C05F3
:1016600045600D79ED43AD070ED0C5684FEA4308DC
:1016700004FA08FC25EA0C05D1F808C00CFA08FCAD
:101680004CEA050CC0F80CC00D7905F00305022DDD
:1016900016D1DD0800EB850CCDF808C0DCF8208001
:1016A0005D074FEAD56C07FA0CF528EA05080D69C5
:1016B00005FA0CF5DDF808C045EA0805CCF820501D
:1016C00005684FEA430CCDF808C004FA0CFC25EA83
:1016D0000C0591F804C00CF00308DDF808C008FA06
:1016E0000CF848EA0508C0F800804D6815F4403F42
:1016F0007CD0444DD5F860C000E077E04CF0010CA0
:10170000C5F860C02D6E23F0030C05F001050095AF
:101710003D4D65440295AD684FEA837C4FEA1C78E5
:1017200007FA08FC25EA0C05B0F1904F06D0DFF867
:10173000DCC0604505D14FF0010C20E04FF0000CFB
:101740001DE0DFF8CCC0604502D14FF0020C16E07E
:10175000DFF8C0C0604502D14FF0030C0FE0DFF8A6
:10176000B8C0604502D14FF0040C08E0DFF8ACC00F
:10177000604502D14FF0050C01E04FF0060C0CFA69
:1017800008FC4CEA050C029DC5F808C0D9F80050C9
:10179000CC46D1F8048095435FEAC82800D51543AC
:1017A000CCF80050DAF80050D446D1F804809543C4
:1017B0005FEA882800D51543CCF80050DBF80050CC
:1017C000DC46D1F8048095435FEA883800D515439C
:1017D000CCF80050DEF80050F446D1F80480954370
:1017E0005FEAC83800D51543CCF800505B1C0A6886
:1017F00032FA03F57FF400AF05B0BDE8F08F0000CA
:1018000008040140001002400000014000040048AC
:1018100000080048000C0048001000480014004870
:101820000069084000D0012070470AB1816170470B
:101830008162704701488068704700005C000020AA
:101840000248816842681144816070475C00002052
:1018500010B50024032000F073F80F2000F008F802
:1018600008B1012401E000F025F8204610BD000079
:1018700070B50E4E05460024706898B14FF47A7129
:10188000B1FBF0F00A490968B1FBF0F000F0F8FE96
:1018900040B9102D06D200222946501E00F030F823
:1018A000356000E00124204670BD00005C0000208F
:1018B000680000200A4882B0016E41F00101016613
:1018C000016E01F001010091816D41F0805181654F
:1018D000806D00F08050009002B000F0A1B80000D0
:1018E00000100240002809DB00F01F020121914096
:1018F0004009800000F1E020C0F8001170470000AE
:10190000F0B40E4B1B680C46C3F30223C3F107056A
:10191000042D00D90425191D072901D2002300E058
:10192000DB1E012606FA05F1491E214099409E4022
:10193000761E16403143F0BC04F010BE0CED00E002
:10194000064900F0070208684FF6FF03184040EA16
:101950000220034A10430860704700000CED00E0CD
:101960000000FA052B492C4B0A6832214A432B49C7
:1019700040B1B0F5007F086829D020F4C06040F481
:1019800080602CE00868C0F34120022804D051F8A0
:10199000800F20F4807022E0D1F8800020F4807065
:1019A000C1F88000086820F4C06040F4007008604E
:1019B000B2FBF3F0401C00E0401E4A69520501D51D
:1019C0000028F9D1486940050AD503207047C0F3C3
:1019D0004120022806D051F8800F40F48070086042
:1019E00000207047D1F8800040F48070C1F880007A
:1019F000086820F4C06040F400700860B2FBF3F0A7
:101A0000401C00E0401E4A695205DBD50028F9D190
:101A1000D8E700006800002040420F00007000403E
:101A20000248816841F48041816070470070004045
:101A30002DE9F8430446006800269D4D00035ED55D
:101A4000A86D0027C00008D4A86D40F08050A8659C
:101A5000A86D012700F080500090DFF85892D9F867
:101A6000001041F48071C9F80010FFF7E3FE8046D2
:101A700006E000BFFFF7DEFEA0EB080002282BD82F
:101A8000D9F80000C005F5D5D5F8900010F44070E5
:101A900014D0216C814211D0D5F89000D5F8901067
:101AA00020F4407041F48031C5F89010D5F89010C2
:101AB00021F48031C5F89010C5F89000C00711D00E
:101AC000FFF7B8FE804641F2883907E0FFF7B2FE23
:101AD000A0EB0801494501D903260BE0D5F8900099
:101AE0008007F3D5D5F89000216C20F440700843AE
:101AF000C5F890001FB1A86D20F08050A86520782F
:101B0000C00707D0D5F88800616820F003000843BB
:101B1000C5F888002078800707D5D5F88800A16827
:101B200020F00C000843C5F888002078400707D54E
:101B3000D5F88800E16820F030000843C5F8880037
:101B40002078000707D5D5F88800216920F0C0006B
:101B50000843C5F888002078800607D5D5F88800A6
:101B6000616920F440600843C5F888002078400689
:101B700007D5D5F88800A16920F440500843C5F87E
:101B800088002078000607D5D5F88800E16920F4A0
:101B900040400843C5F888002088C00507D5D5F81F
:101BA0008800216A20F440300843C5F88800208866
:101BB000800507D5D5F88800616A20F440200843E5
:101BC000C5F88800208840050FD5D5F88800A16A9F
:101BD00020F440100843C5F88800A06AB0F5801FC3
:101BE00003D1E86840F48010E860208800050FD534
:101BF000D5F88800E16A20F440000843C5F8880061
:101C0000E06AB0F5800F03D1E86840F48010E86026
:101C10002088C0040FD5D5F88800216B20F04070D3
:101C20000843C5F88800206BB0F1807F03D1E868D5
:101C300040F48010E86020884FF0006180040ED5E9
:101C4000D5F88800626B20F040601043C5F888002A
:101C5000606B884203D1E86840F48010E860208817
:101C600040040ED5D5F88800A26B20F040601043E8
:101C7000C5F88800A06B884203D1E86840F4801062
:101C8000E860208800040FD5D5F88800E16B20F0CB
:101C900040500843C5F88800E06BB0F1805F03D185
:101CA000E86840F48030E8603046BDE8F883000022
:101CB00000100240007000402DE9F0470E4605007C
:101CC0004FF0000725D0DFF8AC81D8F8000000F015
:101CD0000F00B0420CD2D8F8001021F00F013143B0
:101CE000C8F80010D8F8000000F00F00B04210D182
:101CF0002968614CC80741F2883A5AD06868DFF811
:101D00007C91032808D0022820682DD040050028A7
:101D10002CDB0120BDE8F08720688001F9D5E06860
:101D200000F00302E068C0F30310401C032A19D03E
:101D3000534A00BFB2FBF0F0E268C2F30622504300
:101D4000E268C2F34162521C5200B0FBF2F0484517
:101D500017D9A06810F0F00F0CD0880711D5A8682B
:101D600040B10EE0474AE5E78003D0E700F0B6F85F
:101D7000484506D9A06820F0F00040F08000A0603F
:101D80008027A068696820F003000843A060FFF77F
:101D900051FD814606E000BFFFF74CFDA0EB0901B5
:101DA00051453AD8A068696800F00C00B0EB810F8B
:101DB000F2D12868810714D5400703D5A06840F404
:101DC000E060A0602878000705D5A06820F4605086
:101DD00040F4E060A060A068A96820F0F00008432B
:101DE00004E0802F03D1A06820F0F000A060D8F8B4
:101DF0000010404601F00F01B14216D9016821F0F0
:101E00000F0131430160FFF715FD074607E000BFF2
:101E1000FFF710FDC11B514501D903207AE7D8F81F
:101E2000000000F00F00B042F2D12878400705D53D
:101E3000A068E96820F4E0600843A0602878000703
:101E400006D5A068296920F4605040EAC100A0606E
:101E500000F044F8A1680C4AC1F30311515C01F091
:101E60001F01C8400949086009480068BDE8F047FB
:101E7000FFF7FEBC002002400010024000B4C40482
:101E80000024F40000366E01E46F000868000020B2
:101E90005C0000200548064900688968054AC1F3CE
:101EA0000221515C01F01F01C8407047680000200A
:101EB00000100240F46F0008054806490068896870
:101EC000054AC1F3C221515C01F01F01C8407047AF
:101ED0006800002000100240F46F0008184910B597
:101EE0008868C0F381021748012A0BD08A68164B14
:101EF000C2F38102022A06D08A68C2F38102032A51
:101F000003D0002010BD184610BDCA6802F00304BB
:101F1000CA68C2F30312521C032C02D0B0FBF2F0C9
:101F200001E0B3FBF2F0CA68C968C2F3062250436D
:101F3000C1F34161491C4900B0FBF1F010BD000044
:101F4000001002400024F40000366E012DE9F84331
:101F500004007AD02078F84DC00747D0A868E96817
:101F600000F00C0001F003010C2802D0082817D063
:101F700001E0032914D06068B0F5803F17D0B0F5B8
:101F8000A02F286817D020F480302860286820F41B
:101F9000802028606068E0B1FFF74CFC064614E042
:101FA0002868800322D560680028D2D01EE0286807
:101FB00040F48030EDE740F480202860F7E700BF70
:101FC000FFF738FC801B642870D828688003F7D599
:101FD0000CE0FFF72FFC064605E000BFFFF72AFCE8
:101FE000801B6428F0D828688003F7D42078800705
:101FF0004CD5A868E96800F00C0001F003010C283A
:1020000002D004280DD001E002290AD0E06800289F
:1020100028682BD040F480702860FFF70BFC064640
:1020200019E02868400502D5E068002891D068686A
:10203000217C20F0FE4040EA01606860BF480068F3
:10204000FFF716FC002800D120E072E1FFF7F2FB59
:10205000801B0228B8D828684005F7D56868217C1D
:1020600020F0FE4040EA016068600FE020F48070DC
:102070002860FFF7DFFB064605E000BFFFF7DAFB4D
:10208000801B0228A0D828684005F7D420780007D4
:1020900029D560690028D5F8940013D040F00100DC
:1020A000C5F89400FFF7C6FB064606E090E000BFC7
:1020B000FFF7C0FB801B022886D8D5F89400800764
:1020C000F6D510E020F00100C5F89400FFF7B2FB50
:1020D000064604E0FFF7AEFB801B022878D8D5F84F
:1020E00094008007F6D42078400761D5A86D0026BB
:1020F000C00008D4A86D40F08050A865A86D0126E6
:1021000000F0805000908E480168C90511D4016824
:10211000804641F480710160FFF78CFB074604E0C4
:10212000FFF788FBC01B022852D8D8F80000C00572
:10213000F6D5A068012815D00528D5F8900016D04E
:1021400020F00100C5F89000D5F8900020F00400C0
:10215000C5F89000A06841F28838B8B1FFF76AFB73
:1021600007460EE0D5F8900040F00100F0E740F09F
:102170000400C5F89000F5E7FFF75CFBC11B414583
:1021800026D8D5F890008007F6D50CE0FFF752FB73
:10219000074604E0FFF74EFBC11B414518D8D5F8B0
:1021A00090008007F6D41EB1A86D20F08050A8657D
:1021B0002078800629D5A0690028D5F8980013D08A
:1021C00040F00100C5F89800FFF734FB064606E032
:1021D00075E000BFFFF72EFB801B02286FD8D5F8F3
:1021E00098008007F6D510E020F00100C5F89800AF
:1021F000FFF720FB064604E0FFF71CFB801B0228CC
:102200005DD8D5F898008007F6D4E069F0B3A968E6
:10221000C1F3810103295DD00228286820F0807075
:10222000286003D0FFF706FB04464BE0FFF702FBF4
:10223000064604E0FFF7FEFA801B02283FD8286814
:102240008001F7D4F4E908016FF00F0202EB0111ED
:102250000843218A5204490802EB4151A26841EA2D
:1022600002210843217D4FF07E42490802EB416183
:102270000843217B40EAC160E968324A11400843C3
:10228000E860286840F08070286000E05EE0E86860
:1022900040F08070E860FFF7CDFA044605E000BF2B
:1022A000FFF7C8FA001B022809D828688001F7D573
:1022B0004CE000BFFFF7BEFA001B022802D9032042
:1022C000BDE8F88328688001F4D4E8681E49084016
:1022D000E8603BE00128F3D0E868226A00F00301DF
:1022E000914226D1616A00F0F00209011039914251
:1022F0001FD1A26A00F4FE41B1EB022F19D194F86C
:102300002C2000F07841B1EBC26F12D1218E00F485
:10231000C00249084905A1F50011914209D194F87C
:10232000341000F0C06049084906A1F100718142F3
:102330000CD00120C4E70000001002405C00002027
:10234000007000400C809F01FCFFEEFE0020B7E70C
:1023500010B500680B4641680D480140080CD87064
:10236000C1F304245C7001F03F049C70C1F342315E
:10237000197052B902F01AFFD870587802F016FF9F
:102380005870987802F012FF9870002010BD00007D
:102390003FFFFF0010B50B4601688968596001686E
:1023A0000969C1F30E019960006801680D48014098
:1023B000C1F305401870C1F306245C7001F07F047E
:1023C0009C70890DD97052B902F0F0FE18705878DF
:1023D00002F0ECFE5870987802F0E8FE9870002049
:1023E00010BD00007F7F7F0070B504004FF001003A
:1023F00040D094F8250028B9002084F82400204615
:1024000000F040F8022084F825002068C168C94324
:10241000C90630D5CA21416221685320486220464E
:1024200002F0DAFE10BB20688169154A1140816113
:10243000216888696268A369104322691A431043BE
:1024400088612189E06840EA0140216808612046EE
:1024500002F0E7FE50B9D4E907211143226863690D
:10246000956925F060452B43194391612268FF214E
:10247000516208B170BD0020012184F8251070BDA3
:10248000BFFF8FFB10B592B0044644216846FDF7AC
:10249000F9FE1049206888421AD14FF400200090BC
:1024A0004FF4407010906846FFF7C2FA08B1FEF78B
:1024B00073FA094850F8901F41F4004140F8381968
:1024C000016841F480610160006800F4806011904F
:1024D00012B010BD002800400010024070B5044644
:1024E00090F824000B4601281BD0012684F82460B4
:1024F000022084F82500B2B19878D97840EA0145E5
:1025000058781978000240EA413005432168CA2012
:102510004862216853204862204602F05DFED0B137
:1025200020E0022070BD5878C10603D500F0EF000E
:102530000A305870D87802F042FE0504587802F04C
:102540003EFE45EA0025987802F039FE05431878EA
:1025500045EA4035DAE708480540206845602046EE
:1025600002F05FFE2268FF21516208B984F82560FD
:10257000002184F8241070BD3FFFFF002DE9F041D9
:10258000044690F8240090460D46012811D00127FA
:1025900084F82470022084F825002168CA2048624B
:1025A000216853204862204602F016FE002618B12A
:1025B00029E00220BDE8F0812068B8F1000F8069B1
:1025C0004FEA406024D0002800DBEE70A87829781C
:1025D000EA7840EA01406978090241EA82510843F9
:1025E00018490840216808602068816921F4802129
:1025F0008161D5E90301084321688A691043886134
:10260000204602F00EFE2268FF215162A0B115E0C3
:10261000002800DBEE70287802F0D1FD0304687812
:1026200002F0CDFD43EA0023A87802F0C8FD034381
:10263000E87843EA8050D3E784F8257084F8246072
:10264000B8E700007F7F7F0070B504460B48216823
:10265000C860FFF7EFF805464FF47A7607E000BF51
:10266000FFF7E8F8401BB04201D9032070BD206895
:10267000C0688006F4D5002070BD00005F00010036
:1026800010B5401EB0F1807F01D3012010BD4FF086
:10269000E02460610F21601703F060FF0020A0615B
:1026A00007202061002010BD704770477047000070
:1026B00030B590F83C20012A42D0012280F83C201D
:1026C000CA688B6822F440721A434B6822F4806215
:1026D0001A430B6822F400621A430B6922F48052F9
:1026E0001A434B6922F400521A430B6B22F48042C6
:1026F0001A430B8B22F4702242EA0342CB6922F088
:1027000080521A430F4D03680024AB4202D00E4D95
:10271000AB4210D10D8D22F4700242EA05520D6ACF
:1027200022F080722A434D6A22F000722A43C96A5D
:1027300022F000520A435A6480F83C40002030BD29
:10274000022030BD002C014000340140704770472A
:1027500070470000F0B590F83C20012A3AD00125DE
:1027600080F83C50022280F83D2003685A689C683B
:10277000194E1A4FB34201D0BB4204D122F4700C5F
:102780004A6842EA0C02DFF858C002EA0C02D1F8AB
:1027900000C04CEA020CC3F804C00268B2420DD07B
:1027A000B2F1804F0AD00F4B9A4207D00E4B9A429B
:1027B00004D0BA4202D00D4B9A4204D1896824F069
:1027C00080031943916080F83D50002180F83C104F
:1027D0000846F0BD0220F0BD002C0140003401404D
:1027E0008FFFFFFD00040040000800400040014052
:1027F000704710B5040003D094F83D0010B107E015
:10280000012010BD002084F83C00204600F022F892
:10281000022084F83D00211D206802F01FFE0120E7
:1028200084F8480084F83E0084F83F0084F84000B3
:1028300084F8410084F8420084F8430084F844009E
:1028400084F8450084F8460084F8470084F83D0089
:10285000002010BD70B586B0044614216846FDF70F
:1028600011FD236800224849022401254FF09040C1
:10287000B3F1804F26D0454EB34244D1886D40F02D
:1028800002008865886D00F002000590C86C40F079
:102890000200C864C86C694600F002000590102070
:1028A0000090CDE90142CDE903243948FEF794FEBA
:1028B000002211461D20FFF723F81D20FFF712F814
:1028C00006B070BD8B6D43F001038B658B6D03F01B
:1028D00001030593CB6C43F00103CB64C96C01F099
:1028E000010105914FF400410091CDE90142CDE98C
:1028F00003256946FEF770FE002211461C20FEF7F4
:10290000FFFF1C20DAE7234EB3420ED1886D40F062
:1029100004008865886D002200F0040005901146CF
:102920001E20FEF7EDFF1E20C8E71B4EB34208D164
:10293000086E40F400300866086E00F40030059020
:10294000BEE7164EB342BBD10B6E43F480230B6639
:102950000B6E03F480230593CB6C43F00103CB642F
:10296000C96C01F00101059180210091CDE901427E
:10297000CDE903256946FEF72FFE002211461A20F5
:10298000FEF7BEFF1A2099E7001002400004004045
:102990000004004800080040004401400048014095
:1029A00090F83D10012901D001207047022180F8E4
:1029B0003D100168CA6842F00102CA60006810490F
:1029C00088420ED0B0F1804F0BD00E49884208D01B
:1029D0000D49884205D00D49884202D00C498842F1
:1029E00007D181680B4A1140062906D0B1F5803F16
:1029F00003D0016841F00101016000207047000030
:102A0000002C014000040040000800400034014058
:102A1000004001400700010070B5044690F83C00FA
:102A20000025012814D0012684F83C60022084F897
:102A30003D0022689068364B184020F47F4090603B
:102A4000086870282ED010DC10F00F0F03D021E0A2
:102A50004FF0020070BD4FEA2012072A1AD2DFE8B9
:102A600002F0525252524A3840002A4BC21A98423F
:102A700049D009DCB0F5805F0DD0B0F5005F1CD007
:102A8000B0F1101F06D13EE0102A3CD0202A3AD0E7
:102A9000502A38D0012584F83D60002084F83C009D
:102AA000284670BDCB68D1E90121206802F041FDC4
:102AB0002068816841F0770109E0CB68D1E9012104
:102AC000206802F036FD2068816841F48041816011
:102AD000E1E7CA684968206802F0D6FE5021206804
:102AE00006E0CA684968206802F016FF6021206885
:102AF00002F02AFDCFE7CA684968206802F0C4FEE8
:102B000040212068F4E7226801461046F0E7000003
:102B100088FFCEFF2000100090F83C20012A0CD046
:102B2000012200F83C2F0223437050F83C3C5961CD
:102B30004270002101700846704702207047000073
:102B400008B5104A0168914202D1027F012A10D0D3
:102B50000D4A91420CD1017F012909D10B49009105
:102B6000A1F11803A1F10802B1F10C0102F054F92E
:102B700008BD0649091FA1F11603A1F10C0200913D
:102B80001039F3E70048014000040040B400002081
:102B90002DE9F041054690F83C0000260C4601283E
:102BA00010D0012085F83C0072B1042A1CD0082AFC
:102BB0002CD00C2A50D00126002085F83C0030464D
:102BC000BDE8F0810220FBE7D4E90012E368286841
:102BD00002F06CFE2868816921F00C01816128688F
:102BE0008169A26811430FE0D4E90012E368286804
:102BF00002F0A4FE2868816921F44061816128689F
:102C00008169A26841EA02218161D5E72868D4E997
:102C1000002C277B036A016A21F480710162C1697B
:102C200023F4206321F0030141EA0C0121F0F00CB0
:102C300039074FF420674CEA116107EA02221A4370
:102C4000C16102622868C16921F00C01C161286874
:102C5000C169A26811432BE02868D4E90021E76824
:102C6000036AD0F820C02CF4805CC0F820C0D0F8F3
:102C70001CC023F420432CF4407C4CEA012121F4B5
:102C8000704C4FF6FF7101EA07314FF4204741EADB
:102C90000C0107EA02321A43C16102622868C16965
:102CA00021F44061C1612868C169A26841EA02213A
:102CB000C16181E710B5040003D094F83D0010B164
:102CC00007E0012010BD002084F83C00204600F001
:102CD00022F8022084F83D00211D206802F0BEFB8E
:102CE000012084F8480084F83E0084F83F0084F80E
:102CF000400084F8410084F8420084F8430084F8DE
:102D0000440084F8450084F8460084F8470084F8BD
:102D10003D00002010BD704710B5044679B104296C
:102D200012D0082915D00C2918D0102919D094F8E0
:102D3000430000BF94F84720012817D114E094F80D
:102D40003E0094F84420F7E794F83F0094F84520BB
:102D5000F2E794F8400094F84620EDE794F841003B
:102D6000E8E794F84200E5E7012A01D0012010BD10
:102D7000022081B3042934D0082937D00C293AD055
:102D800010293BD084F8430084F8470001222068D2
:102D900002F0C2FB1B49206888420ED0B0F1804F80
:102DA0000BD01949884208D01849884205D01849E3
:102DB000884202D01749884207D18168164A1140DB
:102DC000062906D0B1F5803F03D0016841F001012A
:102DD0000160002010BDFFE784F83E0084F8440045
:102DE000D4E784F83F0084F84500CFE784F840003A
:102DF00084F84600CAE784F84100C5E784F8420039
:102E0000C2E70000002C0140000400400008004020
:102E100000340140004001400700010030B5044685
:102E2000002571B1042911D0082914D00C2917D01C
:102E3000102918D094F8430094F84720012817D19E
:102E400014E094F83E0094F84420F7E794F83F002B
:102E500094F84520F2E794F8400094F84620EDE716
:102E600094F84100E8E794F84200E5E7012A01D030
:102E7000012030BD022079B1042916D008291DD0C7
:102E80000C2949D010294AD084F8430084F847001F
:102E90000C2947D001253DE084F83E0084F8440029
:102EA0002068C26842F0020210E084F83F0084F813
:102EB00045002068C26842F0040207E084F8400040
:102EC00084F846002068C26842F00802C26001220D
:102ED000206802F021FB1649206888420ED0B0F12C
:102EE000804F0BD01349884208D01349884205D03F
:102EF0001249884202D01249884207D18168114A9A
:102F00001140062906D0B1F5803F03D0016841F099
:102F100001010160284630BD84F84100B6E784F81D
:102F20004200B3E72068C26842F01002CEE700001A
:102F3000002C014000040040000800400034014023
:102F400000400140070001002DE9F04104460068FF
:102F5000C66805694FF00007A90713D5B10711D559
:102F6000F91E0161012020772068806980072046D2
:102F700002D0FFF7E5FD04E000F0F2F8204600F093
:102F8000B4F92777680716D5700714D521686FF054
:102F900004000861022020772068806910F4407FD7
:102FA000204602D0FFF7CCFD04E000F0D9F820461F
:102FB00000F09BF92777280715D5300713D521682E
:102FC0006FF008000861042020772068C06980073E
:102FD000204602D0FFF7B4FD04E000F0C1F820461F
:102FE00000F083F92777E80616D5F00614D5216896
:102FF0006FF010000861082020772068C06910F485
:10300000407F204602D0FFF79BFD04E000F0A8F8C7
:10301000204600F06AF92777E80708D0F00706D0C5
:1030200021686FF001000861204600F0DDF92806F4
:1030300001D4A80408D5300606D521686FF40250E3
:1030400008612046FFF731FBE80508D5300606D5B4
:1030500021686FF4807008612046FFF725FB680641
:1030600008D5700606D521686FF04000086120463B
:1030700000F041FAA80608D5B00606D521686FF021
:10308000200008612046FFF711FBE80208D5F00296
:1030900006D521686FF4801008612046FFF757FBC2
:1030A000A80208D5B00206D521686FF400100861A7
:1030B0002046FFF74BFB680208D5700206D5216851
:1030C0006FF4800008612046FFF742FB28020AD512
:1030D000300208D521686FF4000008612046BDE881
:1030E000F041FFF785BBBDE8F081000070B586B008
:1030F000044614216846FDF7C5F8256800231649E3
:10310000022201244FF09040B5F1804F14D0134EAD
:10311000B5420FD1CD6C45F00105CD64C96C01F00D
:103120000101059140218DE80E00CDE90334694687
:10313000FEF752FA06B070BDCD6C45F00105CD64C6
:10314000C96C0092CDE9012301F00101CDE90441F0
:1031500003936946ECE70000001002400044014080
:10316000704770B5044690F83C0000260D460128D3
:103170000BD0012084F83C000C2A4AD007DC82B135
:10318000042A20D0082A06D131E0022070BD102A7E
:1031900053D0142A63D00126002084F83C00304626
:1031A00070BD206802F0DAF92068816941F00801F9
:1031B00081612068816921F0040181612068816951
:1031C0002A69114311E0206802F016FA206881692B
:1031D00041F4006181612068816921F4806181612D
:1031E000206881692A6941EA02218161D4E7206867
:1031F00002F04AFA2068C16941F00801C161206803
:10320000C16921F00401C1612068C1692A691143C3
:1032100011E0206802F080FA2068C16941F4006181
:10322000C1612068C16921F48061C1612068C16900
:103230002A6941EA0221C161AEE7206802F0B4FACE
:103240002068016D41F0080101652068016D21F0E1
:10325000040101652068016D2A69114311E02068AD
:1032600002F0DAFA2068016D41F40061016520681E
:10327000016D21F4806101652068016D2A6941EAD0
:103280000221016588E710B5040003D094F83D00E1
:1032900010B107E0012010BD002084F83C0020465A
:1032A00000F022F8022084F83D00211D206802F081
:1032B000D5F8012084F8480084F83E0084F83F00E7
:1032C00084F8400084F8410084F8420084F8430008
:1032D00084F8440084F8450084F8460084F84700E8
:1032E00084F83D00002010BD7047704730B504469B
:1032F000022269B1042912D0082917D00C291CD048
:10330000102921D094F84300012824D0012030BD99
:1033100094F83E000128F9D184F83E201DE094F88D
:103320003F000128F2D184F83F2016E094F84000D5
:103330000128EBD184F840200FE094F841000128E7
:10334000E4D184F8412008E094F842000128DDD15E
:1033500084F8422001E084F843200122206802F032
:10336000DBF8194B20681949194A984209D088425C
:1033700007D0904205D0174DA84202D0164DA84262
:1033800003D1456C45F400454564206898420CD053
:10339000B0F1804F09D0114B984206D0104B9842A3
:1033A00003D0884201D0904207D181680D4A114074
:1033B000062906D0B1F5803F03D0016841F0010134
:1033C0000160002030BD0000002C014000340140AD
:1033D000004001400044014000480140000400401A
:1033E0000008004007000100F8B500683449884231
:1033F00051D1344C01212046FEF712FA8DF800001D
:1034000002212046FEF70CFA8DF801000421204627
:10341000FEF706FA8DF8020001214FF09040FEF70A
:10342000FFF98DF80300284E00200125321DA2F17E
:103430000C01EC46A6F1040E044601F11C0300BF8A
:103440001CF800703754002F0F5C10D0022F23D0CF
:10345000175CEFB11EF800707F1CFFB20EF8007011
:10346000142F15D3184F08373D54145410E027B1CA
:10347000012F06D0022F06D00AE00D5423F8104089
:1034800006E002270F5433F810707F1C23F81070E9
:10349000401C0428D4DBF8BD33F81070642F0CD224
:1034A000175C97F00107175402D00EF8004002E0B5
:1034B000054F0C373D540C54EAE7034F1037F9E73A
:1034C00000080040000400487A0000200246002066
:1034D00041B1042909D008290AD00C2901D110686A
:1034E000006C70471068406B70471068806B7047C5
:1034F0001068C06B7047704790F88410012918D08D
:10350000012180F884102421C0F8881001680A681D
:103510000B6823F001030B6022F000510022426689
:10352000036819602021C0F8881080F884201046B4
:103530007047022070477047704770B5044690F896
:10354000840001281DD0012084F884002420C4F8C0
:10355000880020680568026822F001020260206885
:10356000826822F060620A438260204602F002FA1A
:10357000206805602020C4F88800002084F88400BA
:1035800070BD022070BD70B5044690F8840001281B
:103590001DD0012084F884002420C4F8880020680D
:1035A0000568026822F0010202602068826822F049
:1035B00060420A438260204602F0DCF92068056020
:1035C0002020C4F88800002084F8840070BD022008
:1035D00070BD7047704770472DE9F041036804469D
:1035E000D86919689A6840F60F0528424FF000051F
:1035F0004FF002060AD187067ED501F0200702F0BF
:10360000805C57EA0C0777D0616F3AE1B24FDFF880
:10361000CCC2174001EA0C0C57EA0C0C6CD05FEAE4
:10362000C07C0CD05FEAC15C09D54FF0010CC3F837
:1036300020C0D4F8903043F00103C4F890308307E1
:1036400009D5D30707D023681E62D4F8903043F021
:103650000403C4F8903043070AD5D30708D026687E
:1036600004233362D4F8903043F00203C4F890305E
:1036700003070CD501F020033B4308D0266808233C
:103680003362D4F8903043F00803C4F89030030557
:103690000BD54B0109D526684FF400633362D4F88B
:1036A000903043F02003C4F89030D4F89030002BD1
:1036B0003DD0800609D501F0200002F0805108437A
:1036C00003D0616F09B120468847D4F89000216883
:1036D0008968490602D410F0280F2AD0204602F04B
:1036E0002FFA2068806840061ED52068083050E810
:1036F000001F21F0400100E021E040E80012002A14
:10370000F3D1D4F8800078B175498163D4F8800092
:10371000FDF713FF00280AD0D4F88000816B00E089
:103720002046BDE8F04108472046FFF754FFBDE8BA
:10373000F0812046FFF74FFFC4F89050F7E7D4F828
:103740006CC02027BCF1010F7ED15FEAC06C7BD535
:103750005FEAC16C78D51020186220688068400646
:1037600045D5D4F88010086840680004000CDED00D
:10377000B4F85C208242DAD9A4F85E0008680068D8
:1037800080062CD4216851E8000F20F4807041E8B5
:103790000002002AF6D12068083050E8001F21F00E
:1037A000010140E80012002AF5D12068083050E8F5
:1037B000001F21F0400140E80012002AF5D1C4F8B2
:1037C0008C70E566206850E8001F21F0100140E889
:1037D0000012002AF6D1D4F88000FDF779FE2667A2
:1037E000B4F85C00B4F85E10401A81B230E0B4F86E
:1037F0005C00B4F85E10401A81B2B4F85E00002894
:1038000095D0002993D0226852E8000F20F49070E0
:1038100042E80003002BF6D12F4BDB432068083031
:1038200050E8002F1A4040E8002CBCF1000FF5D101
:10383000C4F88C70E5666567226852E8000F20F0D6
:10384000100042E8000300E006E0002BF4D12667F8
:103850002046FFF770FE6AE7C60209D5560207D573
:103860004FF4801018622046BDE8F041FFF7B2BE69
:1038700003060AD501F0800302F40002134304D0CA
:10388000A16F00297FF44CAF51E7420611D54A06DB
:103890000FD52046026852E8001F21F0400142E89F
:1038A0000013002BF6D1C0F88870856700F035F959
:1038B0003DE7020206D54A0004D52046BDE8F041A6
:1038C000FFF787BEC001C6D50029C4DA2046BDE88F
:1038D000F041FFF731BE000001000010200100049C
:1038E0002D5B000810B5040003D0D4F8880010B197
:1038F00007E0012010BD002084F88400204600F07D
:1039000027F82420C4F888002068016821F001010C
:103910000160A06A10B1204602F04EF8204602F085
:10392000A1FB0128E6D02068416821F49041416064
:103930002068816821F02A0181602068016841F0D7
:10394000010101602046BDE8104002F099B8000076
:1039500010B598B00446142111A8FCF793FC44213B
:103960006846FCF78FFC1B492068884230D1012053
:103970000024CDE900046846FEF75AF808B1FDF7C7
:103980000BF81548016E41F480410166016E01F4A7
:1039900080411691C16C41F00101C164C06C11A954
:1039A00000F0010016904FF4C06011900220CDE9A4
:1039B00012040720CDE914404FF09040FDF70CFEB3
:1039C000002211462520FDF79BFF2520FDF78AFFE9
:1039D00018B010BD003801400010024030B4D0F8DB
:1039E0008C30202B02D0022030BC7047A9B1A2B18C
:1039F0000023C3660A4C0368A3420BD05B681B021A
:103A000008D5046854E8003F43F0806344E800357B
:103A1000002DF6D130BC02F05FBC0120E4E70000CD
:103A20000080004030B40E4A0168914215D10D4922
:103A300000230A781D2A07D20B4C4D78A554521C3E
:103A4000D2B20A70A35402E00B7001220A62054947
:103A5000012230BC491CFFF7C1BF30BC70470000D9
:103A60000038014098000020FC0300202DE9F843B5
:103A70000446D0F88800984616460D46202802D005
:103A80000220BDE8F883A5B19EB10020C4F89000E3
:103A90002120C4F888001834FDF7CCFEA6878146A3
:103AA000E68754F8100C2027183CB0F5805F02D050
:103AB00003E00120E5E7206910B12E46002510E063
:103AC00000260EE08021204602F08EFCC0B9DEB157
:103AD00016F8010B21688862B4F85600401EA4F85D
:103AE0005600B4F856004B464FF00002CDF8008067
:103AF0000028E7D14FF04001204602F075FC40B1AC
:103B0000C4F888700320BCE735F8020BC0F3080046
:103B1000E0E7C4F888700020B3E77047FEE770B5AF
:103B20000824002501F00CFC13E06806050E0020B7
:103B300001F0EEFB142003F07BF9142003F078F978
:103B4000012001F0E5FB142003F072F901F0ECFB19
:103B50000543641EE4B2E8D2002001F0D9FB142032
:103B600003F066F901F00EFC284670BD10B5002088
:103B700001F0FCFB142003F05BF9142003F058F96A
:103B8000012001F0C5FB142003F052F9002001F0E0
:103B9000BFFBBDE81040142003F04AB970B50446DD
:103BA000082516E001F0B4FB142003F041F904F0FD
:103BB000800001F0DBFB142003F03AF96006040EEC
:103BC000142003F035F9012001F0A2FB142003F0CA
:103BD0002FF96D1EEDB24FF00000E3D201F098FB1B
:103BE000BDE87040142003F023B910B5012001F0A6
:103BF000BDFB142003F01CF9142003F019F9012077
:103C000001F086FB142003F013F9002001F080FB83
:103C1000BDE81040142003F00BB910B5012001F0ED
:103C2000A5FB142003F004F9012001F071FB14201E
:103C300003F0FEF8002001F099FB142003F0F8F8DF
:103C4000002001F065FBBDE81040142003F0F0B83F
:103C500010B5002001F05CFB142003F0E9F800200F
:103C600001F084FB142003F0E3F8012001F050FB85
:103C7000142003F0DDF8012001F078FBBDE81040CE
:103C8000142003F0D5B810B5052401F059FB142019
:103C900003F0CEF8012001F03BFB142003F0C8F83C
:103CA00005E0641EA4B2142003F0C2F86CB101F068
:103CB0003BFB0028F5D101F065FB002001F028FB5B
:103CC000142003F0B5F8002010BD01F05BFBFFF7F6
:103CD000BFFF012010BD70B515460E460446FFF724
:103CE0009CFFA020FFF75AFFFFF7CDFF3046FFF7FC
:103CF00055FFFFF7C8FFFFF790FFA120FFF74EFF2A
:103D0000FFF7C1FF09E0FFF70AFF04F8010B15B147
:103D1000FFF72CFF01E0FFF768FF6D1EEDB2F2D256
:103D2000BDE87040FFF794BF70B515460E460446D7
:103D3000FFF773FFA020FFF731FFFFF7A4FF304626
:103D400002E000BF14F8010BFFF728FFFFF79BFF0D
:103D50006D1EEDB2F6D2FFF77BFFBDE870404FF469
:103D6000FA7003F065B800002DE9F041424F386861
:103D7000424CE16B401A32287CD33868E063404DF6
:103D800000262878012811D12078401CC0B220706C
:103D9000032800D12670207BA072E07A6072207820
:103DA00000B96670002000F09DF82E70697801203F
:103DB00001291AD1217811B1012911D014E03968F3
:103DC000A26C891A41F28832914201D8E17859B93E
:103DD0003968A1646071E070A179491CA17103E0A8
:103DE000617881F0010161706E70A978012917D1A5
:103DF0002178012913D1617811B1012908D00EE091
:103E0000217B491CC9B221730A2908D9207306E015
:103E1000E17A491CC9B2E1720A2900D9E072AE7098
:103E2000E97801291DD12178012901D0B9B117E024
:103E300062780A2112B1012A08D011E0227B521EB9
:103E400012F0FF0222730BD1217309E0E27A521EB5
:103E500012F0FF02E27203D1E17201E00AE0267281
:103E6000EE700849CA78012A04D12278002A01D1CB
:103E70002072CE70BDE8F0816400002000000020B8
:103E8000820000208A00002000B585B01421684619
:103E9000FCF7F8F94FF6FF70009000200321CDE900
:103EA0000201019069460248FDF796FB05B000BD8E
:103EB0000008004800B585B014216846FCF7E2F917
:103EC0004FF6FF7000900120019003200390002026
:103ED000029069460248FDF77FFB05B000BD000077
:103EE0000008004870B5002406462146204600F030
:103EF0001DFB00F05BFB4FF49635304600F02AFBCB
:103F0000641CAC42F9D370BD30B587B0142168464B
:103F1000FCF7B8F91E48C16C41F00401C164C16CE2
:103F200001F004010591C16C41F00101C164C16C53
:103F300001F001010591C16C41F00201C164C06C46
:103F4000012500F0020005904FF44870CDE900050E
:103F500000240394694602940E48FDF73DFB2802B5
:103F600003940090CDE901544FF0904469462046F7
:103F7000FDF732FBFFF79EFFA06940F48070A0615F
:103F800004481830016841F40871016007B030BD81
:103F90000010024000040048203AD2B2034B02EB6A
:103FA000420203EB021200F019B80000FC6F000897
:103FB00070B515460C460646B1F5A07F09D340F210
:103FC0003F1406E021463046FFF7E6FF103CA4B25E
:103FD0006D1C2A78002AF5D170BD00002DE9F0474C
:103FE00091468A460026044600F0A0FADFF8408099
:103FF000012700BF00F0DAFA5FF0000539F816007B
:1040000007FA05F10842404601D1408800E00088E7
:1040100000F0A0FA6D1C102DF0D3641CE4B25146E0
:10402000204600F083FA761C182EE3D3BDE8F08713
:104030006C00002010B5FFF767FF002000F02EFA9B
:10404000084CA080A088A0F50241303906D000F0CD
:10405000ACFF002000F022FAA08010BD00F01CFF91
:10406000F7E700006C000020F8B5DE4D2868DE4C54
:10407000216C401AB0F5967F7DD3286820640A2110
:10408000DA48FCF7ADFC51EC100BFCF707FA00EE38
:10409000100A4FF07E5684ED140A207AF0B910EE23
:1040A000100AA0F17E50B0F5400F0AD8D4ED0C0AEA
:1040B00094ED0B1A41EE000ABCEEE00A10EE100A75
:1040C0000BE010EE100AB04201DA0A2005E010EE13
:1040D000100AC749884201DD5520E071E2790421C8
:1040E000C44800F051FEC448F0EE000A008800EE1B
:1040F000100AB8EE400A20EE200ADFEDC00AA07ACE
:1041000060EE200A00EE100A607AB8EE400A60EE17
:10411000800A00EE100AB8EE400A9FEDB91AB948BD
:104120004FF4FA6120EE011A80EE810AB7EE001A10
:1041300084ED0A0A2279DFEDB40A5AB3D4ED061AE7
:10414000B4EEE10AF1EE10FA0CDDD4ED151AF5EE3D
:10415000C01AF1EE10FA05D184ED151A84ED080AA3
:104160002A68E2642A68E36CD21A8A420FD9616D28
:10417000B1420CD100E034E194ED081AB4EE401ADB
:10418000F1EE10FA03D184ED060AC4ED150A94EDA0
:10419000081A28E0D4ED071AB4EEE10AF1EE10FA9D
:1041A0000CDDD4ED151AF5EEC01AF1EE10FA05D1BA
:1041B00084ED151A84ED090A2A68E2642A68E36C22
:1041C000D21A8A420DD9616DB1420AD194ED091A11
:1041D000B4EE401AF1EE10FA03D184ED070AC4EDF3
:1041E000150A94ED091A30EE410A10EE101A8142B8
:1041F00001DBC4ED150A21784FF6FF70002945D088
:1042000001297CD000F09EF915218048FCF73AF88E
:104210007FA17E4802F08EF97C4AC0213020FFF752
:10422000C7FE15217948FCF72DF8A2797AA17748C5
:1042300002F080F9754AF0216020FFF7B9FE1521E0
:104240007248FCF71FF8A069FCF715F941EC100B58
:1042500073A153EC102B6D4802F06CF96B4AF021FE
:104260007820FFF7A5FE15216848FCF70BF8E069F8
:10427000FCF701F941EC100B6CA153EC102B6348D7
:1042800002F058F9F021614A9020A2E000F05AF9BA
:1042900015215E48FBF7F6FF67A15C4802F04AF97A
:1042A0005A4AC0213020FFF783FE15215748FBF7FB
:1042B000E9FF207908B1482200E04C2260A1534870
:1042C00002F038F9514AF0216020FFF771FE152104
:1042D0004E48FBF7D7FFE2795CA14C4802F02AF97F
:1042E0004A4AF0217820FFF763FE15214748FBF783
:1042F000C9FFA06AFCF7BFF841EC100B00E030E00A
:1043000053EC102B54A1414802F014F93F4AF0211C
:104310009020FFF74DFE15213C48FBF7B3FF3B48CB
:10432000143881780091437802784EA1143002F05D
:1043300001F9364AF021C020FFF73AFE1521334833
:10434000FBF7A0FF206DFCF796F841EC100B4AA19B
:1043500053EC102B2D4802F0EDF8F0212B4AD82019
:1043600037E0054600F0EEF815212848FBF78AFFF4
:1043700044A1264802F0DEF8244AC0213020FFF78D
:1043800017FE15212148FBF77DFF227B3FA11F4827
:1043900002F0D0F860784FF4FC66F0B14FEA050007
:1043A00000F0D0F8194AF0216020FFF701FE152136
:1043B0001648FBF767FFE27A36A1144802F0BAF814
:1043C000607801280BD0284600F0BCF80F4AF02195
:1043D0007820BDE8F840FFF7EBBD3046E0E7304617
:1043E000F2E7F8BD64000020000000205801002022
:1043F00000004040EC0100209A000020C3F5484036
:104400000000C8420000A04000000000D4000020CE
:104410005245434F000000004E3D256420202000FF
:104420004D483D252E316620202000004D4C3D2575
:104430002E3166202020000044415441000000003D
:104440004D3D25632020202020000000503D2564A4
:104450002525202020000000563D252E31662020F5
:1044600020000000253032643A253032643A25308D
:1044700032642020000000004144433A252E326679
:10448000202000005041524100000000523D2564B0
:10449000202020004B3D25642020200070B51D49C0
:1044A0000A6842F400720A600A6842F480720A6084
:1044B000184C103C226842F020022260164A10601C
:1044C000086840F02000086000BF00BF00BF2068FF
:1044D00040F020002060206840F480702060FFF7EA
:1044E000D3FC4FF09041886A40F48070886200BF2E
:1044F00000BF00BF0848001F006885B2886940F40B
:1045000080708861FFF7D6FC206840F4007020605E
:10451000284670BD280400481408004801B5BDF8BD
:1045200000000149488008BD6C00002010B50C4611
:104530000146202000F068F82146BDE81040212007
:1045400000F062B801B5BDF800000149088008BD5F
:104550006C000020134A116841F400711160114988
:1045600010390B6843F480730B600B6843F0200331
:104570000B600D4B1860106840F02000106000BF09
:1045800000BF00BF086840F020000860086840F4E1
:104590008070086000BF00BF00BF086840F4007072
:1045A0000860704728040048140800481449086847
:1045B00040F400700860086840F48070086010489B
:1045C0001038026842F0200202600E4B22221A606C
:1045D0000A6842F020020A6000BF00BF00BF016805
:1045E00041F020010160016841F48071016000BF69
:1045F00000BF00BF016841F4007101607047000016
:104600002804004814080048184B10B51A6842F4F2
:1046100000721A601A6842F480721A60134A103AE3
:10462000146844F020041460114C2060186840F0B5
:104630002000186000BF00BF00BF106840F02000DD
:104640001060106840F4807010602160186840F0BD
:104650002000186000BF00BF00BF106840F02000BD
:104660001060106840F48070106010BD280400488D
:104670001408004870B50D4D044601220421284657
:10468000FDF7D3F80A4E01224FF6FF713046FDF7D1
:10469000CCF8210200223046FDF7C7F82846BDE8D5
:1046A000704000220421FDF7C0B80000000C004853
:1046B0000008004810B5094C012204212046FDF7EE
:1046C000B4F801224FF6FF710548FDF7AEF8204619
:1046D0000022BDE810400421FDF7A7B8000C0048F7
:1046E0000008004815490A681548836BD21A642AE5
:1046F00022D30968816301460278497B82B101F0C7
:104700000601417341790129417B0CD001F005017B
:104710004173017A0029417B08D041F0040107E090
:1047200041F00101EDE781F00201F1E701F0030141
:104730004173C8B2FFF79EBF7047000064000020BD
:104740000000002000EB8100006E00F0F840704790
:104750008068C0F3C00070478068C0F38000704775
:104760008068C0F380007047C06810F4406F01D0CB
:104770000020704701207047042303EAD15310B58D
:1047800018444369C1F3045107248C40A3438A4071
:104790001343436110BD00EB8100016E21F0004125
:1047A000114301667047000030B58BB000240894B7
:1047B0000994202168460A94FBF764FD1C484FF0D9
:1047C000A041042501604FF40031C0E90114C46028
:1047D0000461C0E90545047744770121016280F84E
:1047E0002440C462046380F83840C46380F84040C9
:1047F000FCF70AFC08B1FCF7CFF808A90C480894AC
:10480000FCF780F908B1FCF7C7F80A4800900620C9
:10481000CDE901047F200594CDE9030569460448EC
:10482000FCF7DCF9002801D0FCF7B6F80BB030BD7E
:10483000EC0000200008302E30B589B020216846F9
:10484000FBF720FD19481849002401604902C0E91E
:104850000114C46004250461C0E905450477447768
:104860000121016280F82440C462046380F838406A
:10487000C46380F84040FCF7C7FB08B1FCF78CF834
:104880000B4800900620CDE901047F200594CDE976
:10489000030569460548FCF7A1F9002801D0FCF79B
:1048A0007BF809B030BD0000000100505801002025
:1048B0000080F03E2DE9F04186B014216846FBF7F8
:1048C000E1FC3648C16C41F00401C164C16C01F0E7
:1048D00004010591C16C41F02001C164C16C01F07B
:1048E00020010591C16C41F00101C164C16C01F06E
:1048F00001010591C16C41F00201C164C16C01F07C
:1049000002010591C16C41F00801C164C06C244EE4
:1049100000F008004FF47F44059001222146304604
:10492000FCF783FF1F4F002204213846FCF77DFF70
:10493000DFF874800022C0214046FCF776FF012595
:10494000CDE9004500240294694630460394FCF703
:1049500043FECDE9005469464FF090400295FCF7C4
:104960003BFE07208DE8310069464046FCF734FEE7
:1049700004200090CDE90154694638460394FCF7C1
:104980002BFEC0200090CDE90154694640460394B7
:10499000FCF722FE06B0BDE8F081000000100240E6
:1049A00000080048000C00480004004810B586B01C
:1049B00014216846FBF766FC214800241F49059432
:1049C000C0E900147D21816041F27071C0E90314D7
:1049D0004FF080414461C0E906410462FDF704FDE7
:1049E00008B1FBF7D9FF23208DF8000059208DF87E
:1049F000010055208DF802000194039401226946BC
:104A00000F480494FDF7BAFD08B1FBF7C5FF052078
:104A10008DF8140003208DF8150001208DF8160084
:104A200024208DF81700012205A90548FDF756FD41
:104A3000002801D0FBF7B0FF06B010BD00280040F1
:104A4000C401002010B594B01C210DA8FBF71AFC7E
:104A500034216846FBF716FC20481F4900240160FA
:104A600041F63F71C0E901146321C0E903144461B8
:104A70008461FDF7BEFE08B1FBF78EFF1748FEF715
:104A800002FC08B1FBF788FF60200D901420CDE9EF
:104A90000E0410941194129400220DA90F4813943F
:104AA000FEF75FFB08B1FBF777FF00944FF400506F
:104AB000CDE90440019402940394069469460748A2
:104AC0000C94FDF7F5FD08B1FBF766FF0348FEF710
:104AD0000DFB14B010BD000000440140D0020020C6
:104AE0001FB50024154800940194029412490394C0
:104AF00001604F21C0E901144FF6FF71C0E90314B2
:104B000044618461FDF775FE08B1FBF745FF0B4872
:104B1000FEF7D0F808B1FBF73FFF0120CDE90040D8
:104B200002940022694605480394FEF731F80028F4
:104B300001D0FBF731FF1FBD004801401C030020DE
:104B400010B592B000240C940B940D940E940F9415
:104B5000119410940794089409941C2168460A94AF
:104B6000FBF790FB27484FF08041016040F21F3176
:104B7000C0E901146421C0E903148461FDF739FE22
:104B800008B1FBF709FF4FF480500B900BA91D48AB
:104B9000FDF742FF08B1FBF7FFFE1A48FEF78AF85F
:104BA00008B1FBF7F9FE1748FEF76DFB08B1FBF7FC
:104BB000F3FE0F940FA913481194FDF7CBFD08B134
:104BC000FBF7EAFE0120CDE907400994002207A97E
:104BD0000C480A94FDF7DCFF08B1FBF7DDFE60200E
:104BE00000903220CDE9010404226946054804946E
:104BF000FEF7B7FA08B1FBF7CFFE0248FEF776FAE8
:104C000012B010BDEC01002010B58CB0002405944A
:104C1000274804940694079408940A9409940094ED
:104C2000019402942149039401604F21C0E90114C9
:104C30004FF6FF71C0E903148461FDF7DAFD08B196
:104C4000FBF7AAFE4FF48050049004A91848FDF722
:104C5000E3FE08B1FBF7A0FE1548FEF72BF808B1FC
:104C6000FBF79AFE089408A911480A94FDF772FD13
:104C700008B1FBF791FE0120CDE90040029400222B
:104C800069460B480394FDF783FF08B1FBF784FEE8
:104C900002200190042269460548FDF779FF0028AB
:104CA00001D0FBF779FE0CB010BD000000040040FD
:104CB0003802002010B588B00024174800940194F1
:104CC00002940394049405941249069401604F21C0
:104CD000C0E9011442F20F71C0E903148461FDF7C9
:104CE00088FD08B1FBF758FE4FF4805000906946EC
:104CF0000948FDF791FE08B1FBF74EFE049404A9A4
:104D000005480694FDF726FD002801D0FBF744FE78
:104D100008B010BD0008004084020020184810B5FB
:104D2000164901604FF416514160002181600C2248
:104D3000C160C0E904128161C161016241628162A6
:104D4000FEF7D0FD08B1FBF727FE00210C48FEF767
:104D50001AFC08B1FBF720FE00210948FEF7EDFB25
:104D600008B1FBF719FE0648FEF7C6FB002803D082
:104D7000BDE81040FBF710BE10BD00000038014038
:104D800068030020FEE7FEE70068C36A5B1C53432C
:104D90006422B3FBF2F251B104290AD008290AD0E7
:104DA0000C290AD010290AD0C2640020704742633F
:104DB000FBE78263F9E7C263F7E70264F5E7826421
:104DC000F3E7000070B5044611480D46B0FBF2F65B
:104DD0002168CB6A5B1CB6FBF3F35B1E8B625B1C2A
:104DE000B0FBF3F1B1FBF2F12668491EF162B0FBB2
:104DF000F3F0B0FBF2F0401EE06001212046FDF729
:104E00008BFE29462046FEF771FA002070BD000097
:104E100000B4C404704700002DE9F0410C461E4662
:104E2000154607460021DDF81880FEF74FFB00EE1F
:104E3000100A04213846B8EE400A84ED000AFEF755
:104E400045FB00EE100A00213846B8EE400A85ED19
:104E5000000A00F057FA0421384600F053FA94EDA6
:104E6000000ADFED0B0A80EE801ABCEEC10A10EEDC
:104E7000100A3080D5ED000A94ED001A80EE810A08
:104E8000DFED040A20EE200A88ED000ABDE8F0817B
:104E9000002474490000C84230B501210020FFF70A
:104EA000B3FB4FF47A70FBF769FD00210120FFF797
:104EB000ABFB41F290711020FFF7A6FB4FF41C51A1
:104EC0006020FFF7A1FB01216120FFF79DFB02217C
:104ED0004620FFF799FB48F210011320FFF794FBDF
:104EE00048F2FE011220FFF78FFB4FF4A061022071
:104EF000FFF78AFB41F230010320FFF785FB40F208
:104F0000033421463020FFF77FFB21463120FFF795
:104F10007BFB21463220FFF777FBE51E2946332035
:104F2000FFF772FB03213420FFF76EFB214635208B
:104F3000FFF76AFB14213620FFF766FB2146372076
:104F4000FFF762FB21463820FFF75EFB2146392040
:104F5000FFF75AFB29463A20FFF756FB03213B2077
:104F6000FFF752FB21463C20FFF74EFB4FF4A051C8
:104F70003D20FFF749FB4FF400719220FFF744FBFF
:104F800021469320FFF740FB40F60D019020FFF7EC
:104F90003BFB41F218010320FFF736FBBDE8304030
:104FA00040F273110720FFF72FBB10B543F2080141
:104FB000E320FFF729FB1221E720FFF725FB41F251
:104FC0003121EF20FFF720FB00210120FFF71CFB20
:104FD0004FF4E0610220FFF717FB41F2300103209C
:104FE000FFF712FB00210420FFF70EFB40F2072120
:104FF0000820FFF709FB00210920FFF705FB00212E
:105000000A20FFF701FB00210C20FFF7FDFA002129
:105010000D20FFF7F9FA00210F20FFF7F5FA002124
:105020001020FFF7F1FA07211120FFF7EDFA002118
:105030001220FFF7E9FA00211320FFF7E5FAC82054
:10504000FCF7B8FA41F290611020FFF7DDFA40F268
:1050500027211120FFF7D8FA3220FCF7ABFA1D21E7
:105060001220FFF7D1FA3220FCF7A4FA4FF40061C6
:105070001320FFF7C9FA14212920FFF7C5FA0B21E5
:105080002B20FFF7C1FA3220FCF794FA00212020F0
:10509000FFF7BAFA00212120FFF7B6FA07213020E6
:1050A000FFF7B2FA40F207713120FFF7ADFA06219F
:1050B0003220FFF7A9FA40F204713520FFF7A4FA75
:1050C00041F604713620FFF79FFA04213720FFF7DD
:1050D0009BFA00213820FFF797FA40F20671392039
:1050E000FFF792FA40F201713C20FFF78DFA0F2191
:1050F0003D20FFF789FA00215020FFF785FAEF21C4
:105100005120FFF781FA00215220FFF77DFA40F28B
:105110003F115320FFF778FA4FF41C516020FFF73E
:1051200073FA01216120FFF76FFA00216A20FFF76F
:105130006BFA00218020FFF767FA00218120FFF73A
:1051400063FA00218220FFF75FFA00218320FFF736
:105150005BFA00218420FFF757FA00218520FFF732
:1051600053FA10219020FFF74FFA00219220FFF709
:105170004BFA03219320FFF747FA4FF488719520EB
:10518000FFF742FA00219720FFF73EFA002198200E
:10519000FFF73AFA41F218010320FFF735FABDE8AC
:1051A000104040F273110720FFF72EBA010901EBFE
:1051B000810100F00F0000EB4100C0B270470022F7
:1051C000014602E00A39C9B2521C0A29FAD2100774
:1051D00041EA1060704700002DE9F0410446006884
:1051E0000025C168490619D4C16841F08001C16039
:1051F000FCF720FB06464FF47A78032708E000BF4F
:10520000FCF718FB801B404502D9032584F8257064
:105210002068C068400601D4032DF1D12846BDE8BE
:10522000F08170B5044600680025C16821F0800156
:10523000C160206881694FF00306890607D42046C3
:10524000FDF702FA98B184F8256003250FE0816923
:1052500021F0200181612046FDF7F6F910B184F8B4
:10526000256003252068816941F02001816128467D
:1052700070BD00001E4910B50A681E48436CD21A62
:10528000FA2A34D3096841644179012922D10146BF
:105290000379C989002213B1012B0CD01AE0C8315F
:1052A00089B24FF4FA53C18199420ED3C38142713E
:1052B0000121017109E0C83989B24FF47A63C181D3
:1052C000994202D8C38142710271C28904210A48FD
:1052D000FFF778FD002209490948FDF75BF8054909
:1052E0000022BDE8104034310548FDF731B810BD4B
:1052F0006400002000000020EC010020C00000201D
:10530000C4010020036800225A62FDF705BD0000B9
:1053100008B1044801E003481030016841F0400141
:10532000016070471804004810B580210348FCF75D
:1053300077FA012800D0002010BD000000040048CA
:1053400000B585B014216846FAF79CFF80200090D4
:10535000002001900120029002200390694602483B
:10536000FCF73AF905B000BD0004004808B1044854
:1053700001E003481030016841F08001016070478E
:105380001804004800B585B014216846FAF77AFF82
:1053900080200090112001900020029002200390B4
:1053A00069460248FCF718F905B000BD0004004842
:1053B0007047FCF745BA10B594B038216846FAF743
:1053C00061FF14210EA8FAF75DFF4FF40070FCF79F
:1053D000C9FA012000900004019002200324CDE9C5
:1053E00007041421CDE90A100C900D900994684629
:1053F000FCF7ACFD08B172B6FEE70F20CDE90E0454
:10540000002010901190129002210EA8FCF754FC7D
:10541000002801D072B6FEE714B010BD0248016842
:1054200041F470010160704788ED00E00148FDF72C
:105430008BBD00001C0300200148FDF785BD000066
:10544000EC0100200148FDF77FBD0000380200207C
:105450000148FDF779BD0000840200202DE9F043EA
:105460000268264B264D274E274C4FF08049984224
:1054700007D0484505D0A84203D0B04201D0A04291
:1054800003D122F070074A683A43204FDFF880C00A
:10549000DFF8808098420DD048450BD0A84209D053
:1054A000B04207D0A04205D0B84203D0604501D039
:1054B000404503D122F44075CA682A434D6922F061
:1054C00080022A4302608A68C2620A688262984245
:1054D00007D0A04205D0B84203D0604501D0404576
:1054E00001D109690163012141610169C90703D043
:1054F000016921F001010161BDE8F083002C014048
:105500000004004000080040003401400040014019
:10551000004401400048014010B501F01F03012183
:10552000046A99408C430462016A9A401143016203
:1055300010BD10B5846842EA032224F47F440A4374
:105540002243826010BD00008268034B1A400A4368
:1055500042F00701816070478FFFCFFF2DE9F043D4
:10556000056A026A22F001020262436882691C4CE9
:1055700025F0020522400C6822F0030214438A68D9
:10558000194E2A43174D194FDFF864C0DFF86490B5
:10559000A84207D0B04205D0B84203D0604501D040
:1055A000484506D122F00808CA6842EA080222F0FB
:1055B0000402A84207D0B04205D0B84203D06045EB
:1055C00001D0484505D14D6923F440731D438B69D3
:1055D0002B4343608461496841630262BDE8F08304
:1055E0008FFFFEFF002C01400034014000400140CD
:1055F0000044014000480140F0B5056A026A22F00B
:105600001002026242688369194C1B4E23400C68E9
:1056100023F4407343EA042425F020038D6843EA11
:105620000513144DA84201D0B04206D1CF6823F033
:10563000800343EA071323F04003A8420AD0B04294
:1056400008D00E4DA84205D00D4DA84202D00D4DF8
:10565000A84207D14D6922F4406242EA85028D6971
:1056600042EA850242608461496881630362F0BD59
:10567000FF8FFFFE002C014000340140004001403C
:105680000044014000480140F0B5056A026A22F476
:10569000807202624368C269194C1B4E22400C683A
:1056A00022F00302144325F400728D6842EA0522B9
:1056B000144DA84201D0B04206D1CF6822F4006256
:1056C00042EA072222F48062A8420AD0B04208D0FF
:1056D0000E4DA84205D00E4DA84202D00D4DA84255
:1056E00007D14D6923F4405343EA05138D6943EA1A
:1056F00005134360C4614968C1630262F0BD0000E4
:105700008FFFFEFF002C01400034014000400140AB
:105710000044014000480140F0B5056A026A22F4E5
:10572000805202624268C369194C1B4E23400C68C8
:1057300023F4407343EA042425F400538D6843EABC
:105740000533144DA84201D0B04206D1CF6823F4EE
:10575000004343EA073323F48043A8420AD0B0420F
:1057600008D00E4DA84205D00D4DA84202D00D4DD7
:10577000A84207D14D6922F4404242EA85128D6960
:1057800042EA85124260C461496801640362F0BD67
:10579000FF8FFFFE002C014000340140004001401B
:1057A000004401400048014030B5056A026A22F415
:1057B000803202624268036D114C23400C681C4326
:1057C00025F400330D8943EA05430E4DA8420BD062
:1057D0000D4DA84208D00D4DA84205D00C4DA84251
:1057E00002D00C4DA84204D14D6922F4803242EA25
:1057F00005224260046549688164036230BD00008F
:105800008FFFFEFF002C01400034014000400140AA
:10581000004401400048014030B5046A026A22F4A5
:10582000801202624268036D114D24F400142B4073
:105830000D6843EA05230D8944EA05540D4DA8423D
:105840000BD00D4DA84208D00C4DA84205D00C4DF0
:10585000A84202D00B4DA84204D14D6922F4802207
:1058600042EA8522426003654968C164046230BD32
:10587000FF8FFFFE002C014000340140004001403A
:10588000004401400048014010B5036A046A24F056
:1058900001040462846924F0F00444EA021423F051
:1058A0000A020A438461026210BD000070B5056AF5
:1058B000046A24F0010404628469124EB0420ED0DE
:1058C000B0F1804F0BD0104EB04208D00F4EB04216
:1058D00005D00F4EB04202D00E4EB04203D124F09C
:1058E0000304144301E044F001041A0724F0F00417
:1058F00044EA126225F00A0301F00A0119438261A9
:10590000016270BD002C014000040040000800400E
:10591000003401400040014010B5036A046A24F0DD
:1059200010040462846923F0A00324F4704444EA60
:10593000023243EA01118261016210BD30B5046A8E
:10594000056A25F010050562856925F4407545EA6C
:10595000022222F470454FF6FF7202EA033224F06D
:10596000A0032A43A02404EA0111194382610162C1
:1059700030BD000030B5416EB9B1026891689268DF
:10598000C1F342610B4B520F9C5CE50003F108042C
:10599000A25CB5FBF2F2A0F86A205A5C615CD2000E
:1059A000B2FBF1F1A0F8681030BD0121A0F86A1037
:1059B000F8E70000D46F000890F82810090706D512
:1059C00001684A68836B22F400421A434A6090F8E7
:1059D0002810C90706D001684A68C36A22F4003259
:1059E0001A434A6090F82810890706D501684A686A
:1059F000036B22F480321A434A6090F8281049075A
:105A000006D501684A68436B22F480221A434A6033
:105A100090F82810C90606D501688A68C36B22F47D
:105A200080521A438A6090F82810890606D50168CA
:105A30008A68036C22F400521A438A6090F8281096
:105A4000490611D501684A68436C22F480121A4352
:105A50004A60416CB1F5801F06D101684A68836CC9
:105A600022F4C0021A434A6090F82810090606D5AD
:105A700001684A68C06C22F4002202434A60704701
:105A80002DE9F84300260446C0F89060FBF7D2FEEB
:105A90008046206800684FF0200500076FF07E47C1
:105AA00013D54346002229042046009700F09CFCB1
:105AB00058B1216851E8000F20F0800041E8000251
:105AC000002AF6D1C4F8885021E020680068400719
:105AD00022D5434600224FF480012046009700F073
