:020000040800F2
:10000000D8070020F10100083746000889350008AC
:1000100035460008A10A0008995A000800000000AF
:10002000000000000000000000000000A94B0008D4
:10003000A30A00080000000039460008E14B000850
:100040000B0200080B0200080B0200080B0200085C
:100050000B0200080B0200080B0200080B0200084C
:100060000B0200080B0200080B0200080B0200083C
:100070000B0200080B0200080B0200080B0200082C
:100080000B020008000000000B0200080B02000831
:100090000B0200080B0200080B0200080B0200080C
:1000A0005D4C0008754C0008694C00080B02000804
:1000B0000B020008814C00088D4C00080B02000860
:1000C0000B0200080B0200080B0200080B020008DC
:1000D0000B0200088D5900080B0200080B020008F3
:1000E0000B0200080B0200080B0200080B020008BC
:1000F0000B0200080B0200080B02000800000000C1
:10010000000000000B020008000000000B020008C5
:100110000B020008000000000B0200080B020008A0
:100120000B0200080B0200080B0200080B0200087B
:100130000B02000800000000000000000B02000895
:100140000B0200080B020008000000000000000085
:10015000000000000000000000000000000000009F
:100160000000000000000000000000000B0200087A
:100170000B0200080000000000000000000000006A
:10018000000000000B02000800000000000000005A
:10019000000000000000000000000000000000005F
:1001A00000000000000000000B0200080B02000825
:1001B0000B0200080B0200080B0200080000000000
:1001C000000000000B02000800000000000000001A
:1001D0000B0200080B020008DFF810D000F034FB1F
:1001E0000048004775640008AFF30080D80700207E
:1001F0000648804706480047FEE7FEE7FEE7FEE7C1
:10020000FEE7FEE7FEE7FEE7FEE7FEE74D4C0008EF
:10021000D90100082DE9F05F0546002092469B4673
:1002200088460646814640241BE02846414647460C
:10023000224600F08DF953465A46C01A914110D318
:1002400011461846224600F074F92D1A67EB010892
:100250004F4622460120002100F06BF917EB000900
:100260004E41201EA4F10104DFDC484631462A46F7
:100270004346BDE8F09FD2B201E000F8012B491ED1
:10028000FBD270470022F6E710B513460A46044633
:100290001946FFF7F0FF204610BD2DE9FE4F81EA19
:1002A000030404F0004421F0004100944FF0000BDF
:1002B00023F0004350EA01045ED052EA03045BD00D
:1002C000C3F30A54C1F30A552C44A4F2F334019445
:1002D000A0FB0254C1F3130141F48011C3F31303D3
:1002E00043F4801301FB024400FB034E840A970A87
:1002F00044EA815447EA8357A4FB076802958D0AB4
:1003000005FB07854FEA932C04FB0C542705029D3F
:100310004FEA065847EA1637B5EB08056EEB070CAF
:10032000870E920E47EA811742EA8312A7FB020169
:10033000B6EB0B0164EB00042B0D43EA0C335E18A3
:1003400044EB1C50DA465146E7FB0201C5F31304A7
:100350004FEA0B3343EA14534FEA0432019C43EA59
:100360000603A4F10C040294009CCDE900B400F053
:1003700045F903B0BDE8F08F00200146F9E72DE90B
:10038000F04D81EA030404F0004B21F000451446CF
:100390004FF0000A23F0004150EA050220D054EA51
:1003A00001021DD0C5F30A570246C5F31303C1F37A
:1003B0001300C1F30A5640F4801543F48013A7EBF1
:1003C0000608101BD64608F2FD3873EB050002D371
:1003D00008F1010801E092185B41B8F1000F03DA5F
:1003E00000200146BDE8F08D00204FF48011064644
:1003F00084460EE0171B73EB050705D3121B63EB56
:10040000050306434CEA010C49084FEA30009218F4
:100410005B4150EA0107EDD152EA030012D082EAB3
:10042000040083EA0501084305D0101BAB4106D246
:100430000122002306E000224FF0004302E06FF0AB
:10044000010253101AEB06004CEB085110EB0A00A6
:1004500041EB0B01BDE8F04D00F0C1B80EB540F224
:10046000334102910021CDE900110A460B4600F00C
:10047000C5F803B000BDC1F30A5210B5C1F31301B2
:1004800040F2FF3341F480119A4201DA002010BD9E
:1004900040F233439A42A2F2334203DC524200F06C
:1004A00057F810BD904010BD00F0004230F0004001
:1004B0000AD0C10D01F56071C0F3160042EA015186
:1004C000C20840071143704700200146704701F001
:1004D000004330B421F0004150EA010206D00A0D79
:1004E000A2F56072C1F31301002A02DC30BC0020C7
:1004F0007047440F44EAC104C100E01830BC00EB6F
:10050000C25000F035B830B50B460146002020221D
:10051000012409E021FA02F59D4205D303FA02F510
:10052000491B04FA02F52844151EA2F10102F1DC70
:1005300030BD202A04DB203A00FA02F10020704787
:100540009140C2F1200320FA03F319439040704711
:10055000202A04DB203A21FA02F00021704721FA18
:1005600002F3D040C2F1200291400843194670477F
:100570000029A8BF7047401C490008BF20F00100B7
:10058000704710B4B0FA80FC00FA0CF050EA010495
:1005900004BF10BC704749B1CCF1200421FA04F427
:1005A00011FA0CF118BF012121430843A3EB0C0100
:1005B000CB1D4FEA00614FEA102042BF002010BC63
:1005C000704700EBC35010440029A4BF10BC704713
:1005D000401C490008BF20F0010010BC704710B556
:1005E000141E73F1000408DA401C41F10001921856
:1005F0005B411A4301D120F0010010BD2DE9F04DFF
:1006000092469B4611B1B1FA81F202E0B0FA80F253
:1006100020329046FFF78DFF04460F4640EA0A005D
:1006200041EA0B0153465A46084313D0114653EA98
:10063000010019D0C8F140025046FFF789FF054676
:100640000E46504659464246FFF773FF084305D011
:10065000012004E020463946BDE8F08D0020054326
:1006600046EAE0762C4337430A986305E40AA0EB98
:1006700008000022FD0A44EA47540A3002D500204F
:100680000146E9E7010510196941DDE9084500194E
:100690006941BDE8F04DA2E72DE9FE4F804681EAB1
:1006A0000300C00F0C46009021F0004123F00045EC
:1006B000B8EB0200A94105D24046214690461C46AF
:1006C0000B46024623F00040104347D0270DC7F3E6
:1006D0000A00C3F30A510290401A019040286BDAD5
:1006E000C3F3130040F4801B0098924620B100230E
:1006F000D2EB030A63EB0B0B01985946C0F14002A1
:100700005046FFF716FF06460D4650465946019AD9
:1007100000F0ACF810EB08006141002487EA1152A8
:1007200084EAE7731A4340D0009A62B3019A012A1F
:100730004FEA075215DC001B61EB02014FF000424B
:1007400002EA0752CDE90042001C41F58011324611
:100750002B46FFF753FF03B0BDE8F08F404621461C
:10076000F9E7001B61EB0201001C41F58013001842
:100770005B412018A2F5001747EB030140EAD57052
:10078000B6196D4111E06D084FEA360645EAC075AD
:100790004FEA0752001B61EB0201001C41F580117A
:1007A00049084FEA30000019514132462B4603B048
:1007B000BDE8F04FFFF713BF00980122400000236F
:1007C000D0EB020263EBE073009821464FEAE0743D
:1007D000B8EB000061EB0401E9E783F000435BE75D
:1007E00081F0004158E7C1F30A52C1F3130140F20E
:1007F000FF3341F480119A4202DA0020014670472B
:1008000040F233439A42A2F2334202DC5242FFF7F3
:100810009FBEFFF78EBE000030B5041E71F10004CC
:1008200004DB4FF00044404264EB0101141E73F1FD
:10083000000405DB1C464FF00043524263EB040307
:10084000994208BF904230BD064C074D06E0E06873
:1008500040F0010394E8070098471034AC42F6D307
:10086000FFF7BEFCD8780008F8780008202A06DBDD
:10087000CB17203A41FA02F043EAE07306E041FA6E
:1008800002F3D040C2F1200291400843194670475C
:100890002DE9F041044600270D46006803F022FCD4
:1008A0000646206803F01AFC30435DD02068C1681A
:1008B0002E4E890105D5617F012902D1217F0129B1
:1008C0000BD0022D1DD0206803F00CFCB8B12068BD
:1008D0008168C1F3400169B111E00125244902E0BA
:1008E0008F4232D27F1C0268D2435206F8D4402194
:1008F0000160E8E78168314041F010018160012D1D
:1009000011D0206803F0EAFB48B120688168C1F388
:10091000400121B98168314041F020018160022D00
:1009200008D0032D04D0042500F02AFF064617E066
:100930000C25F9E70825F7E700F022FF801B0528C2
:100940000ED92068806828420AD0E06D40F010007F
:10095000E065206E40F0010020660120BDE8F081D6
:10096000206880682842E7D10020F7E7C0FFFF7FBA
:10097000000040A370B50446006881688268C1F336
:10098000400112F0010F28D039BB816801F00D0140
:10099000012914D18168124A1140891C81602168A3
:1009A0000320086000F0ECFE054612E000F0E8FECF
:1009B000401B02280DD920688068C00709D0E06D6F
:1009C00040F01000E065206E40F00100206601203C
:1009D00070BD20688068C007E8D1002070BD0000AD
:1009E000C0FFFF7FF8B504460020009020688168B2
:1009F00011F0010F41D18168214A11422ED1816845
:100A0000D5432940491C81601E48806800F0E07091
:100A100000020DD51C481D490068B0FBF1F0401CD8
:100A200000EB4000800000E0401E00900028FBD159
:100A300000F0A6FE06461BE0816811F0010F03D10D
:100A400081682940491C816000F09AFE801B0228C1
:100A50000ED920680068C043C00709D0E06D40F09F
:100A60001000E065206E40F0010020660120F8BD16
:100A700020680168C943C907DED10020F8BD000025
:100A80003F000080000300504C000020400D030098
:100A900010B503F0CBFF0149886210BD00000020B3
:100AA000FEE77047002240F6B83306E00021491CFB
:100AB00089B29942FBD3521C92B28242F6D370475C
:100AC00072B6FEE7F8B500260446009690F8580086
:100AD0000D4601280BD0012084F858002046FFF76E
:100AE00049FF0100E06D04D040F010002AE0022030
:100AF000F8BD20F4885040F00200E065206882686C
:100B0000134B1A4005F080431A4342F000428260C2
:100B1000104A20680EE0009B5B1C0093934209D3AF
:100B2000E06D20F0020040F01000E06584F85860AD
:100B30000120F8BD8368DB0FEDD1E06D20F00200ED
:100B400040F00100E06584F858600846F8BD0000F8
:100B5000C0FFFF3F02DE04002DE9F84F00270446E6
:100B6000009790F85800DFF8E0930D46B84601284A
:100B700011D0012684F85860206803F0B3FA60B100
:100B8000E06D40F02000E0655FF0010784F85880D8
:100B90003846BDE8F88F0220FBE7D5E900210C2399
:100BA000206803EA91131844036B01F01F014FF012
:100BB0001F0C0CFA01FCC2F3846223EA0C038A4086
:100BC00013430363206803F08DFA8246206803F024
:100BD00085FA5AEA00003CD1AA6829682068B2F177
:100BE000004F37D003F08AFA2068416921F00041B4
:100BF000416120686969C268C2F3C1025200914034
:100C00002A69042A31D000EB82002B68026EDFF8DB
:100C10003CC303F0F84302EA0C020B431A4342F0D0
:100C20000041016620682A69A96900EB8200026E12
:100C300022F080720A430266297F2268286901290E
:100C400010D0002102EB8000026E22F000720A43F5
:100C500002667DE0002203F051FA2068416941F00C
:100C60000041C5E74FF00071ECE7002103F030FAD6
:100C7000400320684FF0000172D003F029FA90FA87
:100C8000A0F0B0FA80F1286842036ED090FAA0F08C
:100C9000B0FA80F0814204D100221146206803F0AE
:100CA0003CFA0121206803F013FA400320684FF05A
:100CB00001015DD003F00CFA90FAA0F0B0FA80F1D7
:100CC0002868420359D090FAA0F0B0FA80F081422F
:100CD00004D100220121206803F01FFA02212068BC
:100CE00003F0F6F9400320684FF0020148D003F00A
:100CF000EFF990FAA0F0B0FA80F12868420344D0EE
:100D000090FAA0F0B0FA80F0814204D100220221D2
:100D1000206803F002FA0321206803F0D9F94003A8
:100D200020684FF0030133D003F0D2F990FAA0F01D
:100D3000B0FA80F1286842032FD090FAA0F0B0FA00
:100D400080F0814204D100220321206803F0E5F9FC
:100D50002068816811F0010F22D0ACE000E004E0CF
:100D600003F0B6F9C0F384618DE7C0F3846091E7C6
:100D700003F0AEF9C0F38461A2E7C0F38460A6E794
:100D800003F0A6F9C0F38461B7E7C0F38460BBE762
:100D900003F09EF9C0F38461CCE7C0F38460D0E730
:100DA0002A7B296850F8B03FC1F3120C23EA0C03E8
:100DB00002F0180C664A22FA0CF20A401343036050
:100DC000E968494577D1286841031CD090FAA0F121
:100DD000B1FA81F1491C01F01F0109294FEA4031A4
:100DE00032D8002912D000BF90FAA0F1B1FA81F1F7
:100DF00001F1010101F01F0106FA01F609D100BF5E
:100E0000C0F3846109E0C0F38461E3E7C0F3846167
:100E1000EEE790FAA0F1B1FA81F101F1010101F0E0
:100E20001F0146EA816102D1C0F3846003E090FAB9
:100E3000A0F0B0FA80F000F1010000F01F0000EB1C
:100E4000400041EA005132E000290ED090FAA0F1B2
:100E5000B1FA81F101F1010101F01F0106FA01F679
:100E600006D100BFC0F3846106E0C0F38461F1E7FE
:100E700090FAA0F1B1FA81F101F1010101F01F0135
:100E800046EA816102D1C0F3846003E090FAA0F0E9
:100E9000B0FA80F000F1010000F01F002D4A00EBD5
:100EA000400002EB005041EA000141F00071AA68E5
:100EB000206803F023F928482A6802423FF466AE0E
:100EC00026488168264B01F0E0719A4202D0254BFA
:100ED0009A421CD10B021AD42268B2F1A04F7FF4BF
:100EE00055AE826841F4000122F0E0720A4382604C
:100EF0001D481E490068B0FBF1F0401C00EB4000AB
:100F0000800000E0401E00900028FBD13EE6184D16
:100F1000184BAA4207D1CD0105D422689A42F5D0D8
:100F200041F0807109E0144DAA42EFD14A02EDD49C
:100F300022689A42EAD041F48001826822F0E0728D
:100F40000A43826022E6000000007F4000F0FF03B9
:100F5000FFFF0700000020FE000008800003005093
:100F6000000021C31000C0904C000020400D030081
:100F7000000052C700010050000084CB0068006CE4
:100F800070470000F8B54FF0000504002E460095AC
:100F900002D0E06D10B107E00120F8BD204600F05E
:100FA000EBF8266684F8586020688168C1F34071C8
:100FB00019B18168684A1140816020688168C1F375
:100FC000007189B98168654A114041F080518160A2
:100FD000634864490068B0FBF1F04000801C00E009
:100FE000401E00900028FBD120688168C1F3007189
:100FF00041B9E16D41F01001E165216E41F001015F
:101000002166012503F06EF8E16DC90600D430B108
:10101000E06D40F01000E06501252846F8BDE06D68
:1010200020F4807040F00200E0652068806810F0D5
:10103000010F11D14FF0A04080684B4900F0010032
:10104000896801F00101084306D148486168826857
:1010500022F47C120A438260E168E06B627F0843FD
:10106000A16841EA4231084394F8241040EA014063
:10107000012904D1218D3E4A02EB41410843E16A36
:1010800029B101F47871226B014342EA0100226820
:10109000D168384B19400143D16020680169626B07
:1010A00021F0406111430161206803F017F870BB23
:1010B000207F94F83810800340EA41022168C86814
:1010C00044F2020398431043C86020690028206856
:1010D00001690AD041F480310161206850F8C01FD5
:1010E00022696FF30D01114307E021F480310161A2
:1010F000206850F8C01F6FF30D01016094F84000A4
:1011000001280CD02068016921F0010101616069AA
:1011100001282068016B21F00F0111D013E0D4E900
:1011200011010843D4E913121143084321680A69E5
:1011300040F2FC739A43104340F001000861E6E777
:10114000226A521E11430163E06D20F0020040F05C
:101150000100E06561E70000C0FFFF5FC0FFFF7FA7
:101160004C000020400D030000010050000300501F
:101170000000FEFF0740F0FF10B598B004461421B0
:1011800011A8FFF77FF844216846FFF77BF816495E
:101190002068884225D1C001009080030F906846E6
:1011A00000F0ECFB08B1FFF78BFC1048C16C41F478
:1011B0000051C164C16C01F400511691C16C41F041
:1011C0000101C164C06C11A900F00100169030202B
:1011D000119003201290002013904FF0904000F0E7
:1011E000A1F918B010BD000000010050001002402D
:1011F0002DE9F04104463B480F46816801F01F0588
:10120000A16908290FD085B1052D0ED0092D0CD06C
:10121000806800F4604060B1E06D40F02000E0655F
:101220000120BDE8F081082604E02068C068C007FE
:10123000F1E7042600F0A4FA804615E0781C13D0EC
:1012400000F09EFAA0EB0800B84200D867B9206809
:101250000068304208D1E06D40F00400E0650020F5
:1012600084F858000320DCE7206800683042E5D0AD
:10127000E06D40F40070E065206802F037FF80B157
:10128000607F70B92068006800070AD5E06D20F41F
:101290008070E065E06DC00403D4E06D40F00100B3
:1012A000E065114A20684FF0A041904201D10B4601
:1012B00000E00346834210D07DB1052D0DD0092DED
:1012C0000BD0904200D00146C968082E07D04904CF
:1012D00001D40C2101600020A3E7C168F5E70821D3
:1012E000F8E7000000030050000100502DE9F04134
:1012F00004463848806800F01F05206802F0F2FEBE
:1013000018B102210846BDE8F08194F85800012880
:101310000CD0012084F858002046FFF763FB010041
:101320004FF0000304D084F85830EBE70220EAE7DE
:10133000E06D40F60162904340F48070E065264A1B
:1013400020684FF0A046904201D1374600E00746A2
:10135000874200D01DB9E76D27F48017E765E76D78
:10136000FF0404D5276E27F00607276600E02366F2
:101370001C27076084F858302068904201D133461A
:1013800000E00346834215D0A5B1052D12D0092DEA
:1013900010D0E36D43F48013E365904200D13046F2
:1013A000C0688001AED5E06D20F4005040F480505C
:1013B000E065A7E7C268920105D5E26D22F400520C
:1013C00042F48052E2658268044B1A40121D82602A
:1013D00098E700000003005000010050C0FFFF7FAD
:1013E00010B5044690F85800012808D0012084F870
:1013F000580003212046FFF74BFA10B10BE0022002
:1014000010BD2046FFF7B6FA28B9E16D21F48851E6
:1014100041F00101E165002184F8581010BD10B5BC
:1014200090F8253000210122022B03D00421C16352
:10143000012122E003681C6824F00E041C60836C08
:101440001C6824F480741C6003681C6824F0010488
:101450001C6090F84430046C03F01F0302FA03F39D
:101460006360D0E913345C60436D33B11C6824F4CD
:1014700080741C60D0E916345C6080F8252000225E
:1014800080F82420084610BD70B590F8252000246F
:1014900001212346022A07D00422C26380F82510C6
:1014A00080F82430012429E00268156825F00E0533
:1014B00015600268156825F001051560826C1568D5
:1014C00025F48075156090F84420056C02F01F0229
:1014D00001FA02F26A60D0E913255560426D32B11B
:1014E000156825F480751560D0E91625556080F8DB
:1014F000251080F82430816B01B18847204670BDEB
:1015000070B5044600F03CF90546601C02D0044862
:101510004068044400F034F9401BA042FAD370BD87
:10152000400000202DE9F04FDFF820920023012633
:101530000324A9F1040B85B00F2709F1040AABF1CC
:10154000040EFAE006FA03F52A407CD091F804C0B4
:101550000CF0030CBCF1010F02D0BCF1020F26D13C
:10156000D0F808C0CDF800C04FEA430C04FA0CF8DC
:10157000CDF810C0DDF800C02CEA080CCDF800C092
:10158000D1F80C80DDF810C008FA0CF8DDF800C0C6
:1015900048EA0C08C0F80880D0F804C02CEA050C12
:1015A0000D79C5F300159D4045EA0C0545600D79A0
:1015B000ED43AD070ED0C5684FEA430804FA08FCB6
:1015C00025EA0C05D1F808C00CFA08FC4CEA050C19
:1015D000C0F80CC00D7905F00305022D16D1DD0809
:1015E00000EB850CCDF808C0DCF820805D074FEAE1
:1015F000D56C07FA0CF528EA05080D6905FA0CF513
:10160000DDF808C045EA0805CCF8205005684FEA27
:10161000430CCDF808C004FA0CFC25EA0C0591F83F
:1016200004C00CF00308DDF808C008FA0CF848EA1A
:101630000508C0F800804D6815F4403F7CD0444D4B
:10164000D5F860C000E077E04CF0010CC5F860C050
:101650002D6E23F0030C05F0010500953D4D65440A
:101660000295AD684FEA837C4FEA1C7807FA08FCC4
:1016700025EA0C05B0F1904F06D0DFF8DCC06045DC
:1016800005D14FF0010C20E04FF0000C1DE0DFF819
:10169000CCC0604502D14FF0020C16E0DFF8C0C0AC
:1016A000604502D14FF0030C0FE0DFF8B8C0604591
:1016B00002D14FF0040C08E0DFF8ACC0604502D165
:1016C0004FF0050C01E04FF0060C0CFA08FC4CEA58
:1016D000050C029DC5F808C0D9F80050CC46D1F8D9
:1016E000048095435FEAC82800D51543CCF8005024
:1016F000DAF80050D446D1F8048095435FEA882890
:1017000000D51543CCF80050DBF80050DC46D1F88A
:10171000048095435FEA883800D51543CCF8005023
:10172000DEF80050F446D1F8048095435FEAC838EB
:1017300000D51543CCF800505B1C0A6832FA03F55B
:101740007FF400AF05B0BDE8F08F00000804014051
:10175000001002400000014000040048000800485A
:10176000000C0048001000480014004800690840C0
:1017700000D0012070470AB18161704781627047D3
:1017800001488068704700004000002002488168DE
:1017900042681144816070474000002010B5002469
:1017A000032000F073F80F2000F008F808B10124BE
:1017B00001E000F025F8204610BD000070B50E4E87
:1017C00005460024706898B14FF47A71B1FBF0F0CF
:1017D0000A490968B1FBF0F000F0ACFE40B9102DE9
:1017E00006D200222946501E00F030F8356000E095
:1017F0000124204670BD0000400000204C00002065
:101800000A4882B0016E41F001010166016E01F0EB
:1018100001010091816D41F080518165806D00F082
:101820008050009002B000F0A1B80000001002400B
:10183000002809DB00F01F020121914040098000CF
:1018400000F1E020C0F8001170470000F0B40E4B2A
:101850001B680C46C3F30223C3F10705042D00D90E
:101860000425191D072901D2002300E0DB1E0126F3
:1018700006FA05F1491E214099409E40761E164009
:101880003143F0BC04F02EB90CED00E0064900F045
:10189000070208684FF6FF03184040EA0220034A97
:1018A00010430860704700000CED00E00000FA05EE
:1018B0002B492C4B0A6832214A432B4940B1B0F5E1
:1018C000007F086829D020F4C06040F480602CE0DC
:1018D0000868C0F34120022804D051F8800F20F49A
:1018E000807022E0D1F8800020F48070C1F8800080
:1018F000086820F4C06040F400700860B2FBF3F0A8
:10190000401C00E0401E4A69520501D50028F9D16B
:10191000486940050AD503207047C0F341200228DA
:1019200006D051F8800F40F48070086000207047A6
:10193000D1F8800040F48070C1F88000086820F47D
:10194000C06040F400700860B2FBF3F0401C00E09F
:10195000401E4A695205DBD50028F9D1D8E70000BE
:101960004C00002040420F00007000400248816897
:1019700041F4804181607047007000402DE9F843D8
:101980000446006800269D4D00035ED5A86D002723
:10199000C00008D4A86D40F08050A865A86D01274C
:1019A00000F080500090DFF85892D9F8001041F410
:1019B0008071C9F80010FFF7E3FE804606E000BF23
:1019C000FFF7DEFEA0EB080002282BD8D9F80000B4
:1019D000C005F5D5D5F8900010F4407014D0216CF6
:1019E000814211D0D5F89000D5F8901020F44070C5
:1019F00041F48031C5F89010D5F8901021F4803171
:101A0000C5F89010C5F89000C00711D0FFF7B8FED8
:101A1000804641F2883907E0FFF7B2FEA0EB0801EB
:101A2000494501D903260BE0D5F890008007F3D58E
:101A3000D5F89000216C20F440700843C5F8900060
:101A40001FB1A86D20F08050A8652078C00707D08E
:101A5000D5F88800616820F003000843C5F88800C5
:101A60002078800707D5D5F88800A16820F00C0001
:101A70000843C5F888002078400707D5D5F88800C6
:101A8000E16820F030000843C5F88800207800079E
:101A900007D5D5F88800216920F0C0000843C5F8B3
:101AA00088002078800607D5D5F88800616920F481
:101AB00040600843C5F888002078400607D5D5F86F
:101AC0008800A16920F440500843C5F888002078B8
:101AD000000607D5D5F88800E16920F440400843A6
:101AE000C5F888002088C00507D5D5F88800216A88
:101AF00020F440300843C5F888002088800507D5C9
:101B0000D5F88800616A20F440200843C5F88800B1
:101B1000208840050FD5D5F88800A16A20F4401030
:101B20000843C5F88800A06AB0F5801F03D1E868B3
:101B300040F48010E860208800050FD5D5F88800B3
:101B4000E16A20F440000843C5F88800E06AB0F577
:101B5000800F03D1E86840F48010E8602088C0045A
:101B60000FD5D5F88800216B20F040700843C5F8E8
:101B70008800206BB0F1807F03D1E86840F48010CA
:101B8000E86020884FF0006180040ED5D5F8880009
:101B9000626B20F040601043C5F88800606B88429B
:101BA00003D1E86840F48010E860208840040ED536
:101BB000D5F88800A26B20F040601043C5F888007B
:101BC000A06B884203D1E86840F48010E860208868
:101BD00000040FD5D5F88800E16B20F04050084391
:101BE000C5F88800E06BB0F1805F03D1E86840F48D
:101BF0008030E8603046BDE8F88300000010024005
:101C0000007000402DE9F0470E4605004FF0000738
:101C100025D0DFF8AC81D8F8000000F00F00B0420A
:101C20000CD2D8F8001021F00F013143C8F8001091
:101C3000D8F8000000F00F00B04210D12968614CC4
:101C4000C80741F2883A5AD06868DFF87C910328C7
:101C500008D0022820682DD0400500282CDB012068
:101C6000BDE8F08720688001F9D5E06800F0030244
:101C7000E068C0F30310401C032A19D0534A00BF88
:101C8000B2FBF0F0E268C2F306225043E268C2F30E
:101C90004162521C5200B0FBF2F0484517D9A068CF
:101CA00010F0F00F0CD0880711D5A86840B10EE0F5
:101CB000474AE5E78003D0E700F0B6F8484506D983
:101CC000A06820F0F00040F08000A0608027A068AD
:101CD000696820F003000843A060FFF751FD8146CA
:101CE00006E000BFFFF74CFDA0EB090151453AD8D3
:101CF000A068696800F00C00B0EB810FF2D1286891
:101D0000810714D5400703D5A06840F4E060A060C7
:101D10002878000705D5A06820F4605040F4E06002
:101D2000A060A068A96820F0F000084304E0802FBC
:101D300003D1A06820F0F000A060D8F80010404661
:101D400001F00F01B14216D9016821F00F013143B2
:101D50000160FFF715FD074607E000BFFFF710FD24
:101D6000C11B514501D903207AE7D8F8000000F0E3
:101D70000F00B042F2D12878400705D5A068E96885
:101D800020F4E0600843A0602878000706D5A0682A
:101D9000296920F4605040EAC100A06000F044F8D6
:101DA000A1680C4AC1F30311515C01F01F01C84046
:101DB0000949086009480068BDE8F047FFF7FEBC24
:101DC000002002400010024000B4C4040024F400CB
:101DD00000366E01DC6600084C0000204000002048
:101DE0000548064900688968054AC1F30221515C2B
:101DF00001F01F01C84070474C0000200010024055
:101E0000EC6600080548064900688968054AC1F380
:101E1000C221515C01F01F01C84070474C000020F6
:101E200000100240EC660008184910B58868C0F33D
:101E300081021748012A0BD08A68164BC2F381022F
:101E4000022A06D08A68C2F38102032A03D0002046
:101E500010BD184610BDCA6802F00304CA68C2F378
:101E60000312521C032C02D0B0FBF2F001E0B3FBD2
:101E7000F2F0CA68C968C2F306225043C1F3416157
:101E8000491C4900B0FBF1F010BD000000100240F9
:101E90000024F40000366E012DE9F84304007AD0E6
:101EA0002078F84DC00747D0A868E96800F00C001A
:101EB00001F003010C2802D0082817D001E0032903
:101EC00014D06068B0F5803F17D0B0F5A02F286817
:101ED00017D020F480302860286820F48020286003
:101EE0006068E0B1FFF74CFC064614E02868800308
:101EF00022D560680028D2D01EE0286840F48030E7
:101F0000EDE740F480202860F7E700BFFFF738FCDA
:101F1000801B642870D828688003F7D50CE0FFF791
:101F20002FFC064605E000BFFFF72AFC801B642853
:101F3000F0D828688003F7D4207880074CD5A868AB
:101F4000E96800F00C0001F003010C2802D004281D
:101F50000DD001E002290AD0E068002828682BD0C3
:101F600040F480702860FFF70BFC064619E02868F3
:101F7000400502D5E068002891D06868217C20F0F7
:101F8000FE4040EA01606860BF480068FFF716FC49
:101F9000002800D120E072E1FFF7F2FB801B02284D
:101FA000B8D828684005F7D56868217C20F0FE4045
:101FB00040EA016068600FE020F480702860FFF75D
:101FC000DFFB064605E000BFFFF7DAFB801B0228B7
:101FD000A0D828684005F7D42078000729D5606983
:101FE0000028D5F8940013D040F00100C5F8940003
:101FF000FFF7C6FB064606E090E000BFFFF7C0FB18
:10200000801B022886D8D5F894008007F6D510E00A
:1020100020F00100C5F89400FFF7B2FB064604E08B
:10202000FFF7AEFB801B022878D8D5F89400800714
:10203000F6D42078400761D5A86D0026C00008D4EA
:10204000A86D40F08050A865A86D012600F0805072
:1020500000908E480168C90511D40168804641F49A
:1020600080710160FFF78CFB074604E0FFF788FBF7
:10207000C01B022852D8D8F80000C005F6D5A068C9
:10208000012815D00528D5F8900016D020F00100C1
:10209000C5F89000D5F8900020F00400C5F8900035
:1020A000A06841F28838B8B1FFF76AFB07460EE036
:1020B000D5F8900040F00100F0E740F00400C5F8CA
:1020C0009000F5E7FFF75CFBC11B414526D8D5F82A
:1020D00090008007F6D50CE0FFF752FB074604E0BE
:1020E000FFF74EFBC11B414518D8D5F8900080077B
:1020F000F6D41EB1A86D20F08050A8652078800627
:1021000029D5A0690028D5F8980013D040F0010027
:10211000C5F89800FFF734FB064606E075E000BFFF
:10212000FFF72EFB801B02286FD8D5F89800800798
:10213000F6D510E020F00100C5F89800FFF720FB6D
:10214000064604E0FFF71CFB801B02285DD8D5F88B
:1021500098008007F6D4E069F0B3A968C1F3810163
:1021600003295DD00228286820F08070286003D001
:10217000FFF706FB04464BE0FFF702FB064604E0D0
:10218000FFF7FEFA801B02283FD828688001F7D4A9
:10219000F4E908016FF00F0202EB01110843218AF4
:1021A0005204490802EB4151A26841EA0221084366
:1021B000217D4FF07E42490802EB41610843217BBB
:1021C00040EAC160E968324A11400843E860286883
:1021D00040F08070286000E05EE0E86840F08070C9
:1021E000E860FFF7CDFA044605E000BFFFF7C8FA44
:1021F000001B022809D828688001F7D54CE000BFF1
:10220000FFF7BEFA001B022802D90320BDE8F883BD
:1022100028688001F4D4E8681E490840E8603BE083
:102220000128F3D0E868226A00F00301914226D128
:10223000616A00F0F0020901103991421FD1A26ACF
:1022400000F4FE41B1EB022F19D194F82C2000F0DC
:102250007841B1EBC26F12D1218E00F4C00249085F
:102260004905A1F50011914209D194F8341000F00C
:10227000C06049084906A1F1007181420CD00120DB
:10228000C4E7000000100240400000200070004041
:102290000C809F01FCFFEEFE0020B7E770B5040044
:1022A0004FF0010040D094F8250028B9002084F8B0
:1022B0002400204600F040F8022084F82500206821
:1022C000C168C943C90630D5CA214162216853207B
:1022D0004862204602F048FB10BB20688169154A1D
:1022E00011408161216888696268A369104322698D
:1022F0001A43104388612189E06840EA014021685F
:102300000861204602F055FB50B9D4E9072111437A
:1023100022686369956925F060452B4319439161F3
:102320002268FF21516208B170BD0020012184F8AC
:10233000251070BDBFFF8FFB10B592B0044644213D
:102340006846FDF79FFF1049206888421AD14FF474
:10235000002000904FF4407010906846FFF70EFB8D
:1023600008B1FEF7ADFB094850F8901F41F4004159
:1023700040F83819016841F480610160006800F498
:102380008060119012B010BD002800400010024083
:1023900070B5044690F824000B4601281BD0012696
:1023A00084F82460022084F82500B2B19878D978A6
:1023B00040EA014558781978000240EA4130054367
:1023C0002168CA204862216853204862204602F0F2
:1023D000CBFAD0B120E0022070BD5878C10603D5F9
:1023E00000F0EF000A305870D87802F0B0FA050417
:1023F000587802F0ACFA45EA0025987802F0A7FA7E
:102400000543187845EA4035DAE708480540206872
:102410004560204602F0CDFA2268FF21516208B9DA
:1024200084F82560002184F8241070BD3FFFFF0070
:102430002DE9F041044690F8240090460D4601280D
:1024400011D0012784F82470022084F82500216827
:10245000CA204862216853204862204602F084FA6C
:10246000002618B129E00220BDE8F0812068B8F10B
:10247000000F80694FEA406024D0002800DBEE7036
:10248000A8782978EA7840EA01406978090241EAA7
:102490008251084318490840216808602068816912
:1024A00021F480218161D5E90301084321688A690B
:1024B00010438861204602F07CFA2268FF215162B5
:1024C000A0B115E0002800DBEE70287802F03FFA9A
:1024D0000304687802F03BFA43EA0023A87802F08C
:1024E00036FA0343E87843EA8050D3E784F825704E
:1024F00084F82460B8E700007F7F7F0070B5044651
:102500000B482168C860FFF73BF905464FF47A761F
:1025100007E000BFFFF734F9401BB04201D90320A8
:1025200070BD2068C0688006F4D5002070BD000032
:102530005F00010010B5401EB0F1807F01D3012083
:1025400010BD4FF0E02460610F21601703F0CAFA5C
:102550000020A06107202061002010BD7047704757
:102560007047704770477047F0B590F83C20012ADB
:102570003AD0012580F83C50022280F83D200368C3
:102580005A689C68194E1A4FB34201D0BB4204D11D
:1025900022F4700C4A6842EA0C02DFF858C002EAE2
:1025A0000C02D1F800C04CEA020CC3F804C0026867
:1025B000B2420DD0B2F1804F0AD00F4B9A4207D0F1
:1025C0000E4B9A4204D0BA4202D00D4B9A4204D12B
:1025D000896824F080031943916080F83D50002100
:1025E00080F83C100846F0BD0220F0BD002C0140F0
:1025F000003401408FFFFFFD000400400008004050
:1026000000400140704710B5040003D094F83D002D
:1026100010B107E0012010BD002084F83C002046E6
:1026200000F022F8022084F83D00211D206802F00D
:1026300033FB012084F8480084F83E0084F83F0012
:1026400084F8400084F8410084F8420084F8430094
:1026500084F8440084F8450084F8460084F8470074
:1026600084F83D00002010BD10B586B0044614214A
:102670006846FDF707FE21683F48B1F1804F26D03C
:102680003E4A91422DD1816D41F002018165816DFB
:1026900001F002010591C16C41F00101C164C06CFF
:1026A000002100F001000590802000900220CDE97B
:1026B0000101CDE9031069464FF09040FEF732FF6B
:1026C000002211461D20FFF7C1F81D201AE0816D80
:1026D00041F001018165806D00F00100059006B0B8
:1026E00010BD274A914210D1816D41F004018165EE
:1026F000806D002200F00400059011461E20FFF7B7
:10270000A5F81E20FFF794F8E9E71E4A91420ED182
:10271000016E41F480310166006E002200F48030C9
:10272000059011461820FFF791F81820EAE7164A9D
:1027300091420ED1016E41F400310166006E00221B
:1027400000F40030059011461920FFF77FF819209A
:10275000D8E70E4A9142C2D1016E41F48021016650
:10276000006E002200F48020059011461A20FFF729
:102770006DF81A20C6E70000001002400004004077
:102780000008004000400140004401400048014072
:1027900090F83D10012901D001207047022180F8F6
:1027A0003D100168CA6842F00102CA600068104921
:1027B00088420ED0B0F1804F0BD00E49884208D02D
:1027C0000D49884205D00D49884202D00C49884203
:1027D00007D181680B4A1140062906D0B1F5803F28
:1027E00003D0016841F00101016000207047000042
:1027F000002C01400004004000080040003401406B
:10280000004001400700010070B5044690F83C000C
:102810000025012814D0012684F83C60022084F8A9
:102820003D0022689068364B184020F47F4090604D
:10283000086870282ED010DC10F00F0F03D021E0B4
:102840004FF0020070BD4FEA2012072A1AD2DFE8CB
:1028500002F0525252524A3840002A4BC21A984251
:1028600049D009DCB0F5805F0DD0B0F5005F1CD019
:10287000B0F1101F06D13EE0102A3CD0202A3AD0F9
:10288000502A38D0012584F83D60002084F83C00AF
:10289000284670BDCB68D1E90121206802F067FAB3
:1028A0002068816841F0770109E0CB68D1E9012116
:1028B000206802F05CFA2068816841F48041816000
:1028C000E1E7CA684968206802F066FA502120688A
:1028D00006E0CA684968206802F0A6FA602120680C
:1028E00002F050FACFE7CA684968206802F054FA4B
:1028F00040212068F4E7226801461046F0E7000016
:1029000088FFCEFF2000100070B505462DED028B2C
:1029100000683449884261D1334C4FF00401207B78
:10292000C00728460FD000F007FB216944F82100BA
:102930002069401C20612868016A21F0A001016221
:102940002868016A12E000F0F7FA216944F82100D2
:102950002069401C206103280DD02868016A21F0FD
:10296000A00101622868016A41F020010162207B18
:10297000401C20732AE02668A068801BFDF76EFDCE
:1029800041EC180B6068801BFDF768FD53EC182BB9
:10299000FDF7F5FC9FED151B53EC112BFDF77DFCAE
:1029A000FDF769FD10491039002648602868466225
:1029B0002868016A21F0A00101622868016A0162A9
:1029C0000421284600F0DCF8267326610421BDECC2
:1029D000028B0848BDE8704000F0D2B8BDEC028B15
:1029E00070BD000000040040A003002000000000B3
:1029F00000005940800100202DE9F041054690F883
:102A00003C0000260C46012810D0012085F83C002F
:102A100072B1042A1CD0082A2CD00C2A50D00126CE
:102A2000002085F83C003046BDE8F0810220FBE73D
:102A3000D4E90012E368286802F0C0F928688169C7
:102A400021F00C01816128688169A26811430FE0BF
:102A5000D4E90012E368286802F0F8F9286881696F
:102A600021F44061816128688169A26841EA0221FC
:102A70008161D5E72868D4E9002C277B036A016AC5
:102A800021F480710162C16923F4206321F0030104
:102A900041EA0C0121F0F00C39074FF420674CEAB1
:102AA000116107EA02221A43C16102622868C16902
:102AB00021F00C01C1612868C169A26811432BE0B3
:102AC0002868D4E90021E768036AD0F820C02CF414
:102AD000805CC0F820C0D0F81CC023F420432CF444
:102AE000407C4CEA012121F4704C4FF6FF7101EA61
:102AF00007314FF4204741EA0C0107EA02321A433A
:102B0000C16102622868C16921F44061C16128681D
:102B1000C169A26841EA0221C16181E710B50400E0
:102B200003D094F83D0010B107E0012010BD002053
:102B300084F83C00204600F022F8022084F83D0092
:102B4000211D206802F0A8F8012084F8480084F8CC
:102B50003E0084F83F0084F8400084F8410084F887
:102B6000420084F8430084F8440084F8450084F867
:102B7000460084F8470084F83D00002010BD7047EF
:102B800030B50446002571B1042911D0082914D0AC
:102B90000C2917D0102918D094F8430094F8472036
:102BA000012817D114E094F83E0094F84420F7E788
:102BB00094F83F0094F84520F2E794F8400094F828
:102BC0004620EDE794F84100E8E794F84200E5E795
:102BD000012A01D0012030BD022079B1042916D08C
:102BE00008291DD00C2949D010294AD084F8430067
:102BF00084F847000C2947D001253DE084F83E00C9
:102C000084F844002068C26842F0020210E084F8B0
:102C10003F0084F845002068C26842F0040207E0E3
:102C200084F8400084F846002068C26842F0080238
:102C3000C2600122206802F08DF81649206888429F
:102C40000ED0B0F1804F0BD01349884208D0134901
:102C5000884205D01249884202D01249884207D1E1
:102C60008168114A1140062906D0B1F5803F03D092
:102C7000016841F001010160284630BD84F841003F
:102C8000B6E784F84200B3E72068C26842F0100259
:102C9000CEE70000002C0140000400400008004086
:102CA0000034014000400140070001002DE9F041DF
:102CB00004460068C66805694FF00007A90713D5E8
:102CC000B10711D5F91E01610120207720688069C4
:102CD0008007204602D0FFF717FE04E000F0B7F8A7
:102CE000204600F0B5F82777680716D5700714D589
:102CF00021686FF004000861022020772068806955
:102D000010F4407F204602D0FFF7FEFD04E000F003
:102D10009EF8204600F09CF82777280715D5300745
:102D200013D521686FF0080008610420207720681F
:102D3000C0698007204602D0FFF7E6FD04E000F0FE
:102D400086F8204600F084F82777E80616D5F006C6
:102D500014D521686FF010000861082020772068E2
:102D6000C06910F4407F204602D0FFF7CDFD04E09B
:102D700000F06DF8204600F06BF82777E80708D0E0
:102D8000F00706D021686FF001000861204600F0CE
:102D900061F8280601D4A80408D5300606D52168B4
:102DA0006FF4025008612046FFF7D9FBE80508D50B
:102DB000300606D521686FF4807008612046FFF761
:102DC000CDFB680608D5700606D521686FF0400077
:102DD0000861204600F0C5F8A80608D5B00606D55B
:102DE00021686FF0200008612046FFF7B9FBE80278
:102DF00008D5F00206D521686FF4801008612046DE
:102E0000FFF7B0FBA80208D5B00206D521686FF421
:102E1000001008612046FFF7A4FB680208D5700285
:102E200006D521686FF4800008612046FFF79BFB00
:102E300028020AD5300208D521686FF40000086125
:102E40002046BDE8F041FFF7DDBBBDE8F0817047EB
:102E500070470000F8B500683449884251D1344CBD
:102E600001212046FEF782FC8DF800000221204659
:102E7000FEF77CFC8DF8010004212046FEF776FC6D
:102E80008DF8020001214FF09040FEF76FFC8DF8A5
:102E90000300284E00200125321DA2F10C01EC4652
:102EA000A6F1040E044601F11C0300BF1CF80070DB
:102EB0003754002F0F5C10D0022F23D0175CEFB1D6
:102EC0001EF800707F1CFFB20EF80070142F15D38F
:102ED000184F08373D54145410E027B1012F06D085
:102EE000022F06D00AE00D5423F8104006E0022716
:102EF0000F5433F810707F1C23F81070401C042806
:102F0000D4DBF8BD33F81070322F0CD2175C97F079
:102F10000107175402D00EF8004002E0054F0C37AD
:102F20003D540C54EAE7034F1037F9E7000800401E
:102F3000000400485E0000200246002041B1042940
:102F400009D008290AD00C2901D11068006C7047FB
:102F50001068406B70471068806B70471068C06BDA
:102F60007047704790F88410012918D0012180F82B
:102F700084102421C0F8881001680A680B6823F0C7
:102F800001030B6022F000510022426603681960C1
:102F90002021C0F8881080F8842010467047022055
:102FA00070477047704770B5044690F88400012858
:102FB0001DD0012084F884002420C4F888002068F3
:102FC0000568026822F0010202602068826822F02F
:102FD00060620A438260204601F054FF2068056069
:102FE0002020C4F88800002084F8840070BD0220EE
:102FF00070BD70B5044690F8840001281DD00120F2
:1030000084F884002420C4F88800206805680268D9
:1030100022F0010202602068826822F060420A43C6
:103020008260204601F02EFF206805602020C4F851
:103030008800002084F8840070BD022070BD7047B5
:10304000704770472DE9F04103680446D869196854
:103050009A6840F60F0528424FF000054FF002062F
:103060000AD187067ED501F0200702F0805C57EA7E
:103070000C0777D0616F3AE1B24FDFF8CCC217404E
:1030800001EA0C0C57EA0C0C6CD05FEAC07C0CD047
:103090005FEAC15C09D54FF0010CC3F820C0D4F839
:1030A000903043F00103C4F89030830709D5D3076B
:1030B00007D023681E62D4F8903043F00403C4F8AC
:1030C000903043070AD5D30708D02668042333621B
:1030D000D4F8903043F00203C4F8903003070CD5C5
:1030E00001F020033B4308D0266808233362D4F85C
:1030F000903043F00803C4F8903003050BD54B0122
:1031000009D526684FF400633362D4F8903043F059
:103110002003C4F89030D4F89030002B3DD08006C6
:1031200009D501F0200002F08051084303D0616FFF
:1031300009B120468847D4F890002168896849067B
:1031400002D410F0280F2AD0204601F081FF206819
:10315000806840061ED52068083050E8001F21F026
:10316000400100E021E040E80012002AF3D1D4F849
:10317000800078B175498163D4F88000FEF784F946
:1031800000280AD0D4F88000816B00E02046BDE81A
:10319000F04108472046FFF754FFBDE8F081204684
:1031A000FFF74FFFC4F89050F7E7D4F86CC0202722
:1031B000BCF1010F7ED15FEAC06C7BD55FEAC16CC8
:1031C00078D51020186220688068400645D5D4F86C
:1031D0008010086840680004000CDED0B4F85C2061
:1031E0008242DAD9A4F85E000868006880062CD410
:1031F000216851E8000F20F4807041E80002002AA5
:10320000F6D12068083050E8001F21F0010140E8A5
:103210000012002AF5D12068083050E8001F21F084
:10322000400140E80012002AF5D1C4F88C70E56630
:10323000206850E8001F21F0100140E80012002A29
:10324000F6D1D4F88000FEF7EAF82667B4F85C00FF
:10325000B4F85E10401A81B230E0B4F85C00B4F803
:103260005E10401A81B2B4F85E00002895D00029A3
:1032700093D0226852E8000F20F4907042E80003D7
:10328000002BF6D12F4BDB432068083050E8002F8D
:103290001A4040E8002CBCF1000FF5D1C4F88C7046
:1032A000E5666567226852E8000F20F0100042E8EA
:1032B000000300E006E0002BF4D126672046FFF76C
:1032C00070FE6AE7C60209D5560207D54FF4801092
:1032D00018622046BDE8F041FFF7B2BE03060AD5EA
:1032E00001F0800302F40002134304D0A16F00290F
:1032F0007FF44CAF51E7420611D54A060FD5204660
:10330000026852E8001F21F0400142E80013002B40
:10331000F6D1C0F88870856700F035F93DE7020204
:1033200006D54A0004D52046BDE8F041FFF787BE28
:10333000C001C6D50029C4DA2046BDE8F041FFF738
:1033400031BE000001000010200100043D500008C3
:1033500010B5040003D0D4F8880010B107E00120B4
:1033600010BD002084F88400204600F027F82420B7
:10337000C4F888002068016821F001010160A06A9A
:1033800010B1204601F0A0FD204602F0F3F801281C
:10339000E6D02068416821F490414160206881684E
:1033A00021F02A0181602068016841F0010101607B
:1033B0002046BDE8104001F0EBBD000010B598B00C
:1033C0000446142111A8FCF75DFF44216846FCF770
:1033D00059FF1B492068884230D101200024CDE9E3
:1033E00000046846FEF7CAFA08B1FDF769FB154804
:1033F000016E41F480410166016E01F48041169135
:10340000C16C41F00101C164C06C11A900F0010060
:1034100016904FF4C06011900220CDE912040720ED
:10342000CDE914404FF09040FEF77CF800221146A1
:103430002520FEF70BFA2520FEF7FAF918B010BD8B
:10344000003801400010024030B4D0F88C30202BFE
:1034500002D0022030BC7047A9B1A2B10023C366DC
:103460000A4C0368A3420BD05B681B0208D50468B2
:1034700054E8003F43F0806344E80035002DF6D166
:1034800030BC02F0B1B90120E4E700000080004048
:1034900030B40E4A0168914215D10D4900230A78D3
:1034A0001D2A07D20B4C4D78A554521CD2B20A707B
:1034B000A35402E00B7001224A600549012230BC8E
:1034C000491CFFF7C1BF30BC704700000038014005
:1034D0007C000020B40300202DE9F8430446D0F816
:1034E0008800984616460D46202802D00220BDE8E6
:1034F000F883A5B19EB10020C4F890002120C4F843
:1035000088001834FEF73CF9A6878146E68754F810
:10351000100C2027183CB0F5805F02D003E001209A
:10352000E5E7206910B12E46002510E000260EE0E8
:103530008021204602F0E0F9C0B9DEB116F8010B97
:1035400021688862B4F85600401EA4F85600B4F80A
:1035500056004B464FF00002CDF800800028E7D11E
:103560004FF04001204602F0C7F940B1C4F888701E
:103570000320BCE735F8020BC0F30800E0E7C4F80D
:1035800088700020B3E77047FEE770B50824002577
:1035900001F0A0FA13E06806050E002001F082FA9F
:1035A000142002F009FF142002F006FF012001F0B0
:1035B00079FA142002F000FF01F080FA0543641E3E
:1035C000E4B2E8D2002001F06DFA142002F0F4FE1B
:1035D00001F0A2FA284670BD10B5002001F090FA63
:1035E000142002F0E9FE142002F0E6FE012001F0B2
:1035F00059FA142002F0E0FE002001F053FABDE871
:103600001040142002F0D8BE70B50446082516E01C
:1036100001F048FA142002F0CFFE04F0800001F01F
:103620006FFA142002F0C8FE6006040E142002F0A7
:10363000C3FE012001F036FA142002F0BDFE6D1E1B
:10364000EDB24FF00000E3D201F02CFABDE870407B
:10365000142002F0B1BE10B5012001F051FA14207F
:1036600002F0AAFE142002F0A7FE012001F01AFACF
:10367000142002F0A1FE002001F014FABDE8104071
:10368000142002F099BE10B5012001F039FA14207F
:1036900002F092FE012001F005FA142002F08CFEE7
:1036A000002001F02DFA142002F086FE002001F027
:1036B000F9F9BDE81040142002F07EBE10B50020DC
:1036C00001F0F0F9142002F077FE002001F018FA62
:1036D000142002F071FE012001F0E4F9142002F040
:1036E0006BFE012001F00CFABDE81040142002F03E
:1036F00063BE10B5052401F0EDF9142002F05CFE64
:10370000012001F0CFF9142002F056FE05E0641EFE
:10371000A4B2142002F050FE6CB101F0CFF90028E1
:10372000F5D101F0F9F9002001F0BCF9142002F004
:1037300043FE002010BD01F0EFF9FFF7BFFF0120AD
:1037400010BD70B515460E460446FFF79CFFA0203D
:10375000FFF75AFFFFF7CDFF3046FFF755FFFFF7A2
:10376000C8FFFFF790FFA120FFF74EFFFFF7C1FF53
:1037700009E0FFF70AFF04F8010B15B1FFF72CFF72
:1037800001E0FFF768FF6D1EEDB2F2D2BDE87040B8
:10379000FFF794BF70B515460E460446FFF773FF5A
:1037A000A020FFF731FFFFF7A4FF304602E000BF83
:1037B00014F8010BFFF728FFFFF79BFF6D1EEDB21A
:1037C000F6D2FFF77BFFBDE870404FF4FA7002F0CD
:1037D000F3BD00002DE9F04764480168644CA2691C
:1037E000891A32297ED30068A061624D00262878AC
:1037F000012843D1207890F0010020703AD1214671
:10380000E078A2780979904202D16079884230D07C
:10381000A089401C80B2A081E270617142F21071F7
:10382000B0FBF1F2524938310A714FF47A72B0FBB1
:10383000F2F30A22B3FBF2F702FB1733CB706423D7
:10384000B0FBF3F3B3FBF2F702FB17338B70B0FB63
:10385000F2F3B3FBF2F702FB17334B70B0FBF2F35A
:1038600002FB130008704248052200213830FFF7A0
:1038700091FF6670002000F0B3F82E706978012087
:10388000012909D1217831B16178491CC9B261702F
:10389000032900D160706E70A9784FF014090129D6
:1038A00018D12178A9B16178012902D0022909D063
:1038B0000FE0A178491CC9B2A170282909D984F860
:1038C000029006E02179491CC9B22171022900D970
:1038D0002071AE70E9782827012919D12178B1B17A
:1038E000617800E040E0012902D0022908D00EE012
:1038F000A078401EC0B2A070142808D2A77006E0BD
:103900002179491CC9B22171022900D92071EE70B8
:1039100004211948FDF72AFF184DDFF8648070B9BB
:10392000A88832280BD9207838B1A078401CC0B2C2
:10393000A070282801D984F8029088F8026001213B
:103940004FF09040FDF712FF00280DD1E888322893
:103950000AD9207830B1A078401EC0B2A0701428D7
:1039600000D2A77088F80360BDE8F0874800002007
:1039700000000020660000200004004872000020C3
:103980006E00002000B585B014216846FCF77AFC73
:103990004FF6FF70009000200321CDE90201019055
:1039A00069460248FDF7BEFD05B000BD00080048AD
:1039B00000B585B014216846FCF764FC4FF6FF7033
:1039C000009001200190032003900020029069469E
:1039D0000248FDF7A7FD05B000BD00000008004843
:1039E00070B5002406462146204600F06FFA00F02C
:1039F000ADFA4FF49635304600F07CFA641CAC42C8
:103A0000F9D370BD30B587B014216846FCF73AFC95
:103A10001E48C16C41F00401C164C16C01F0040195
:103A20000591C16C41F00101C164C16C01F001015B
:103A30000591C16C41F00201C164C06C012500F028
:103A4000020005904FF44870CDE90005002403946E
:103A5000694602940E48FDF765FD28020394009024
:103A6000CDE901544FF0904469462046FDF75AFDD8
:103A7000FFF79EFFA06940F48070A06104481830F1
:103A8000016841F40871016007B030BD00100240C8
:103A900000040048203AD2B2034B02EB420203EB8F
:103AA000021200F019B80000F466000870B515465F
:103AB0000C460646B1F5A07F09D340F23F1406E05C
:103AC00021463046FFF7E6FF103CA4B26D1C2A7871
:103AD000002AF5D170BD00002DE9F04791468A46D5
:103AE0000026044600F0F2F9DFF84080012700BF0D
:103AF00000F02CFA5FF0000539F8160007FA05F11E
:103B00000842404601D1408800E0008800F0F2F908
:103B10006D1C102DF0D3641CE4B25146204600F019
:103B2000D5F9761C182EE3D3BDE8F08750000020AD
:103B300010B5FFF767FF002000F080F9084CA08067
:103B4000A088A0F50241303906D000F0FFFD00202A
:103B500000F074F9A08010BD00F06FFDF7E70000E1
:103B6000500000202DE9FC4196480168964CE2691E
:103B7000891A64297ED30068E06104F12805688809
:103B800000F076FF51EC100BFCF7A1FC20632888B5
:103B900000F06EFF51EC100BFCF799FC60638B4852
:103BA000002500792072E079A0B1A2780A20B2FB4A
:103BB000F0F1B1FBF0F3B2FBF0F600FB131104F1EE
:103BC0000E0300FB162259709A70002300950C20FA
:103BD000019505E0009500230195227919460A20F8
:103BE00000F0B0FF21799FED7A0ADFED7A0A01201B
:103BF000012902D002290CD01EE0217A01EE101A10
:103C0000B8EE411A21EE000A80EE201A94ED0C0A5B
:103C10000AE0217A01EE101AB8EE411A21EE000AEC
:103C200080EE201A94ED0D0AB4EEC01AF1EE10FAEF
:103C300001D2607200E06572A178D4ED0B0A00EE4B
:103C4000101AB8EE400AF4EEC00AF1EE10FA01DDE7
:103C5000A07200E0A57221784FF6FF704FF49075C6
:103C6000E9B3064600F03EF915215B48FCF70AFB74
:103C70005AA100E0A3E0584801F020FF564AC021B5
:103C80001820FFF713FF15215348FCF7FBFAA27821
:103C900054A1514801F012FF60784FF4FC670128ED
:103CA0007ED0304600F01EF94B4A29464820FFF7E7
:103CB000FDFE15214848FCF7E5FA22794BA146485C
:103CC00001F0FCFE6078022877D0304600F00AF957
:103CD000414A2946602002B0BDE8F04100E001E021
:103CE000FFF7E4BE00F0FEF815213B48FCF7CAFAE6
:103CF00041A1394801F0E2FE374AC0211820FFF700
:103D0000D5FE15213448FCF7BDFA206BFCF7CCFB3F
:103D100041EC100B3AA153EC102B2F4801F0CEFED2
:103D20002D4A29464820FFF7C1FE15212A48FCF7F5
:103D3000A9FA606BFCF7B8FB41EC100B33A153EC14
:103D4000102B254801F0BAFE234A29466020FFF7D0
:103D5000ADFE15212048FCF795FA227A2EA11E48C7
:103D600001F0ACFE1C4A29467820FFF79FFE152182
:103D70001948FCF787FAE06AFCF796FB41EC100B58
:103D800028A153EC102B144801F098FE124A294642
:103D90009020FFF78BFE15210F48FCF773FA01E026
:103DA00009E00AE0A28923A10B4801F087FE0A4A34
:103DB0002946A8208FE7384674E7384686E7BDE8ED
:103DC000FC8100004800002000000020900300203B
:103DD000333353400000C8428800002050617261B4
:103DE00020200000543A202564202000583A204129
:103DF00030256420200000004D61696E2020000005
:103E0000414F313A252E326656202000414F323A3A
:103E1000252E32665620200050574D323A25642513
:103E20002520200054656D703A252E3266432020EF
:103E3000000000004E3A25642020000070B51D49A6
:103E40000A6842F400720A600A6842F480720A60EA
:103E5000184C103C226842F020022260164A106082
:103E6000086840F02000086000BF00BF00BF206865
:103E700040F020002060206840F480702060FFF750
:103E800081FD4FF09041886A40F48070886200BFE5
:103E900000BF00BF0848001F006885B2886940F471
:103EA00080708861FFF784FD206840F40070206016
:103EB000284670BD280400481408004801B5BDF824
:103EC00000000149488008BD5000002010B50C4694
:103ED0000146202000F068F82146BDE8104021206E
:103EE00000F062B801B5BDF800000149088008BDC6
:103EF00050000020134A116841F40071116011490B
:103F000010390B6843F480730B600B6843F0200397
:103F10000B600D4B1860106840F02000106000BF6F
:103F200000BF00BF086840F020000860086840F447
:103F30008070086000BF00BF00BF086840F40070D8
:103F400008607047280400481408004814490868AD
:103F500040F400700860086840F480700860104801
:103F60001038026842F0200202600E4B22221A60D2
:103F70000A6842F020020A6000BF00BF00BF01686B
:103F800041F020010160016841F48071016000BFCF
:103F900000BF00BF016841F400710160704700007C
:103FA0002804004814080048184B10B51A6842F459
:103FB00000721A601A6842F480721A60134A103A4A
:103FC000146844F020041460114C2060186840F01C
:103FD0002000186000BF00BF00BF106840F0200044
:103FE0001060106840F4807010602160186840F024
:103FF0002000186000BF00BF00BF106840F0200024
:104000001060106840F48070106010BD28040048F3
:104010001408004870B50D4D0446012204212846BD
:10402000FDF7A9FB0A4E01224FF6FF713046FDF75E
:10403000A2FB210200223046FDF79DFB2846BDE889
:10404000704000220421FDF796BB0000000C0048E0
:104050000008004810B5094C012204212046FDF754
:104060008AFB01224FF6FF710548FDF784FB2046CD
:104070000022BDE810400421FDF77DBB000C004884
:104080000008004810490A6810484369D21AC82A33
:1040900018D3096841610146427A897912B141F029
:1040A000010101E001F080018171817A01298179AA
:1040B00005D001F001018171C8B2FFF7ABBF41F03B
:1040C0008001F8E770470000480000200000002051
:1040D00000EB8100006E00F0F84070478068C0F38C
:1040E000C00070478068C0F380007047C06810F45B
:1040F000406F01D00020704701207047042303EA7D
:10410000D15310B518444369C1F3045107248C40BE
:10411000A3438A401343436110BD00EB8100016E4D
:1041200021F00041114301667047000030B589B0AD
:1041300020216846FCF7A6F81F481E4900240160AC
:104140004902C0E90114042585610121C460C0E968
:104150000441047744770221016280F82440C4625C
:10416000046380F83840C46380F84040FCF70AFFDD
:1041700008B1FCF7A5FC114800900620019007202B
:1041800002907F200594CDE9030569460A48FCF7B3
:10419000E3FC08B1FCF794FC094800900C20019066
:1041A00069460548FCF7D8FC002801D0FCF788FCDC
:1041B00009B030BD00010050A00000200020903662
:1041C000000052472DE9F04387B014216846FCF700
:1041D00059F84348C16C41F00401C164C16C01F05D
:1041E00004010591C16C41F02001C164C16C01F072
:1041F00020010591C16C41F00101C164C16C01F065
:1042000001010591C16C41F00201C164C16C01F072
:1042100002010591C16C41F00801C164C06C314ECE
:1042200000F008004FF47F440590012221463046FB
:10423000FDF7A1FA4FF0904700224E213846FDF7D6
:104240009AFADFF8A480002204214046FDF793FA91
:10425000DFF898900022C0214846FDF78CFA01252E
:10426000CDE9004500240294694630460394FDF7E9
:1042700059F9CDE90054694638460295FDF752F9DF
:104280004E200090CDE90154694638460394FDF76D
:1042900049F907208DE8310069464846FDF742F9A3
:1042A00004200090CDE90154694640460394FDF78F
:1042B00039F940200090CDE90154694648460394FD
:1042C000FDF730F98020CDE900050220CDE902405C
:1042D00069464846FDF726F907B0BDE8F0830000BF
:1042E0000010024000080048000C0048000400488C
:1042F00010B586B014216846FBF7C4FF214800249E
:104300001F490594C0E900147D21816041F270715C
:10431000C0E903144FF080414461C0E906410462E2
:10432000FDF7BCFF08B1FCF7CBFB23208DF80000A4
:1043300059208DF8010055208DF802000194039456
:10434000012269460F480494FEF772F808B1FCF7A1
:10435000B7FB05208DF8140003208DF8150001200F
:104360008DF8160024208DF81700012205A90548B4
:10437000FEF70EF8002801D0FCF7A2FB06B010BD36
:10438000002800400C01002010B588B00024184817
:1043900000940194029403940494059413490694A0
:1043A00001604F21C0E901144FF6FF71C0E9031409
:1043B00044618461FEF727F908B1FCF781FB4FF4F3
:1043C0008050009069460A48FEF71EFA08B1FCF7D3
:1043D00077FB049404A906480694FEF7C5F8002864
:1043E00001D0FCF76DFB08B010BD0000004001409B
:1043F000180200200C4810B50A4901604F214160A5
:1044000000214FF6FF72C0E9021201614161816132
:10441000FEF7F9F8002803D0BDE81040FCF750BBC8
:1044200010BD000000440140640200200C4810B59B
:104430000A4901604F21416000214FF6FF72C0E937
:104440000212016141618161FEF7DDF8002803D0AD
:10445000BDE81040FCF734BB10BD0000004801402F
:10446000B002002010B588B00024174800940194D1
:1044700002940394049405944FF0804106940160E3
:1044800041F63F71C0E90114611EC0E90314846163
:10449000FEF7B9F808B1FCF713FB4FF48050009019
:1044A00069460948FEF7B0F908B1FCF709FB049426
:1044B00004A905480694FEF757F8002801D0FCF738
:1044C000FFFA08B010BD00003401002010B58CB018
:1044D00000240594224804940694079408940A94AE
:1044E00009940094019402941C49039401604F21A3
:1044F000C0E901144FF6FF71C0E903148461FEF7AF
:1045000082F808B1FCF7DCFA4FF48050049004A95B
:104510001348FEF779F908B1FCF7D2FA1048FEF714
:10452000FDFA08B1FCF7CCFA089408A90C480A94E3
:10453000FEF71AF808B1FCF7C3FA0A200090012030
:10454000CDE901040422694605480394FEF754FAB4
:10455000002801D0FCF7B4FA0CB010BD00040040F4
:104560008001002010B588B0002417480094019401
:1045700002940394049405941249069401604F2117
:10458000C0E9011442F20F71C0E903148461FEF71F
:104590003AF808B1FCF794FA4FF48050009069465D
:1045A0000948FEF731F908B1FCF78AFA049404A926
:1045B00005480694FDF7D8FF002801D0FCF780FAE3
:1045C00008B010BD00080040CC010020184810B50C
:1045D000164901604FF416514160002181600C22A0
:1045E000C160C0E904128161C161016241628162FE
:1045F000FEF7AEFE08B1FCF763FA00210C48FEF7A7
:10460000F8FC08B1FCF75CFA00210948FEF7CBFC86
:1046100008B1FCF755FA0648FEF7A4FC002803D0C1
:10462000BDE81040FCF74CBA10BD00000038014056
:10463000FC020020FEE7FEE7704730B501210020B4
:10464000FFF7B2FC4FF47A70FCF72CFA002101203E
:10465000FFF7AAFC41F290711020FFF7A5FC4FF480
:104660001C516020FFF7A0FC01216120FFF79CFC9A
:1046700002214620FFF798FC48F210011320FFF7B3
:1046800093FC48F2FE011220FFF78EFC4FF4A0616C
:104690000220FFF789FC41F230010320FFF784FC80
:1046A00040F2033421463020FFF77EFC21463120C2
:1046B000FFF77AFC21463220FFF776FCE51E2946FB
:1046C0003320FFF771FC03213420FFF76DFC2146F6
:1046D0003520FFF769FC14213620FFF765FC2146E1
:1046E0003720FFF761FC21463820FFF75DFC2146AB
:1046F0003920FFF759FC29463A20FFF755FC0321E2
:104700003B20FFF751FC21463C20FFF74DFC4FF4C6
:10471000A0513D20FFF748FC4FF400719220FFF7B5
:1047200043FC21469320FFF73FFC40F60D0190200B
:10473000FFF73AFC41F218010320FFF735FCBDE812
:10474000304040F273110720FFF72EBC10B543F242
:104750000801E320FFF728FC1221E720FFF724FCE3
:1047600041F23121EF20FFF71FFC00210120FFF76C
:104770001BFC4FF4E0610220FFF716FC41F2300110
:104780000320FFF711FC00210420FFF70DFC40F28D
:1047900007210820FFF708FC00210920FFF704FC8F
:1047A00000210A20FFF700FC00210C20FFF7FCFB92
:1047B00000210D20FFF7F8FB00210F20FFF7F4FB8D
:1047C00000211020FFF7F0FB07211120FFF7ECFB81
:1047D00000211220FFF7E8FB00211320FFF7E4FB84
:1047E000C820FCF78DFE41F290611020FFF7DCFB42
:1047F00040F227211120FFF7D7FB3220FCF780FE83
:104800001D211220FFF7D0FB3220FCF779FE4FF478
:1048100000611320FFF7C8FB14212920FFF7C4FB18
:104820000B212B20FFF7C0FB3220FCF769FE002193
:104830002020FFF7B9FB00212120FFF7B5FB07215E
:104840003020FFF7B1FB40F207713120FFF7ACFBDE
:1048500006213220FFF7A8FB40F204713520FFF754
:10486000A3FB41F604713620FFF79EFB042137209D
:10487000FFF79AFB00213820FFF796FB40F2067104
:104880003920FFF791FB40F201713C20FFF78CFBD0
:104890000F213D20FFF788FB00215020FFF784FB0C
:1048A000EF215120FFF780FB00215220FFF77CFB16
:1048B00040F23F115320FFF777FB4FF41C5160206B
:1048C000FFF772FB01216120FFF76EFB00216A20D8
:1048D000FFF76AFB00218020FFF766FB00218120A3
:1048E000FFF762FB00218220FFF75EFB002183209F
:1048F000FFF75AFB00218420FFF756FB002185209B
:10490000FFF752FB10219020FFF74EFB0021922071
:10491000FFF74AFB03219320FFF746FB4FF4887112
:104920009520FFF741FB00219720FFF73DFB002179
:104930009820FFF739FB41F218010320FFF734FB01
:10494000BDE8104040F273110720FFF72DBB002295
:10495000014602E00A39C9B2521C0A29FAD21007EC
:1049600041EA1060704700002DE9F04104460068FC
:104970000025C168490619D4C16841F08001C160B1
:10498000FCF7FEFE06464FF47A78032708E000BFE6
:10499000FCF7F6FE801B404502D9032584F82570FC
:1049A0002068C068400601D4032DF1D12846BDE837
:1049B000F08170B5044600680025C16821F08001CF
:1049C000C160206881694FF00306890607D420463C
:1049D000FDF794FD98B184F8256003250FE0816907
:1049E00021F0200181612046FDF788FD10B184F897
:1049F000256003252068816941F0200181612846F6
:104A000070BD000007490A680748036AD21AB2F568
:104A1000FA6F05D309680162C17981F00101C171A2
:104A200070470000480000200000002070B50F48CB
:104A3000FCF75CFC4FF0FF3529460C48FCF7D8FB2F
:104A40000A48FCF79BFA60F30F040848FCF74EFC99
:104A500029460648FCF7CCFB0448FCF78FFA60F3C4
:104A60001F440248FCF7BCFC204670BDA00000209B
:104A700010B5FBF7F3FC9FED071B53EC112BFBF775
:104A80000CFC9FED061B53EC112BFBF706FC41ECD5
:104A9000100B10BD6666666666660A400000000080
:104AA0000000303F08B1044801E0034810300168BD
:104AB00041F04001016070471804004810B58021A2
:104AC0000348FCF753FE012800D0002010BD000071
:104AD0000004004800B585B014216846FBF7D2FBFE
:104AE000802000900020019001200290022003907D
:104AF00069460248FCF716FD05B000BD00040048F9
:104B000008B1044801E003481030016841F0800119
:104B1000016070471804004800B585B0142168464C
:104B2000FBF7B0FB80200090112001900020029044
:104B30000220039069460248FCF7F4FC05B000BD72
:104B4000000400482DE9F041164CDDE906C7265C5B
:104B50000BB1802000E000200643655CBCF1000F33
:104B600001D0802000E000200543A05C0FB180212F
:104B700000E00021084300F018F8284600F015F87E
:104B8000304600F012F84FF09044012204212046F4
:104B9000FCF7F1FD2046BDE8F04100220421FCF7BE
:104BA000EABD0000C4780008704770B505460024CF
:104BB0004FF09046EA0902213046FCF7DCFD012265
:104BC00008213046FCF7D7FD6806050E00220821B3
:104BD0003046FCF7D0FD641CE4B2082CEAD370BD6B
:104BE000FCF7D4BD10B594B038216846FBF74AFBFA
:104BF00014210EA8FBF746FB4FF40070FCF758FE9B
:104C0000012000900004019002200324CDE9070454
:104C10001421CDE90A100C900D9009946846FDF717
:104C20003BF908B172B6FEE70F20CDE90E04002073
:104C300010901190129002210EA8FCF7E3FF0028BB
:104C400001D072B6FEE714B010BD00000248016842
:104C500041F470010160704788ED00E00148FEF703
:104C600025B80000180200200148FEF71FB8000018
:104C7000B00200200148FEF719B8000064020020CD
:104C80000148FEF713B80000800100200148FEF73C
:104C90000DB80000CC0100202DE9F0430268264B3E
:104CA000264D274E274C4FF08049984207D0484563
:104CB00005D0A84203D0B04201D0A04203D122F0D7
:104CC00070074A683A43204FDFF880C0DFF88080E1
:104CD00098420DD048450BD0A84209D0B04207D029
:104CE000A04205D0B84203D0604501D0404503D171
:104CF00022F44075CA682A434D6922F080022A4393
:104D000002608A68C2620A688262984207D0A04242
:104D100005D0B84203D0604501D0404501D10969B2
:104D20000163012141610169C90703D0016921F0D3
:104D300001010161BDE8F083002C01400004004046
:104D400000080040003401400040014000440140A0
:104D50000048014010B501F01F030121046A994089
:104D60008C430462016A9A401143016210BD10B580
:104D7000846842EA032224F47F440A432243826087
:104D800010BD00008268034B1A400A4342F007013D
:104D9000816070478FFFCFFF10B5036A046A24F06B
:104DA00001040462846924F0F00444EA021423F04C
:104DB0000A020A438461026210BD000070B5056AF0
:104DC000046A24F0010404628469124EB0420ED0D9
:104DD000B0F1804F0BD0104EB04208D00F4EB04211
:104DE00005D00F4EB04202D00E4EB04203D124F097
:104DF0000304144301E044F001041A0724F0F00412
:104E000044EA126225F00A0301F00A0119438261A3
:104E1000016270BD002C0140000400400008004009
:104E2000003401400040014010B5036A046A24F0D8
:104E300010040462846923F0A00324F4704444EA5B
:104E4000023243EA01118261016210BD30B5046A89
:104E5000056A25F010050562856925F4407545EA67
:104E6000022222F470454FF6FF7202EA033224F068
:104E7000A0032A43A02404EA0111194382610162BC
:104E800030BD000030B5416EB9B1026891689268DA
:104E9000C1F342610B4B520F9C5CE50003F1080427
:104EA000A25CB5FBF2F2A0F86A205A5C615CD20009
:104EB000B2FBF1F1A0F8681030BD0121A0F86A1032
:104EC000F8E70000CC66000890F82810090706D51E
:104ED00001684A68836B22F400421A434A6090F8E2
:104EE0002810C90706D001684A68C36A22F4003254
:104EF0001A434A6090F82810890706D501684A6865
:104F0000036B22F480321A434A6090F82810490754
:104F100006D501684A68436B22F480221A434A602E
:104F200090F82810C90606D501688A68C36B22F478
:104F300080521A438A6090F82810890606D50168C5
:104F40008A68036C22F400521A438A6090F8281091
:104F5000490611D501684A68436C22F480121A434D
:104F60004A60416CB1F5801F06D101684A68836CC4
:104F700022F4C0021A434A6090F82810090606D5A8
:104F800001684A68C06C22F4002202434A607047FC
:104F90002DE9F84300260446C0F89060FCF7F0FBCA
:104FA0008046206800684FF0200500076FF07E47BC
:104FB00013D54346002229042046009700F09CFCAC
:104FC00058B1216851E8000F20F0800041E800024C
:104FD000002AF6D1C4F8885021E020680068400714
:104FE00022D5434600224FF480012046009700F06E
:104FF00083FCC8B1216851E8000F20F4907041E8AB
:105000000002002AF6D12068083050E8001F21F085
:10501000010140E80012002AF5D1C4F88C5084F850
:1050200084600320BDE8F883C4F88850C4F88C502D
:1050300044F86C6F666026760020F3E710B5806A4E
:105040000021A0F85E10A0F85610FDF7FAFF10BD81
:1050500010B5026852E8001F21F4907142E8001375
:10506000002BF6D10E4B0268083252E8001F19409F
:1050700042E80014002CF6D1C16E012908D1016864
:1050800051E8002F22F0100241E80023002BF6D156
:105090002021C0F88C100021C166416710BD0000BE
:1050A000FEFFFFEF10B5B0F86020D0F88C3001683B
:1050B000222B04D0886940F00800886110BD496A3D
:1050C000836D11401980816D891C8165B0F85E1077
:1050D000491EA0F85E10B0F85E100029EED10268FB
:1050E00052E8001F21F4907142E80013002BF6D122
:1050F0000168083151E8002F22F0010241E8002345
:10510000002BF5D12021C0F88C10002141670167E8
:10511000154B02689A420BD05268120208D50368F8
:1051200053E8002F22F0806243E80024002CF6D1DF
:10513000C26E012A02D0FEF7ABF910BDC16602684B
:1051400052E8001F21F0100142E80013002BF6D1B5
:105150000168CA69D243D20601D410220A62B0F8AB
:105160005C10FDF71EFF10BD008000402DE9F047E8
:105170000446B0F860600068C569D0F800A0D0F8B7
:105180000880D4F88C10222905D0816941F00801EB
:105190008161BDE8F087B4F868704FF0000975E0F0
:1051A0002068406AA16D30400880A06D801CA06519
:1051B000B4F85E00401EA4F85E002068C569690767
:1051C00030D0E9070AD05FEACA5107D50121016250
:1051D000D4F8900040F00100C4F89000A8070BD567
:1051E0005FEAC87008D0216802200862D4F89000F5
:1051F00040F00400C4F8900068070BD55FEAC8705F
:1052000008D0216804200862D4F8900040F0020021
:10521000C4F89000D4F8900020B12046FDF711FFAB
:10522000C4F89090B4F85E0080BB216851E8000F8C
:1052300020F4807041E80002002AF6D1304A20684C
:10524000083050E8001F114040E80013002BF6D151
:105250002020C4F88C00C4F874904946C4F87090BB
:10526000284A206890420BD04068000208D5226886
:1052700052E8000F20F0806342E800300028F6D1A9
:10528000E06E012825D02046FEF702F90FB1A806EE
:1052900086D4B4F85E0000283FF47BAFB4F8681001
:1052A00081427FF676AF2068083050E8001F21F079
:1052B000805140E80012002AF5D113486067216848
:1052C00051E8000F40F0200041E80002002AF6D12A
:1052D0005FE7E166216851E8000F20F0100041E827
:1052E0000002002AF6D12068C169C943C90601D469
:1052F00010210162B4F85C102046FDF752FEC5E7AC
:10530000FEFFFFEF00800040A550000810B5B0F888
:105310006020D0F88C300168222B04D0886940F0DE
:105320000800886110BD496A1140826D1170816D5D
:10533000491C8165B0F85E10491EA0F85E10B0F8F7
:105340005E100029EED1016851E8002F22F490721E
:1053500041E80023002BF6D10168083151E8002F05
:1053600022F0010241E80023002BF5D12021C0F8F2
:105370008C10002141670167154B02689A420BD0DF
:105380005268120208D5036853E8002F22F08062A9
:1053900043E80024002CF6D1C26E012A02D0FEF7A9
:1053A00077F810BDC166026852E8001F21F01001B5
:1053B00042E80013002BF6D10168CA69D243D20635
:1053C00001D410220A62B0F85C10FDF7EAFD10BDAE
:1053D000008000402DE9F0470446B0F860600068A6
:1053E000C569D0F800A0D0F80880D4F88C10222924
:1053F00005D0816941F008018161BDE8F087B4F80A
:1054000068704FF0000975E02068406AA16D304077
:105410000870A06D401CA065B4F85E00401EA4F8A2
:105420005E002068C569690730D0E9070AD05FEAE5
:10543000CA5107D501210162D4F8900040F0010063
:10544000C4F89000A8070BD55FEAC87008D021689F
:1054500002200862D4F8900040F00400C4F89000E4
:1054600068070BD55FEAC87008D02168042008627D
:10547000D4F8900040F00200C4F89000D4F89000F6
:1054800020B12046FDF7DDFDC4F89090B4F85E0031
:1054900080BB216851E8000F20F4807041E80002D1
:1054A000002AF6D1304A2068083050E8001F114029
:1054B00040E80013002BF6D12020C4F88C00C4F87B
:1054C00074904A46C4F870902849206888420BD0EE
:1054D0004068000208D5216851E8000F20F0806084
:1054E00041E80003002BF6D1E06E012825D02046CC
:1054F000FDF7CEFF0FB1A80686D4B4F85E000028F1
:105500003FF47BAFB4F8681081427FF676AF206835
:10551000083050E8001F21F0805140E80012002AB6
:10552000F5D113486067206850E8001F41F0200162
:1055300040E80012002AF6D15FE7E266216851E8F0
:10554000000F20F0100041E80002002AF6D1206888
:10555000C169C943C90601D410210162B4F85C10C5
:105560002046FDF71EFDC5E7FEFFFFEF008000406F
:105570000D5300082DE9F041044601688068226956
:10558000E3691043626900251A431043DFF82CC217
:105590000A688B4B1A4002430A6020684168E2683F
:1055A00021F44051114341602168A069614501D057
:1055B000226A10438A68834B1A4002438A6020683B
:1055C000C16A626A21F00F011143C1627E492368FA
:1055D0007E488B420DD1D0F8880010F0030006D031
:1055E000012855D0022842D003283FD152E00120A3
:1055F0003DE077498B420BD1D0F8880010F00C00C9
:1056000035D0042833D0082840D00C282ED141E0D2
:1056100070498B420BD1D0F8880010F0300026D0B2
:10562000102835D0202831D030281FD132E06A49E7
:105630008B420BD1D0F8880010F0C00017D0402862
:1056400026D0802822D0C02810D123E063450DD178
:10565000D0F8880010F4406009D0B0F5806F17D002
:10566000B0F5006F12D0B0F5406F13D010205B4939
:105670005B4F00264FF4004263453BD160B10228E6
:1056800013D004280BD0082872D10DE00220EEE7D9
:105690000420ECE70820EAE7FCF7A2FB01E0FCF7B6
:1056A000C3FB010001D17CE01146606A37F810208D
:1056B0006768B1FBF2F007EB4703834270D8B0EBA9
:1056C000073F6DD8002308461946FAF7A3FD0902E3
:1056D00041EA106102027808101871413A4600232D
:1056E000FAF798FD3F4AA0F54071914258D82168D9
:1056F000C86056E0E3694FF6EF7893422CD1092851
:105700004ED2DFE800F00508114D0D4D4D4D100053
:10571000FCF766FB01E0FCF775FB010004D140E0FB
:10572000FCF782FBF9E71146606A37F81000B1FB1D
:10573000F0F04100606801EB5001B1FBF0F0A0F126
:10574000100141452CD84FF6F0710140C0F34200E2
:1057500001432068C16024E0092821D2DFE800F07D
:10576000050912200E2020201100FCF739FB02E071
:1057700016E0FCF747FB010004D112E0FCF754FBF4
:10578000F9E71146606A37F81000B1FBF0F1606884
:1057900001EB5001B1FBF0F0A0F1100141450AD935
:1057A00001250120A4F86A0024F8680F2846E66065
:1057B0002661BDE8F08180B299E7000000800040DA
:1057C000F369FFCFFFF4FF110038014000100240E1
:1057D0000044004000480040004C00400024F40019
:1057E000B4660008FFFC0F0070B58165A0F85C206E
:1057F000A0F85E200023436781684FF48056FF24A1
:10580000B14204D10169F9B940F2FF1122E07F25CC
:10581000C1B1B1F1805F1AD0A0F86030C0F890300B
:105820002221C0F88C100168083151E8003F43F094
:10583000010341E80034002CF5D1416EB1F1005F65
:105840000ED031E0016941B9A0F86040E6E7016996
:1058500019B13F21A0F86010E0E7A0F86050DDE743
:10586000B0F8681091421FD88168B14201D1016936
:10587000B9B11D494167016941B1026852E8001F91
:1058800041F4807142E80013002BF6D10168083121
:1058900051E8002F42F0805241E80023002BF5D15F
:1058A00020E012494167F1E78168B14201D1016905
:1058B00069B10F494167016959B1026852E8001F97
:1058C00041F4907142E80013002BF6D10AE0094937
:1058D0004167026852E8001F41F0200142E80013CE
:1058E000002BF6D1002070BDD55300086D51000883
:1058F0000D530008A55000082DE9F04799461746BA
:105900000D4604464FF00008089E33E0701C31D06D
:10591000FBF736FFA0EB0900B04218D8BEB12068F3
:105920000168490726D5802D24D0402D22D0C16999
:10593000C94309070DD4082505622046FFF788FBF7
:10594000C4F8905084F884800120BDE8F0870320DB
:10595000FBE7C069C04300050CD421684FF4006028
:1059600008622046FFF774FB2020C4F8900084F8FA
:105970008480ECE72068C06935EA000004D000208C
:10598000B842C3D00020E0E70120F9E70148FDF765
:1059900059BB0000FC02002070B5204D287800287B
:1059A0003BD01F4E1F4C042815D1207853282CD1F2
:1059B0006078542829D1A0780D2826D1E0780A28CB
:1059C00023D1F06AFAF770FD41EC100B16A053ECEE
:1059D000102B00F063F82878062816D1207850287C
:1059E00013D16078412810D1A07852280DD1E078E9
:1059F00041280AD120790D2807D160790A2804D1DD
:105A00003279B1780AA000F049F800202870BDE88A
:105A100070401E210348FAF735BC70BD7C000020A1
:105A200000000020B403002024252E32660D0A0059
:105A30002325642C413025640D0A000010B512485E
:105A40000168124C626A891AB1F57A7F1AD300682C
:105A5000606200F0B7FC84ED0B0A2079012801D0C8
:105A600002280FD1607A00280CD010EE100AFAF745
:105A70001BFD41EC100BBDE8104053EC102B04A0B3
:105A800000F00CB810BD000048000020000000200D
:105A900024252E32660D0A00FEE700000FB4054BE8
:105AA00010B503A9044A029800F0FEF810BC5DF896
:105AB00014FB000059640008840000200FB4084B58
:105AC00010B504A902AA039800F0EEF8044602A952
:105AD000002000F06CFC204610BC5DF814FB0000B8
