:020000040800F2
:1000000090080020F1010008474C0008C13B00089F
:10001000454C0008D90A0008D16000080000000023
:100020000000000000000000000000007152000805
:10003000890C000800000000D54C0008A9520008F7
:100040000B0200080B0200080B0200080B0200085C
:100050000B0200080B0200080B0200080B0200084C
:100060000B0200080B0200080B0200080B0200083C
:100070000B0200080B0200080B0200080B0200082C
:100080000B020008000000000B0200080B02000831
:100090000B0200080B0200080B0200080B0200080C
:1000A000255300083D530008315300080B02000897
:1000B0004953000855530008615300080B0200081B
:1000C0000B0200080B0200080B0200080B020008DC
:1000D0000B0200086D6000080B0200080B0200080C
:1000E0000B0200080B0200080B0200080B020008BC
:1000F0000B0200080B0200080B02000800000000C1
:10010000000000000B020008000000000B020008C5
:100110000B020008000000006D5300080B020008ED
:100120000B0200080B0200080B0200080B0200087B
:100130000B02000800000000000000000B02000895
:100140000B0200080B020008000000000000000085
:10015000000000000000000000000000000000009F
:100160000000000000000000000000000B0200087A
:100170000B0200080000000000000000000000006A
:10018000000000000B02000800000000000000005A
:10019000000000000000000000000000000000005F
:1001A00000000000000000000B0200080B02000825
:1001B0000B0200080B0200080B0200080000000000
:1001C000000000000B02000800000000000000001A
:1001D0000B0200080B020008DFF810D000F034FB1F
:1001E00000480047B16A0008AFF300809008002083
:1001F0000648804706480047FEE7FEE7FEE7FEE7C1
:10020000FEE7FEE7FEE7FEE7FEE7FEE71553000820
:10021000D90100082DE9F05F0546002092469B4673
:1002200088460646814640241BE02846414647460C
:10023000224600F08DF953465A46C01A914110D318
:1002400011461846224600F074F92D1A67EB010892
:100250004F4622460120002100F06BF917EB000900
:100260004E41201EA4F10104DFDC484631462A46F7
:100270004346BDE8F09FD2B201E000F8012B491ED1
:10028000FBD270470022F6E710B513460A46044633
:100290001946FFF7F0FF204610BD2DE9FE4F81EA19
:1002A000030404F0004421F0004100944FF0000BDF
:1002B00023F0004350EA01045ED052EA03045BD00D
:1002C000C3F30A54C1F30A552C44A4F2F334019445
:1002D000A0FB0254C1F3130141F48011C3F31303D3
:1002E00043F4801301FB024400FB034E840A970A87
:1002F00044EA815447EA8357A4FB076802958D0AB4
:1003000005FB07854FEA932C04FB0C542705029D3F
:100310004FEA065847EA1637B5EB08056EEB070CAF
:10032000870E920E47EA811742EA8312A7FB020169
:10033000B6EB0B0164EB00042B0D43EA0C335E18A3
:1003400044EB1C50DA465146E7FB0201C5F31304A7
:100350004FEA0B3343EA14534FEA0432019C43EA59
:100360000603A4F10C040294009CCDE900B400F053
:1003700045F903B0BDE8F08F00200146F9E72DE90B
:10038000F04D81EA030404F0004B21F000451446CF
:100390004FF0000A23F0004150EA050220D054EA51
:1003A00001021DD0C5F30A570246C5F31303C1F37A
:1003B0001300C1F30A5640F4801543F48013A7EBF1
:1003C0000608101BD64608F2FD3873EB050002D371
:1003D00008F1010801E092185B41B8F1000F03DA5F
:1003E00000200146BDE8F08D00204FF48011064644
:1003F00084460EE0171B73EB050705D3121B63EB56
:10040000050306434CEA010C49084FEA30009218F4
:100410005B4150EA0107EDD152EA030012D082EAB3
:10042000040083EA0501084305D0101BAB4106D246
:100430000122002306E000224FF0004302E06FF0AB
:10044000010253101AEB06004CEB085110EB0A00A6
:1004500041EB0B01BDE8F04D00F0C1B80EB540F224
:10046000334102910021CDE900110A460B4600F00C
:10047000C5F803B000BDC1F30A5210B5C1F31301B2
:1004800040F2FF3341F480119A4201DA002010BD9E
:1004900040F233439A42A2F2334203DC524200F06C
:1004A00057F810BD904010BD00F0004230F0004001
:1004B0000AD0C10D01F56071C0F3160042EA015186
:1004C000C20840071143704700200146704701F001
:1004D000004330B421F0004150EA010206D00A0D79
:1004E000A2F56072C1F31301002A02DC30BC0020C7
:1004F0007047440F44EAC104C100E01830BC00EB6F
:10050000C25000F035B830B50B460146002020221D
:10051000012409E021FA02F59D4205D303FA02F510
:10052000491B04FA02F52844151EA2F10102F1DC70
:1005300030BD202A04DB203A00FA02F10020704787
:100540009140C2F1200320FA03F319439040704711
:10055000202A04DB203A21FA02F00021704721FA18
:1005600002F3D040C2F1200291400843194670477F
:100570000029A8BF7047401C490008BF20F00100B7
:10058000704710B4B0FA80FC00FA0CF050EA010495
:1005900004BF10BC704749B1CCF1200421FA04F427
:1005A00011FA0CF118BF012121430843A3EB0C0100
:1005B000CB1D4FEA00614FEA102042BF002010BC63
:1005C000704700EBC35010440029A4BF10BC704713
:1005D000401C490008BF20F0010010BC704710B556
:1005E000141E73F1000408DA401C41F10001921856
:1005F0005B411A4301D120F0010010BD2DE9F04DFF
:1006000092469B4611B1B1FA81F202E0B0FA80F253
:1006100020329046FFF78DFF04460F4640EA0A005D
:1006200041EA0B0153465A46084313D0114653EA98
:10063000010019D0C8F140025046FFF789FF054676
:100640000E46504659464246FFF773FF084305D011
:10065000012004E020463946BDE8F08D0020054326
:1006600046EAE0762C4337430A986305E40AA0EB98
:1006700008000022FD0A44EA47540A3002D500204F
:100680000146E9E7010510196941DDE9084500194E
:100690006941BDE8F04DA2E72DE9FE4F804681EAB1
:1006A0000300C00F0C46009021F0004123F00045EC
:1006B000B8EB0200A94105D24046214690461C46AF
:1006C0000B46024623F00040104347D0270DC7F3E6
:1006D0000A00C3F30A510290401A019040286BDAD5
:1006E000C3F3130040F4801B0098924620B100230E
:1006F000D2EB030A63EB0B0B01985946C0F14002A1
:100700005046FFF716FF06460D4650465946019AD9
:1007100000F0ACF810EB08006141002487EA1152A8
:1007200084EAE7731A4340D0009A62B3019A012A1F
:100730004FEA075215DC001B61EB02014FF000424B
:1007400002EA0752CDE90042001C41F58011324611
:100750002B46FFF753FF03B0BDE8F08F404621461C
:10076000F9E7001B61EB0201001C41F58013001842
:100770005B412018A2F5001747EB030140EAD57052
:10078000B6196D4111E06D084FEA360645EAC075AD
:100790004FEA0752001B61EB0201001C41F580117A
:1007A00049084FEA30000019514132462B4603B048
:1007B000BDE8F04FFFF713BF00980122400000236F
:1007C000D0EB020263EBE073009821464FEAE0743D
:1007D000B8EB000061EB0401E9E783F000435BE75D
:1007E00081F0004158E7C1F30A52C1F3130140F20E
:1007F000FF3341F480119A4202DA0020014670472B
:1008000040F233439A42A2F2334202DC5242FFF7F3
:100810009FBEFFF78EBE000030B5041E71F10004CC
:1008200004DB4FF00044404264EB0101141E73F1FD
:10083000000405DB1C464FF00043524263EB040307
:10084000994208BF904230BD064C074D06E0E06873
:1008500040F0010394E8070098471034AC42F6D307
:10086000FFF7BEFCA07F0008C07F0008202A06DB3F
:10087000CB17203A41FA02F043EAE07306E041FA6E
:1008800002F3D040C2F1200291400843194670475C
:100890002DE9F041044600270D46006803F0CAFE2A
:1008A0000646206803F0C2FE30435DD02068C16870
:1008B0002E4E890105D5617F012902D1217F0129B1
:1008C0000BD0022D1DD0206803F0B4FEB8B1206813
:1008D0008168C1F3400169B111E00125244902E0BA
:1008E0008F4232D27F1C0268D2435206F8D4402194
:1008F0000160E8E78168314041F010018160012D1D
:1009000011D0206803F092FE48B120688168C1F3DD
:10091000400121B98168314041F020018160022D00
:1009200008D0032D04D0042501F01EF8064617E078
:100930000C25F9E70825F7E701F016F8801B0528D4
:100940000ED92068806828420AD0E06D40F010007F
:10095000E065206E40F0010020660120BDE8F081D6
:10096000206880682842E7D10020F7E7C0FFFF7FBA
:10097000000040A370B50446006881688268C1F336
:10098000400112F0010F28D039BB816801F00D0140
:10099000012914D18168124A1140891C81602168A3
:1009A0000320086000F0E0FF054612E000F0DCFFE5
:1009B000401B02280DD920688068C00709D0E06D6F
:1009C00040F01000E065206E40F00100206601203C
:1009D00070BD20688068C007E8D1002070BD0000AD
:1009E000C0FFFF7FF8B504460020009020688168B2
:1009F00011F0010F41D18168214A11422ED1816845
:100A0000D5432940491C81601E48806800F0E07091
:100A100000020DD51C481D490068B0FBF1F0401CD8
:100A200000EB4000800000E0401E00900028FBD159
:100A300000F09AFF06461BE0816811F0010F03D118
:100A400081682940491C816000F08EFF801B0228CC
:100A50000ED920680068C043C00709D0E06D40F09F
:100A60001000E065206E40F0010020660120F8BD16
:100A700020680168C943C907DED10020F8BD000025
:100A80003F0000800003005048000020400D03009C
:100A900038B504F02FFB0C4D05F12C04E86260889A
:100AA00004F04AFB51EC100BFFF711FDA863FFF7B0
:100AB000FBFC41EC100B2088009053EC102B03A0A2
:100AC00005F008FB38BD000000000020252E32662E
:100AD0002C25640D0A000000FEE770B5002400F02C
:100AE00027F84FF0904504E0641CE4B20E20401E4D
:100AF000FDD28021284600F02DFF10B1642CF3D3E5
:100B00000FE0642C0DD2002404E0641CE4B20E213A
:100B1000491EFDD28021284600F01CFF18B1642C2C
:100B200004D3012070BD642CEFD3FAE7002070BD20
:100B300000B587B014216846FFF7A4FB0A48C16CD2
:100B400041F00101C164C06C694600F001000590EC
:100B50008020009000200190012002904FF09040F2
:100B600000F0D4FD07B000BD0010024000B585B014
:100B700014216846FFF786FB802000900120019039
:100B80000220039069464FF0904000F0BFFD05B091
:100B900000BD70B500244FF0904504E0641CE4B241
:100BA0000E20401EFDD28021284600F0D3FE08B161
:100BB0006E2CF3D3002404E0641CE4B20E21491E21
:100BC000FDD28021284600F0C5FE08B96E2CF3D373
:100BD00040F2FE41491EFDD28021284600F0BAFEB7
:100BE000002800D0012070BD70B5002004464006EA
:100BF000050EFFF7CEFF641C2843E4B2082CF6D3A1
:100C000070BD00007CB5064600F027F8FFF765FFD1
:100C100008B101207CBD00244FEA0D05FFF7E4FF79
:100C20002855641CE4B2052CF8D39DF800009DF80B
:100C300001109DF8032008449DF802101144084457
:100C40009DF80410884206D10021685C7054491C4C
:100C5000C9B20429F9D300207CBD10B5FFF786FF87
:100C60004FF0904400228021204600F078FE1420AE
:100C700000F03AFD01228021204600F070FE4FF482
:100C80007070401EFDD210BD7047002240F6B83390
:100C900006E00021491C89B29942FBD3521C92B252
:100CA0008242F6D3704772B6FEE70000F8B5002620
:100CB0000446009690F858000D4601280BD00120FC
:100CC00084F858002046FFF755FE0100E06D04D07F
:100CD00040F010002AE00220F8BD20F4885040F0D7
:100CE0000200E06520688268134B1A4005F08043DB
:100CF0001A4342F000428260104A20680EE0009BD6
:100D00005B1C0093934209D3E06D20F0020040F099
:100D10001000E06584F858600120F8BD8368DB0F9F
:100D2000EDD1E06D20F0020040F00100E06584F8B4
:100D300058600846F8BD0000C0FFFF3F02DE040017
:100D40002DE9F84F00270446009790F85800DFF887
:100D5000E0930D46B846012811D0012684F858606A
:100D6000206803F067FC60B1E06D40F02000E065B2
:100D70005FF0010784F858803846BDE8F88F0220FC
:100D8000FBE7D5E900210C23206803EA91131844FE
:100D9000036B01F01F014FF01F0C0CFA01FCC2F3B2
:100DA000846223EA0C038A4013430363206803F040
:100DB00041FC8246206803F039FC5AEA00003CD12D
:100DC000AA6829682068B2F1004F37D003F03EFCD2
:100DD0002068416921F00041416120686969C26869
:100DE000C2F3C102520091402A69042A31D000EBBB
:100DF00082002B68026EDFF83CC303F0F84302EA7E
:100E00000C020B431A4342F00041016620682A6934
:100E1000A96900EB8200026E22F080720A4302662A
:100E2000297F22682869012910D0002102EB800067
:100E3000026E22F000720A4302667DE0002203F097
:100E400005FC2068416941F00041C5E74FF00071A1
:100E5000ECE7002103F0E4FB400320684FF00001C1
:100E600072D003F0DDFB90FAA0F0B0FA80F12868B0
:100E700042036ED090FAA0F0B0FA80F0814204D123
:100E800000221146206803F0F0FB0121206803F0E6
:100E9000C7FB400320684FF001015DD003F0C0FBA9
:100EA00090FAA0F0B0FA80F12868420359D090FA85
:100EB000A0F0B0FA80F0814204D100220121206824
:100EC00003F0D3FB0221206803F0AAFB4003206853
:100ED0004FF0020148D003F0A3FB90FAA0F0B0FA63
:100EE00080F12868420344D090FAA0F0B0FA80F074
:100EF000814204D100220221206803F0B6FB0321C5
:100F0000206803F08DFB400320684FF0030133D0CD
:100F100003F086FB90FAA0F0B0FA80F12868420353
:100F20002FD090FAA0F0B0FA80F0814204D10022D4
:100F30000321206803F099FB2068816811F0010FFC
:100F400022D0ACE000E004E003F06AFBC0F384616F
:100F50008DE7C0F3846091E703F062FBC0F3846126
:100F6000A2E7C0F38460A6E703F05AFBC0F38461F4
:100F7000B7E7C0F38460BBE703F052FBC0F38461C2
:100F8000CCE7C0F38460D0E72A7B296850F8B03FF3
:100F9000C1F3120C23EA0C0302F0180C664A22FA81
:100FA0000CF20A4013430360E968494577D1286889
:100FB00041031CD090FAA0F1B1FA81F1491C01F073
:100FC0001F0109294FEA403132D8002912D000BF51
:100FD00090FAA0F1B1FA81F101F1010101F01F01D4
:100FE00006FA01F609D100BFC0F3846109E0C0F33D
:100FF0008461E3E7C0F38461EEE790FAA0F1B1FA0F
:1010000081F101F1010101F01F0146EA816102D184
:10101000C0F3846003E090FAA0F0B0FA80F000F131
:10102000010000F01F0000EB400041EA005132E0F7
:1010300000290ED090FAA0F1B1FA81F101F101017D
:1010400001F01F0106FA01F606D100BFC0F384616A
:1010500006E0C0F38461F1E790FAA0F1B1FA81F102
:1010600001F1010101F01F0146EA816102D1C0F3E3
:10107000846003E090FAA0F0B0FA80F000F1010083
:1010800000F01F002D4A00EB400002EB005041EA47
:10109000000141F00071AA68206803F0D7FA2848DF
:1010A0002A6802423FF466AE26488168264B01F06A
:1010B000E0719A4202D0254B9A421CD10B021AD4FD
:1010C0002268B2F1A04F7FF455AE826841F400016E
:1010D00022F0E0720A4382601D481E490068B0FB9E
:1010E000F1F0401C00EB4000800000E0401E00904A
:1010F0000028FBD13EE6184D184BAA4207D1CD017E
:1011000005D422689A42F5D041F0807109E0144D6F
:10111000AA42EFD14A02EDD422689A42EAD041F4C1
:101120008001826822F0E0720A43826022E60000B9
:1011300000007F4000F0FF03FFFF0700000020FEDB
:101140000000088000030050000021C31000C09080
:1011500048000020400D0300000052C7000100506D
:10116000000084CB0068006C70470000F8B54FF0B9
:10117000000504002E46009502D0E06D10B107E096
:101180000120F8BD204600F0EBF8266684F8586090
:1011900020688168C1F3407119B18168684A1140C3
:1011A000816020688168C1F3007189B98168654AEE
:1011B000114041F080518160634864490068B0FB90
:1011C000F1F04000801C00E0401E00900028FBD1A0
:1011D00020688168C1F3007141B9E16D41F01001EF
:1011E000E165216E41F001012166012503F022FA3B
:1011F000E16DC90600D430B1E06D40F01000E0654B
:1012000001252846F8BDE06D20F4807040F0020012
:10121000E0652068806810F0010F11D14FF0A04008
:1012200080684B4900F00100896801F00101084322
:1012300006D148486168826822F47C120A438260C1
:10124000E168E06B627F0843A16841EA42310843EC
:1012500094F8241040EA0140012904D1218D3E4A2E
:1012600002EB41410843E16A29B101F47871226B34
:10127000014342EA01002268D168384B194001431A
:10128000D16020680169626B21F040611143016106
:10129000206803F0CBF970BB207F94F838108003EE
:1012A00040EA41022168C86844F2020398431043AF
:1012B000C86020690028206801690AD041F48031A3
:1012C0000161206850F8C01F22696FF30D011143BE
:1012D00007E021F480310161206850F8C01F6FF3EE
:1012E0000D01016094F8400001280CD020680169CC
:1012F00021F001010161606901282068016B21F082
:101300000F0111D013E0D4E911010843D4E91312FD
:101310001143084321680A6940F2FC739A43104361
:1013200040F001000861E6E7226A521E11430163A2
:10133000E06D20F0020040F00100E06561E7000090
:10134000C0FFFF5FC0FFFF7F48000020400D03008B
:1013500000010050000300500000FEFF0740F0FFB6
:1013600010B598B00446142111A8FEF78BFF442154
:101370006846FEF787FF16492068884225D1C001DC
:10138000009080030F90684600F0ECFB08B1FFF777
:101390008AFC1048C16C41F40051C164C16C01F475
:1013A00000511691C16C41F00101C164C06C11A9DA
:1013B00000F00100169030201190032012900020C0
:1013C00013904FF0904000F0A1F918B010BD00004C
:1013D00000010050001002402DE9F04104463B4856
:1013E0000F46816801F01F05A16908290FD085B15A
:1013F000052D0ED0092D0CD0806800F4604060B13E
:10140000E06D40F02000E0650120BDE8F081082695
:1014100004E02068C068C007F1E7042600F0A4FAE1
:10142000804615E0781C13D000F09EFAA0EB08006F
:10143000B84200D867B920680068304208D1E06D32
:1014400040F00400E065002084F858000320DCE749
:10145000206800683042E5D0E06D40F40070E0653F
:10146000206803F0EBF880B1607F70B920680068F5
:1014700000070AD5E06D20F48070E065E06DC004DF
:1014800003D4E06D40F00100E065114A20684FF0A0
:10149000A041904201D10B4600E00346834210D0A8
:1014A0007DB1052D0DD0092D0BD0904200D0014605
:1014B000C968082E07D0490401D40C21016000201E
:1014C000A3E7C168F5E70821F8E700000003005032
:1014D000000100502DE9F04104463848806800F0D2
:1014E0001F05206803F0A6F818B102210846BDE8E0
:1014F000F08194F8580001280CD0012084F858009D
:101500002046FFF76FFA01004FF0000304D084F883
:101510005830EBE70220EAE7E06D40F601629043C5
:1015200040F48070E065264A20684FF0A046904263
:1015300001D1374600E00746874200D01DB9E76D6C
:1015400027F48017E765E76DFF0404D5276E27F0C1
:101550000607276600E023661C27076084F85830DA
:101560002068904201D1334600E00346834215D003
:10157000A5B1052D12D0092D10D0E36D43F48013D1
:10158000E365904200D13046C0688001AED5E06D81
:1015900020F4005040F48050E065A7E7C268920153
:1015A00005D5E26D22F4005242F48052E265826871
:1015B000044B1A40121D826098E70000000300509F
:1015C00000010050C0FFFF7F10B5044690F858009E
:1015D000012808D0012084F8580003212046FFF795
:1015E00057F910B10BE0022010BD2046FFF7C2F9F9
:1015F00028B9E16D21F4885141F00101E165002134
:1016000084F8581010BD10B590F825300021012243
:10161000022B03D00421C163012122E003681C686E
:1016200024F00E041C60836C1C6824F480741C601D
:1016300003681C6824F001041C6090F84430046CBA
:1016400003F01F0302FA03F36360D0E913345C6014
:10165000436D33B11C6824F480741C60D0E91634E7
:101660005C6080F82520002280F82420084610BD08
:1016700070B590F82520002401212346022A07D0C6
:101680000422C26380F8251080F82430012429E068
:101690000268156825F00E0515600268156825F0CA
:1016A00001051560826C156825F48075156090F849
:1016B0004420056C02F01F0201FA02F26A60D0E9D0
:1016C00013255560426D32B1156825F4807515609B
:1016D000D0E91625556080F8251080F82430816BFC
:1016E00001B18847204670BD70B5044600F03CF952
:1016F0000546601C02D004484068044400F034F9F8
:10170000401BA042FAD370BD3C0000202DE9F04FF1
:10171000DFF82092002301260324A9F1040B85B0F1
:101720000F2709F1040AABF1040EFAE006FA03F5FB
:101730002A407CD091F804C00CF0030CBCF1010FDE
:1017400002D0BCF1020F26D1D0F808C0CDF800C0FD
:101750004FEA430C04FA0CF8CDF810C0DDF800C0D5
:101760002CEA080CCDF800C0D1F80C80DDF810C0D0
:1017700008FA0CF8DDF800C048EA0C08C0F8088048
:10178000D0F804C02CEA050C0D79C5F300159D4076
:1017900045EA0C0545600D79ED43AD070ED0C568EF
:1017A0004FEA430804FA08FC25EA0C05D1F808C002
:1017B0000CFA08FC4CEA050CC0F80CC00D7905F0D9
:1017C0000305022D16D1DD0800EB850CCDF808C00D
:1017D000DCF820805D074FEAD56C07FA0CF528EAA3
:1017E00005080D6905FA0CF5DDF808C045EA08059D
:1017F000CCF8205005684FEA430CCDF808C004FA35
:101800000CFC25EA0C0591F804C00CF00308DDF887
:1018100008C008FA0CF848EA0508C0F800804D68CE
:1018200015F4403F7CD0444DD5F860C000E077E02F
:101830004CF0010CC5F860C02D6E23F0030C05F0D0
:10184000010500953D4D65440295AD684FEA837CE6
:101850004FEA1C7807FA08FC25EA0C05B0F1904F16
:1018600006D0DFF8DCC0604505D14FF0010C20E068
:101870004FF0000C1DE0DFF8CCC0604502D14FF006
:10188000020C16E0DFF8C0C0604502D14FF0030C37
:101890000FE0DFF8B8C0604502D14FF0040C08E05B
:1018A000DFF8ACC0604502D14FF0050C01E04FF00D
:1018B000060C0CFA08FC4CEA050C029DC5F808C0A1
:1018C000D9F80050CC46D1F8048095435FEAC82887
:1018D00000D51543CCF80050DAF80050D446D1F8C2
:1018E000048095435FEA882800D51543CCF8005062
:1018F000DBF80050DC46D1F8048095435FEA883875
:1019000000D51543CCF80050DEF80050F446D1F86D
:10191000048095435FEAC83800D51543CCF80050E1
:101920005B1C0A6832FA03F57FF400AF05B0BDE82E
:10193000F08F000008040140001002400000014048
:101940000004004800080048000C0048001000484F
:10195000001400480069084000D0012070470AB117
:10196000816170478162704701488068704700005C
:101970003C00002002488168426811448160704741
:101980003C00002010B50024032000F073F80F2065
:1019900000F008F808B1012401E000F025F8204625
:1019A00010BD000070B50E4E05460024706898B159
:1019B0004FF47A71B1FBF0F00A490968B1FBF0F01D
:1019C00000F0F8FE40B9102D06D200222946501E24
:1019D00000F030F8356000E00124204670BD0000C2
:1019E0003C000020480000200A4882B0016E41F00F
:1019F00001010166016E01F001010091816D41F06C
:101A000080518165806D00F08050009002B000F040
:101A1000A1B8000000100240002809DB00F01F02FE
:101A2000012191404009800000F1E020C0F8001140
:101A300070470000F0B40E4B1B680C46C3F3022342
:101A4000C3F10705042D00D90425191D072901D26A
:101A5000002300E0DB1E012606FA05F1491E2140A5
:101A600099409E40761E16403143F0BC04F056BBB0
:101A70000CED00E0064900F0070208684FF6FF038E
:101A8000184040EA0220034A1043086070470000F3
:101A90000CED00E00000FA052B492C4B0A683221BE
:101AA0004A432B4940B1B0F5007F086829D020F4A3
:101AB000C06040F480602CE00868C0F34120022838
:101AC00004D051F8800F20F4807022E0D1F880001B
:101AD00020F48070C1F88000086820F4C06040F4F1
:101AE00000700860B2FBF3F0401C00E0401E4A6941
:101AF000520501D50028F9D1486940050AD50320CF
:101B00007047C0F34120022806D051F8800F40F4FE
:101B10008070086000207047D1F8800040F4807029
:101B2000C1F88000086820F4C06040F400700860CC
:101B3000B2FBF3F0401C00E0401E4A695205DBD5C1
:101B40000028F9D1D8E700004800002040420F00EB
:101B5000007000400248816841F480418160704714
:101B6000007000402DE9F8430446006800269D4DB2
:101B700000035ED5A86D0027C00008D4A86D40F012
:101B80008050A865A86D012700F080500090DFF814
:101B90005892D9F8001041F48071C9F80010FFF78D
:101BA000E3FE804606E000BFFFF7DEFEA0EB080084
:101BB00002282BD8D9F80000C005F5D5D5F890003B
:101BC00010F4407014D0216C814211D0D5F89000EF
:101BD000D5F8901020F4407041F48031C5F8901091
:101BE000D5F8901021F48031C5F89010C5F8900018
:101BF000C00711D0FFF7B8FE804641F2883907E0F0
:101C0000FFF7B2FEA0EB0801494501D903260BE01E
:101C1000D5F890008007F3D5D5F89000216C20F41A
:101C200040700843C5F890001FB1A86D20F08050A7
:101C3000A8652078C00707D0D5F88800616820F033
:101C400003000843C5F888002078800707D5D5F839
:101C50008800A16820F00C000843C5F888002078AF
:101C6000400707D5D5F88800E16820F03000084328
:101C7000C5F888002078000707D5D5F888002169C5
:101C800020F0C0000843C5F888002078800607D5FA
:101C9000D5F88800616920F440600843C5F88800E1
:101CA0002078400607D5D5F88800A16920F4405077
:101CB0000843C5F888002078000607D5D5F88800C5
:101CC000E16920F440400843C5F888002088C00539
:101CD00007D5D5F88800216A20F440300843C5F8BC
:101CE00088002088800507D5D5F88800616A20F42F
:101CF00040200843C5F88800208840050FD5D5F856
:101D00008800A16A20F440100843C5F88800A06A42
:101D1000B0F5801F03D1E86840F48010E8602088A7
:101D200000050FD5D5F88800E16A20F4400008438B
:101D3000C5F88800E06AB0F5800F03D1E86840F488
:101D40008010E8602088C0040FD5D5F88800216B8A
:101D500020F040700843C5F88800206BB0F1807F08
:101D600003D1E86840F48010E86020884FF00061FB
:101D700080040ED5D5F88800626B20F040601043D7
:101D8000C5F88800606B884203D1E86840F4801091
:101D9000E860208840040ED5D5F88800A26B20F0BA
:101DA00040601043C5F88800A06B884203D1E86802
:101DB00040F48010E860208800040FD5D5F8880032
:101DC000E16B20F040500843C5F88800E06BB0F1AB
:101DD000805F03D1E86840F48030E8603046BDE8B9
:101DE000F883000000100240007000402DE9F04729
:101DF0000E4605004FF0000725D0DFF8AC81D8F87B
:101E0000000000F00F00B0420CD2D8F8001021F012
:101E10000F013143C8F80010D8F8000000F00F009F
:101E2000B04210D12968614CC80741F2883A5AD0B3
:101E30006868DFF87C91032808D0022820682DD03C
:101E4000400500282CDB0120BDE8F08720688001D8
:101E5000F9D5E06800F00302E068C0F30310401C0D
:101E6000032A19D0534A00BFB2FBF0F0E268C2F374
:101E700006225043E268C2F34162521C5200B0FB9A
:101E8000F2F0484517D9A06810F0F00F0CD0880781
:101E900011D5A86840B10EE0474AE5E78003D0E7D6
:101EA00000F0B6F8484506D9A06820F0F00040F0F0
:101EB0008000A0608027A068696820F003000843C4
:101EC000A060FFF751FD814606E000BFFFF74CFD23
:101ED000A0EB090151453AD8A068696800F00C00F0
:101EE000B0EB810FF2D12868810714D5400703D5E4
:101EF000A06840F4E060A0602878000705D5A068DD
:101F000020F4605040F4E060A060A068A96820F070
:101F1000F000084304E0802F03D1A06820F0F00017
:101F2000A060D8F80010404601F00F01B14216D968
:101F3000016821F00F0131430160FFF715FD0746ED
:101F400007E000BFFFF710FDC11B514501D9032079
:101F50007AE7D8F8000000F00F00B042F2D12878FC
:101F6000400705D5A068E96820F4E0600843A06058
:101F70002878000706D5A068296920F4605040EA57
:101F8000C100A06000F044F8A1680C4AC1F303113D
:101F9000515C01F01F01C840094908600948006808
:101FA000BDE8F047FFF7FEBC0020024000100240F1
:101FB00000B4C4040024F40000366E01A46D0008CF
:101FC000480000203C000020054806490068896858
:101FD000054AC1F30221515C01F01F01C84070475E
:101FE0004800002000100240B46D00080548064972
:101FF00000688968054AC1F3C221515C01F01F01E4
:10200000C84070474800002000100240B46D00082E
:10201000184910B58868C0F381021748012A0BD00F
:102020008A68164BC2F38102022A06D08A68C2F37C
:102030008102032A03D0002010BD184610BDCA68D3
:1020400002F00304CA68C2F30312521C032C02D02C
:10205000B0FBF2F001E0B3FBF2F0CA68C968C2F36A
:1020600006225043C1F34161491C4900B0FBF1F025
:1020700010BD0000001002400024F40000366E0184
:102080002DE9F84304007AD02078F84DC00747D0F6
:10209000A868E96800F00C0001F003010C2802D0E8
:1020A000082817D001E0032914D06068B0F5803FFC
:1020B00017D0B0F5A02F286817D020F48030286002
:1020C000286820F4802028606068E0B1FFF74CFCAD
:1020D000064614E02868800322D560680028D2D024
:1020E0001EE0286840F48030EDE740F4802028604E
:1020F000F7E700BFFFF738FC801B642870D828681A
:102100008003F7D50CE0FFF72FFC064605E000BF83
:10211000FFF72AFC801B6428F0D828688003F7D4D6
:10212000207880074CD5A868E96800F00C0001F021
:1021300003010C2802D004280DD001E002290AD0A6
:10214000E068002828682BD040F480702860FFF7F2
:102150000BFC064619E02868400502D5E068002817
:1021600091D06868217C20F0FE4040EA0160686000
:10217000BF480068FFF716FC002800D120E072E19C
:10218000FFF7F2FB801B0228B8D828684005F7D576
:102190006868217C20F0FE4040EA016068600FE042
:1021A00020F480702860FFF7DFFB064605E000BFE3
:1021B000FFF7DAFB801B0228A0D828684005F7D477
:1021C0002078000729D560690028D5F8940013D03D
:1021D00040F00100C5F89400FFF7C6FB064606E094
:1021E00090E000BFFFF7C0FB801B022886D8D5F81F
:1021F00094008007F6D510E020F00100C5F89400A7
:10220000FFF7B2FB064604E0FFF7AEFB801B022897
:1022100078D8D5F894008007F6D42078400761D5A7
:10222000A86D0026C00008D4A86D40F08050A865B5
:10223000A86D012600F0805000908E480168C90505
:1022400011D40168804641F480710160FFF78CFB76
:10225000074604E0FFF788FBC01B022852D8D8F8D5
:102260000000C005F6D5A068012815D00528D5F8CE
:10227000900016D020F00100C5F89000D5F890002D
:1022800020F00400C5F89000A06841F28838B8B189
:10229000FFF76AFB07460EE0D5F8900040F001001A
:1022A000F0E740F00400C5F89000F5E7FFF75CFBAD
:1022B000C11B414526D8D5F890008007F6D50CE023
:1022C000FFF752FB074604E0FFF74EFBC11B4145F9
:1022D00018D8D5F890008007F6D41EB1A86D20F06C
:1022E0008050A8652078800629D5A0690028D5F8F7
:1022F000980013D040F00100C5F89800FFF734FBB8
:10230000064606E075E000BFFFF72EFB801B0228A3
:102310006FD8D5F898008007F6D510E020F00100BE
:10232000C5F89800FFF720FB064604E0FFF71CFB0A
:10233000801B02285DD8D5F898008007F6D4E069A4
:10234000F0B3A968C1F3810103295DD00228286890
:1023500020F08070286003D0FFF706FB04464BE0B6
:10236000FFF702FB064604E0FFF7FEFA801B022897
:102370003FD828688001F7D4F4E908016FF00F0214
:1023800002EB01110843218A5204490802EB415132
:10239000A26841EA02210843217D4FF07E424908AC
:1023A00002EB41610843217B40EAC160E968324A9F
:1023B00011400843E860286840F08070286000E021
:1023C0005EE0E86840F08070E860FFF7CDFA044610
:1023D00005E000BFFFF7C8FA001B022809D82868EB
:1023E0008001F7D54CE000BFFFF7BEFA001B0228C2
:1023F00002D90320BDE8F88328688001F4D4E86896
:102400001E490840E8603BE00128F3D0E868226AF2
:1024100000F00301914226D1616A00F0F002090147
:10242000103991421FD1A26A00F4FE41B1EB022F94
:1024300019D194F82C2000F07841B1EBC26F12D181
:10244000218E00F4C00249084905A1F5001191420E
:1024500009D194F8341000F0C06049084906A1F190
:10246000007181420CD00120C4E70000001002403E
:102470003C000020007000400C809F01FCFFEEFE3D
:102480000020B7E710B500680B4641680D480140D1
:10249000080CD870C1F304245C7001F03F049C70F8
:1024A000C1F34231197052B902F09FFDD8705878CB
:1024B00002F09BFD5870987802F097FD987000200C
:1024C00010BD00003FFFFF0010B50B460168896892
:1024D000596001680969C1F30E01996000680168DB
:1024E0000D480140C1F305401870C1F306245C702B
:1024F00001F07F049C70890DD97052B902F075FD0E
:102500001870587802F071FD5870987802F06DFDDF
:102510009870002010BD00007F7F7F0070B5040020
:102520004FF0010040D094F8250028B9002084F82D
:102530002400204600F040F8022084F8250020689E
:10254000C168C943C90630D5CA21416221685320F8
:102550004862204602F05EFD10BB20688169154A82
:1025600011408161216888696268A369104322690A
:102570001A43104388612189E06840EA01402168DC
:102580000861204602F06BFD50B9D4E907211143E0
:1025900022686369956925F060452B431943916171
:1025A0002268FF21516208B170BD0020012184F82A
:1025B000251070BDBFFF8FFB10B592B004464421BB
:1025C0006846FDF75FFE1049206888421AD14FF433
:1025D000002000904FF4407010906846FFF7C2FA58
:1025E00008B1FEF760FB094850F8901F41F4004124
:1025F00040F83819016841F480610160006800F416
:102600008060119012B010BD002800400010024000
:1026100070B5044690F824000B4601281BD0012613
:1026200084F82460022084F82500B2B19878D97823
:1026300040EA014558781978000240EA41300543E4
:102640002168CA204862216853204862204602F06F
:10265000E1FCD0B120E0022070BD5878C10603D55E
:1026600000F0EF000A305870D87802F0C7FC05047B
:10267000587802F0C3FC45EA0025987802F0BEFCC9
:102680000543187845EA4035DAE7084805402068F0
:102690004560204602F0E3FC2268FF21516208B940
:1026A00084F82560002184F8241070BD3FFFFF00EE
:1026B0002DE9F041044690F8240090460D4601288B
:1026C00011D0012784F82470022084F825002168A5
:1026D000CA204862216853204862204602F09AFCD2
:1026E000002618B129E00220BDE8F0812068B8F189
:1026F000000F80694FEA406024D0002800DBEE70B4
:10270000A8782978EA7840EA01406978090241EA24
:10271000825108431849084021680860206881698F
:1027200021F480218161D5E90301084321688A6988
:1027300010438861204602F092FC2268FF2151621A
:10274000A0B115E0002800DBEE70287802F056FCFE
:102750000304687802F052FC43EA0023A87802F0F0
:102760004DFC0343E87843EA8050D3E784F82570B2
:1027700084F82460B8E700007F7F7F0070B50446CE
:102780000B482168C860FFF7EFF805464FF47A76EA
:1027900007E000BFFFF7E8F8401BB04201D9032073
:1027A00070BD2068C0688006F4D5002070BD0000B0
:1027B0005F00010010B5401EB0F1807F01D3012001
:1027C00010BD4FF0E02460610F21601703F0A6FCFC
:1027D0000020A06107202061002010BD70477047D5
:1027E0007047704770477047F0B590F83C20012A59
:1027F0003AD0012580F83C50022280F83D20036841
:102800005A689C68194E1A4FB34201D0BB4204D19A
:1028100022F4700C4A6842EA0C02DFF858C002EA5F
:102820000C02D1F800C04CEA020CC3F804C00268E4
:10283000B2420DD0B2F1804F0AD00F4B9A4207D06E
:102840000E4B9A4204D0BA4202D00D4B9A4204D1A8
:10285000896824F080031943916080F83D5000217D
:1028600080F83C100846F0BD0220F0BD002C01406D
:10287000003401408FFFFFFD0004004000080040CD
:1028800000400140704710B5040003D094F83D00AB
:1028900010B107E0012010BD002084F83C00204664
:1028A00000F022F8022084F83D00211D206802F08B
:1028B00063FD012084F8480084F83E0084F83F005E
:1028C00084F8400084F8410084F8420084F8430012
:1028D00084F8440084F8450084F8460084F84700F2
:1028E00084F83D00002010BD70B586B00446142168
:1028F0006846FDF7C7FC23680022654902240125CC
:102900004FF09040B3F1804F14D0624EB34230D1BB
:10291000886D40F002008865886D114600F0020065
:1029200005901D20FFF786F85FF01D00FFF774F893
:1029300006B070BD8B6D43F001038B658B6D03F0AA
:1029400001030593CB6C43F00103CB64C96C009485
:10295000CDE9014201F00101CDE90451039269463C
:10296000FEF7D4FE002211461C20FFF763F81C205E
:10297000DCE7494EB3420ED1886D40F00400886513
:10298000886D002200F00400059011461E20FFF71C
:1029900051F81E20CAE7414EB3420ED1886D40F077
:1029A00010008865886D002200F010000590114627
:1029B0003620FFF73FF83620B8E7394EB34220D132
:1029C0000B6E43F480330B660B6E03F48033059378
:1029D000CB6C43F00103CB64C96C01F0010105919C
:1029E00004210091CDE901420921CDE90321694685
:1029F000FEF78CFE002211461820FFF71BF8182066
:102A000094E7284EB3421FD10B6E43F400330B669C
:102A10000B6E03F400330593CB6C43F00103CB64DE
:102A2000C96C01F00101059140210091CDE90142FD
:102A3000CDE903256946FEF769FE002211461920FB
:102A4000FEF7F8FF192071E7174EB3427FF470AF1D
:102A50000B6E43F480230B660B6E03F48023059307
:102A6000CB6C43F00103CB64C96C01F0010105910B
:102A700080210091CDE90142CDE903256946FEF7A9
:102A800045FE002211461A20FEF7D4FF1A204DE71A
:102A90000010024000040040000800400010004008
:102AA00000400140004401400048014090F83D10C2
:102AB000012901D001207047022180F83D100168F2
:102AC000CA6842F00102CA600068104988420ED00C
:102AD000B0F1804F0BD00E49884208D00D49884292
:102AE00005D00D49884202D00C49884207D181683F
:102AF0000B4A1140062906D0B1F5803F03D001688A
:102B000041F001010160002070470000002C0140ED
:102B10000004004000080040003401400040014033
:102B20000700010070B5044690F83C00002501281C
:102B300014D0012684F83C60022084F83D0022680D
:102B40009068364B184020F47F40906008687028E9
:102B50002ED010DC10F00F0F03D021E04FF0020058
:102B600070BD4FEA2012072A1AD2DFE802F0525253
:102B700052524A3840002A4BC21A984249D009DCC6
:102B8000B0F5805F0DD0B0F5005F1CD0B0F1101F24
:102B900006D13EE0102A3CD0202A3AD0502A38D024
:102BA000012584F83D60002084F83C00284670BD73
:102BB000CB68D1E90121206802F049FC20688168D6
:102BC00041F0770109E0CB68D1E90121206802F0EA
:102BD0003EFC2068816841F480418160E1E7CA6879
:102BE0004968206802F048FC5021206806E0CA6865
:102BF0004968206802F088FC6021206802F032FCFD
:102C0000CFE7CA684968206802F036FC4021206896
:102C1000F4E7226801461046F0E7000088FFCEFF87
:102C20002000100090F83C20012A0CD0012200F86E
:102C30003C2F0223437050F83C3C59614270002104
:102C40000170084670470220704700002DE9F041EE
:102C500004462DED048B00686D499FED6E9B0026A8
:102C60006E4F88425BD107F110054FF00001287BC1
:102C7000C00720460FD000F07BFC296945F82100F1
:102C80002869401C28612068016A21F00A0101625C
:102C90002068016A12E000F06BFC296945F8210008
:102CA0002869401C286103280DD02068016A21F0A2
:102CB0000A0101622068016A41F002010162287B79
:102CC000401C287327E02868A9688046081AFDF789
:102CD000C5FB41EC180B6968A1EB0800FDF7BEFBD2
:102CE00053EC182BFDF74BFB53EC192BFDF7D5FAE2
:102CF000FDF7C1FB3860206846622068016A21F058
:102D00000A0101622068016A01620021204600F088
:102D100055F92E732E610021414800F04FF94149C9
:102D2000206888425BD13D4D4FF004012435287B5B
:102D3000C00720460FD000F01BFC296945F8210090
:102D40002869401C28612068016A21F0A001016205
:102D50002068016A12E000F00BFC296945F82100A7
:102D60002869401C286103280DD02068016A21F0E1
:102D7000A00101622068016A41F020010162287B04
:102D8000401C287327E02868A9688046081AFDF7C8
:102D900065FB41EC180B6968A1EB0800FDF75EFBD1
:102DA00053EC182BFDF7EBFA53EC192BFDF775FAE2
:102DB000FDF761FB7860206846622068016A21F0B7
:102DC000A00101622068016A01620421204600F02E
:102DD000F5F82E732E610421134800F0EFF82068F7
:102DE000B0F1804F0FD111480168486A4E62104916
:102DF000B1FBF0F0B8600421BDEC048BBDE8F041FC
:102E00000A4800F0DBB8BDEC048BBDE8F08100009F
:102E1000004401400000000000005940340400203C
:102E2000F802002000040040C80100207C010020BE
:102E300040420F002DE9F041054690F83C00002685
:102E40000C46012810D0012085F83C0072B1042AFC
:102E50001CD0082A2CD00C2A50D00126002085F83E
:102E60003C003046BDE8F0810220FBE7D4E90012C7
:102E7000E368286802F012FB2868816921F00C01E0
:102E8000816128688169A26811430FE0D4E90012CA
:102E9000E368286802F04AFB2868816921F44061F0
:102EA000816128688169A26841EA02218161D5E7D0
:102EB0002868D4E9002C277B036A016A21F4807119
:102EC0000162C16923F4206321F0030141EA0C018E
:102ED00021F0F00C39074FF420674CEA116107EA42
:102EE00002221A43C16102622868C16921F00C0103
:102EF000C1612868C169A26811432BE02868D4E940
:102F00000021E768036AD0F820C02CF4805CC0F888
:102F100020C0D0F81CC023F420432CF4407C4CEAA1
:102F2000012121F4704C4FF6FF7101EA07314FF493
:102F3000204741EA0C0107EA02321A43C1610262EA
:102F40002868C16921F44061C1612868C169A2682B
:102F500041EA0221C16181E710B5040003D094F871
:102F60003D0010B107E0012010BD002084F83C00B6
:102F7000204600F022F8022084F83D00211D206840
:102F800002F0FAF9012084F8480084F83E0084F841
:102F90003F0084F8400084F8410084F8420084F83F
:102FA000430084F8440084F8450084F8460084F81F
:102FB000470084F83D00002010BD704730B504463E
:102FC000002571B1042911D0082914D00C2917D07B
:102FD000102918D094F8430094F84720012817D1FD
:102FE00014E094F83E0094F84420F7E794F83F008A
:102FF00094F84520F2E794F8400094F84620EDE775
:1030000094F84100E8E794F84200E5E7012A01D08E
:10301000012030BD022079B1042916D008291DD025
:103020000C2949D010294AD084F8430084F847007D
:103030000C2947D001253DE084F83E0084F8440087
:103040002068C26842F0020210E084F83F0084F871
:1030500045002068C26842F0040207E084F840009E
:1030600084F846002068C26842F00802C26001226B
:10307000206802F0DFF91649206888420ED0B0F1CE
:10308000804F0BD01349884208D01349884205D09D
:103090001249884202D01249884207D18168114AF8
:1030A0001140062906D0B1F5803F03D0016841F0F8
:1030B00001010160284630BD84F84100B6E784F87C
:1030C0004200B3E72068C26842F01002CEE7000079
:1030D000002C014000040040000800400034014082
:1030E00000400140070001002DE9F041044600685E
:1030F000C66805694FF00007A90713D5B10711D5B8
:10310000F91E016101202077206880698007204630
:1031100002D0FFF79BFD04E000F0B7F8204600F076
:10312000B5F82777680716D5700714D521686FF0B2
:1031300004000861022020772068806910F4407F35
:10314000204602D0FFF782FD04E000F09EF8204602
:1031500000F09CF82777280715D5300713D521688C
:103160006FF008000861042020772068C06980079C
:10317000204602D0FFF76AFD04E000F086F8204602
:1031800000F084F82777E80616D5F00614D52168F4
:103190006FF010000861082020772068C06910F4E3
:1031A000407F204602D0FFF751FD04E000F06DF8AB
:1031B000204600F06BF82777E80708D0F00706D024
:1031C00021686FF001000861204600F0DFF8280652
:1031D00001D4A80408D5300606D521686FF4025042
:1031E00008612046FFF7FBFAE80508D5300606D54A
:1031F00021686FF4807008612046FFF7EFFA6806D7
:1032000008D5700606D521686FF040000861204699
:1032100000F0C3F9A80608D5B00606D521686FF0FE
:10322000200008612046FFF7DBFAE80208D5F0022B
:1032300006D521686FF4801008612046FFF7D2FAA6
:10324000A80208D5B00206D521686FF40010086105
:103250002046FFF7C6FA680208D5700206D5216835
:103260006FF4800008612046FFF7BDFA28020AD5F6
:10327000300208D521686FF4000008612046BDE8DF
:10328000F041FFF7FFBABDE8F081704770470000DA
:1032900030B50446022269B1042912D0082917D09A
:1032A0000C291CD0102921D094F84300012824D0E7
:1032B000012030BD94F83E000128F9D184F83E2069
:1032C0001DE094F83F000128F2D184F83F2016E079
:1032D00094F840000128EBD184F840200FE094F8E6
:1032E00041000128E4D184F8412008E094F842002C
:1032F0000128DDD184F8422001E084F84320012236
:10330000206802F097F8194B20681949194A984229
:1033100009D0884207D0904205D0174DA84202D06C
:10332000164DA84203D1456C45F40045456420681C
:1033300098420CD0B0F1804F09D0114B984206D082
:10334000104B984203D0884201D0904207D1816847
:103350000D4A1140062906D0B1F5803F03D001681F
:1033600041F001010160002030BD0000002C01404F
:103370000034014000400140004401400048014049
:103380000004004000080040070001002DE9FC5F38
:10339000064600687049002401254FF0020A884261
:1033A00054D16E4F01213846FEF7D4FA8DF8000053
:1033B00002213846FEF7CEFA8DF801000421384686
:1033C000FEF7C8FA8DF8020001214FF09040FEF799
:1033D000C1FA634B8DF80300A3F108000021EC460D
:1033E000A3F1040B03F1040900F11C021CF80170A5
:1033F0005F54002F475C15D0022F5FD019F8017081
:103400000FB31BF8018008F1010808F0FF080BF862
:103410000180B8F1140F16D3514F08377D5409F8C5
:10342000014010E027B1012F06D0022F06D00AE09C
:10343000455422F8114006E000F801A032F811705E
:103440007F1C22F81170491C0429CFDB45493068E4
:10345000884262D144480178684603F081FC404EBE
:1034600000202C3606F10802404B6F46A6F10809F1
:10347000A2F1180117F800C006F800C0BCF1000F57
:1034800011F800C030D0BCF1020F48D012F800C0D3
:10349000BCF1000F3ED019F8008008F1010808F0D7
:1034A000FF0809F80080B8F1140F33D3DFF8B0C07B
:1034B0000CF13C0C0CF8005014542BE032F8117055
:1034C000322F0ED219F8017097F0010709F8017038
:1034D00002D00BF8014002E0214F0C377D544454D8
:1034E000B1E71F4F1037F9E7BCF1000F06D0BCF170
:1034F000010F07D0BCF1020F06D00BE00D5423F8EA
:10350000104007E001F800A033F810C00CF1010CE6
:1035100023F810C0401C0828ACDBBDE8FC9F33F842
:1035200010C0BCF1320F11D212F800C09CF0010C97
:1035300002F800C002D009F8004005E0DFF820C022
:103540000CF1440C0CF800500C54E3E7DFF810C009
:103550000CF14C0CF6E700000008004000040048A5
:103560005A00002000100040050000202404002024
:103570000246002041B1042909D008290AD00C29AB
:1035800001D11068006C70471068406B704710687C
:10359000806B70471068C06B7047704790F884105C
:1035A000012918D0012180F884102421C0F8881046
:1035B00001680A680B6823F001030B6022F00051D8
:1035C00000224266036819602021C0F8881080F844
:1035D000842010467047022070477047704770B5CE
:1035E000044690F8840001281DD0012084F884004E
:1035F0002420C4F8880020680568026822F00102CF
:1036000002602068826822F060620A43826020467D
:1036100001F0A8FF206805602020C4F88800002081
:1036200084F8840070BD022070BD70B5044690F827
:10363000840001281DD0012084F884002420C4F8CF
:10364000880020680568026822F001020260206894
:10365000826822F060420A438260204601F082FFC5
:10366000206805602020C4F88800002084F88400C9
:1036700070BD022070BD7047704770472DE9F04162
:1036800003680446D86919689A6840F60F0528420D
:103690004FF000054FF002060AD187067ED501F0F3
:1036A000200702F0805C57EA0C0777D0616F3AE19F
:1036B000B24FDFF8CCC2174001EA0C0C57EA0C0CF1
:1036C0006CD05FEAC07C0CD05FEAC15C09D54FF0DA
:1036D000010CC3F820C0D4F8903043F00103C4F8C3
:1036E0009030830709D5D30707D023681E62D4F82A
:1036F000903043F00403C4F8903043070AD5D30751
:1037000008D0266804233362D4F8903043F00203D3
:10371000C4F8903003070CD501F020033B4308D0D8
:10372000266808233362D4F8903043F00803C4F8C5
:10373000903003050BD54B0109D526684FF4006383
:103740003362D4F8903043F02003C4F89030D4F8BA
:103750009030002B3DD0800609D501F0200002F00A
:103760008051084303D0616F09B120468847D4F8DF
:10377000900021688968490602D410F0280F2AD0E9
:10378000204601F0D5FF2068806840061ED52068DD
:10379000083050E8001F21F0400100E021E040E83F
:1037A0000012002AF3D1D4F8800078B17549816302
:1037B000D4F88000FDF75CFF00280AD0D4F8800020
:1037C000816B00E02046BDE8F04108472046FFF746
:1037D00054FFBDE8F0812046FFF74FFFC4F890503A
:1037E000F7E7D4F86CC02027BCF1010F7ED15FEA67
:1037F000C06C7BD55FEAC16C78D510201862206858
:103800008068400645D5D4F88010086840680004F8
:10381000000CDED0B4F85C208242DAD9A4F85E0055
:103820000868006880062CD4216851E8000F20F455
:10383000807041E80002002AF6D12068083050E884
:10384000001F21F0010140E80012002AF5D1206894
:10385000083050E8001F21F0400140E80012002A23
:10386000F5D1C4F88C70E566206850E8001F21F09F
:10387000100140E80012002AF6D1D4F88000FDF7CC
:10388000C2FE2667B4F85C00B4F85E10401A81B23C
:1038900030E0B4F85C00B4F85E10401A81B2B4F8BD
:1038A0005E00002895D0002993D0226852E8000FCE
:1038B00020F4907042E80003002BF6D12F4BDB433D
:1038C0002068083050E8002F1A4040E8002CBCF176
:1038D000000FF5D1C4F88C70E5666567226852E880
:1038E000000F20F0100042E8000300E006E0002B8B
:1038F000F4D126672046FFF770FE6AE7C60209D5B5
:10390000560207D54FF4801018622046BDE8F041FA
:10391000FFF7B2BE03060AD501F0800302F40002ED
:10392000134304D0A16F00297FF44CAF51E7420646
:1039300011D54A060FD52046026852E8001F21F033
:10394000400142E80013002BF6D1C0F8887085676B
:1039500000F035F93DE7020206D54A0004D52046BD
:10396000BDE8F041FFF787BEC001C6D50029C4DA23
:103970002046BDE8F041FFF731BE00000100001015
:10398000200100041D57000810B5040003D0D4F82E
:10399000880010B107E0012010BD002084F88400E9
:1039A000204600F027F82420C4F888002068016829
:1039B00021F001010160A06A10B1204601F0F4FD80
:1039C000204602F047F90128E6D02068416821F43A
:1039D000904141602068816821F02A01816020685F
:1039E000016841F0010101602046BDE8104001F08E
:1039F0003FBE000010B598B00446142111A8FCF792
:103A000041FC44216846FCF73DFC1B492068884284
:103A100030D101200024CDE900046846FEF7A2F869
:103A200008B1FDF740F91548016E41F48041016687
:103A3000016E01F480411691C16C41F00101C16435
:103A4000C06C11A900F0010016904FF4C0601190F5
:103A50000220CDE912040720CDE914404FF0904038
:103A6000FDF754FE002211462520FDF7E3FF252037
:103A7000FDF7D2FF18B010BD003801400010024021
:103A800030B4D0F88C30202B02D0022030BC7047EC
:103A9000A9B1A2B10023C3660A4C0368A3420BD0AC
:103AA0005B681B0208D5046854E8003F43F080635C
:103AB00044E80035002DF6D130BC02F005BA0120F3
:103AC000E4E700000080004030B40E4A01689142F3
:103AD00015D10D4900230A781D2A07D20B4C4D78C9
:103AE000A554521CD2B20A70A35402E00B700122FA
:103AF0004A600549012230BC491CFFF7C1BF30BCF8
:103B00007047000000380140B00000206C04002025
:103B10002DE9F8430446D0F88800984616460D462D
:103B2000202802D00220BDE8F883A5B19EB1002074
:103B3000C4F890002120C4F888001834FDF714FF61
:103B4000A6878146E68754F8100C2027183CB0F56C
:103B5000805F02D003E00120E5E7206910B12E4626
:103B6000002510E000260EE08021204602F034FA05
:103B7000C0B9DEB116F8010B21688862B4F85600AE
:103B8000401EA4F85600B4F856004B464FF0000211
:103B9000CDF800800028E7D14FF04001204602F028
:103BA0001BFA40B1C4F888700320BCE735F8020B5B
:103BB000C0F30800E0E7C4F888700020B3E770475E
:103BC000FEE770B50824002501F0E8FA13E0680666
:103BD000050E002001F0CAFA142002F009FF14209B
:103BE00002F006FF012001F0C1FA142002F000FFEC
:103BF00001F0C8FA0543641EE4B2E8D2002001F0E7
:103C0000B5FA142002F0F4FE01F0EAFA284670BD7D
:103C100010B5002001F0D8FA142002F0E9FE1420BB
:103C200002F0E6FE012001F0A1FA142002F0E0FE0D
:103C3000002001F09BFABDE81040142002F0D8BE2D
:103C400070B50446082516E001F090FA142002F041
:103C5000CFFE04F0800001F0B7FA142002F0C8FE95
:103C60006006040E142002F0C3FE012001F07EFA6B
:103C7000142002F0BDFE6D1EEDB24FF00000E3D245
:103C800001F074FABDE87040142002F0B1BE10B526
:103C9000012001F099FA142002F0AAFE142002F08B
:103CA000A7FE012001F062FA142002F0A1FE00201C
:103CB00001F05CFABDE81040142002F099BE10B586
:103CC000012001F081FA142002F092FE012001F09F
:103CD0004DFA142002F08CFE002001F075FA142039
:103CE00002F086FE002001F041FABDE810401420E9
:103CF00002F07EBE10B5002001F038FA142002F068
:103D000077FE002001F060FA142002F071FE01201D
:103D100001F02CFA142002F06BFE012001F054FA9D
:103D2000BDE81040142002F063BE10B5052401F078
:103D300035FA142002F05CFE012001F017FA14207D
:103D400002F056FE05E0641EA4B2142002F050FEFC
:103D50006CB101F017FA0028F5D101F041FA00200A
:103D600001F004FA142002F043FE002010BD01F01F
:103D700037FAFFF7BFFF012010BD70B515460E469C
:103D80000446FFF79CFFA020FFF75AFFFFF7CDFF87
:103D90003046FFF755FFFFF7C8FFFFF790FFA12060
:103DA000FFF74EFFFFF7C1FF09E0FFF70AFF04F836
:103DB000010B15B1FFF72CFF01E0FFF768FF6D1E47
:103DC000EDB2F2D2BDE87040FFF794BF70B5154672
:103DD0000E460446FFF773FFA020FFF731FFFFF701
:103DE000A4FF304602E000BF14F8010BFFF728FFE4
:103DF000FFF79BFF6D1EEDB2F6D2FFF77BFFBDE82C
:103E000070404FF4FA7002F0F3BD000070B55948ED
:103E10000168594C226A891A32297DD300682062D0
:103E2000564D00262878012829D1207890F00100ED
:103E3000207020D104F11100011F02780A7040782F
:103E400048700222002104F10D00FFF7BFFFA278A5
:103E500000214B4800F0F8FEE2780021494800F0CC
:103E6000F3FEE2880021464800F00CFF2289002181
:103E7000444800F007FF002000F0B6F82E70687884
:103E8000012809D1207830B16078401CC0B2607040
:103E9000052800D166706E70A9784FF46170012911
:103EA0002DD1217811B361780A22012907D0022986
:103EB0000DD06422032912D0042918D01EE0A17865
:103EC0000A31C9B2A1705A2918D9A27016E0E17856
:103ED0000A31C9B2E1705A2910D9E2700EE0E188C6
:103EE000643189B2E180814208D9E28006E021890B
:103EF000643189B22181814200D92281AE70E97892
:103F000001292CD161785A22012908D002290ED02A
:103F1000032914D0042900E02AE018D01EE0A0787C
:103F20000A3810F0FF00A07018D1A27016E0E078F7
:103F30000A3810F0FF00E07010D1E2700EE0E18866
:103F400064390904090CE18008D1E08006E0218988
:103F500064390904090C218100D12081EE700A48DE
:103F6000C178012904D1217981F001012171C67044
:103F700070BD00004400002000000020620000200E
:103F8000F8020020440300206A00002000B585B03C
:103F900014216846FCF776F94FF6FF700090002078
:103FA0000321CDE90201019069460248FDF7AEFB0D
:103FB00005B000BD0008004800B585B01421684672
:103FC000FCF760F94FF6FF7000900120019003208C
:103FD00003900020029069460248FDF797FB05B068
:103FE00000BD00000008004870B5002406462146C8
:103FF000204600F027FA00F065FA4FF49635304677
:1040000000F034FA641CAC42F9D370BD30B587B00F
:1040100014216846FCF736F91E48C16C41F00401D2
:10402000C164C16C01F004010591C16C41F0010152
:10403000C164C16C01F001010591C16C41F0020144
:10404000C164C06C012500F0020005904FF4487077
:10405000CDE9000500240394694602940E48FDF75B
:1040600055FB280203940090CDE901544FF0904491
:1040700069462046FDF74AFBFFF79EFFA06940F422
:104080008070A06104481830016841F40871016033
:1040900007B030BD0010024000040048203AD2B200
:1040A000034B02EB420203EB021200F019B80000CE
:1040B000BC6D0008F0B50E460746002540F23F14DF
:1040C00007E021463846FFF7E9FF103C6D1CA4B21B
:1040D000761C3278002A01D0142DF2D3F0BD0000F6
:1040E0002DE9F04791468A460026044600F0AAF9D9
:1040F000DFF84080012700BF00F0E4F95FF0000521
:1041000039F8160007FA05F10842404601D1408807
:1041100000E0008800F0AAF96D1C102DF0D3641C9B
:10412000E4B25146204600F08DF9761C182EE3D3F8
:10413000BDE8F0874C00002010B5FFF767FF0020B6
:1041400000F038F9084CA080A088A0F50241303971
:1041500006D000F049FE002000F02CF9A08010BD30
:1041600000F0B9FDF7E700004C0000202DE9F04118
:1041700063480168634C626A891A64297DD30068C8
:1041800060620222002104F10D00FFF7F6FD2178A4
:104190004FF6FF70002967D0064600F05FF9152141
:1041A0005948FCF76FF859A1574801F0A3FF564949
:1041B0001820FFF77FFF15215348FCF763F804F13F
:1041C000340556A16B782A784F4801F093FF607848
:1041D0004FF4FC6701287CD04FEA060000F03EF95E
:1041E00049493020FFF766FF15214748FCF74AF898
:1041F000EB78AA784EA1444801F07CFF6078022851
:1042000075D0304600F02AF93F496020FFF752FF91
:1042100015213D48FCF736F84A4D4BA13A48D5E9FF
:10422000002301F067FF6078032862D04FEA0600A0
:1042300000F014F934499020FFF73CFF1521324873
:10424000FCF720F8D5E9022343A12F4801F052FFE3
:10425000607804284FD0304600F000F92A49C02089
:10426000BDE8F041FFF726BF00F0F8F81521264819
:10427000FCF708F83CA1244800E03EE001F03AFFDA
:1042800021491820FFF716FF15211F48FBF7FAFFF9
:104290001C4839A12C3002881B4801F02BFF1A4919
:1042A0003020FFF707FF15211748FBF7EBFFA06B46
:1042B000FCF7FAF841EC100B34A153EC102B124828
:1042C00001F018FF10496020FFF7F4FE15210E4899
:1042D00001E00AE00BE0FBF7D5FF627930A10A4864
:1042E00001F008FF08499020BAE7384676E73846DB
:1042F00088E738469CE73846AEE7BDE8F081000025
:104300004400002000000020D000002020202020B9
:10431000204469737020322020202000202020209B
:104320002048756D3A25642E256420202000000069
:10433000202020202054656D3A25642E25642020FD
:1043400020000000340400204672713A25642C25B8
:104350006420202000000000647574793A25642CE4
:1043600025642020200000002020202020446973A4
:104370007020312020202000202020204144433282
:104380005F31353A256420202020000020202020A5
:104390004C696768743A252E3266202000000000C0
:1043A000202020204144435F4B45593A256420207A
:1043B0002020000070B51D490A6842F400720A60AE
:1043C0000A6842F480720A60184C103C226842F07D
:1043D00020022260164A1060086840F02000086041
:1043E00000BF00BF00BF206840F0200020602068B0
:1043F00040F480702060FFF7C9FD4FF09041886A5B
:1044000040F48070886200BF00BF00BF0848001FF2
:10441000006885B2886940F480708861FFF7CCFD40
:10442000206840F400702060284670BD28040048D1
:104430001408004801B5BDF800000149488008BDD6
:104440004C00002010B50C460146202000F068F812
:104450002146BDE81040212000F062B801B5BDF84A
:1044600000000149088008BD4C000020134A116873
:1044700041F400711160114910390B6843F48073E5
:104480000B600B6843F020030B600D4B1860106845
:1044900040F02000106000BF00BF00BF086840F07F
:1044A00020000860086840F48070086000BF00BF0A
:1044B00000BF086840F40070086070472804004896
:1044C000140800481449086840F40070086008683F
:1044D00040F48070086010481038026842F02002F2
:1044E00002600E4B22221A600A6842F020020A6023
:1044F00000BF00BF00BF016841F0200101600168FA
:1045000041F48071016000BF00BF00BF016841F449
:10451000007101607047000028040048140800483A
:10452000184B10B51A6842F400721A601A6842F407
:1045300080721A60134A103A146844F02004146020
:10454000114C2060186840F02000186000BF00BFC8
:1045500000BF106840F020001060106840F48070C8
:1045600010602160186840F02000186000BF00BF94
:1045700000BF106840F020001060106840F48070A8
:10458000106010BD280400481408004870B50D4D97
:104590000446012204212846FDF7E1F90A4E0122D2
:1045A0004FF6FF713046FDF7DAF92102002230465E
:1045B000FDF7D5F92846BDE8704000220421FDF73B
:1045C000CEB90000000C00480008004810B5094CA6
:1045D000012204212046FDF7C2F901224FF6FF71A6
:1045E0000548FDF7BCF920460022BDE81040042133
:1045F000FDF7B5B9000C00480008004806490A68F4
:104600000648C369D21AC82A04D30968C16100796F
:10461000FFF7BCBF704700004400002000000020EE
:1046200000EB8100006E00F0F84070478068C0F336
:10463000C00070478068C0F380007047C06810F405
:10464000406F01D00020704701207047042303EA27
:10465000D15310B518444369C1F3045107248C4069
:10466000A3438A401343436110BD00EB8100016EF8
:1046700021F00041114301667047000030B589B058
:1046800020216846FBF7FEFD1F481E4900240160FB
:104690004902C0E90114042585610121C460C0E913
:1046A0000441047744770221016280F82440C46207
:1046B000046380F83840C46380F84040FCF756FD3E
:1046C00008B1FCF7F0FA114800900620019007208D
:1046D00002907F200594CDE9030569460A48FCF75E
:1046E0002FFB08B1FCF7DFFA094800900C2001907D
:1046F00069460548FCF724FB002801D0FCF7D3FAF3
:1047000009B030BD00010050E800002000209036C4
:10471000000052472DE9F04387B014216846FBF7AB
:10472000B1FD4348C16C41F00401C164C16C01F0AA
:1047300004010591C16C41F02001C164C16C01F01C
:1047400020010591C16C41F00101C164C16C01F00F
:1047500001010591C16C41F00201C164C16C01F01D
:1047600002010591C16C41F00801C164C06C314E79
:1047700000F008004FF47F440590012221463046A6
:10478000FDF7EDF84FF09047002208213846FDF77D
:10479000E6F8DFF8A480002204214046FDF7DFF8A8
:1047A000DFF898900022C0214846FDF7D8F801258F
:1047B000CDE9004500240294694630460394FCF795
:1047C000A5FFCDE90054694638460295FCF79EFFE7
:1047D00008200090CDE90154694638460394FCF75F
:1047E00095FF07208DE8310069464846FCF78EFFAB
:1047F00004200090CDE90154694640460394FCF73B
:1048000085FF40200090CDE9015469464846039455
:10481000FCF77CFF8020CDE900050220CDE90240B5
:1048200069464846FCF772FF07B0BDE8F083000018
:104830000010024000080048000C00480004004836
:1048400010B586B014216846FBF71CFD21480024F2
:104850001F490594C0E900147D21816041F2707107
:10486000C0E903144FF080414461C0E9064104628D
:10487000FDF754FE08B1FCF716FA23208DF800006E
:1048800059208DF8010055208DF802000194039401
:10489000012269460F480494FDF70AFF08B1FCF7AE
:1048A00002FA05208DF8140003208DF81500012070
:1048B0008DF8160024208DF81700012205A905485F
:1048C000FDF7A6FE002801D0FCF7EDF906B010BDFB
:1048D000002800405401002010B58CB0002405943D
:1048E000224804940694079408940A940994009426
:1048F000019402941C49039401604F21C0E9011402
:104900004FF6FF71C0E9031444618461FDF7BBFFFA
:1049100008B1FCF7C8F94FF48050049004A913487B
:10492000FEF700F908B1FCF7BEF91048FEF714FBDA
:1049300008B1FCF7B8F9089408A90C480A94FDF7E7
:1049400053FF08B1FCF7AFF90120CDE90040029414
:104950000022694605480394FEF76CFA002801D04E
:10496000FCF7A1F90CB010BD00400140AC020020E2
:104970001FB5002415480094019402941249039431
:1049800001604F21C0E901144FF6FF71C0E9031423
:1049900044618461FDF777FF08B1FCF784F90B48A7
:1049A000FEF7DAFA08B1FCF77EF90120CDE9004004
:1049B00002940022694605480394FEF73BFA00285A
:1049C00001D0FCF770F91FBD00440140F80200203F
:1049D0001FB50024154800940194029412490394D1
:1049E00001604F21C0E901144FF6FF71C0E90314C3
:1049F00044618461FDF747FF08B1FCF754F90B48A7
:104A0000FEF7AAFA08B1FCF74EF90120CDE9004003
:104A100002940022694605480394FEF70BFA002829
:104A200001D0FCF740F91FBD0048014044030020BD
:104A300010B58CB000240594214804940694079482
:104A400008940A9409940094019402944FF08041D0
:104A5000039401604F21C0E901144FF6FF71C0E9D2
:104A600003148461FDF70FFF08B1FCF71CF94FF444
:104A70008050049004A91248FEF754F808B1FCF7DE
:104A800012F90F48FEF768FA08B1FCF70CF9089420
:104A900008A90B480A94FDF7A7FE08B1FCF703F933
:104AA0000120CDE9004002940422694604480394A1
:104AB000FEF7C0F9002801D0FCF7F5F80CB010BDE6
:104AC0007C01002010B588B00024174800940194A0
:104AD00002940394049405941249069401604F21B2
:104AE000C0E901144FF6FF71C0E903148461FDF7BA
:104AF000CAFE08B1FCF7D7F84FF480500090694621
:104B00000948FEF70FF808B1FCF7CDF8049404A9A2
:104B100005480694FDF768FE002801D0FCF7C3F8AD
:104B200008B010BD00040040C801002010B588B0D6
:104B3000002417480094019402940394049405946B
:104B40001249069401604F21C0E9011442F20F712D
:104B5000C0E903148461FDF796FE08B1FCF7A3F8E1
:104B60004FF48050009069460948FDF7DBFF08B11B
:104B7000FCF799F8049404A905480694FDF734FE5F
:104B8000002801D0FCF78FF808B010BD00080040E5
:104B9000140200203EB500240F48009401940D49F2
:104BA000029401604F21C0E9011442F20F71846147
:104BB000C160FDF768FE08B1FCF775F8009469461E
:104BC00005480294FDF710FE002801D0FCF76BF8B1
:104BD0003EBD00000010004060020020184810B5E3
:104BE000164901604FF416514160002181600C228A
:104BF000C160C0E904128161C161016241628162E8
:104C0000FEF7C2FE08B1FCF74EF800210C48FEF793
:104C10000CFD08B1FCF747F800210948FEF7DFFC5E
:104C200008B1FCF740F80648FEF7B8FC002803D0AE
:104C3000BDE81040FCF737B810BD00000038014057
:104C400090030020FEE7FEE70068C36A5B1C534345
:104C50006422B3FBF2F251B104290AD008290AD028
:104C60000C290AD010290AD0C26400207047426380
:104C7000FBE78263F9E7C263F7E70264F5E7826462
:104C8000F3E7000070B5044611480D46B0FBF2F69C
:104C90002168CB6A5B1CB6FBF3F35B1E8B625B1C6B
:104CA000B0FBF3F1B1FBF2F12668491EF162B0FBF3
:104CB000F3F0B0FBF2F0401EE06001212046FDF76A
:104CC000B1FF29462046FEF7E3FA002070BD000040
:104CD00000B4C404704730B501210020FFF720FC68
:104CE0004FF47A70FBF7D1FF00210120FFF718FC89
:104CF00041F290711020FFF713FC4FF41C5160201B
:104D0000FFF70EFC01216120FFF70AFC022146207B
:104D1000FFF706FC48F210011320FFF701FC48F2F0
:104D2000FE011220FFF7FCFB4FF4A0610220FFF709
:104D3000F7FB41F230010320FFF7F2FB40F20334AE
:104D400021463020FFF7ECFB21463120FFF7E8FB3E
:104D500021463220FFF7E4FBE51E29463320FFF70A
:104D6000DFFB03213420FFF7DBFB21463520FFF773
:104D7000D7FB14213620FFF7D3FB21463720FFF75E
:104D8000CFFB21463820FFF7CBFB21463920FFF728
:104D9000C7FB29463A20FFF7C3FB03213B20FFF75F
:104DA000BFFB21463C20FFF7BBFB4FF4A0513D2049
:104DB000FFF7B6FB4FF400719220FFF7B1FB2146DD
:104DC0009320FFF7ADFB40F60D019020FFF7A8FB05
:104DD00041F218010320FFF7A3FBBDE8304040F289
:104DE00073110720FFF79CBB10B543F20801E320C5
:104DF000FFF796FB1221E720FFF792FB41F23121EA
:104E0000EF20FFF78DFB00210120FFF789FB4FF416
:104E1000E0610220FFF784FB41F230010320FFF73D
:104E20007FFB00210420FFF77BFB40F207210820D5
:104E3000FFF776FB00210920FFF772FB00210A2013
:104E4000FFF76EFB00210C20FFF76AFB00210D200D
:104E5000FFF766FB00210F20FFF762FB0021102007
:104E6000FFF75EFB07211120FFF75AFB00211220FC
:104E7000FFF756FB00211320FFF752FBC820FCF779
:104E800033FC41F290611020FFF74AFB40F22721EA
:104E90001120FFF745FB3220FCF726FC1D211220D4
:104EA000FFF73EFB3220FCF71FFC4FF4006113209C
:104EB000FFF736FB14212920FFF732FB0B212B20B3
:104EC000FFF72EFB3220FCF70FFC00212020FFF71C
:104ED00027FB00212120FFF723FB07213020FFF7CC
:104EE0001FFB40F207713120FFF71AFB0621322029
:104EF000FFF716FB40F204713520FFF711FB41F676
:104F000004713620FFF70CFB04213720FFF708FB64
:104F100000213820FFF704FB40F206713920FFF72B
:104F2000FFFA40F201713C20FFF7FAFA0F213D2011
:104F3000FFF7F6FA00215020FFF7F2FAEF21512097
:104F4000FFF7EEFA00215220FFF7EAFA40F23F1194
:104F50005320FFF7E5FA4FF41C516020FFF7E0FA09
:104F600001216120FFF7DCFA00216A20FFF7D8FA5F
:104F700000218020FFF7D4FA00218120FFF7D0FA2A
:104F800000218220FFF7CCFA00218320FFF7C8FA26
:104F900000218420FFF7C4FA00218520FFF7C0FA22
:104FA00010219020FFF7BCFA00219220FFF7B8FAF9
:104FB00003219320FFF7B4FA4FF488719520FFF78F
:104FC000AFFA00219720FFF7ABFA00219820FFF7F6
:104FD000A7FA41F218010320FFF7A2FABDE810403A
:104FE00040F273110720FFF79BBA010901EB810121
:104FF00000F00F0000EB4100C0B2704700220146F4
:1050000002E00A39C9B2521C0A29FAD2100741EA51
:10501000106070472DE9F041044600680025C16822
:10502000490619D4C16841F08001C160FCF79CFCBD
:1050300006464FF47A78032708E000BFFCF794FC9B
:10504000801B404502D9032584F825702068C0687C
:10505000400601D4032DF1D12846BDE8F08170B59A
:10506000044600680025C16821F08001C160206805
:1050700081694FF00306890607D42046FDF77EFBC1
:1050800098B184F8256003250FE0816921F02001A3
:1050900081612046FDF772FB10B184F8256003257D
:1050A0002068816941F020018161284670BD0000BF
:1050B0000C4810B502680C498B6AD21AB2F57A7F97
:1050C0000ED300688862002208490948FDF7FCF900
:1050D00005490022BDE8104015310548FDF7D2B959
:1050E00010BD00004400002000000020BC00002093
:1050F0005401002070B50F48FCF7ECF94FF0FF3574
:1051000029460C48FCF768F90A48FCF72BF860F3CD
:105110000F040848FCF7DEF929460648FCF75CF95D
:105120000448FCF71FF860F31F440248FCF74CFAF0
:10513000204670BDE800002010B5FBF78FF99FED09
:10514000071B53EC112BFBF7A8F89FED061B53EC44
:10515000112BFBF7A2F841EC100B10BD66666666DA
:1051600066660A40000000000000303F08B10448B5
:1051700001E003481030016841F0400101607047D0
:105180001804004810B580210348FCF7E3FB012810
:1051900000D0002010BD00000004004800B585B01C
:1051A00014216846FBF76EF88020009000200190E3
:1051B000012002900220039069460248FCF7A6FAFB
:1051C00005B000BD0004004808B1044801E00348F0
:1051D0001030016841F080010160704718040048F8
:1051E00000B585B014216846FBF74CF8802000908C
:1051F000112001900020029002200390694602488D
:10520000FCF784FA05B000BD000400482DE9F04128
:10521000164CDDE906C7265C0BB1802000E00020BB
:105220000643655CBCF1000F01D0802000E0002047
:105230000543A05C0FB1802100E00021084300F08D
:1052400018F8284600F015F8304600F012F84FF034
:105250009044012204212046FCF781FB2046BDE852
:10526000F04100220421FCF77ABB00008C7F00088B
:10527000704770B5054600244FF09046EA090221B8
:105280003046FCF76CFB012208213046FCF767FB37
:105290006806050E002208213046FCF760FB641CFE
:1052A000E4B2082CEAD370BDFCF764BB10B594B02F
:1052B00038216846FAF7E6FF14210EA8FAF7E2FF54
:1052C0004FF40070FCF7E8FB01200090000401900F
:1052D00002200324CDE907041421CDE90A100C9023
:1052E0000D9009946846FCF7CBFE08B172B6FEE754
:1052F0000F20CDE90E040020109011901290022191
:105300000EA8FCF773FD002801D072B6FEE714B0BA
:1053100010BD00000248016841F47001016070474F
:1053200088ED00E00148FDF7DFBE0000AC02002080
:105330000148FDF7D9BE0000440300200148FDF7F5
:10534000D3BE0000F80200200148FDF7CDBE0000EA
:105350007C0100200148FDF7C7BE0000C801002005
:105360000148FDF7C1BE0000140200200148FDF70E
:10537000BBBE0000600200202DE9F0430268264B0E
:10538000264D274E274C4FF08049984207D048457C
:1053900005D0A84203D0B04201D0A04203D122F0F0
:1053A00070074A683A43204FDFF880C0DFF88080FA
:1053B00098420DD048450BD0A84209D0B04207D042
:1053C000A04205D0B84203D0604501D0404503D18A
:1053D00022F44075CA682A434D6922F080022A43AC
:1053E00002608A68C2620A688262984207D0A0425C
:1053F00005D0B84203D0604501D0404501D10969CC
:105400000163012141610169C90703D0016921F0EC
:1054100001010161BDE8F083002C0140000400405F
:1054200000080040003401400040014000440140B9
:105430000048014010B501F01F030121046A9940A2
:105440008C430462016A9A401143016210BD10B599
:10545000846842EA032224F47F440A4322438260A0
:1054600010BD00008268034B1A400A4342F0070156
:10547000816070478FFFCFFF10B5036A046A24F084
:1054800001040462846924F0F00444EA021423F065
:105490000A020A438461026210BD000070B5056A09
:1054A000046A24F0010404628469124EB0420ED0F2
:1054B000B0F1804F0BD0104EB04208D00F4EB0422A
:1054C00005D00F4EB04202D00E4EB04203D124F0B0
:1054D0000304144301E044F001041A0724F0F0042B
:1054E00044EA126225F00A0301F00A0119438261BD
:1054F000016270BD002C0140000400400008004023
:10550000003401400040014010B5036A046A24F0F1
:1055100010040462846923F0A00324F4704444EA74
:10552000023243EA01118261016210BD30B5046AA2
:10553000056A25F010050562856925F4407545EA80
:10554000022222F470454FF6FF7202EA033224F081
:10555000A0032A43A02404EA0111194382610162D5
:1055600030BD000030B5416EB9B1026891689268F3
:10557000C1F342610B4B520F9C5CE50003F1080440
:10558000A25CB5FBF2F2A0F86A205A5C615CD20022
:10559000B2FBF1F1A0F8681030BD0121A0F86A104B
:1055A000F8E70000946D000890F82810090706D568
:1055B00001684A68836B22F400421A434A6090F8FB
:1055C0002810C90706D001684A68C36A22F400326D
:1055D0001A434A6090F82810890706D501684A687E
:1055E000036B22F480321A434A6090F8281049076E
:1055F00006D501684A68436B22F480221A434A6048
:1056000090F82810C90606D501688A68C36B22F491
:1056100080521A438A6090F82810890606D50168DE
:105620008A68036C22F400521A438A6090F82810AA
:10563000490611D501684A68436C22F480121A4366
:105640004A60416CB1F5801F06D101684A68836CDD
:1056500022F4C0021A434A6090F82810090606D5C1
:1056600001684A68C06C22F4002202434A60704715
:105670002DE9F84300260446C0F89060FCF774F961
:105680008046206800684FF0200500076FF07E47D5
:1056900013D54346002229042046009700F09CFCC5
:1056A00058B1216851E8000F20F0800041E8000265
:1056B000002AF6D1C4F8885021E02068006840072D
:1056C00022D5434600224FF480012046009700F087
:1056D00083FCC8B1216851E8000F20F4907041E8C4
:1056E0000002002AF6D12068083050E8001F21F09F
:1056F000010140E80012002AF5D1C4F88C5084F86A
:1057000084600320BDE8F883C4F88850C4F88C5046
:1057100044F86C6F666026760020F3E710B5806A67
:105720000021A0F85E10A0F85610FDF7A6FF10BDEE
:1057300010B5026852E8001F21F4907142E800138E
:10574000002BF6D10E4B0268083252E8001F1940B8
:1057500042E80014002CF6D1C16E012908D101687D
:1057600051E8002F22F0100241E80023002BF6D16F
:105770002021C0F88C100021C166416710BD0000D7
:10578000FEFFFFEF10B5B0F86020D0F88C30016854
:10579000222B04D0886940F00800886110BD496A56
:1057A000836D11401980816D891C8165B0F85E1090
:1057B000491EA0F85E10B0F85E100029EED1026814
:1057C00052E8001F21F4907142E80013002BF6D13B
:1057D0000168083151E8002F22F0010241E800235E
:1057E000002BF5D12021C0F88C1000214167016702
:1057F000154B02689A420BD05268120208D5036812
:1058000053E8002F22F0806243E80024002CF6D1F8
:10581000C26E012A02D0FEF757F910BDC1660268B8
:1058200052E8001F21F0100142E80013002BF6D1CE
:105830000168CA69D243D20601D410220A62B0F8C4
:105840005C10FDF7CAFE10BD008000402DE9F04756
:105850000446B0F860600068C569D0F800A0D0F8D0
:105860000880D4F88C10222905D0816941F0080104
:105870008161BDE8F087B4F868704FF0000975E009
:105880002068406AA16D30400880A06D801CA06532
:10589000B4F85E00401EA4F85E002068C569690780
:1058A00030D0E9070AD05FEACA5107D50121016269
:1058B000D4F8900040F00100C4F89000A8070BD580
:1058C0005FEAC87008D0216802200862D4F890000E
:1058D00040F00400C4F8900068070BD55FEAC87078
:1058E00008D0216804200862D4F8900040F002003B
:1058F000C4F89000D4F8900020B12046FDF7BDFE1A
:10590000C4F89090B4F85E0080BB216851E8000FA5
:1059100020F4807041E80002002AF6D1304A206865
:10592000083050E8001F114040E80013002BF6D16A
:105930002020C4F88C00C4F874904946C4F87090D4
:10594000284A206890420BD04068000208D522689F
:1059500052E8000F20F0806342E800300028F6D1C2
:10596000E06E012825D02046FEF7AEF80FB1A8065C
:1059700086D4B4F85E0000283FF47BAFB4F868101A
:1059800081427FF676AF2068083050E8001F21F092
:10599000805140E80012002AF5D113486067216861
:1059A00051E8000F40F0200041E80002002AF6D143
:1059B0005FE7E166216851E8000F20F0100041E840
:1059C0000002002AF6D12068C169C943C90601D482
:1059D00010210162B4F85C102046FDF7FEFDC5E71A
:1059E000FEFFFFEF008000408557000810B5B0F8BB
:1059F0006020D0F88C300168222B04D0886940F0F8
:105A00000800886110BD496A1140826D1170816D76
:105A1000491C8165B0F85E10491EA0F85E10B0F810
:105A20005E100029EED1016851E8002F22F4907237
:105A300041E80023002BF6D10168083151E8002F1E
:105A400022F0010241E80023002BF5D12021C0F80B
:105A50008C10002141670167154B02689A420BD0F8
:105A60005268120208D5036853E8002F22F08062C2
:105A700043E80024002CF6D1C26E012A02D0FEF7C2
:105A800023F810BDC166026852E8001F21F0100122
:105A900042E80013002BF6D10168CA69D243D2064E
:105AA00001D410220A62B0F85C10FDF796FD10BD1B
:105AB000008000402DE9F0470446B0F860600068BF
:105AC000C569D0F800A0D0F80880D4F88C1022293D
:105AD00005D0816941F008018161BDE8F087B4F823
