:020000040800F2
:10000000D0070020F1010008B74700082D3800088C
:10001000B547000889090008855E00080000000057
:100020000000000000000000000000003D4D00083E
:100030008B09000800000000094800083F4D000837
:100040000B0200080B0200080B0200080B0200085C
:100050000B0200080B0200080B0200080B0200084C
:100060000B0200080B0200080B0200080B0200083C
:100070000B0200080B0200080B0200080B0200082C
:100080000B020008000000000B0200080B02000831
:100090000B0200080B0200080B0200080B0200080C
:1000A000B94D0008D14D0008C54D00080B020008ED
:1000B000DD4D0008E94D0008F54D00080B02000871
:1000C0000B0200080B0200080B0200080B020008DC
:1000D0000B020008215E00080B0200080B0200085A
:1000E0000B0200080B0200080B0200080B020008BC
:1000F0000B0200080B0200080B02000800000000C1
:10010000000000000B020008000000000B020008C5
:100110000B020008000000000B0200080B020008A0
:100120000B0200080B0200080B0200080B0200087B
:100130000B02000800000000000000000B02000895
:100140000B0200080B020008000000000000000085
:10015000000000000000000000000000000000009F
:100160000000000000000000000000000B0200087A
:100170000B0200080000000000000000000000006A
:10018000000000000B02000800000000000000005A
:10019000000000000000000000000000000000005F
:1001A00000000000000000000B0200080B02000825
:1001B0000B0200080B0200080B0200080000000000
:1001C000000000000B02000800000000000000001A
:1001D0000B0200080B020008DFF810D000F01AFB39
:1001E00000480047CD670008AFF30080D00700202B
:1001F0000648804706480047FEE7FEE7FEE7FEE7C1
:10020000FEE7FEE7FEE7FEE7FEE7FEE7A94D000892
:10021000D90100082DE9F05F0546002092469B4673
:1002200088460646814640241BE02846414647460C
:10023000224600F074F953465A46C01A914110D331
:1002400011461846224600F05BF92D1A67EB0108AB
:100250004F4622460120002100F052F917EB000919
:100260004E41201EA4F10104DFDC484631462A46F7
:100270004346BDE8F09FD2B201E000F8012B491ED1
:10028000FBD270470022F6E710B513460A46044633
:100290001946FFF7F0FF204610BD2DE9FE4F81EA19
:1002A000030404F0004421F0004100944FF0000BDF
:1002B00023F0004350EA01045ED052EA03045BD00D
:1002C000C3F30A54C1F30A552C44A4F2F334019445
:1002D000A0FB0254C1F3130141F48011C3F31303D3
:1002E00043F4801301FB024400FB034E840A970A87
:1002F00044EA815447EA8357A4FB076802958D0AB4
:1003000005FB07854FEA932C04FB0C542705029D3F
:100310004FEA065847EA1637B5EB08056EEB070CAF
:10032000870E920E47EA811742EA8312A7FB020169
:10033000B6EB0B0164EB00042B0D43EA0C335E18A3
:1003400044EB1C50DA465146E7FB0201C5F31304A7
:100350004FEA0B3343EA14534FEA0432019C43EA59
:100360000603A4F10C040294009CCDE900B400F053
:100370002CF903B0BDE8F08F00200146F9E72DE924
:10038000F04D81EA030404F0004B21F000451446CF
:100390004FF0000A23F0004150EA050220D054EA51
:1003A00001021DD0C5F30A570246C5F31303C1F37A
:1003B0001300C1F30A5640F4801543F48013A7EBF1
:1003C0000608101BD64608F2FD3873EB050002D371
:1003D00008F1010801E092185B41B8F1000F03DA5F
:1003E00000200146BDE8F08D00204FF48011064644
:1003F00084460EE0171B73EB050705D3121B63EB56
:10040000050306434CEA010C49084FEA30009218F4
:100410005B4150EA0107EDD152EA030012D082EAB3
:10042000040083EA0501084305D0101BAB4106D246
:100430000122002306E000224FF0004302E06FF0AB
:10044000010253101AEB06004CEB085110EB0A00A6
:1004500041EB0B01BDE8F04D00F0A8B80EB540F23D
:10046000334102910021CDE900110A460B4600F00C
:10047000ACF803B000BD00F0004230F000400AD0FC
:10048000C10D01F56071C0F3160042EA0151C208C6
:1004900040071143704700200146704701F00043B8
:1004A00030B421F0004150EA010206D00A0DA2F555
:1004B0006072C1F31301002A02DC30BC00207047D7
:1004C000440F44EAC104C100E01830BC00EBC25044
:1004D00000F035B830B50B4601460020202201243B
:1004E00009E021FA02F59D4205D303FA02F5491B02
:1004F00004FA02F52844151EA2F10102F1DC30BD18
:10050000202A04DB203A00FA02F1002070479140D3
:10051000C2F1200320FA03F3194390407047202AC8
:1005200004DB203A21FA02F00021704721FA02F39D
:10053000D040C2F12002914008431946704700297B
:10054000A8BF7047401C490008BF20F00100704759
:1005500010B4B0FA80FC00FA0CF050EA010404BFB9
:1005600010BC704749B1CCF1200421FA04F411FA0F
:100570000CF118BF012121430843A3EB0C01CB1D53
:100580004FEA00614FEA102042BF002010BC7047C4
:1005900000EBC35010440029A4BF10BC7047401C9E
:1005A000490008BF20F0010010BC704710B5141EB0
:1005B00073F1000408DA401C41F1000192185B411C
:1005C0001A4301D120F0010010BD2DE9F04D9246F3
:1005D0009B4611B1B1FA81F202E0B0FA80F220320A
:1005E0009046FFF78DFF04460F4640EA0A0041EAB5
:1005F0000B0153465A46084313D0114653EA0100F3
:1006000019D0C8F140025046FFF789FF05460E4653
:10061000504659464246FFF773FF084305D0012074
:1006200004E020463946BDE8F08D0020054346EA47
:10063000E0762C4337430A986305E40AA0EB0800F0
:100640000022FD0A44EA47540A3002D50020014640
:10065000E9E7010510196941DDE90845001969411B
:10066000BDE8F04DA2E72DE9FE4F804681EA030088
:10067000C00F0C46009021F0004123F00045B8EB7C
:100680000200A94105D24046214690461C460B4631
:10069000024623F00040104347D0270DC7F30A005D
:1006A000C3F30A510290401A019040286BDAC3F359
:1006B000130040F4801B0098924620B10023D2EB37
:1006C000030A63EB0B0B01985946C0F140025046F8
:1006D000FFF716FF06460D4650465946019A00F0B0
:1006E000ABF810EB08006141002487EA115284EA5C
:1006F000E7731A4340D0009A62B3019A012A4FEA85
:10070000075215DC001B61EB02014FF0004202EAC8
:100710000752CDE90042001C41F5801132462B46BC
:10072000FFF753FF03B0BDE8F08F40462146F9E7DD
:10073000001B61EB0201001C41F5801300185B41B6
:100740002018A2F5001747EB030140EAD570B6194F
:100750006D4111E06D084FEA360645EAC0754FEA73
:100760000752001B61EB0201001C41F58011490892
:100770004FEA30000019514132462B4603B0BDE824
:10078000F04FFFF713BF0098012240000023D0EB89
:10079000020263EBE073009821464FEAE074B8EB85
:1007A000000061EB0401E9E783F000435BE781F0BF
:1007B000004158E7C1F30A52C1F3130140F2FF337D
:1007C00041F480119A4202DA00200146704740F25B
:1007D00033439A42A2F2334202DC5242FFF79FBEF9
:1007E000FFF78EBE30B5041E71F1000404DB4FF03C
:1007F0000044404264EB0101141E73F1000405DB68
:100800001C464FF00043524263EB0403994208BF79
:10081000904230BD064C074D06E0E06840F0010311
:1008200094E8070098471034AC42F6D3FFF7D8FCA1
:10083000F87A0008187B0008202A06DBCB17203A3C
:1008400041FA02F043EAE07306E041FA02F3D040D5
:10085000C2F12002914008431946704770B5044622
:10086000006881688268C1F3400112F0010F28D04E
:1008700039BB816801F00D01012914D18168124A48
:100880001140891C816021680320086000F0CEFEC1
:10089000054612E000F0CAFE401B02280DD9206870
:1008A0008068C00709D0E06D40F01000E065206E60
:1008B00040F001002066012070BD20688068C007FC
:1008C000E8D1002070BD0000C0FFFF7FF8B50446EE
:1008D000002000902068816811F0010F41D18168EB
:1008E000214A11422ED18168D5432940491C81609B
:1008F0001E48806800F0E07000020DD51C481D49BC
:100900000068B0FBF1F0401C00EB4000800000E00C
:10091000401E00900028FBD100F088FE06461BE038
:10092000816811F0010F03D181682940491C816061
:1009300000F07CFE801B02280ED920680068C043AE
:10094000C00709D0E06D40F01000E065206E40F077
:10095000010020660120F8BD20680168C943C9076D
:10096000DED10020F8BD00003F00008000030050F1
:1009700044000020400D030010B504F055F9014972
:10098000C86210BD00000020FEE77047002240F65C
:10099000B83306E00021491C89B29942FBD3521CAE
:1009A00092B28242F6D3704772B6FEE7F8B50026DF
:1009B0000446009690F858000D4601280BD00120FF
:1009C00084F858002046FFF749FF0100E06D04D08D
:1009D00040F010002AE00220F8BD20F4885040F0DA
:1009E0000200E06520688268134B1A4005F08043DE
:1009F0001A4342F000428260104A20680EE0009BD9
:100A00005B1C0093934209D3E06D20F0020040F09C
:100A10001000E06584F858600120F8BD8368DB0FA2
:100A2000EDD1E06D20F0020040F00100E06584F8B7
:100A300058600846F8BD0000C0FFFF3F02DE04001A
:100A40002DE9F84F00270446009790F85800DFF88A
:100A5000E0930D46B846012811D0012684F858606D
:100A6000206803F0B9FB60B1E06D40F02000E06564
:100A70005FF0010784F858803846BDE8F88F0220FF
:100A8000FBE7D5E900210C23206803EA9113184401
:100A9000036B01F01F014FF01F0C0CFA01FCC2F3B5
:100AA000846223EA0C038A4013430363206803F043
:100AB00093FB8246206803F08BFB5AEA00003CD18E
:100AC000AA6829682068B2F1004F37D003F090FB84
:100AD0002068416921F00041416120686969C2686C
:100AE000C2F3C102520091402A69042A31D000EBBE
:100AF00082002B68026EDFF83CC303F0F84302EA81
:100B00000C020B431A4342F00041016620682A6937
:100B1000A96900EB8200026E22F080720A4302662D
:100B2000297F22682869012910D0002102EB80006A
:100B3000026E22F000720A4302667DE0002203F09A
:100B400057FB2068416941F00041C5E74FF0007153
:100B5000ECE7002103F036FB400320684FF0000172
:100B600072D003F02FFB90FAA0F0B0FA80F1286861
:100B700042036ED090FAA0F0B0FA80F0814204D126
:100B800000221146206803F042FB0121206803F097
:100B900019FB400320684FF001015DD003F012FB08
:100BA00090FAA0F0B0FA80F12868420359D090FA88
:100BB000A0F0B0FA80F0814204D100220121206827
:100BC00003F025FB0221206803F0FCFA40032068B3
:100BD0004FF0020148D003F0F5FA90FAA0F0B0FA15
:100BE00080F12868420344D090FAA0F0B0FA80F077
:100BF000814204D100220221206803F008FB032176
:100C0000206803F0DFFA400320684FF0030133D07F
:100C100003F0D8FA90FAA0F0B0FA80F12868420305
:100C20002FD090FAA0F0B0FA80F0814204D10022D7
:100C30000321206803F0EBFA2068816811F0010FAE
:100C400022D0ACE000E004E003F0BCFAC0F3846121
:100C50008DE7C0F3846091E703F0B4FAC0F38461D8
:100C6000A2E7C0F38460A6E703F0ACFAC0F38461A6
:100C7000B7E7C0F38460BBE703F0A4FAC0F3846174
:100C8000CCE7C0F38460D0E72A7B296850F8B03FF6
:100C9000C1F3120C23EA0C0302F0180C664A22FA84
:100CA0000CF20A4013430360E968494577D128688C
:100CB00041031CD090FAA0F1B1FA81F1491C01F076
:100CC0001F0109294FEA403132D8002912D000BF54
:100CD00090FAA0F1B1FA81F101F1010101F01F01D7
:100CE00006FA01F609D100BFC0F3846109E0C0F340
:100CF0008461E3E7C0F38461EEE790FAA0F1B1FA12
:100D000081F101F1010101F01F0146EA816102D187
:100D1000C0F3846003E090FAA0F0B0FA80F000F134
:100D2000010000F01F0000EB400041EA005132E0FA
:100D300000290ED090FAA0F1B1FA81F101F1010180
:100D400001F01F0106FA01F606D100BFC0F384616D
:100D500006E0C0F38461F1E790FAA0F1B1FA81F105
:100D600001F1010101F01F0146EA816102D1C0F3E6
:100D7000846003E090FAA0F0B0FA80F000F1010086
:100D800000F01F002D4A00EB400002EB005041EA4A
:100D9000000141F00071AA68206803F029FA284890
:100DA0002A6802423FF466AE26488168264B01F06D
:100DB000E0719A4202D0254B9A421CD10B021AD400
:100DC0002268B2F1A04F7FF455AE826841F4000171
:100DD00022F0E0720A4382601D481E490068B0FBA1
:100DE000F1F0401C00EB4000800000E0401E00904D
:100DF0000028FBD13EE6184D184BAA4207D1CD0181
:100E000005D422689A42F5D041F0807109E0144D72
:100E1000AA42EFD14A02EDD422689A42EAD041F4C4
:100E20008001826822F0E0720A43826022E60000BC
:100E300000007F4000F0FF03FFFF0700000020FEDE
:100E40000000088000030050000021C31000C09083
:100E500044000020400D0300000052C70001005074
:100E6000000084CB0068006C70470000F8B54FF0BC
:100E7000000504002E46009502D0E06D10B107E099
:100E80000120F8BD204600F0EBF8266684F8586093
:100E900020688168C1F3407119B18168684A1140C6
:100EA000816020688168C1F3007189B98168654AF1
:100EB000114041F080518160634864490068B0FB93
:100EC000F1F04000801C00E0401E00900028FBD1A3
:100ED00020688168C1F3007141B9E16D41F01001F2
:100EE000E165216E41F001012166012503F074F9ED
:100EF000E16DC90600D430B1E06D40F01000E0654E
:100F000001252846F8BDE06D20F4807040F0020015
:100F1000E0652068806810F0010F11D14FF0A0400B
:100F200080684B4900F00100896801F00101084325
:100F300006D148486168826822F47C120A438260C4
:100F4000E168E06B627F0843A16841EA42310843EF
:100F500094F8241040EA0140012904D1218D3E4A31
:100F600002EB41410843E16A29B101F47871226B37
:100F7000014342EA01002268D168384B194001431D
:100F8000D16020680169626B21F040611143016109
:100F9000206803F01DF970BB207F94F8381080039F
:100FA00040EA41022168C86844F2020398431043B2
:100FB000C86020690028206801690AD041F48031A6
:100FC0000161206850F8C01F22696FF30D011143C1
:100FD00007E021F480310161206850F8C01F6FF3F1
:100FE0000D01016094F8400001280CD020680169CF
:100FF00021F001010161606901282068016B21F085
:101000000F0111D013E0D4E911010843D4E9131200
:101010001143084321680A6940F2FC739A43104364
:1010200040F001000861E6E7226A521E11430163A5
:10103000E06D20F0020040F00100E06561E7000093
:10104000C0FFFF5FC0FFFF7F44000020400D030092
:1010500000010050000300500000FEFF0740F0FFB9
:1010600010B598B00446142111A8FFF70BF94421DC
:101070006846FFF707F916492068884225D1C00164
:10108000009080030F90684600F0CEFB08B1FFF798
:101090008BFC1048C16C41F40051C164C16C01F477
:1010A00000511691C16C41F00101C164C06C11A9DD
:1010B00000F00100169030201190032012900020C3
:1010C00013904FF0904000F083F918B010BD00006D
:1010D00000010050001002402DE9F04104463B4859
:1010E0000F46816801F01F05A16908290FD085B15D
:1010F000052D0ED0092D0CD0806800F4604060B141
:10110000E06D40F02000E0650120BDE8F081082698
:1011100004E02068C068C007F1E7042600F086FA02
:10112000804615E0781C13D000F080FAA0EB080090
:10113000B84200D867B920680068304208D1E06D35
:1011400040F00400E065002084F858000320DCE74C
:10115000206800683042E5D0E06D40F40070E06542
:10116000206803F03DF880B1607F70B920680068A6
:1011700000070AD5E06D20F48070E065E06DC004E2
:1011800003D4E06D40F00100E065114A20684FF0A3
:10119000A041904201D10B4600E00346834210D0AB
:1011A0007DB1052D0DD0092D0BD0904200D0014608
:1011B000C968082E07D0490401D40C210160002021
:1011C000A3E7C168F5E70821F8E700000003005035
:1011D000000100502DE9F04104463848806800F0D5
:1011E0001F05206802F0F8FF18B102210846BDE88B
:1011F000F08194F8580001280CD0012084F85800A0
:101200002046FFF763FB01004FF0000304D084F891
:101210005830EBE70220EAE7E06D40F601629043C8
:1012200040F48070E065264A20684FF0A046904266
:1012300001D1374600E00746874200D01DB9E76D6F
:1012400027F48017E765E76DFF0404D5276E27F0C4
:101250000607276600E023661C27076084F85830DD
:101260002068904201D1334600E00346834215D006
:10127000A5B1052D12D0092D10D0E36D43F48013D4
:10128000E365904200D13046C0688001AED5E06D84
:1012900020F4005040F48050E065A7E7C268920156
:1012A00005D5E26D22F4005242F48052E265826874
:1012B000044B1A40121D826098E7000000030050A2
:1012C00000010050C0FFFF7F10B590F825300021CD
:1012D0000122022B03D00421C163012122E0036813
:1012E0001C6824F00E041C60836C1C6824F4807459
:1012F0001C6003681C6824F001041C6090F84430F2
:10130000046C03F01F0302FA03F36360D0E91334A3
:101310005C60436D33B11C6824F480741C60D0E9B8
:1013200016345C6080F82520002280F824200846CE
:1013300010BD70B590F82520002401212346022A13
:1013400007D00422C26380F8251080F824300124DD
:1013500029E00268156825F00E0515600268156819
:1013600025F001051560826C156825F480751560FF
:1013700090F84420056C02F01F0201FA02F26A6044
:10138000D0E913255560426D32B1156825F480759A
:101390001560D0E91625556080F8251080F82430B6
:1013A000816B01B18847204670BD000070B50446CE
:1013B00000F03CF90546601C02D004484068044433
:1013C00000F034F9401BA042FAD370BD3800002071
:1013D0002DE9F04FDFF82092002301260324A9F124
:1013E000040B85B00F2709F1040AABF1040EFAE0F3
:1013F00006FA03F52A407CD091F804C00CF0030CE7
:10140000BCF1010F02D0BCF1020F26D1D0F808C008
:10141000CDF800C04FEA430C04FA0CF8CDF810C028
:10142000DDF800C02CEA080CCDF800C0D1F80C8023
:10143000DDF810C008FA0CF8DDF800C048EA0C0826
:10144000C0F80880D0F804C02CEA050C0D79C5F36B
:1014500000159D4045EA0C0545600D79ED43AD074B
:101460000ED0C5684FEA430804FA08FC25EA0C05CB
:10147000D1F808C00CFA08FC4CEA050CC0F80CC006
:101480000D7905F00305022D16D1DD0800EB850C62
:10149000CDF808C0DCF820805D074FEAD56C07FA6C
:1014A0000CF528EA05080D6905FA0CF5DDF808C009
:1014B00045EA0805CCF8205005684FEA430CCDF802
:1014C00008C004FA0CFC25EA0C0591F804C00CF0E5
:1014D0000308DDF808C008FA0CF848EA0508C0F867
:1014E00000804D6815F4403F7CD0444DD5F860C075
:1014F00000E077E04CF0010CC5F860C02D6E23F0E1
:10150000030C05F0010500953D4D65440295AD685D
:101510004FEA837C4FEA1C7807FA08FC25EA0C05A1
:10152000B0F1904F06D0DFF8DCC0604505D14FF038
:10153000010C20E04FF0000C1DE0DFF8CCC060454E
:1015400002D14FF0020C16E0DFF8C0C0604502D1B6
:101550004FF0030C0FE0DFF8B8C0604502D14FF048
:10156000040C08E0DFF8ACC0604502D14FF0050C78
:1015700001E04FF0060C0CFA08FC4CEA050C029D49
:10158000C5F808C0D9F80050CC46D1F8048095437E
:101590005FEAC82800D51543CCF80050DAF80050AF
:1015A000D446D1F8048095435FEA882800D51543D6
:1015B000CCF80050DBF80050DC46D1F804809543AD
:1015C0005FEA883800D51543CCF80050DEF80050AB
:1015D000F446D1F8048095435FEAC83800D5154336
:1015E000CCF800505B1C0A6832FA03F57FF400AFB8
:1015F00005B0BDE8F08F0000080401400010024073
:10160000000001400004004800080048000C0048A9
:1016100000100048001400480069084000D0012074
:1016200070470AB1816170478162704701488068E4
:101630007047000038000020024881684268114469
:10164000816070473800002010B50024032000F0AE
:1016500073F80F2000F008F808B1012401E000F051
:1016600025F8204610BD000070B50E4E054600243A
:10167000706898B14FF47A71B1FBF0F00A490968CB
:10168000B1FBF0F000F0F8FE40B9102D06D20022B8
:101690002946501E00F030F8356000E00124204655
:1016A00070BD000038000020440000200A4882B0CD
:1016B000016E41F001010166016E01F0010100912E
:1016C000816D41F080518165806D00F08050009007
:1016D00002B000F0A1B8000000100240002809DBB1
:1016E00000F01F02012191404009800000F1E0203C
:1016F000C0F8001170470000F0B40E4B1B680C4698
:10170000C3F30223C3F10705042D00D90425191DD5
:10171000072901D2002300E0DB1E012606FA05F1AD
:10172000491E214099409E40761E16403143F0BC30
:1017300004F0CEBB0CED00E0064900F0070208689B
:101740004FF6FF03184040EA0220034A10430860A6
:10175000704700000CED00E00000FA052B492C4B0F
:101760000A6832214A432B4940B1B0F5007F08682E
:1017700029D020F4C06040F480602CE00868C0F3F9
:101780004120022804D051F8800F20F4807022E01C
:10179000D1F8800020F48070C1F88000086820F43F
:1017A000C06040F400700860B2FBF3F0401C00E041
:1017B000401E4A69520501D50028F9D14869400503
:1017C0000AD503207047C0F34120022806D051F803
:1017D000800F40F48070086000207047D1F88000CE
:1017E00040F48070C1F88000086820F4C06040F4C4
:1017F00000700860B2FBF3F0401C00E0401E4A6934
:101800005205DBD50028F9D1D8E7000044000020BC
:1018100040420F00007000400248816841F480415E
:1018200081607047007000402DE9F843044600686D
:1018300000269D4D00035ED5A86D0027C00008D48A
:10184000A86D40F08050A865A86D012700F0805079
:101850000090DFF85892D9F8001041F48071C9F86F
:101860000010FFF7E3FE804606E000BFFFF7DEFE54
:10187000A0EB080002282BD8D9F80000C005F5D548
:10188000D5F8900010F4407014D0216C814211D032
:10189000D5F89000D5F8901020F4407041F48031D4
:1018A000C5F89010D5F8901021F48031C5F890104B
:1018B000C5F89000C00711D0FFF7B8FE804641F28E
:1018C000883907E0FFF7B2FEA0EB0801494501D9CE
:1018D00003260BE0D5F890008007F3D5D5F89000EB
:1018E000216C20F440700843C5F890001FB1A86D2A
:1018F00020F08050A8652078C00707D0D5F8880070
:10190000616820F003000843C5F88800207880074C
:1019100007D5D5F88800A16820F00C000843C5F869
:1019200088002078400707D5D5F88800E16820F0C6
:1019300030000843C5F888002078000707D5D5F89F
:101940008800216920F0C0000843C5F8880020788D
:10195000800607D5D5F88800616920F44060084307
:10196000C5F888002078400607D5D5F88800A16919
:1019700020F440500843C5F888002078000607D5B9
:10198000D5F88800E16920F440400843C5F8880094
:101990002088C00507D5D5F88800216A20F440309A
:1019A0000843C5F888002088800507D5D5F8880049
:1019B000616A20F440200843C5F88800208840056B
:1019C0000FD5D5F88800A16A20F440100843C5F867
:1019D0008800A06AB0F5801F03D1E86840F4801049
:1019E000E860208800050FD5D5F88800E16A20F46A
:1019F00040000843C5F88800E06AB0F5800F03D1C5
:101A0000E86840F48010E8602088C0040FD5D5F85D
:101A10008800216B20F040700843C5F88800206BD7
:101A2000B0F1807F03D1E86840F48010E86020883E
:101A30004FF0006180040ED5D5F88800626B20F06D
:101A400040601043C5F88800606B884203D1E868A5
:101A500040F48010E860208840040ED5D5F8880056
:101A6000A26B20F040601043C5F88800A06B88424C
:101A700003D1E86840F48010E860208800040FD5A6
:101A8000D5F88800E16B20F040500843C5F8880085
:101A9000E06BB0F1805F03D1E86840F48030E8602B
:101AA0003046BDE8F883000000100240007000409E
:101AB0002DE9F0470E4605004FF0000725D0DFF86E
:101AC000AC81D8F8000000F00F00B0420CD2D8F87A
:101AD000001021F00F013143C8F80010D8F80000C1
:101AE00000F00F00B04210D12968614CC80741F2E4
:101AF000883A5AD06868DFF87C91032808D0022819
:101B000020682DD0400500282CDB0120BDE8F0879F
:101B100020688001F9D5E06800F00302E068C0F3B6
:101B20000310401C032A19D0534A00BFB2FBF0F047
:101B3000E268C2F306225043E268C2F34162521CDB
:101B40005200B0FBF2F0484517D9A06810F0F00F32
:101B50000CD0880711D5A86840B10EE0474AE5E7E8
:101B60008003D0E700F0B6F8484506D9A06820F019
:101B7000F00040F08000A0608027A068696820F035
:101B800003000843A060FFF751FD814606E000BF57
:101B9000FFF74CFDA0EB090151453AD8A0686968F0
:101BA00000F00C00B0EB810FF2D12868810714D54A
:101BB000400703D5A06840F4E060A06028780007E3
:101BC00005D5A06820F4605040F4E060A060A068F3
:101BD000A96820F0F000084304E0802F03D1A0683A
:101BE00020F0F000A060D8F80010404601F00F018E
:101BF000B14216D9016821F00F0131430160FFF7AE
:101C000015FD074607E000BFFFF710FDC11B51455A
:101C100001D903207AE7D8F8000000F00F00B042A5
:101C2000F2D12878400705D5A068E96820F4E06083
:101C30000843A0602878000706D5A068296920F429
:101C4000605040EAC100A06000F044F8A1680C4A6E
:101C5000C1F30311515C01F01F01C840094908603C
:101C600009480068BDE8F047FFF7FEBC00200240CD
:101C70000010024000B4C4040024F40000366E01D9
:101C8000106900084400002038000020054806497B
:101C900000688968054AC1F30221515C01F01F0107
:101CA000C84070474400002000100240206900082E
:101CB0000548064900688968054AC1F3C221515C9C
:101CC00001F01F01C840704744000020001002408E
:101CD00020690008184910B58868C0F381021748C8
:101CE000012A0BD08A68164BC2F38102022A06D061
:101CF0008A68C2F38102032A03D0002010BD18466F
:101D000010BDCA6802F00304CA68C2F30312521C71
:101D1000032C02D0B0FBF2F001E0B3FBF2F0CA6892
:101D2000C968C2F306225043C1F34161491C49000E
:101D3000B0FBF1F010BD0000001002400024F400E0
:101D400000366E012DE9F84304007AD02078F84D72
:101D5000C00747D0A868E96800F00C0001F0030153
:101D60000C2802D0082817D001E0032914D060689D
:101D7000B0F5803F17D0B0F5A02F286817D020F419
:101D800080302860286820F4802028606068E0B1F6
:101D9000FFF74CFC064614E02868800322D56068F3
:101DA0000028D2D01EE0286840F48030EDE740F4EF
:101DB00080202860F7E700BFFFF738FC801B64280D
:101DC00070D828688003F7D50CE0FFF72FFC064693
:101DD00005E000BFFFF72AFC801B6428F0D82868C4
:101DE0008003F7D4207880074CD5A868E96800F014
:101DF0000C0001F003010C2802D004280DD001E0F2
:101E000002290AD0E068002828682BD040F48070AE
:101E10002860FFF70BFC064619E02868400502D54C
:101E2000E068002891D06868217C20F0FE4040EAFC
:101E300001606860BF480068FFF716FC002800D109
:101E400020E072E1FFF7F2FB801B0228B8D8286877
:101E50004005F7D56868217C20F0FE4040EA01602B
:101E600068600FE020F480702860FFF7DFFB064613
:101E700005E000BFFFF7DAFB801B0228A0D8286826
:101E80004005F7D42078000729D560690028D5F8E7
:101E9000940013D040F00100C5F89400FFF7C6FB92
:101EA000064606E090E000BFFFF7C0FB801B02285B
:101EB00086D8D5F894008007F6D510E020F0010010
:101EC000C5F89400FFF7B2FB064604E0FFF7AEFB4F
:101ED000801B022878D8D5F894008007F6D42078A3
:101EE000400761D5A86D0026C00008D4A86D40F059
:101EF0008050A865A86D012600F0805000908E48A3
:101F00000168C90511D40168804641F480710160FF
:101F1000FFF78CFB074604E0FFF788FBC01B022895
:101F200052D8D8F80000C005F6D5A068012815D011
:101F30000528D5F8900016D020F00100C5F89000D3
:101F4000D5F8900020F00400C5F89000A06841F298
:101F50008838B8B1FFF76AFB07460EE0D5F8900065
:101F600040F00100F0E740F00400C5F89000F5E70C
:101F7000FFF75CFBC11B414526D8D5F890008007D0
:101F8000F6D50CE0FFF752FB074604E0FFF74EFBE7
:101F9000C11B414518D8D5F890008007F6D41EB172
:101FA000A86D20F08050A8652078800629D5A0690A
:101FB0000028D5F8980013D040F00100C5F898002B
:101FC000FFF734FB064606E075E000BFFFF72EFB87
:101FD000801B02286FD8D5F898008007F6D510E04E
:101FE00020F00100C5F89800FFF720FB064604E04A
:101FF000FFF71CFB801B02285DD8D5F898008007EE
:10200000F6D4E069F0B3A968C1F3810103295DD07A
:102010000228286820F08070286003D0FFF706FBB4
:1020200004464BE0FFF702FB064604E0FFF7FEFA2A
:10203000801B02283FD828688001F7D4F4E9080102
:102040006FF00F0202EB01110843218A5204490884
:1020500002EB4151A26841EA02210843217D4FF081
:102060007E42490802EB41610843217B40EAC1609E
:10207000E968324A11400843E860286840F08070FF
:10208000286000E05EE0E86840F08070E860FFF7FC
:10209000CDFA044605E000BFFFF7C8FA001B02288E
:1020A00009D828688001F7D54CE000BFFFF7BEFAD9
:1020B000001B022802D90320BDE8F88328688001AC
:1020C000F4D4E8681E490840E8603BE00128F3D0FA
:1020D000E868226A00F00301914226D1616A00F0AB
:1020E000F0020901103991421FD1A26A00F4FE41A9
:1020F000B1EB022F19D194F82C2000F07841B1EB0C
:10210000C26F12D1218E00F4C00249084905A1F521
:102110000011914209D194F8341000F0C0604908D0
:102120004906A1F1007181420CD00120C4E70000F2
:102130000010024038000020007000400C809F0119
:10214000FCFFEEFE0020B7E710B500680B464168C3
:102150000D480140080CD870C1F304245C7001F0F4
:102160003F049C70C1F34231197052B902F0D7FCA0
:10217000D870587802F0D3FC5870987802F0CFFCF1
:102180009870002010BD00003FFFFF0010B50B4607
:1021900001688968596001680969C1F30E01996095
:1021A000006801680D480140C1F305401870C1F393
:1021B00006245C7001F07F049C70890DD97052B9BF
:1021C00002F0ADFC1870587802F0A9FC58709878AD
:1021D00002F0A5FC9870002010BD00007F7F7F00FA
:1021E00070B504004FF0010040D094F8250028B9E4
:1021F000002084F82400204600F040F8022084F8F3
:1022000025002068C168C943C90630D5CA2141628A
:10221000216853204862204602F096FC10BB2068DB
:102220008169154A11408161216888696268A369E2
:10223000104322691A43104388612189E06840EA0B
:10224000014021680861204602F0A3FC50B9D4E99E
:102250000721114322686369956925F060452B4386
:10226000194391612268FF21516208B170BD0020BD
:10227000012184F8251070BDBFFF8FFB10B592B00F
:10228000044644216846FDF7FDFF10492068884256
:102290001AD14FF4002000904FF44070109068461F
:1022A000FFF7C2FA08B1FEF77FFB094850F8901F0C
:1022B00041F4004140F83819016841F4806101603F
:1022C000006800F48060119012B010BD002800403A
:1022D0000010024070B5044690F824000B46012817
:1022E0001BD0012684F82460022084F82500B2B1B6
:1022F0009878D97840EA014558781978000240EA80
:10230000413005432168CA20486221685320486251
:10231000204602F019FCD0B120E0022070BD5878B0
:10232000C10603D500F0EF000A305870D87802F0EB
:10233000FFFB0504587802F0FBFB45EA002598787E
:1023400002F0F6FB0543187845EA4035DAE708481D
:10235000054020684560204602F01BFC2268FF21F2
:10236000516208B984F82560002184F8241070BDFA
:102370003FFFFF002DE9F041044690F8240090460D
:102380000D46012811D0012784F82470022084F81A
:1023900025002168CA2048622168532048622046EF
:1023A00002F0D2FB002618B129E00220BDE8F0813E
:1023B0002068B8F1000F80694FEA406024D00028FF
:1023C00000DBEE70A8782978EA7840EA0140697865
:1023D000090241EA8251084318490840216808600F
:1023E0002068816921F480218161D5E903010843D6
:1023F00021688A6910438861204602F0CAFB22687E
:10240000FF215162A0B115E0002800DBEE702878B2
:1024100002F08EFB0304687802F08AFB43EA002393
:10242000A87802F085FB0343E87843EA8050D3E7BD
:1024300084F8257084F82460B8E700007F7F7F006F
:1024400070B504460B482168C860FFF7EFF80546F1
:102450004FF47A7607E000BFFFF7E8F8401BB04280
:1024600001D9032070BD2068C0688006F4D5002023
:1024700070BD00005F00010010B5401EB0F1807F0C
:1024800001D3012010BD4FF0E02460610F216017DF
:1024900003F01EFD0020A06107202061002010BD78
:1024A000704770477047000030B590F83C20012A13
:1024B00042D0012280F83C20CA688B6822F4407226
:1024C0001A434B6822F480621A430B6822F40062BC
:1024D0001A430B6922F480521A434B6922F40052CA
:1024E0001A430B6B22F480421A430B8B22F47022A6
:1024F00042EA0342CB6922F080521A430F4D03682F
:102500000024AB4202D00E4DAB4210D10D8D22F40F
:10251000700242EA05520D6A22F080722A434D6A27
:1025200022F000722A43C96A22F000520A435A6418
:1025300080F83C40002030BD022030BD002C01401E
:10254000003401407047704770470000F0B590F8C4
:102550003C20012A3AD0012580F83C50022280F824
:102560003D2003685A689C68194E1A4FB34201D047
:10257000BB4204D122F4700C4A6842EA0C02DFF834
:1025800058C002EA0C02D1F800C04CEA020CC3F8B1
:1025900004C00268B2420DD0B2F1804F0AD00F4B96
:1025A0009A4207D00E4B9A4204D0BA4202D00D4B49
:1025B0009A4204D1896824F080031943916080F81D
:1025C0003D50002180F83C100846F0BD0220F0BDCF
:1025D000002C0140003401408FFFFFFD000400404B
:1025E0000008004000400140704710B5040003D0CF
:1025F00094F83D0010B107E0012010BD002084F8E0
:102600003C00204600F022F8022084F83D00211D05
:10261000206802F0F5FB012084F8480084F83E00B1
:1026200084F83F0084F8400084F8410084F84200B8
:1026300084F8430084F8440084F8450084F8460098
:1026400084F8470084F83D00002010BD30B587B005
:10265000044614216846FDF715FE236800224A4906
:1026600002244FF09040B3F1804F13D0474DAB425E
:1026700030D1886D40F002008865886D114600F009
:10268000020005901D20FFF737F81D20FFF726F800
:1026900007B030BD8B6D43F001038B658B6D03F08C
:1026A00001030593CB6C43F00103CB64C96C009428
:1026B00001F001010591CDE901420121CDE903219C
:1026C0006946FEF785FE002211461C20FFF714F82C
:1026D0001C20DBE72E4DAB420ED1886D40F004008C
:1026E0008865886D002200F00400059011461E20C8
:1026F000FFF702F81E20C9E7264DAB4220D10B6E32
:1027000043F480330B660B6E03F480330593CB6C7C
:1027100043F00103CB64C96C01F001010591042170
:102720000091CDE901420921CDE903216946FEF777
:102730004FFE002211461820FEF7DEFF1820A5E705
:10274000154883420ED1086E40F400300866086ECA
:10275000002200F40030059011461920FEF7CCFF4E
:10276000192093E70D48834292D1086E40F48020EF
:102770000866086E002200F48020059011461A2099
:10278000FEF7BAFF1A2081E7001002400004004063
:102790000008004000400140004401400048014062
:1027A00090F83D10012901D001207047022180F8E6
:1027B0003D100168CA6842F00102CA600068104911
:1027C00088420ED0B0F1804F0BD00E49884208D01D
:1027D0000D49884205D00D49884202D00C498842F3
:1027E00007D181680B4A1140062906D0B1F5803F18
:1027F00003D0016841F00101016000207047000032
:10280000002C01400004004000080040003401405A
:10281000004001400700010070B5044690F83C00FC
:102820000025012814D0012684F83C60022084F899
:102830003D0022689068364B184020F47F4090603D
:10284000086870282ED010DC10F00F0F03D021E0A4
:102850004FF0020070BD4FEA2012072A1AD2DFE8BB
:1028600002F0525252524A3840002A4BC21A984241
:1028700049D009DCB0F5805F0DD0B0F5005F1CD009
:10288000B0F1101F06D13EE0102A3CD0202A3AD0E9
:10289000502A38D0012584F83D60002084F83C009F
:1028A000284670BDCB68D1E90121206802F013FBF6
:1028B0002068816841F0770109E0CB68D1E9012106
:1028C000206802F008FB2068816841F48041816043
:1028D000E1E7CA684968206802F0A8FC5021206836
:1028E00006E0CA684968206802F0E8FC60212068B8
:1028F00002F0FCFACFE7CA684968206802F096FC4B
:1029000040212068F4E7226801461046F0E7000005
:1029100088FFCEFF2000100090F83C20012A0CD048
:10292000012200F83C2F0223437050F83C3C5961CF
:102930004270002101700846704702207047000075
:102940002DE9F0410446006820490025204E214F22
:1029500088420AD120480068416A4562B6FBF1F01E
:10296000386000211C4800F007F91C4920688842A3
:102970000AD11B480068416A4562B6FBF1F07860F5
:102980000421174800F0F8F82068B0F1804F0AD110
:1029900014480068416A4562B6FBF1F0B860042152
:1029A000104800F0E9F81049206888420CD10F481F
:1029B0000168486A4D62B6FBF0F0F860BDE8F0418E
:1029C00000210A4800F0D8B8BDE8F0810044014079
:1029D00040420F009C03002070020020004801408C
:1029E000BC020020400100200040014024020020E1
:1029F0002DE9F041054690F83C0000260C460128E0
:102A000010D0012085F83C0072B1042A1CD0082A9D
:102A10002CD00C2A50D00126002085F83C003046EE
:102A2000BDE8F0810220FBE7D4E90012E3682868E2
:102A300002F00EFC2868816921F00C018161286890
:102A40008169A26811430FE0D4E90012E3682868A5
:102A500002F046FC2868816921F4406181612868A0
:102A60008169A26841EA02218161D5E72868D4E939
:102A7000002C277B036A016A21F480710162C1691D
:102A800023F4206321F0030141EA0C0121F0F00C52
:102A900039074FF420674CEA116107EA02221A4312
:102AA000C16102622868C16921F00C01C161286816
:102AB000C169A26811432BE02868D4E90021E768C6
:102AC000036AD0F820C02CF4805CC0F820C0D0F895
:102AD0001CC023F420432CF4407C4CEA012121F457
:102AE000704C4FF6FF7101EA07314FF4204741EA7D
:102AF0000C0107EA02321A43C16102622868C16907
:102B000021F44061C1612868C169A26841EA0221DB
:102B1000C16181E710B5040003D094F83D0010B105
:102B200007E0012010BD002084F83C00204600F0A2
:102B300022F8022084F83D00211D206802F060F98F
:102B4000012084F8480084F83E0084F83F0084F8AF
:102B5000400084F8410084F8420084F8430084F87F
:102B6000440084F8450084F8460084F8470084F85F
:102B70003D00002010BD704730B50446002571B1FE
:102B8000042911D0082914D00C2917D0102918D0E5
:102B900094F8430094F84720012817D114E094F8E2
:102BA0003E0094F84420F7E794F83F0094F845205D
:102BB000F2E794F8400094F84620EDE794F84100DD
:102BC000E8E794F84200E5E7012A01D0012030BD92
:102BD000022079B1042916D008291DD00C2949D02A
:102BE00010294AD084F8430084F847000C2947D0C4
:102BF00001253DE084F83E0084F844002068C26866
:102C000042F0020210E084F83F0084F8450020689A
:102C1000C26842F0040207E084F8400084F84600ED
:102C20002068C26842F00802C2600122206802F0F7
:102C300045F91649206888420ED0B0F1804F0BD07C
:102C40001349884208D01349884205D01249884266
:102C500002D01249884207D18168114A11400629E1
:102C600006D0B1F5803F03D0016841F00101016059
:102C7000284630BD84F84100B6E784F84200B3E747
:102C80002068C26842F01002CEE70000002C01402C
:102C900000040040000800400034014000400140B2
:102CA000070001002DE9F04104460068C668056987
:102CB0004FF00007A90713D5B10711D5F91E01611F
:102CC00001202077206880698007204602D0FFF726
:102CD00037FE04E000F0E0F8204600F0A2F9277784
:102CE000680716D5700714D521686FF004000861D5
:102CF000022020772068806910F4407F204602D0AF
:102D0000FFF71EFE04E000F0C7F8204600F089F946
:102D10002777280715D5300713D521686FF00800ED
:102D20000861042020772068C0698007204602D00F
:102D3000FFF706FE04E000F0AFF8204600F071F95E
:102D40002777E80616D5F00614D521686FF0100035
:102D50000861082020772068C06910F4407F204671
:102D600002D0FFF7EDFD04E000F096F8204600F0F9
:102D700058F92777E80708D0F00706D021686FF0E8
:102D800001000861204600F0CBF9280601D4A80410
:102D900008D5300606D521686FF402500861204638
:102DA000FFF77FFBE80508D5300606D521686FF4EC
:102DB000807008612046FFF773FB680608D570062F
:102DC00006D521686FF040000861204600F01AFA2D
:102DD000A80608D5B00606D521686FF02000086166
:102DE0002046FFF75FFBE80208D5F00206D5216810
:102DF0006FF4801008612046FFF7A5FBA80208D5F4
:102E0000B00206D521686FF4001008612046FFF774
:102E100099FB680208D5700206D521686FF480001E
:102E200008612046FFF790FB28020AD5300208D53A
:102E300021686FF4000008612046BDE8F041FFF70B
:102E4000D3BBBDE8F081000010B586B00446142164
:102E50006846FDF717FA0E492068884216D10D48DA
:102E6000C16C41F00101C164C06C694600F0010011
:102E70000590802000900220019000200290039095
:102E8000012004904FF09040FEF7A2FA06B010BD6A
:102E90000048014000100240704770B5044690F8A9
:102EA0003C0000260D4601280BD0012084F83C0090
:102EB0000C2A4AD007DC82B1042A20D0082A06D185
:102EC00031E0022070BD102A53D0142A63D00126AD
:102ED000002084F83C00304670BD206802F010F8F5
:102EE0002068816941F0080181612068816921F0D1
:102EF00004018161206881692A69114311E0206819
:102F000002F04CF82068816941F400618161206819
:102F1000816921F480618161206881692A6941EABF
:102F200002218161D4E7206802F080F82068C1693D
:102F300041F00801C1612068C16921F00401C1614B
:102F40002068C1692A69114311E0206802F0B6F8CF
:102F50002068C16941F40061C1612068C16921F440
:102F60008061C1612068C1692A6941EA0221C161A9
:102F7000AEE7206802F0EAF82068016D41F0080130
:102F800001652068016D21F0040101652068016D73
:102F90002A69114311E0206802F010F92068016DE0
:102FA00041F4006101652068016D21F480610165D3
:102FB0002068016D2A6941EA0221016588E710B5A0
:102FC000040003D094F83D0010B107E0012010BDCB
:102FD000002084F83C00204600F022F8022084F80B
:102FE0003D00211D206801F00BFF012084F84800FE
:102FF00084F83E0084F83F0084F8400084F84100E3
:1030000084F8420084F8430084F8440084F84500C2
:1030100084F8460084F8470084F83D00002010BD85
:103020007047704730B50446022269B1042912D0B6
:10303000082917D00C291CD0102921D094F843005E
:10304000012824D0012030BD94F83E000128F9D198
:1030500084F83E201DE094F83F000128F2D184F866
:103060003F2016E094F840000128EBD184F840207E
:103070000FE094F841000128E4D184F8412008E0F1
:1030800094F842000128DDD184F8422001E084F860
:1030900043200122206801F011FF194B20681949D3
:1030A000194A984209D0884207D0904205D0174D5E
:1030B000A84202D0164DA84203D1456C45F4004504
:1030C0004564206898420CD0B0F1804F09D0114B74
:1030D000984206D0104B984203D0884201D09042CB
:1030E00007D181680D4A1140062906D0B1F5803F0D
:1030F00003D0016841F001010160002030BD0000F3
:10310000002C0140003401400040014000440140D7
:103110000048014000040040000800400700010092
:10312000F8B500683449884251D1344C0121204619
:10313000FEF772FA8DF8000002212046FEF76CFAC5
:103140008DF8010004212046FEF766FA8DF8020092
:1031500001214FF09040FEF75FFA8DF80300284EF2
:1031600000200125321DA2F10C01EC46A6F1040E4F
:10317000044601F11C0300BF1CF800703754002FF7
:103180000F5C10D0022F23D0175CEFB11EF8007037
:103190007F1CFFB20EF80070142F15D3184F08379C
:1031A0003D54145410E027B1012F06D0022F06D051
:1031B0000AE00D5423F8104006E002270F5433F8BC
:1031C00010707F1C23F81070401C0428D4DBF8BD5D
:1031D00033F81070322F0CD2175C97F00107175498
:1031E00002D00EF8004002E0054F0C373D540C545D
:1031F000EAE7034F1037F9E70008004000040048F1
:1032000056000020704790F88410012918D0012141
:1032100080F884102421C0F8881001680A680B68BF
:1032200023F001030B6022F0005100224266036884
:1032300019602021C0F8881080F88420104670475B
:10324000022070477047704770B5044690F88400BC
:1032500001281DD0012084F884002420C4F88800AF
:1032600020680568026822F0010202602068826816
:1032700022F060620A438260204602F04DF8206826
:1032800005602020C4F88800002084F8840070BD08
:10329000022070BD70B5044690F8840001281DD04E
:1032A000012084F884002420C4F888002068056880
:1032B000026822F0010202602068826822F0604207
:1032C0000A438260204602F027F82068056020202B
:1032D000C4F88800002084F8840070BD022070BD0E
:1032E00070477047704700002DE9F04103680446BD
:1032F000D86919689A6840F60F0528424FF0000512
:103300004FF002060AD187067ED501F0200702F0B1
:10331000805C57EA0C0777D0616F3AE1B24FDFF873
:10332000CCC2174001EA0C0C57EA0C0C6CD05FEAD7
:10333000C07C0CD05FEAC15C09D54FF0010CC3F82A
:1033400020C0D4F8903043F00103C4F890308307D4
:1033500009D5D30707D023681E62D4F8903043F014
:103360000403C4F8903043070AD5D30708D0266871
:1033700004233362D4F8903043F00203C4F8903051
:1033800003070CD501F020033B4308D0266808232F
:103390003362D4F8903043F00803C4F8903003054A
:1033A0000BD54B0109D526684FF400633362D4F87E
:1033B000903043F02003C4F89030D4F89030002BC4
:1033C0003DD0800609D501F0200002F0805108436D
:1033D00003D0616F09B120468847D4F89000216876
:1033E0008968490602D410F0280F2AD0204602F03E
:1033F00079F82068806840061ED52068083050E8BB
:10340000001F21F0400100E021E040E80012002A06
:10341000F3D1D4F8800078B175498163D4F8800085
:10342000FDF787FF00280AD0D4F88000816B00E008
:103430002046BDE8F04108472046FFF753FFBDE8AE
:10344000F0812046FFF74EFFC4F89050F7E7D4F81C
:103450006CC02027BCF1010F7ED15FEAC06C7BD528
:103460005FEAC16C78D51020186220688068400639
:1034700045D5D4F88010086840680004000CDED000
:10348000B4F85C208242DAD9A4F85E0008680068CB
:1034900080062CD4216851E8000F20F4807041E8A8
:1034A0000002002AF6D12068083050E8001F21F001
:1034B000010140E80012002AF5D12068083050E8E8
:1034C000001F21F0400140E80012002AF5D1C4F8A5
:1034D0008C70E566206850E8001F21F0100140E87C
:1034E0000012002AF6D1D4F88000FDF7EDFE266721
:1034F000B4F85C00B4F85E10401A81B230E0B4F861
:103500005C00B4F85E10401A81B2B4F85E00002886
:1035100095D0002993D0226852E8000F20F49070D3
:1035200042E80003002BF6D12F4BDB432068083024
:1035300050E8002F1A4040E8002CBCF1000FF5D1F4
:10354000C4F88C70E5666567226852E8000F20F0C9
:10355000100042E8000300E006E0002BF4D12667EB
:103560002046FFF76FFE6AE7C60209D5560207D567
:103570004FF4801018622046BDE8F041FFF7B1BE5D
:1035800003060AD501F0800302F40002134304D0BD
:10359000A16F00297FF44CAF51E7420611D54A06CE
:1035A0000FD52046026852E8001F21F0400142E892
:1035B0000013002BF6D1C0F88870856700F035F94C
:1035C0003DE7020206D54A0004D52046BDE8F04199
:1035D000FFF786BEC001C6D50029C4DA2046BDE883
:1035E000F041FFF730BE0000010000102001000490
:1035F000D154000810B5040003D0D4F8880010B1ED
:1036000007E0012010BD002084F88400204600F06F
:1036100027F82420C4F888002068016821F00101FF
:103620000160A06A10B1204601F098FE204602F029
:10363000EBF90128E6D02068416821F4904141600F
:103640002068816821F02A0181602068016841F0CA
:10365000010101602046BDE8104001F0E3BE00001A
:1036600010B598B00446142111A8FCF70BFE4421B4
:103670006846FCF707FE1B492068884230D10120CC
:103680000024CDE900046846FEF7CEF808B1FDF746
:103690008BF91548016E41F480410166016E01F419
:1036A00080411691C16C41F00101C164C06C11A947
:1036B00000F0010016904FF4C06011900220CDE997
:1036C00012040720CDE914404FF09040FDF780FE32
:1036D000002211462520FEF70FF82520FDF7FEFFFA
:1036E00018B010BD003801400010024030B4D0F8CE
:1036F0008C30202B02D0022030BC7047A9B1A2B17F
:103700000023C3660A4C0368A3420BD05B681B020C
:1037100008D5046854E8003F43F0806344E800356E
:10372000002DF6D130BC02F0A9BA0120E4E7000078
:103730000080004030B40E4A0168914215D10D4915
:1037400000230A781D2A07D20B4C4D78A554521C31
:10375000D2B20A70A35402E00B7001224A600549FC
:10376000012230BC491CFFF7C1BF30BC70470000CC
:103770000038014074000020AC0300202DE9F8431C
:103780000446D0F88800984616460D46202802D0F8
:103790000220BDE8F883A5B19EB10020C4F89000D6
:1037A0002120C4F888001834FDF740FFA687814621
:1037B000E68754F8100C2027183CB0F5805F02D043
:1037C00003E00120E5E7206910B12E46002510E056
:1037D00000260EE08021204602F0D8FAC0B9DEB102
:1037E00016F8010B21688862B4F85600401EA4F850
:1037F0005600B4F856004B464FF00002CDF800805A
:103800000028E7D14FF04001204602F0BFFA40B156
:10381000C4F888700320BCE735F8020BC0F3080039
:10382000E0E7C4F888700020B3E77047FEE770B5A2
:103830000824002501F04AFA13E06806050E00206E
:1038400001F02CFA142002F0ADFF142002F0AAFFC0
:10385000012001F023FA142002F0A4FF01F02AFA5B
:103860000543641EE4B2E8D2002001F017FA1420E8
:1038700002F098FF01F04CFA284670BD10B5002008
:1038800001F03AFA142002F08DFF142002F08AFFB2
:10389000012001F003FA142002F084FF002001F05F
:1038A000FDF9BDE81040142002F07CBF70B504465D
:1038B000082516E001F0F2F9142002F073FF04F07D
:1038C000800001F019FA142002F06CFF6006040E6B
:1038D000142002F067FF012001F0E0F9142002F04B
:1038E00061FF6D1EEDB24FF00000E3D201F0D6F99A
:1038F000BDE87040142002F055BF10B5012001F062
:10390000FBF9142002F04EFF142002F04BFF0120BF
:1039100001F0C4F9142002F045FF002001F0BEF9C7
:10392000BDE81040142002F03DBF10B5012001F0A9
:10393000E3F9142002F036FF012001F0AFF9142062
:1039400002F030FF002001F0D7F9142002F02AFF26
:10395000002001F0A3F9BDE81040142002F022BFBE
:1039600010B5002001F09AF9142002F01BFF00208E
:1039700001F0C2F9142002F015FF012001F08EF9C8
:10398000142002F00FFF012001F0B6F9BDE810404D
:10399000142002F007BF10B5052401F097F9142098
:1039A00002F000FF012001F079F9142002F0FAFE84
:1039B00005E0641EA4B2142002F0F4FE6CB101F024
:1039C00079F90028F5D101F0A3F9002001F066F99A
:1039D000142002F0E7FE002010BD01F099F9FFF776
:1039E000BFFF012010BD70B515460E460446FFF717
:1039F0009CFFA020FFF75AFFFFF7CDFF3046FFF7EF
:103A000055FFFFF7C8FFFFF790FFA120FFF74EFF1C
:103A1000FFF7C1FF09E0FFF70AFF04F8010B15B13A
:103A2000FFF72CFF01E0FFF768FF6D1EEDB2F2D249
:103A3000BDE87040FFF794BF70B515460E460446CA
:103A4000FFF773FFA020FFF731FFFFF7A4FF304619
:103A500002E000BF14F8010BFFF728FFFFF79BFF00
:103A60006D1EEDB2F6D2FFF77BFFBDE870404FF45C
:103A7000FA7002F097BE00002DE9F0412E4801686F
:103A80002E4C226A891A322954D3006820622C4EA7
:103A9000012500273078012816D1207890F0010008
:103AA00020700DD1E27862702179521EA17005FA62
:103AB00002F0491E05FA01F2217A104308402072F3
:103AC000002000F06DF837707078012813D120784D
:103AD00080B1E078401CC0B2E070082800D9E570E1
:103AE000E0782179884205D1401CC0B2E0700828F6
:103AF00000D9E5707770B078012813D1207880B1B3
:103B00002079401CC0B22071082800D92571207985
:103B1000E178884205D1401CC0B22071082800D944
:103B20002571B770F078012804D1E07980F00100A8
:103B3000E071F770BDE8F081400000200000002037
:103B40005E00002000B585B014216846FCF79AFBA2
:103B50004FF6FF70009000200321CDE90201019093
:103B600069460248FDF734FC05B000BD0008004876
:103B700000B585B014216846FCF784FB4FF6FF7052
:103B800000900120019003200390002002906946DC
:103B90000248FDF71DFC05B000BD0000000800480C
:103BA00070B5002406462146204600F001FA00F0D8
:103BB0003FFA4FF49635304600F00EFA641CAC42E2
:103BC000F9D370BD30B587B014216846FCF75AFBB5
:103BD0001E48C16C41F00401C164C16C01F00401D4
:103BE0000591C16C41F00101C164C16C01F001019A
:103BF0000591C16C41F00201C164C06C012500F067
:103C0000020005904FF44870CDE9000500240394AC
:103C1000694602940E48FDF7DBFB280203940090EE
:103C2000CDE901544FF0904469462046FDF7D0FBA2
:103C3000FFF79EFFA06940F48070A061044818302F
:103C4000016841F40871016007B030BD0010024006
:103C500000040048203AD2B2034B02EB420203EBCD
:103C6000021200F019B800002869000870B5154666
:103C70000C460646B1F5A07F09D340F23F1406E09A
:103C800021463046FFF7E6FF103CA4B26D1C2A78AF
:103C9000002AF5D170BD00002DE9F04791468A4613
:103CA0000026044600F084F9DFF84080012700BFB9
:103CB00000F0BEF95FF0000539F8160007FA05F1CB
:103CC0000842404601D1408800E0008800F084F9B5
:103CD0006D1C102DF0D3641CE4B25146204600F058
:103CE00067F9761C182EE3D3BDE8F0874800002062
:103CF00010B5FFF767FF002000F012F9084CA08014
:103D0000A088A0F50241303906D000F007FE00205F
:103D100000F006F9A08010BD00F077FDF7E7000085
:103D20004800002070B563480168634C626A891AD4
:103D300064297DD30068606204F12C05688800F076
:103D400093FF51EC100BFCF7A9FB2063288800F0CF
:103D50008BFF51EC100BFCF7A1FB00EE100A57494A
:103D600084ED0D0A0123088980B2608189898AB2B5
:103D7000A281D4ED0C0A0021F4EEC00AF1EE10FA93
:103D800001DD637100E06171904201D9A37100E02F
:103D9000A171E179B1B30021494800F00DFD21780E
:103DA0004FF6FF704FF4807571B300F00DF91521D7
:103DB0004448FCF767FA44A1424802F075F8414ACA
:103DC00029463020FFF752FF15213E48FCF75AFAEA
:103DD000E2783FA13B4802F067F83A4A2946602062
:103DE000FFF744FF15213748FCF74CFA22793BA135
:103DF000344802F059F8334A29467820BDE870402B
:103E0000FFF734BF0246C6E700F0DEF815212D4863
:103E1000FCF738FA34A12B4802F046F8294A294623
:103E20003020FFF723FF15212648FCF72BFA00E08E
:103E30003EE0206BFCF71FFB41EC100B2CA153EC78
:103E4000102B204802F030F81E4A29466020FFF768
:103E50000DFF15211B48FCF715FA606BFCF70BFBF7
:103E600041EC100B25A153EC102B164802F01CF866
:103E7000144A29467820FFF7F9FE15211148FCF76E
:103E800001FA628920A10F4802F00EF80D4A294676
:103E90009020FFF7EBFE15210A48FCF7F3F9A28901
:103EA0001CA1084802F000F8064A2946A820A5E708
:103EB00070BD000040000020000000209C03002096
:103EC000BC020020940000205041524120200000FC
:103ED00056443A4C442564202000000046443A4CA5
:103EE000442564202000000044415441202000006B
:103EF00056313A252E3166562020000056323A259A
:103F00002E3166562020000046313A2564487A203A
:103F10002000000046323A2564487A202000000044
:103F200070B51D490A6842F400720A600A6842F4DA
:103F300080720A60184C103C226842F02002226015
:103F4000164A1060086840F02000086000BF00BFFB
:103F500000BF206840F020002060206840F480709E
:103F60002060FFF7EFFD4FF09041886A40F48070C9
:103F7000886200BF00BF00BF0848001F006885B20C
:103F8000886940F480708861FFF7F2FD206840F492
:103F900000702060284670BD2804004814080048BE
:103FA00001B5BDF800000149488008BD4800002067
:103FB00010B50C460146202000F068F82146BDE807
:103FC0001040212000F062B801B5BDF800000149A1
:103FD000088008BD48000020134A116841F40071B0
:103FE0001160114910390B6843F480730B600B6842
:103FF00043F020030B600D4B1860106840F0200068
:10400000106000BF00BF00BF086840F020000860DB
:10401000086840F48070086000BF00BF00BF0868F7
:1040200040F40070086070472804004814080048F5
:104030001449086840F400700860086840F4807013
:10404000086010481038026842F0200202600E4BEF
:1040500022221A600A6842F020020A6000BF00BFF4
:1040600000BF016841F020010160016841F48071E6
:10407000016000BF00BF00BF016841F40071016032
:10408000704700002804004814080048184B10B579
:104090001A6842F400721A601A6842F480721A6058
:1040A000134A103A146844F020041460114C206044
:1040B000186840F02000186000BF00BF00BF106803
:1040C00040F020001060106840F4807010602160A3
:1040D000186840F02000186000BF00BF00BF1068E3
:1040E00040F020001060106840F48070106010BD37
:1040F000280400481408004870B50D4D04460122FC
:1041000004212846FDF78DFA0A4E01224FF6FF7171
:104110003046FDF786FA210200223046FDF781FA8B
:104120002846BDE8704000220421FDF77ABA00005D
:10413000000C00480008004810B5094C0122042179
:104140002046FDF76EFA01224FF6FF710548FDF794
:1041500068FA20460022BDE810400421FDF761BA4C
:10416000000C004800080048144830B402681449A4
:10417000CB69D21AC82A1ED30068C8610C46012236
:1041800063784D795B1E02FA03F0A3785B1E9A40B8
:10419000237A0DB1034300E013400B728B791BB1FE
:1041A000087A02430A7202E00A7A10400872087A1A
:1041B00030BCFFF7A1BF30BC7047000040000020BA
:1041C0000000002000EB8100006E00F0F840704716
:1041D0008068C0F3C00070478068C0F380007047FB
:1041E000C06810F4406F01D0002070470120704774
:1041F000042303EAD15310B518444369C1F30451B1
:1042000007248C40A3438A401343436110BD00EB55
:104210008100016E21F000411143016670470000EA
:1042200030B589B020216846FCF72CF81F481E499C
:10423000002401604902C0E90114042585610121BF
:10424000C460C0E90441047744770221016280F828
:104250002440C462046380F83840C46380F840405E
:10426000FCF704FE08B1FCF79FFB11480090062004
:104270000190072002907F200594CDE9030569464F
:104280000A48FCF7DDFB08B1FCF78EFB09480090FB
:104290000C20019069460548FCF7D2FB002801D0AC
:1042A000FCF782FB09B030BD00010050AC000020DB
:1042B00000209036000052472DE9F04387B01421CA
:1042C0006846FBF7DFFF4348C16C41F00401C1645D
:1042D000C16C01F004010591C16C41F02001C16481
:1042E000C16C01F020010591C16C41F00101C16474
:1042F000C16C01F001010591C16C41F00201C16482
:10430000C16C01F002010591C16C41F00801C1646A
:10431000C06C314E00F008004FF47F44059001223C
:1043200021463046FDF77DF94FF0904700220821E5
:104330003846FDF776F9DFF8A480002204214046D4
:10434000FDF76FF9DFF898900022C0214846FDF78D
:1043500068F90125CDE900450024029469463046FC
:104360000394FDF735F8CDE90054694638460295C7
:10437000FDF72EF808200090CDE901546946384633
:104380000394FDF725F807208DE83100694648467B
:10439000FDF71EF804200090CDE90154694640461F
:1043A0000394FDF715F840200090CDE901546946CB
:1043B00048460394FDF70CF88020CDE90005022063
:1043C000CDE9024069464846FDF702F807B0BDE86E
:1043D000F08300000010024000080048000C004874
:1043E0000004004810B586B014216846FBF74AFF68
:1043F000214800241F490594C0E900147D218160F3
:1044000041F27071C0E903144FF080414461C0E98A
:1044100006410462FDF7E4FE08B1FCF7C5FA23206B
:104420008DF8000059208DF8010055208DF802000C
:1044300001940394012269460F480494FDF79AFF02
:1044400008B1FCF7B1FA05208DF8140003208DF8AF
:10445000150001208DF8160024208DF81700012288
:1044600005A90548FDF736FF002801D0FCF79CFAA6
:1044700006B010BD002800401801002010B58CB017
:1044800000240594224804940694079408940A94FE
:1044900009940094019402941C49039401604F21F3
:1044A000C0E901144FF6FF71C0E90314446184614F
:1044B000FEF79BF808B1FCF777FA4FF480500490B0
:1044C00004A91348FEF7A8F908B1FCF76DFA1048E3
:1044D000FEF720FB08B1FCF767FA089408A90C481E
:1044E0000A94FEF733F808B1FCF75EFA0120CDE933
:1044F000004002940022694605480394FEF778FACA
:10450000002801D0FCF750FA0CB010BD004001406B
:10451000240200200C4810B50A4901604F21416077
:1045200000214FF6FF72C0E9021201614161816111
:10453000FEF75BF8002803D0BDE81040FCF734BA62
:1045400010BD0000004401407002002010B594B07E
:104550001C210DA8FBF796FE34216846FBF792FE5E
:1045600020481F490024016040F21F31C0E90114B6
:104570006421C0E9031444618461FEF736F808B190
:10458000FCF712FA1748FEF71AFD08B1FCF70CFA0F
:1045900060200D903220CDE90E04109411941294F5
:1045A00000220DA90F481394FEF777FC08B1FCF721
:1045B000FBF900944FF40050CDE9044001940294BB
:1045C00003940694694607480C94FDF76DFF08B103
:1045D000FCF7EAF90348FEF737FC14B010BD000001
:1045E00000480140BC02002010B58CB000240594A6
:1045F000214804940694079408940A94099400941A
:10460000019402944FF08041039401604F21C0E96E
:1046100001144FF6FF71C0E903148461FDF7E5FF53
:1046200008B1FCF7C1F94FF48050049004A9124876
:10463000FEF7F2F808B1FCF7B7F90F48FEF76AFA8F
:1046400008B1FCF7B1F9089408A90B480A94FDF7E2
:104650007DFF08B1FCF7A8F90120CDE900400294E4
:104660000422694604480394FEF7C2F9002801D0E9
:10467000FCF79AF90CB010BD4001002010B588B0CD
:104680000024174800940194029403940494059420
:104690001249069401604F21C0E901144FF6FF71E1
:1046A000C0E903148461FDF7A0FF08B1FCF77CF9B1
:1046B0004FF48050009069460948FEF7ADF808B104
:1046C000FCF772F9049404A905480694FDF73EFF2F
:1046D000002801D0FCF768F908B010BD00040040C4
:1046E0008C01002010B588B0002417480094019474
:1046F00002940394049405941249069401604F2196
:10470000C0E9011442F20F71C0E903148461FDF79E
:104710006CFF08B1FCF748F94FF4805000906946EF
:104720000948FEF779F808B1FCF73EF9049404A9AA
:1047300005480694FDF70AFF002801D0FCF734F97C
:1047400008B010BD00080040D8010020184810B57E
:10475000164901604FF416514160002181600C221E
:10476000C160C0E904128161C1610162416281627C
:10477000FEF740FF08B1FCF717F900210C48FEF7DF
:1047800089FD08B1FCF710F900210948FEF75CFD2E
:1047900008B1FCF709F90648FEF735FD002803D0FB
:1047A000BDE81040FCF700B910BD00000038014022
:1047B00008030020FEE7FEE770B5044611480D46E9
:1047C000B0FBF2F62168CB6A5B1CB6FBF3F35B1E11
:1047D0008B625B1CB0FBF3F1B1FBF2F12668491E62
:1047E000F162B0FBF3F0B0FBF2F0401EE06001219B
:1047F0002046FEF791F829462046FEF713FC0020DC
:1048000070BD000000B4C404704730B50121002021
:10481000FFF73CFC4FF47A70FCF7B8F80021012058
:10482000FFF734FC41F290711020FFF72FFC4FF49A
:104830001C516020FFF72AFC01216120FFF726FCB4
:1048400002214620FFF722FC48F210011320FFF757
:104850001DFC48F2FE011220FFF718FC4FF4A06186
:104860000220FFF713FC41F230010320FFF70EFC9A
:1048700040F2033421463020FFF708FC2146312066
:10488000FFF704FC21463220FFF700FCE51E294615
:104890003320FFF7FBFB03213420FFF7F7FB214612
:1048A0003520FFF7F3FB14213620FFF7EFFB2146FD
:1048B0003720FFF7EBFB21463820FFF7E7FB2146C7
:1048C0003920FFF7E3FB29463A20FFF7DFFB0321FE
:1048D0003B20FFF7DBFB21463C20FFF7D7FB4FF4E3
:1048E000A0513D20FFF7D2FB4FF400719220FFF75B
:1048F000CDFB21469320FFF7C9FB40F60D01902028
:10490000FFF7C4FB41F218010320FFF7BFFBBDE82E
:10491000304040F273110720FFF7B8BB10B543F2E7
:104920000801E320FFF7B2FB1221E720FFF7AEFBFF
:1049300041F23121EF20FFF7A9FB00210120FFF711
:10494000A5FB4FF4E0610220FFF7A0FB41F230012C
:104950000320FFF79BFB00210420FFF797FB40F2A9
:1049600007210820FFF792FB00210920FFF78EFBAB
:1049700000210A20FFF78AFB00210C20FFF786FBAD
:1049800000210D20FFF782FB00210F20FFF77EFBA7
:1049900000211020FFF77AFB07211120FFF776FB9B
:1049A00000211220FFF772FB00211320FFF76EFB9E
:1049B000C820FCF7FBFC41F290611020FFF766FB7A
:1049C00040F227211120FFF761FB3220FCF7EEFCBB
:1049D0001D211220FFF75AFB3220FCF7E7FC4FF4B1
:1049E00000611320FFF752FB14212920FFF74EFB33
:1049F0000B212B20FFF74AFB3220FCF7D7FC0021CC
:104A00002020FFF743FB00212120FFF73FFB072178
:104A10003020FFF73BFB40F207713120FFF736FBF8
:104A200006213220FFF732FB40F204713520FFF7F8
:104A30002DFB41F604713620FFF728FB04213720B7
:104A4000FFF724FB00213820FFF720FB40F206711E
:104A50003920FFF71BFB40F201713C20FFF716FBEA
:104A60000F213D20FFF712FB00215020FFF70EFB26
:104A7000EF215120FFF70AFB00215220FFF706FB30
:104A800040F23F115320FFF701FB4FF41C5160200F
:104A9000FFF7FCFA01216120FFF7F8FA00216A20F4
:104AA000FFF7F4FA00218020FFF7F0FA00218120BF
:104AB000FFF7ECFA00218220FFF7E8FA00218320BB
:104AC000FFF7E4FA00218420FFF7E0FA00218520B7
:104AD000FFF7DCFA10219020FFF7D8FA002192208E
:104AE000FFF7D4FA03219320FFF7D0FA4FF488712F
:104AF0009520FFF7CBFA00219720FFF7C7FA002196
:104B00009820FFF7C3FA41F218010320FFF7BEFA1D
:104B1000BDE8104040F273110720FFF7B7BA010952
:104B200001EB810100F00F0000EB4100C0B27047C3
:104B30000022014602E00A39C9B2521C0A29FAD2FF
:104B4000100741EA106070472DE9F0410446006803
:104B50000025C168490619D4C16841F08001C160CF
:104B6000FCF764FD06464FF47A78032708E000BF9F
:104B7000FCF75CFD801B404502D9032584F82570B5
:104B80002068C068400601D4032DF1D12846BDE855
:104B9000F08170B5044600680025C16821F08001ED
:104BA000C160206881694FF00306890607D420465A
:104BB000FDF746FC98B184F8256003250FE0816974
:104BC00021F0200181612046FDF73AFC10B184F804
:104BD000256003252068816941F020018161284614
:104BE00070BD00000C4810B502680C498B6AD21ADF
:104BF000B2F57A7F0ED3006888620022084909481E
:104C0000FDF7C4FA05490022BDE8104016310548F9
:104C1000FDF79ABA10BD00004000002000000020FF
:104C2000800000201801002070B50E48FCF7D2FA71
:104C30004FF0FF3529460B48FCF74EFA0948FCF7C0
:104C400011F960F30F040748FCF7C4FA2946054838
:104C5000FCF742FA0348FCF705F90146204661F3E8
:104C60001F4070BDAC00002010B5FBF7F7FB9FEDB7
:104C7000071B53EC112BFBF710FB9FED061B53ECAE
:104C8000112BFBF70AFB41EC100B10BD6666666644
:104C900066660A40000000000000303F08B104488A
:104CA00001E003481030016841F0400101607047A5
:104CB0001804004810B580210348FCF7ADFC01281A
:104CC00000D0002010BD00000004004800B585B0F1
:104CD00014216846FBF7D6FA80200090002001904E
:104CE000012002900220039069460248FCF770FB05
:104CF00005B000BD0004004808B1044801E00348C5
:104D00001030016841F080010160704718040048CC
:104D100000B585B014216846FBF7B4FA80200090F6
:104D20001120019000200290022003906946024861
:104D3000FCF74EFB05B000BD000400487047FCF7CF
:104D40007BBC10B594B038216846FBF79BFA142160
:104D50000EA8FBF797FA4FF40070FCF7FFFC012058
:104D600000900004019002200324CDE907041421DF
:104D7000CDE90A100C900D9009946846FCF7E2FF0B
:104D800008B172B6FEE70F20CDE90E0400201090A6
:104D90001190129002210EA8FCF78AFE002801D083
:104DA00072B6FEE714B010BD0248016841F470010C
:104DB0000160704788ED00E00148FDF773BF000017
:104DC000240200200148FDF76DBF0000BC02002056
:104DD0000148FDF767BF0000700200200148FDF7A1
:104DE00061BF0000400100200148FDF75BBF0000EB
:104DF0008C0100200148FDF755BF0000D8010020BC
:104E00002DE9F0430268264B264D274E274C4FF0E4
:104E10008049984207D0484505D0A84203D0B04207
:104E200001D0A04203D122F070074A683A43204FD4
:104E3000DFF880C0DFF8808098420DD048450BD065
:104E4000A84209D0B04207D0A04205D0B84203D052
:104E5000604501D0404503D122F44075CA682A4319
:104E60004D6922F080022A4302608A68C2620A68A1
:104E70008262984207D0A04205D0B84203D0604574
:104E800001D0404501D109690163012141610169F6
:104E9000C90703D0016921F001010161BDE8F08378
:104EA000002C014000040040000800400034014094
:104EB00000400140004401400048014010B501F0AD
:104EC0001F030121046A99408C430462016A9A40DD
:104ED0001143016210BD10B5846842EA032224F434
:104EE0007F440A432243826010BD00008268034B66
:104EF0001A400A4342F00701816070478FFFCFFFDD
:104F00002DE9F043056A026A22F001020262436859
:104F100082691C4C25F0020522400C6822F0030235
:104F200014438A68194E2A43174D194FDFF864C09D
:104F3000DFF86490A84207D0B04205D0B84203D051
:104F4000604501D0484506D122F00808CA6842EA07
:104F5000080222F00402A84207D0B04205D0B842AD
:104F600003D0604501D0484505D14D6923F4407315
:104F70001D438B692B43436084614968416302622E
:104F8000BDE8F0838FFFFEFF002C0140003401409C
:104F9000004001400044014000480140F0B5056A6E
:104FA000026A22F01002026242688369194C1B4EA9
:104FB00023400C6823F4407343EA042425F02003C3
:104FC0008D6843EA0513144DA84201D0B04206D1C2
:104FD000CF6823F0800343EA071323F04003A8427D
:104FE0000AD0B04208D00E4DA84205D00D4DA842BF
:104FF00002D00D4DA84207D14D6922F4406242EA29
:1050000085028D6942EA8502426084614968816354
:105010000362F0BDFF8FFFFE002C01400034014011
:10502000004001400044014000480140F0B5056ADD
:10503000026A22F4807202624368C269194C1B4EF4
:1050400022400C6822F00302144325F400728D689C
:1050500042EA0522144DA84201D0B04206D1CF68E1
:1050600022F4006242EA072222F48062A8420AD0B7
:10507000B04208D00E4DA84205D00E4DA84202D035
:105080000D4DA84207D14D6923F4405343EA05135F
:105090008D6943EA05134360C4614968C1630262D4
:1050A000F0BD00008FFFFEFF002C014000340140E6
:1050B000004001400044014000480140F0B5056A4D
:1050C000026A22F4805202624268C369194C1B4E84
:1050D00023400C6823F4407343EA042425F400536E
:1050E0008D6843EA0533144DA84201D0B04206D181
:1050F000CF6823F4004343EA073323F48043A842F4
:105100000AD0B04208D00E4DA84205D00D4DA8429D
:1051100002D00D4DA84207D14D6922F4404242EA27
:1051200085128D6942EA85124260C4614968016452
:105130000362F0BDFF8FFFFE002C014000340140F0
:1051400000400140004401400048014030B5056A7C
:10515000026A22F4803202624268036D114C2340DD
:105160000C681C4325F400330D8943EA05430E4DBA
:10517000A8420BD00D4DA84208D00D4DA84205D035
:105180000C4DA84202D00C4DA84204D14D6922F426
:10519000803242EA05224260046549688164036204
:1051A00030BD00008FFFFEFF002C014000340140A5
:1051B00000400140004401400048014030B5046A0D
:1051C000026A22F4801202624268036D114D24F4D7
:1051D00000142B400D6843EA05230D8944EA055469
:1051E0000D4DA8420BD00D4DA84208D00C4DA84241
:1051F00005D00C4DA84202D00B4DA84204D14D69F8
:1052000022F4802242EA8522426003654968C16433
:10521000046230BDFF8FFFFE002C014000340140CE
:1052200000400140004401400048014010B5036ABD
:10523000046A24F001040462846924F0F00444EA5E
:10524000021423F00A020A438461026210BD0000C6
:1052500070B5056A046A24F0010404628469124E80
:10526000B0420ED0B0F1804F0BD0104EB04208D0FB
:105270000F4EB04205D00F4EB04202D00E4EB0429B
:1052800003D124F00304144301E044F001041A079D
:1052900024F0F00444EA126225F00A0301F00A0146
:1052A00019438261016270BD002C0140000400407E
:1052B00000080040003401400040014010B5036A7E
:1052C000046A24F010040462846923F0A00324F427
:1052D000704444EA023243EA01118261016210BD66
:1052E00030B5046A056A25F010050562856925F464
:1052F000407545EA022222F470454FF6FF7202EA39
:10530000033224F0A0032A43A02404EA0111194324
:105310008261016230BD000030B5416EB9B10268F2
:1053200091689268C1F342610B4B520F9C5CE5009F
:1053300003F10804A25CB5FBF2F2A0F86A205A5C03
:10534000615CD200B2FBF1F1A0F8681030BD012120
:10535000A0F86A10F8E700000069000890F828102B
:10536000090706D501684A68836B22F400421A4394
:105370004A6090F82810C90706D001684A68C36AD5
:1053800022F400321A434A6090F82810890706D5A3
:1053900001684A68036B22F480321A434A6090F82D
:1053A0002810490706D501684A68436B22F4802219
:1053B0001A434A6090F82810C90606D501688A6821
:1053C000C36B22F480521A438A6090F82810890631
:1053D00006D501688A68036C22F400521A438A6079
:1053E00090F82810490611D501684A68436C22F4E8
:1053F00080121A434A60416CB1F5801F06D10168E2
:105400004A68836C22F4C0021A434A6090F828105C
:10541000090606D501684A68C06C22F400220243DE
:105420004A6070472DE9F84300260446C0F89060B2
:10543000FCF7FCF88046206800684FF02005000764
:105440006FF07E4713D5434600222904204600977B
:1054500000F09CFC58B1216851E8000F20F080005A
:1054600041E80002002AF6D1C4F8885021E0206803
:105470000068400722D5434600224FF480012046B1
:10548000009700F083FCC8B1216851E8000F20F4B8
:10549000907041E80002002AF6D12068083050E8F8
:1054A000001F21F0010140E80012002AF5D1C4F8E4
:1054B0008C5084F884600320BDE8F883C4F88850D9
:1054C000C4F88C5044F86C6F666026760020F3E7D1
:1054D00010B5806A0021A0F85E10A0F85610FDF704
:1054E00001FF10BD10B5026852E8001F21F4907151
:1054F00042E80013002BF6D10E4B0268083252E846
:10550000001F194042E80014002CF6D1C16E012999
:1055100008D1016851E8002F22F0100241E8002371
:10552000002BF6D12021C0F88C100021C166416704
:1055300010BD0000FEFFFFEF10B5B0F86020D0F8FE
:105540008C300168222B04D0886940F00800886103
:1055500010BD496A836D11401980816D891C816578
:10556000B0F85E10491EA0F85E10B0F85E10002979
:10557000EED1026852E8001F21F4907142E8001356
:10558000002BF6D10168083151E8002F22F001020A
:1055900041E80023002BF5D12021C0F88C10002118
:1055A00041670167154B02689A420BD0526812029C
:1055B00008D5036853E8002F22F0806243E80024F6
:1055C000002CF6D1C26E012A02D0FEF7B3F810BD4E
:1055D000C166026852E8001F21F0100142E8001382
:1055E000002BF6D10168CA69D243D20601D4102239
:1055F0000A62B0F85C10FDF725FE10BD0080004087
:105600002DE9F0470446B0F860600068C569D0F83D
:1056100000A0D0F80880D4F88C10222905D0816928
:1056200041F008018161BDE8F087B4F868704FF07F
:10563000000975E02068406AA16D30400880A06DC7
:10564000801CA065B4F85E00401EA4F85E002068CF
:10565000C569690730D0E9070AD05FEACA5107D5A2
:1056600001210162D4F8900040F00100C4F89000DC
:10567000A8070BD55FEAC87008D02168022008622D
:10568000D4F8900040F00400C4F8900068070BD5EF
:105690005FEAC87008D0216804200862D4F890003E
:1056A00040F00200C4F89000D4F8900020B12046E9
:1056B000FDF718FEC4F89090B4F85E0080BB216836
:1056C00051E8000F20F4807041E80002002AF6D172
:1056D000304A2068083050E8001F114040E80013AD
:1056E000002BF6D12020C4F88C00C4F874904946F1
:1056F000C4F87090284A206890420BD0406800029D
:1057000008D5226852E8000F20F0806342E800309C
:105710000028F6D1E06E012825D02046FEF70AF8D1
:105720000FB1A80686D4B4F85E0000283FF47BAF22
:10573000B4F8681081427FF676AF2068083050E8F0
:10574000001F21F0805140E80012002AF5D11348D3
:105750006067216851E8000F40F0200041E8000236
:10576000002AF6D15FE7E166216851E8000F20F0DA
:10577000100041E80002002AF6D12068C169C9433F
:10578000C90601D410210162B4F85C102046FDF76F
:1057900059FDC5E7FEFFFFEF0080004039550008C6
:1057A00010B5B0F86020D0F88C300168222B04D0FE
:1057B000886940F00800886110BD496A1140826D17
:1057C0001170816D491C8165B0F85E10491EA0F80A
:1057D0005E10B0F85E100029EED1016851E8002F8C
:1057E00022F4907241E80023002BF6D101680831C1
:1057F00051E8002F22F0010241E80023002BF5D1EF
:105800002021C0F88C10002141670167154B026808
:105810009A420BD05268120208D5036853E8002F51
:1058200022F0806243E80024002CF6D1C26E012AE7
:1058300002D0FDF77FFF10BDC166026852E8001F6D
:1058400021F0100142E80013002BF6D10168CA696B
:10585000D243D20601D410220A62B0F85C10FDF7E0
:10586000F1FC10BD008000402DE9F0470446B0F87F
:1058700060600068C569D0F800A0D0F80880D4F84E
:105880008C10222905D0816941F008018161BDE8B1
:10589000F087B4F868704FF0000975E02068406A3E
:1058A000A16D30400870A06D401CA065B4F85E008A
:1058B000401EA4F85E002068C569690730D0E9077A
:1058C0000AD05FEACA5107D501210162D4F89000DD
:1058D00040F00100C4F89000A8070BD55FEAC8703B
:1058E00008D0216802200862D4F8900040F004003B
:1058F000C4F8900068070BD55FEAC87008D021682B
:1059000004200862D4F8900040F00200C4F890002F
:10591000D4F8900020B12046FDF7E4FCC4F8909044
:10592000B4F85E0080BB216851E8000F20F480705D
:1059300041E80002002AF6D1304A2068083050E8D9
:10594000001F114040E80013002BF6D12020C4F8BE
:105950008C00C4F874904A46C4F8709028492068B6
:1059600088420BD04068000208D5216851E8000F3A
:1059700020F0806041E80003002BF6D1E06E0128A2
:1059800025D02046FDF7D6FE0FB1A80686D4B4F880
:105990005E0000283FF47BAFB4F8681081427FF6C8
:1059A00076AF2068083050E8001F21F0805140E8B1
:1059B0000012002AF5D113486067206850E8001FE4
:1059C00041F0200140E80012002AF6D15FE7E266CC
:1059D000216851E8000F20F0100041E80002002A81
:1059E000F6D12068C169C943C90601D410210162FA
:1059F000B4F85C102046FDF725FCC5E7FEFFFFEF7D
:105A000000800040A15700082DE9F04104460168DC
:105A100080682269E3691043626900251A431043D4
:105A2000DFF82CC20A688B4B1A4002430A602068D8
:105A30004168E26821F44051114341602168A06946
:105A4000614501D0226A10438A68834B1A400243A1
:105A50008A602068C16A626A21F00F011143C16245
:105A60007E4923687E488B420DD1D0F8880010F023
:105A7000030006D0012855D0022842D003283FD188
:105A800052E001203DE077498B420BD1D0F88800ED
:105A900010F00C0035D0042833D0082840D00C2852
:105AA0002ED141E070498B420BD1D0F8880010F024
:105AB000300026D0102835D0202831D030281FD1F2
:105AC00032E06A498B420BD1D0F8880010F0C00058
:105AD00017D0402826D0802822D0C02810D123E01B
