:020000040800F2
:10000000F0070020F10100081F4A000879390008B4
:100010001D4A0008E10900083961000800000000DD
:10002000000000000000000000000000E14F000898
:10003000E309000800000000214A0008E34F00081F
:100040000B0200080B0200080B0200080B0200085C
:100050000B0200080B0200080B0200080B0200084C
:100060000B0200080B0200080B0200080B0200083C
:100070000B0200080B0200080B0200080B0200082C
:100080000B020008000000000B0200080B02000831
:100090000B0200080B0200080B0200080B0200080C
:1000A0000B0200080B0200080B0200080B020008FC
:1000B0005D50000869500008755000080B020008E8
:1000C0000B0200080B0200080B0200080B020008DC
:1000D0000B020008A16000080B0200080B020008D8
:1000E0000B0200080B0200080B0200080B020008BC
:1000F0000B0200080B0200080B02000800000000C1
:10010000000000000B020008000000000B020008C5
:100110000B020008000000000B0200080B020008A0
:100120000B0200080B0200080B0200080B0200087B
:100130000B02000800000000000000000B02000895
:100140000B0200080B020008000000000000000085
:10015000000000000000000000000000000000009F
:100160000000000000000000000000000B0200087A
:100170000B0200080000000000000000000000006A
:10018000000000000B02000800000000000000005A
:10019000000000000000000000000000000000005F
:1001A00000000000000000000B0200080B02000825
:1001B0000B0200080B0200080B0200080000000000
:1001C000000000000B02000800000000000000001A
:1001D0000B0200080B020008DFF810D000F04EFB05
:1001E00000480047816A0008AFF30080F007002054
:1001F0000648804706480047FEE7FEE7FEE7FEE7C1
:10020000FEE7FEE7FEE7FEE7FEE7FEE74D500008EB
:10021000D90100082DE9F05F0546002092469B4673
:1002200088460646814640241BE02846414647460C
:10023000224600F0C0F953465A46C01A914110D3E5
:1002400011461846224600F0A7F92D1A67EB01085F
:100250004F4622460120002100F09EF917EB0009CD
:100260004E41201EA4F10104DFDC484631462A46F7
:100270004346BDE8F09FD2B201E000F8012B491ED1
:10028000FBD270470022F6E710B513460A46044633
:100290001946FFF7F0FF204610BDCAB2401E10F805
:1002A000011F8A4202D00029F9D1002070472DE9B0
:1002B000FE4F81EA030404F0004421F00041009461
:1002C0004FF0000B23F0004350EA01045ED052EAE5
:1002D00003045BD0C3F30A54C1F30A552C44A4F2BF
:1002E000F3340194A0FB0254C1F3130141F48011D3
:1002F000C3F3130343F4801301FB024400FB034EDA
:10030000840A970A44EA815447EA8357A4FB0768A2
:1003100002958D0A05FB07854FEA932C04FB0C54CC
:100320002705029D4FEA065847EA1637B5EB080540
:100330006EEB070C870E920E47EA811742EA831292
:10034000A7FB0201B6EB0B0164EB00042B0D43EAA3
:100350000C335E1844EB1C50DA465146E7FB0201B1
:10036000C5F313044FEA0B3343EA14534FEA043244
:10037000019C43EA0603A4F10C040294009CCDE91D
:1003800000B400F06EF903B0BDE8F08F0020014624
:10039000F9E72DE9F04D81EA030404F0004B21F068
:1003A000004514464FF0000A23F0004150EA0502D0
:1003B00020D054EA01021DD0C5F30A570246C5F306
:1003C0001303C1F31300C1F30A5640F4801543F43C
:1003D0008013A7EB0608101BD64608F2FD3873EB16
:1003E000050002D308F1010801E092185B41B8F161
:1003F000000F03DA00200146BDE8F08D00204FF425
:100400008011064684460EE0171B73EB050705D3E3
:10041000121B63EB050306434CEA010C49084FEA43
:10042000300092185B4150EA0107EDD152EA030017
:1004300012D082EA040083EA0501084305D0101BAC
:10044000AB4106D20122002306E000224FF0004318
:1004500002E06FF0010253101AEB06004CEB08515A
:1004600010EB0A0041EB0B01BDE8F04D00F0EAB8DB
:100470000EB5C10F80EAE0700844CA07002140F2BF
:1004800033438DE80E000A460B4600F0EAF803B04D
:1004900000BD0EB540F2334102910021CDE90011BB
:1004A0000A460B4600F0DDF803B000BD00F0004244
:1004B00030F000400AD0C10D01F56071C0F31600A4
:1004C00042EA0151C208400711437047002001462B
:1004D0007047000030B5041E71F1000404DB4FF0DA
:1004E0000044404264EB0101141E73F1000405DB7B
:1004F0001C464FF00043524263EB04038B4208BF9B
:10050000824230BD30B5041E71F1000404DB4FF0AF
:100510000044404264EB0101141E73F1000405DB4A
:100520001C464FF00043524263EB0403994208BF5C
:10053000904230BD01F0004330B421F0004150EA58
:10054000010206D00A0DA2F56072C1F31301002A60
:1005500002DC30BC00207047440F44EAC104C100F3
:10056000E01830BC00EBC25000F035B830B50B4697
:10057000014600202022012409E021FA02F59D42D3
:1005800005D303FA02F5491B04FA02F52844151EA7
:10059000A2F10102F1DC30BD202A04DB203A00FA8E
:1005A00002F1002070479140C2F1200320FA03F3CA
:1005B000194390407047202A04DB203A21FA02F0C8
:1005C0000021704721FA02F3D040C2F1200291408D
:1005D0000843194670470029A8BF7047401C4900CE
:1005E00008BF20F00100704710B4B0FA80FC00FA98
:1005F0000CF050EA010404BF10BC704749B1CCF1C3
:10060000200421FA04F411FA0CF118BF012121434E
:100610000843A3EB0C01CB1D4FEA00614FEA102009
:1006200042BF002010BC704700EBC35010440029AB
:10063000A4BF10BC7047401C490008BF20F0010057
:1006400010BC704710B5141E73F1000408DA401C8A
:1006500041F1000192185B411A4301D120F00100E1
:1006600010BD2DE9F04D92469B4611B1B1FA81F2D1
:1006700002E0B0FA80F220329046FFF78DFF044688
:100680000F4640EA0A0041EA0B0153465A46084326
:1006900013D0114653EA010019D0C8F14002504668
:1006A000FFF789FF05460E46504659464246FFF77A
:1006B00073FF084305D0012004E020463946BDE819
:1006C000F08D0020054346EAE0762C4337430A9834
:1006D0006305E40AA0EB08000022FD0A44EA47543F
:1006E0000A3002D500200146E9E7010510196941E9
:1006F000DDE9084500196941BDE8F04DA2E72DE9A3
:10070000FE4F804681EA0300C00F0C46009021F0A6
:10071000004123F00045B8EB0200A94105D2404654
:10072000214690461C460B46024623F000401043EB
:1007300047D0270DC7F30A00C3F30A510290401AAD
:10074000019040286BDAC3F3130040F4801B00983B
:10075000924620B10023D2EB030A63EB0B0B019806
:100760005946C0F140025046FFF716FF06460D46B7
:1007700050465946019A00F093F810EB0800614189
:10078000002487EA115284EAE7731A4340D0009AA2
:1007900062B3019A012A4FEA075215DC001B61EB94
:1007A00002014FF0004202EA0752CDE90042001C6C
:1007B00041F5801132462B46FFF753FF03B0BDE8E9
:1007C000F08F40462146F9E7001B61EB0201001C57
:1007D00041F5801300185B412018A2F5001747EB84
:1007E000030140EAD570B6196D4111E06D084FEA7A
:1007F000360645EAC0754FEA0752001B61EB02015D
:10080000001C41F5801149084FEA300000195141A0
:1008100032462B4603B0BDE8F04FFFF713BF0098F8
:10082000012240000023D0EB020263EBE07300984A
:1008300021464FEAE074B8EB000061EB0401E9E700
:1008400083F000435BE781F0004158E7C1F30A52AF
:10085000C1F3130140F2FF3341F480119A4202DAEE
:1008600000200146704740F233439A42A2F23342DD
:1008700002DC5242FFF79FBEFFF78EBE064C074DCB
:1008800006E0E06840F0010394E807009847103460
:10089000AC42F6D3FFF7A4FCF87D0008187E0008F0
:1008A000202A06DBCB17203A41FA02F043EAE07334
:1008B00006E041FA02F3D040C2F120029140084321
:1008C0001946704770B50446006881688268C1F3B4
:1008D000400112F0010F28D039BB816801F00D01F1
:1008E000012914D18168124A1140891C8160216854
:1008F0000320086000F00CFF054612E000F008FF3E
:10090000401B02280DD920688068C00709D0E06D1F
:1009100040F01000E065206E40F0010020660120EC
:1009200070BD20688068C007E8D1002070BD00005D
:10093000C0FFFF7FF8B50446002000902068816862
:1009400011F0010F41D18168214A11422ED18168F5
:10095000D5432940491C81601E48806800F0E07042
:1009600000020DD51C481D490068B0FBF1F0401C89
:1009700000EB4000800000E0401E00900028FBD10A
:1009800000F0C6FE06461BE0816811F0010F03D19E
:1009900081682940491C816000F0BAFE801B022852
:1009A0000ED920680068C043C00709D0E06D40F050
:1009B0001000E065206E40F0010020660120F8BDC7
:1009C00020680168C943C907DED10020F8BD0000D6
:1009D0003F000080000300503C000020400D030059
:1009E000FEE77047002240F6B83306E00021491CBC
:1009F00089B29942FBD3521C92B28242F6D370471D
:100A000072B6FEE710B5044600F056FC204600F032
:100A1000E3FA80B2FFF73DFD9FED071B53EC112B6E
:100A2000FFF745FC9FED061B53EC112BFFF73FFC36
:100A300041EC100B10BD00006666666666660A40F3
:100A4000000000000000303FF8B500260446009684
:100A500090F858000D4601280BD0012084F858006A
:100A60002046FFF72FFF0100E06D04D040F010009A
:100A70002AE00220F8BD20F4885040F00200E06532
:100A800020688268134B1A4005F080431A4342F0F5
:100A900000428260104A20680EE0009B5B1C0093BD
:100AA000934209D3E06D20F0020040F01000E065B1
:100AB00084F858600120F8BD8368DB0FEDD1E06D4C
:100AC00020F0020040F00100E06584F8586008461C
:100AD000F8BD0000C0FFFF3F02DE04002DE9F04733
:100AE000044690F858009CB00E464FF000090128CB
:100AF00015D0012084F85800002517951895206816
:100B00004FF0A04840450ED1284F0097384603F0DB
:100B10006BFC8246206803F067FC60B10EE00220A7
:100B20001CB0BDE8F087E06D40F02000E06584F87F
:100B300058500120F4E7BAF1000F09D0E06D40F001
:100B40002000E0654FF0010984F858504846E7E777
:100B50001748326840F61F71002A826822F460420A
:100B600016D094F8383042EA433273681A438260F0
:100B7000D8F80820BB6802F0010203F001031A4311
:100B8000E2D1B36832681A4383688B431A430BE09F
:100B90008260D8F80820BB6802F0010203F001036C
:100BA0001A43D1D182688A438260CDE700010050A8
:100BB000000300502DE9F84F00270446009790F8F5
:100BC0005800DFF8E0930D46B846012811D0012601
:100BD00084F85860206803F003FC60B1E06D40F0D9
:100BE0002000E0655FF0010784F858803846BDE8D2
:100BF000F88F0220FBE7D5E900210C23206803EAE7
:100C000091131844036B01F01F014FF01F0C0CFAF5
:100C100001FCC2F3846223EA0C038A40134303639A
:100C2000206803F0DDFB8246206803F0D5FB5AEA1A
:100C300000003CD1AA6829682068B2F1004F37D083
:100C400003F0D6FB2068416921F000414161206832
:100C50006969C268C2F3C102520091402A69042A3C
:100C600031D000EB82002B68026EDFF83CC303F04A
:100C7000F84302EA0C020B431A4342F000410166BA
:100C800020682A69A96900EB8200026E22F0807256
:100C90000A430266297F22682869012910D00021B1
:100CA00002EB8000026E22F000720A4302667DE0D1
:100CB000002203F09DFB2068416941F00041C5E737
:100CC0004FF00071ECE7002103F080FB4003206847
:100CD0004FF0000172D003F079FB90FAA0F0B0FA67
:100CE00080F1286842036ED090FAA0F0B0FA80F04C
:100CF000814204D100221146206803F088FB0121C3
:100D0000206803F063FB400320684FF001015DD0D1
:100D100003F05CFB90FAA0F0B0FA80F1286842037F
:100D200059D090FAA0F0B0FA80F0814204D10022AC
:100D30000121206803F06BFB0221206803F046FBD1
:100D4000400320684FF0020148D003F03FFB90FAC7
:100D5000A0F0B0FA80F12868420344D090FAA0F0E5
:100D6000B0FA80F0814204D100220221206803F011
:100D70004EFB0321206803F029FB400320684FF05D
:100D8000030133D003F022FB90FAA0F0B0FA80F117
:100D9000286842032FD090FAA0F0B0FA80F0814288
:100DA00004D100220321206803F031FB2068816810
:100DB00011F0010F22D0ACE000E004E003F006FBEC
:100DC000C0F384618DE7C0F3846091E703F0FEFA1D
:100DD000C0F38461A2E7C0F38460A6E703F0F6FAEB
:100DE000C0F38461B7E7C0F38460BBE703F0EEFAB9
:100DF000C0F38461CCE7C0F38460D0E72A7B296824
:100E000050F8B03FC1F3120C23EA0C0302F0180CA7
:100E1000664A22FA0CF20A4013430360E968494526
:100E200077D1286841031CD090FAA0F1B1FA81F182
:100E3000491C01F01F0109294FEA403132D800292D
:100E400012D000BF90FAA0F1B1FA81F101F10101D5
:100E500001F01F0106FA01F609D100BFC0F3846159
:100E600009E0C0F38461E3E7C0F38461EEE790FA40
:100E7000A0F1B1FA81F101F1010101F01F0146EA8F
:100E8000816102D1C0F3846003E090FAA0F0B0FA6F
:100E900080F000F1010000F01F0000EB400041EA8B
:100EA000005132E000290ED090FAA0F1B1FA81F1A0
:100EB00001F1010101F01F0106FA01F606D100BFA0
:100EC000C0F3846106E0C0F38461F1E790FAA0F119
:100ED000B1FA81F101F1010101F01F0146EA8161DE
:100EE00002D1C0F3846003E090FAA0F0B0FA80F081
:100EF00000F1010000F01F002D4A00EB400002EB62
:100F0000005041EA000141F00071AA68206803F036
:100F10006FFA28482A6802423FF466AE2648816884
:100F2000264B01F0E0719A4202D0254B9A421CD127
:100F30000B021AD42268B2F1A04F7FF455AE82683A
:100F400041F4000122F0E0720A4382601D481E490C
:100F50000068B0FBF1F0401C00EB4000800000E0B6
:100F6000401E00900028FBD13EE6184D184BAA42C7
:100F700007D1CD0105D422689A42F5D041F08071A5
:100F800009E0144DAA42EFD14A02EDD422689A42F8
:100F9000EAD041F48001826822F0E0720A43826064
:100FA00022E6000000007F4000F0FF03FFFF070083
:100FB000000020FE0000088000030050000021C354
:100FC0001000C0903C000020400D0300000052C7FC
:100FD00000010050000084CB0068006C70470000E6
:100FE000F8B54FF0000504002E46009502D0E06DE4
:100FF00010B107E00120F8BD204600F0EBF82666AE
:1010000084F8586020688168C1F3407119B1816823
:10101000684A1140816020688168C1F3007189B914
:101020008168654A114041F080518160634864499C
:101030000068B0FBF1F04000801C00E0401E009012
:101040000028FBD120688168C1F3007141B9E16DCE
:1010500041F01001E165216E41F001012166012599
:1010600003F0BEF9E16DC90600D430B1E06D40F087
:101070001000E06501252846F8BDE06D20F4807081
:1010800040F00200E0652068806810F0010F11D187
:101090004FF0A04080684B4900F00100896801F0E2
:1010A0000101084306D148486168826822F47C1235
:1010B0000A438260E168E06B627F0843A16841EA0D
:1010C0004231084394F8241040EA0140012904D138
:1010D000218D3E4A02EB41410843E16A29B101F406
:1010E0007871226B014342EA01002268D168384BD3
:1010F00019400143D16020680169626B21F04061B1
:1011000011430161206803F067F970BB207F94F8F8
:101110003810800340EA41022168C86844F20203A3
:1011200098431043C86020690028206801690AD0EC
:1011300041F480310161206850F8C01F22696FF3CB
:101140000D01114307E021F480310161206850F85E
:10115000C01F6FF30D01016094F8400001280CD00E
:101160002068016921F0010101616069012820689E
:10117000016B21F00F0111D013E0D4E911010843F4
:10118000D4E913121143084321680A6940F2FC7341
:101190009A43104340F001000861E6E7226A521EBC
:1011A00011430163E06D20F0020040F00100E065B2
:1011B00061E70000C0FFFF5FC0FFFF7F3C00002031
:1011C000400D030000010050000300500000FEFF2E
:1011D0000740F0FF2DE9F04397B00446142111A811
:1011E000FFF750F844216846FFF74CF84FF00050E5
:1011F00021682D4D0327DFF8B49086132C4C4FF057
:101200000008B1F1A04F10D02A4A914248D100966F
:101210000F90684600F07AFB08B1FFF7F1FB2868F1
:10122000401C2860012824D02BE000960F906846CF
:1012300000F06CFB08B1FFF7E3FB2868401C286056
:10124000012807D1E06C40F40050E064E06C00F449
:1012500000501690E06C40F00200E064E06C11A9D0
:1012600000F0020016904FF4805081E8810148465A
:1012700014E0E06C40F40050E064E06C00F40050D6
:101280001690E06C40F00200E064E06C11AA00F0FF
:101290000200169082E8C00111A9484600F00AF940
:1012A00017B0BDE8F08300002C00002000040048C7
:1012B00000100240000100502DE9F041044638487A
:1012C000806800F01F05206803F08AF818B1022139
:1012D0000846BDE8F08194F8580001280CD00120A0
:1012E00084F858002046FFF725FB01004FF000036B
:1012F00004D084F85830EBE70220EAE7E06D40F6CE
:101300000162904340F48070E065264A20684FF007
:10131000A046904201D1374600E00746874200D000
:101320001DB9E76D27F48017E765E76DFF0404D565
:10133000276E27F00607276600E023661C27076054
:1013400084F858302068904201D1334600E00346CB
:10135000834215D0A5B1052D12D0092D10D0E36D13
:1013600043F48013E365904200D13046C0688001A9
:10137000AED5E06D20F4005040F48050E065A7E762
:10138000C268920105D5E26D22F4005242F4805207
:10139000E2658268044B1A40121D826098E70000E3
:1013A0000003005000010050C0FFFF7F10B590F80F
:1013B000253000210122022B03D00421C163012129
:1013C00022E003681C6824F00E041C60836C1C6817
:1013D00024F480741C6003681C6824F001041C6001
:1013E00090F84430046C03F01F0302FA03F36360C7
:1013F000D0E913345C60436D33B11C6824F480740D
:101400001C60D0E916345C6080F82520002280F84A
:101410002420084610BD70B590F825200024012135
:101420002346022A07D00422C26380F8251080F8E0
:101430002430012429E00268156825F00E051560A6
:101440000268156825F001051560826C156825F4A1
:101450008075156090F84420056C02F01F0201FAB7
:1014600002F26A60D0E913255560426D32B1156809
:1014700025F480751560D0E91625556080F8251093
:1014800080F82430816B01B18847204670BD000090
:1014900070B5044600F03CF90546601C02D00448D3
:1014A0004068044400F034F9401BA042FAD370BDF8
:1014B000300000202DE9F04FDFF8209200230126B4
:1014C0000324A9F1040B85B00F2709F1040AABF13D
:1014D000040EFAE006FA03F52A407CD091F804C025
:1014E0000CF0030CBCF1010F02D0BCF1020F26D1AD
:1014F000D0F808C0CDF800C04FEA430C04FA0CF84D
:10150000CDF810C0DDF800C02CEA080CCDF800C002
:10151000D1F80C80DDF810C008FA0CF8DDF800C036
:1015200048EA0C08C0F80880D0F804C02CEA050C82
:101530000D79C5F300159D4045EA0C0545600D7910
:10154000ED43AD070ED0C5684FEA430804FA08FC26
:1015500025EA0C05D1F808C00CFA08FC4CEA050C89
:10156000C0F80CC00D7905F00305022D16D1DD0879
:1015700000EB850CCDF808C0DCF820805D074FEA51
:10158000D56C07FA0CF528EA05080D6905FA0CF583
:10159000DDF808C045EA0805CCF8205005684FEA98
:1015A000430CCDF808C004FA0CFC25EA0C0591F8B0
:1015B00004C00CF00308DDF808C008FA0CF848EA8B
:1015C0000508C0F800804D6815F4403F7CD0444DBC
:1015D000D5F860C000E077E04CF0010CC5F860C0C1
:1015E0002D6E23F0030C05F0010500953D4D65447B
:1015F0000295AD684FEA837C4FEA1C7807FA08FC35
:1016000025EA0C05B0F1904F06D0DFF8DCC060454C
:1016100005D14FF0010C20E04FF0000C1DE0DFF889
:10162000CCC0604502D14FF0020C16E0DFF8C0C01C
:10163000604502D14FF0030C0FE0DFF8B8C0604501
:1016400002D14FF0040C08E0DFF8ACC0604502D1D5
:101650004FF0050C01E04FF0060C0CFA08FC4CEAC8
:10166000050C029DC5F808C0D9F80050CC46D1F849
:10167000048095435FEAC82800D51543CCF8005094
:10168000DAF80050D446D1F8048095435FEA882800
:1016900000D51543CCF80050DBF80050DC46D1F8FB
:1016A000048095435FEA883800D51543CCF8005094
:1016B000DEF80050F446D1F8048095435FEAC8385C
:1016C00000D51543CCF800505B1C0A6832FA03F5CC
:1016D0007FF400AF05B0BDE8F08F000008040140C2
:1016E00000100240000001400004004800080048CB
:1016F000000C004800100048001400480069084031
:1017000000D0012070470AB1816170478162704743
:10171000014880687047000030000020024881685E
:1017200042681144816070473000002010B50024E9
:10173000032000F073F80F2000F008F808B101242E
:1017400001E000F025F8204610BD000070B50E4EF7
:1017500005460024706898B14FF47A71B1FBF0F03F
:101760000A490968B1FBF0F000F0F8FE40B9102D0D
:1017700006D200222946501E00F030F8356000E005
:101780000124204670BD0000300000203C000020F5
:101790000A4882B0016E41F001010166016E01F05C
:1017A00001010091816D41F080518165806D00F0F3
:1017B0008050009002B000F0A1B80000001002407C
:1017C000002809DB00F01F02012191404009800040
:1017D00000F1E020C0F8001170470000F0B40E4B9B
:1017E0001B680C46C3F30223C3F10705042D00D97F
:1017F0000425191D072901D2002300E0DB1E012664
:1018000006FA05F1491E214099409E40761E164079
:101810003143F0BC04F0B6BC0CED00E0064900F02A
:10182000070208684FF6FF03184040EA0220034A07
:1018300010430860704700000CED00E00000FA055E
:101840002B492C4B0A6832214A432B4940B1B0F551
:10185000007F086829D020F4C06040F480602CE04C
:101860000868C0F34120022804D051F8800F20F40A
:10187000807022E0D1F8800020F48070C1F88000F0
:10188000086820F4C06040F400700860B2FBF3F018
:10189000401C00E0401E4A69520501D50028F9D1DC
:1018A000486940050AD503207047C0F3412002284B
:1018B00006D051F8800F40F4807008600020704717
:1018C000D1F8800040F48070C1F88000086820F4EE
:1018D000C06040F400700860B2FBF3F0401C00E010
:1018E000401E4A695205DBD50028F9D1D8E700002F
:1018F0003C00002040420F00007000400248816818
:1019000041F4804181607047007000402DE9F84348
:101910000446006800269D4D00035ED5A86D002793
:10192000C00008D4A86D40F08050A865A86D0127BC
:1019300000F080500090DFF85892D9F8001041F480
:101940008071C9F80010FFF7E3FE804606E000BF93
:10195000FFF7DEFEA0EB080002282BD8D9F8000024
:10196000C005F5D5D5F8900010F4407014D0216C66
:10197000814211D0D5F89000D5F8901020F4407035
:1019800041F48031C5F89010D5F8901021F48031E1
:10199000C5F89010C5F89000C00711D0FFF7B8FE49
:1019A000804641F2883907E0FFF7B2FEA0EB08015C
:1019B000494501D903260BE0D5F890008007F3D5FF
:1019C000D5F89000216C20F440700843C5F89000D1
:1019D0001FB1A86D20F08050A8652078C00707D0FF
:1019E000D5F88800616820F003000843C5F8880036
:1019F0002078800707D5D5F88800A16820F00C0072
:101A00000843C5F888002078400707D5D5F8880036
:101A1000E16820F030000843C5F88800207800070E
:101A200007D5D5F88800216920F0C0000843C5F823
:101A300088002078800607D5D5F88800616920F4F1
:101A400040600843C5F888002078400607D5D5F8DF
:101A50008800A16920F440500843C5F88800207828
:101A6000000607D5D5F88800E16920F44040084316
:101A7000C5F888002088C00507D5D5F88800216AF8
:101A800020F440300843C5F888002088800507D539
:101A9000D5F88800616A20F440200843C5F8880022
:101AA000208840050FD5D5F88800A16A20F44010A1
:101AB0000843C5F88800A06AB0F5801F03D1E86824
:101AC00040F48010E860208800050FD5D5F8880024
:101AD000E16A20F440000843C5F88800E06AB0F5E8
:101AE000800F03D1E86840F48010E8602088C004CB
:101AF0000FD5D5F88800216B20F040700843C5F859
:101B00008800206BB0F1807F03D1E86840F480103A
:101B1000E86020884FF0006180040ED5D5F8880079
:101B2000626B20F040601043C5F88800606B88420B
:101B300003D1E86840F48010E860208840040ED5A6
:101B4000D5F88800A26B20F040601043C5F88800EB
:101B5000A06B884203D1E86840F48010E8602088D8
:101B600000040FD5D5F88800E16B20F04050084301
:101B7000C5F88800E06BB0F1805F03D1E86840F4FD
:101B80008030E8603046BDE8F88300000010024075
:101B9000007000402DE9F0470E4605004FF00007A9
:101BA00025D0DFF8AC81D8F8000000F00F00B0427B
:101BB0000CD2D8F8001021F00F013143C8F8001002
:101BC000D8F8000000F00F00B04210D12968614C35
:101BD000C80741F2883A5AD06868DFF87C91032838
:101BE00008D0022820682DD0400500282CDB0120D9
:101BF000BDE8F08720688001F9D5E06800F00302B5
:101C0000E068C0F30310401C032A19D0534A00BFF8
:101C1000B2FBF0F0E268C2F306225043E268C2F37E
:101C20004162521C5200B0FBF2F0484517D9A0683F
:101C300010F0F00F0CD0880711D5A86840B10EE065
:101C4000474AE5E78003D0E700F0B6F8484506D9F3
:101C5000A06820F0F00040F08000A0608027A0681D
:101C6000696820F003000843A060FFF751FD81463A
:101C700006E000BFFFF74CFDA0EB090151453AD843
:101C8000A068696800F00C00B0EB810FF2D1286801
:101C9000810714D5400703D5A06840F4E060A06038
:101CA0002878000705D5A06820F4605040F4E06073
:101CB000A060A068A96820F0F000084304E0802F2D
:101CC00003D1A06820F0F000A060D8F800104046D2
:101CD00001F00F01B14216D9016821F00F01314323
:101CE0000160FFF715FD074607E000BFFFF710FD95
:101CF000C11B514501D903207AE7D8F8000000F054
:101D00000F00B042F2D12878400705D5A068E968F5
:101D100020F4E0600843A0602878000706D5A0689A
:101D2000296920F4605040EAC100A06000F044F846
:101D3000A1680C4AC1F30311515C01F01F01C840B6
:101D40000949086009480068BDE8F047FFF7FEBC94
:101D5000002002400010024000B4C4040024F4003B
:101D600000366E01106C00083C000020300000209E
:101D70000548064900688968054AC1F30221515C9B
:101D800001F01F01C84070473C00002000100240D5
:101D9000206C00080548064900688968054AC1F3B7
:101DA000C221515C01F01F01C84070473C00002077
:101DB00000100240206C0008184910B58868C0F374
:101DC00081021748012A0BD08A68164BC2F38102A0
:101DD000022A06D08A68C2F38102032A03D00020B7
:101DE00010BD184610BDCA6802F00304CA68C2F3E9
:101DF0000312521C032C02D0B0FBF2F001E0B3FB43
:101E0000F2F0CA68C968C2F306225043C1F34161C7
:101E1000491C4900B0FBF1F010BD00000010024069
:101E20000024F40000366E012DE9F84304007AD056
:101E30002078F84DC00747D0A868E96800F00C008A
:101E400001F003010C2802D0082817D001E0032973
:101E500014D06068B0F5803F17D0B0F5A02F286887
:101E600017D020F480302860286820F48020286073
:101E70006068E0B1FFF74CFC064614E02868800378
:101E800022D560680028D2D01EE0286840F4803057
:101E9000EDE740F480202860F7E700BFFFF738FC4B
:101EA000801B642870D828688003F7D50CE0FFF702
:101EB0002FFC064605E000BFFFF72AFC801B6428C4
:101EC000F0D828688003F7D4207880074CD5A8681C
:101ED000E96800F00C0001F003010C2802D004288E
:101EE0000DD001E002290AD0E068002828682BD034
:101EF00040F480702860FFF70BFC064619E0286864
:101F0000400502D5E068002891D06868217C20F067
:101F1000FE4040EA01606860BF480068FFF716FCB9
:101F2000002800D120E072E1FFF7F2FB801B0228BD
:101F3000B8D828684005F7D56868217C20F0FE40B5
:101F400040EA016068600FE020F480702860FFF7CD
:101F5000DFFB064605E000BFFFF7DAFB801B022827
:101F6000A0D828684005F7D42078000729D56069F3
:101F70000028D5F8940013D040F00100C5F8940073
:101F8000FFF7C6FB064606E090E000BFFFF7C0FB88
:101F9000801B022886D8D5F894008007F6D510E07B
:101FA00020F00100C5F89400FFF7B2FB064604E0FC
:101FB000FFF7AEFB801B022878D8D5F89400800785
:101FC000F6D42078400761D5A86D0026C00008D45B
:101FD000A86D40F08050A865A86D012600F08050E3
:101FE00000908E480168C90511D40168804641F40B
:101FF00080710160FFF78CFB074604E0FFF788FB68
:10200000C01B022852D8D8F80000C005F6D5A06839
:10201000012815D00528D5F8900016D020F0010031
:10202000C5F89000D5F8900020F00400C5F89000A5
:10203000A06841F28838B8B1FFF76AFB07460EE0A6
:10204000D5F8900040F00100F0E740F00400C5F83A
:102050009000F5E7FFF75CFBC11B414526D8D5F89A
:1020600090008007F6D50CE0FFF752FB074604E02E
:10207000FFF74EFBC11B414518D8D5F890008007EB
:10208000F6D41EB1A86D20F08050A8652078800697
:1020900029D5A0690028D5F8980013D040F0010098
:1020A000C5F89800FFF734FB064606E075E000BF70
:1020B000FFF72EFB801B02286FD8D5F89800800709
:1020C000F6D510E020F00100C5F89800FFF720FBDE
:1020D000064604E0FFF71CFB801B02285DD8D5F8FC
:1020E00098008007F6D4E069F0B3A968C1F38101D4
:1020F00003295DD00228286820F08070286003D072
:10210000FFF706FB04464BE0FFF702FB064604E040
:10211000FFF7FEFA801B02283FD828688001F7D419
:10212000F4E908016FF00F0202EB01110843218A64
:102130005204490802EB4151A26841EA02210843D6
:10214000217D4FF07E42490802EB41610843217B2B
:1021500040EAC160E968324A11400843E8602868F3
:1021600040F08070286000E05EE0E86840F0807039
:10217000E860FFF7CDFA044605E000BFFFF7C8FAB4
:10218000001B022809D828688001F7D54CE000BF61
:10219000FFF7BEFA001B022802D90320BDE8F8832E
:1021A00028688001F4D4E8681E490840E8603BE0F4
:1021B0000128F3D0E868226A00F00301914226D199
:1021C000616A00F0F0020901103991421FD1A26A40
:1021D00000F4FE41B1EB022F19D194F82C2000F04D
:1021E0007841B1EBC26F12D1218E00F4C0024908D0
:1021F0004905A1F50011914209D194F8341000F07D
:10220000C06049084906A1F1007181420CD001204B
:10221000C4E70000001002403000002000700040C1
:102220000C809F01FCFFEEFE0020B7E710B50068B0
:102230000B4641680D480140080CD870C1F30424D6
:102240005C7001F03F049C70C1F34231197052B9C7
:1022500002F0B2FDD870587802F0AEFD5870987850
:1022600002F0AAFD9870002010BD00003FFFFF00A3
:1022700010B50B4601688968596001680969C1F3A6
:102280000E019960006801680D480140C1F30540E6
:102290001870C1F306245C7001F07F049C70890DF6
:1022A000D97052B902F088FD1870587802F084FD98
:1022B0005870987802F080FD9870002010BD0000E2
:1022C0007F7F7F0070B504004FF0010040D094F88C
:1022D000250028B9002084F82400204600F040F8AA
:1022E000022084F825002068C168C943C90630D59A
:1022F000CA214162216853204862204602F072FDE3
:1023000010BB20688169154A114081612168886984
:102310006268A369104322691A43104388612189C6
:10232000E06840EA014021680861204602F07FFD34
:1023300050B9D4E90721114322686369956925F0F2
:1023400060452B43194391612268FF21516208B116
:1023500070BD0020012184F8251070BDBFFF8FFBE8
:1023600010B592B0044644216846FDF78BFF104932
:10237000206888421AD14FF4002000904FF440703A
:1023800010906846FFF7C2FA08B1FEF739FB09481A
:1023900050F8901F41F4004140F83819016841F4A9
:1023A00080610160006800F48060119012B010BD7F
:1023B000002800400010024070B5044690F8240048
:1023C0000B4601281BD0012684F82460022084F8E3
:1023D0002500B2B19878D97840EA01455878197843
:1023E000000240EA413005432168CA204862216862
:1023F00053204862204602F0F5FCD0B120E00220D4
:1024000070BD5878C10603D500F0EF000A3058704F
:10241000D87802F0DAFC0504587802F0D6FC45EAD8
:102420000025987802F0D1FC0543187845EA40353C
:10243000DAE70848054020684560204602F0F7FCCE
:102440002268FF21516208B984F82560002184F8D0
:10245000241070BD3FFFFF002DE9F041044690F8C5
:10246000240090460D46012811D0012784F82470DD
:10247000022084F825002168CA2048622168532080
:102480004862204602F0AEFC002618B129E0022086
:10249000BDE8F0812068B8F1000F80694FEA406024
:1024A00024D0002800DBEE70A8782978EA7840EA8A
:1024B00001406978090241EA8251084318490840FD
:1024C000216808602068816921F480218161D5E953
:1024D0000301084321688A6910438861204602F09D
:1024E000A6FC2268FF215162A0B115E0002800DBA4
:1024F000EE70287802F069FC0304687802F065FC4D
:1025000043EA0023A87802F060FC0343E87843EA3A
:102510008050D3E784F8257084F82460B8E7000081
:102520007F7F7F0070B504460B482168C860FFF7C5
:10253000EFF805464FF47A7607E000BFFFF7E8F8BA
:10254000401BB04201D9032070BD2068C0688006DE
:10255000F4D5002070BD00005F00010010B5401EE2
:10256000B0F1807F01D3012010BD4FF0E024606105
:102570000F21601703F006FE0020A06107202061F4
:10258000002010BD704770477047000030B590F8CC
:102590003C20012A42D0012280F83C20CA688B6886
:1025A00022F440721A434B6822F480621A430B688B
:1025B00022F400621A430B6922F480521A434B69D9
:1025C00022F400521A430B6B22F480421A430B8B05
:1025D00022F4702242EA0342CB6922F080521A436D
:1025E0000F4D03680024AB4202D00E4DAB4210D118
:1025F0000D8D22F4700242EA05520D6A22F08072BB
:102600002A434D6A22F000722A43C96A22F000521E
:102610000A435A6480F83C40002030BD022030BD9F
:10262000002C0140003401407047704770470000A3
:10263000F0B590F83C20012A3AD0012580F83C50B2
:10264000022280F83D2003685A689C68194E1A4F90
:10265000B34201D0BB4204D122F4700C4A6842EA72
:102660000C02DFF858C002EA0C02D1F800C04CEAB4
:10267000020CC3F804C00268B2420DD0B2F1804F20
:102680000AD00F4B9A4207D00E4B9A4204D0BA425E
:1026900002D00D4B9A4204D1896824F0800319437B
:1026A000916080F83D50002180F83C100846F0BD54
:1026B0000220F0BD002C0140003401408FFFFFFDDF
:1026C000000400400008004000400140704710B581
:1026D000040003D094F83D0010B107E0012010BDC4
:1026E000002084F83C00204600F022F8022084F804
:1026F0003D00211D206802F0C3FC012084F8480041
:1027000084F83E0084F83F0084F8400084F84100DB
:1027100084F8420084F8430084F8440084F84500BB
:1027200084F8460084F8470084F83D00002010BD7E
:1027300010B586B0044614216846FDF7A3FD216854
:1027400000223D480223B1F1804F27D03B4CA142EB
:1027500048D1816D41F002018165816D01F0020176
:102760000591C16C41F00201C164C06C694600F082
:102770000200059010200090CDE901323048CDE9EB
:102780000323FEF797FE002211461D20FFF726F8CF
:102790005FF01D00FFF714F806B010BD816D41F029
:1027A00001018165816D01F001010591C16C41F06C
:1027B0000101C164C06C694600F0010005904FF44E
:1027C00000400090CDE901320120CDE903204FF017
:1027D0009040FEF76FFE002211461C20FEF7FEFF20
:1027E0001C20D7E7174A91420ED1816D41F00401B8
:1027F0008165806D002200F00400059011461E20C6
:10280000FEF7ECFF1E20C5E70F4A914207D1016E8B
:1028100041F400310166006E00F4003009E00B4A1B
:102820009142B9D1016E41F480210166006E00F43D
:1028300080200590B0E70000001002400004004036
:1028400000040048000800400044014000480140E6
:1028500090F83D10012901D001207047022180F835
:102860003D100168CA6842F00102CA600068104960
:1028700088420ED0B0F1804F0BD00E49884208D06C
:102880000D49884205D00D49884202D00C49884242
:1028900007D181680B4A1140062906D0B1F5803F67
:1028A00003D0016841F00101016000207047000081
:1028B000002C0140000400400008004000340140AA
:1028C000004001400700010070B5044690F83C004C
:1028D0000025012814D0012684F83C60022084F8E9
:1028E0003D0022689068364B184020F47F4090608D
:1028F000086870282ED010DC10F00F0F03D021E0F4
:102900004FF0020070BD4FEA2012072A1AD2DFE80A
:1029100002F0525252524A3840002A4BC21A984290
:1029200049D009DCB0F5805F0DD0B0F5005F1CD058
:10293000B0F1101F06D13EE0102A3CD0202A3AD038
:10294000502A38D0012584F83D60002084F83C00EE
:10295000284670BDCB68D1E90121206802F0FBFB5D
:102960002068816841F0770109E0CB68D1E9012155
:10297000206802F0F0FB2068816841F480418160AA
:10298000E1E7CA684968206802F090FD502120689C
:1029900006E0CA684968206802F0D0FD602120681E
:1029A00002F0E4FBCFE7CA684968206802F07EFDC8
:1029B00040212068F4E7226801461046F0E7000055
:1029C00088FFCEFF2000100008B50168B1F1804FEC
:1029D0000FD00E4A91420BD1017F012908D10C4939
:1029E0000091A1F11803A1F108020C3902F01AF8C4
:1029F00008BD017F0129FBD10549091FA1F116037B
:102A0000A1F10C0200911039F0E700000004004031
:102A1000880000202DE9F041054690F83C00002692
:102A20000C46012810D0012085F83C0072B1042A20
:102A30001CD0082A2CD00C2A50D00126002085F862
:102A40003C003046BDE8F0810220FBE7D4E90012EB
:102A5000E368286802F03CFD2868816921F00C01D8
:102A6000816128688169A26811430FE0D4E90012EE
:102A7000E368286802F074FD2868816921F44061E8
:102A8000816128688169A26841EA02218161D5E7F4
:102A90002868D4E9002C277B036A016A21F480713D
:102AA0000162C16923F4206321F0030141EA0C01B2
:102AB00021F0F00C39074FF420674CEA116107EA66
:102AC00002221A43C16102622868C16921F00C0127
:102AD000C1612868C169A26811432BE02868D4E964
:102AE0000021E768036AD0F820C02CF4805CC0F8AD
:102AF00020C0D0F81CC023F420432CF4407C4CEAC6
:102B0000012121F4704C4FF6FF7101EA07314FF4B7
:102B1000204741EA0C0107EA02321A43C16102620E
:102B20002868C16921F44061C1612868C169A2684F
:102B300041EA0221C16181E710B5040003D094F895
:102B40003D0010B107E0012010BD002084F83C00DA
:102B5000204600F022F8022084F83D00211D206864
:102B600002F08EFA012084F8480084F83E0084F8D0
:102B70003F0084F8400084F8410084F8420084F863
:102B8000430084F8440084F8450084F8460084F843
:102B9000470084F83D00002010BD704710B5044682
:102BA00079B1042912D0082915D00C2918D0102980
:102BB00019D094F8430000BF94F84720012817D19A
:102BC00014E094F83E0094F84420F7E794F83F00AE
:102BD00094F84520F2E794F8400094F84620EDE799
:102BE00094F84100E8E794F84200E5E7012A01D0B3
:102BF000012010BD022081B3042934D0082937D028
:102C00000C293AD010293BD084F8430084F84700BF
:102C10000122206802F092FA1B49206888420ED0F7
:102C2000B0F1804F0BD01949884208D0184988422A
:102C300005D01849884202D01749884207D18168D7
:102C4000164A1140062906D0B1F5803F03D001682D
:102C500041F001010160002010BDFFE784F83E0053
:102C600084F84400D4E784F83F0084F84500CFE7B7
:102C700084F8400084F84600CAE784F84100C5E7BC
:102C800084F84200C2E70000002C0140000400402C
:102C900000080040003401400040014007000100EE
:102CA00030B50446002571B1042911D0082914D08B
:102CB0000C2917D0102918D094F8430094F8472015
:102CC000012817D114E094F83E0094F84420F7E767
:102CD00094F83F0094F84520F2E794F8400094F807
:102CE0004620EDE794F84100E8E794F84200E5E774
:102CF000012A01D0012030BD022079B1042916D06B
:102D000008291DD00C2949D010294AD084F8430045
:102D100084F847000C2947D001253DE084F83E00A7
:102D200084F844002068C26842F0020210E084F88F
:102D30003F0084F845002068C26842F0040207E0C2
:102D400084F8400084F846002068C26842F0080217
:102D5000C2600122206802F0F1F916492068884219
:102D60000ED0B0F1804F0BD01349884208D01349E0
:102D7000884205D01249884202D01249884207D1C0
:102D80008168114A1140062906D0B1F5803F03D071
:102D9000016841F001010160284630BD84F841001E
:102DA000B6E784F84200B3E72068C26842F0100238
:102DB000CEE70000002C0140000400400008004065
:102DC0000034014000400140070001002DE9F041BE
:102DD00004460068C66805694FF00007A90713D5C7
:102DE000B10711D5F91E01610120207720688069A3
:102DF0008007204602D0FFF7E7FD04E000F0F0F87E
:102E0000204600F0B2F92777680716D5700714D569
:102E100021686FF004000861022020772068806933
:102E200010F4407F204602D0FFF7CEFD04E000F012
:102E3000D7F8204600F099F92777280715D53007ED
:102E400013D521686FF008000861042020772068FE
:102E5000C0698007204602D0FFF7B6FD04E000F00D
:102E6000BFF8204600F081F92777E80616D5F0066E
:102E700014D521686FF010000861082020772068C1
:102E8000C06910F4407F204602D0FFF79DFD04E0AA
:102E900000F0A6F8204600F068F92777E80708D088
:102EA000F00706D021686FF001000861204600F0AD
:102EB000DBF9280601D4A80408D5300606D5216818
:102EC0006FF4025008612046FFF75DFBE80508D566
:102ED000300606D521686FF4807008612046FFF740
:102EE00051FB680608D5700606D521686FF04000D2
:102EF0000861204600F03FFAA80608D5B00606D5BE
:102F000021686FF0200008612046FFF73DFBE802D2
:102F100008D5F00206D521686FF4801008612046BC
:102F2000FFF783FBA80208D5B00206D521686FF42D
:102F3000001008612046FFF777FB680208D5700291
:102F400006D521686FF4800008612046FFF76EFB0C
:102F500028020AD5300208D521686FF40000086104
:102F60002046BDE8F041FFF7B1BBBDE8F0810000AD
:102F700070B586B0044614216846FDF783F9154EF6
:102F8000256800221449022401234FF09040B542E5
:102F900009D1CD6C45F00105CD64C96C01F001018A
:102FA000059140210BE00D4EB54210D1CD6C45F09E
:102FB0000105CD64C96C01F00101059180210091EA
:102FC000CDE901426946CDE90323FEF773FA06B065
:102FD00070BD000000440140001002400048014064
:102FE000704770B5044690F83C0000260D46012855
:102FF0000BD0012084F83C000C2A4AD007DC82B1B7
:10300000042A20D0082A06D131E0022070BD102AFF
:1030100053D0142A63D00126002084F83C003046A7
:1030200070BD206802F0ACF82068816941F00801A9
:1030300081612068816921F00401816120688169D2
:103040002A69114311E0206802F0E8F820688169DC
:1030500041F4006181612068816921F480618161AE
:10306000206881692A6941EA02218161D4E72068E8
:1030700002F01CF92068C16941F00801C1612068B3
:10308000C16921F00401C1612068C1692A69114345
:1030900011E0206802F052F92068C16941F4006132
:1030A000C1612068C16921F48061C1612068C16982
:1030B0002A6941EA0221C161AEE7206802F086F97F
:1030C0002068016D41F0080101652068016D21F063
:1030D000040101652068016D2A69114311E020682F
:1030E00002F0ACF92068016D41F4006101652068CF
:1030F000016D21F4806101652068016D2A6941EA52
:103100000221016588E710B5040003D094F83D0062
:1031100010B107E0012010BD002084F83C002046DB
:1031200000F022F8022084F83D00211D206801F003
:10313000A7FF012084F8480084F83E0084F83F008F
:1031400084F8400084F8410084F8420084F8430089
:1031500084F8440084F8450084F8460084F8470069
:1031600084F83D00002010BD7047704730B504461C
:10317000022269B1042912D0082917D00C291CD0C9
:10318000102921D094F84300012824D0012030BD1B
:1031900094F83E000128F9D184F83E201DE094F80F
:1031A0003F000128F2D184F83F2016E094F8400057
:1031B0000128EBD184F840200FE094F84100012869
:1031C000E4D184F8412008E094F842000128DDD1E0
:1031D00084F8422001E084F843200122206801F0B5
:1031E000ADFF194B20681949194A984209D0884205
:1031F00007D0904205D0174DA84202D0164DA842E4
:1032000003D1456C45F400454564206898420CD0D4
:10321000B0F1804F09D0114B984206D0104B984224
:1032200003D0884201D0904207D181680D4A1140F5
:10323000062906D0B1F5803F03D0016841F00101B5
:103240000160002030BD0000002C0140003401402E
:10325000004001400044014000480140000400409B
:103260000008004007000100F8B5006834498842B2
:1032700051D1344C01212046FEF740FA8DF8000070
:1032800002212046FEF73AFA8DF80100042120467B
:10329000FEF734FA8DF8020001214FF09040FEF75E
:1032A0002DFA8DF80300284E00200125321DA2F1D1
:1032B0000C01EC46A6F1040E044601F11C0300BF0C
:1032C0001CF800703754002F0F5C10D0022F23D051
:1032D000175CEFB11EF800707F1CFFB20EF8007093
:1032E000142F15D3184F08373D54145410E027B14C
:1032F000012F06D0022F06D00AE00D5423F810400B
:1033000006E002270F5433F810707F1C23F810706A
:10331000401C0428D4DBF8BD33F81070462F0CD2C3
:10332000175C97F00107175402D00EF8004002E036
:10333000054F0C373D540C54EAE7034F1037F9E7BB
:1033400000080040000400484E0000200246002013
:1033500041B1042909D008290AD00C2901D11068EB
:10336000006C70471068406B70471068806B704746
:103370001068C06B7047704790F88410012918D00E
:10338000012180F884102421C0F8881001680A689F
:103390000B6823F001030B6022F00051002242660B
:1033A000036819602021C0F8881080F88420104636
:1033B0007047022070477047704770B5044690F818
:1033C000840001281DD0012084F884002420C4F842
:1033D000880020680568026822F001020260206807
:1033E000826822F060620A438260204602F0D4F8CC
:1033F000206805602020C4F88800002084F884003C
:1034000070BD022070BD70B5044690F8840001289C
:103410001DD0012084F884002420C4F8880020688E
:103420000568026822F0010202602068826822F0CA
:1034300060420A438260204602F0AEF820680560D0
:103440002020C4F88800002084F8840070BD022089
:1034500070BD7047704770472DE9F041036804461E
:10346000D86919689A6840F60F0528424FF00005A0
:103470004FF002060AD187067ED501F0200702F040
:10348000805C57EA0C0777D0616F3AE1B24FDFF802
:10349000CCC2174001EA0C0C57EA0C0C6CD05FEA66
:1034A000C07C0CD05FEAC15C09D54FF0010CC3F8B9
:1034B00020C0D4F8903043F00103C4F89030830763
:1034C00009D5D30707D023681E62D4F8903043F0A3
:1034D0000403C4F8903043070AD5D30708D0266800
:1034E00004233362D4F8903043F00203C4F89030E0
:1034F00003070CD501F020033B4308D026680823BE
:103500003362D4F8903043F00803C4F890300305D8
:103510000BD54B0109D526684FF400633362D4F80C
:10352000903043F02003C4F89030D4F89030002B52
:103530003DD0800609D501F0200002F080510843FB
:1035400003D0616F09B120468847D4F89000216804
:103550008968490602D410F0280F2AD0204602F0CC
:1035600001F92068806840061ED52068083050E8C0
:10357000001F21F0400100E021E040E80012002A95
:10358000F3D1D4F8800078B175498163D4F8800014
:10359000FDF741FF00280AD0D4F88000816B00E0DD
:1035A0002046BDE8F04108472046FFF754FFBDE83C
:1035B000F0812046FFF74FFFC4F89050F7E7D4F8AA
:1035C0006CC02027BCF1010F7ED15FEAC06C7BD5B7
:1035D0005FEAC16C78D510201862206880684006C8
:1035E00045D5D4F88010086840680004000CDED08F
:1035F000B4F85C208242DAD9A4F85E00086800685A
:1036000080062CD4216851E8000F20F4807041E836
:103610000002002AF6D12068083050E8001F21F08F
:10362000010140E80012002AF5D12068083050E876
:10363000001F21F0400140E80012002AF5D1C4F833
:103640008C70E566206850E8001F21F0100140E80A
:103650000012002AF6D1D4F88000FDF7A7FE2667F5
:10366000B4F85C00B4F85E10401A81B230E0B4F8EF
:103670005C00B4F85E10401A81B2B4F85E00002815
:1036800095D0002993D0226852E8000F20F4907062
:1036900042E80003002BF6D12F4BDB4320680830B3
:1036A00050E8002F1A4040E8002CBCF1000FF5D183
:1036B000C4F88C70E5666567226852E8000F20F058
:1036C000100042E8000300E006E0002BF4D126677A
:1036D0002046FFF770FE6AE7C60209D5560207D5F5
:1036E0004FF4801018622046BDE8F041FFF7B2BEEB
:1036F00003060AD501F0800302F40002134304D04C
:10370000A16F00297FF44CAF51E7420611D54A065C
:103710000FD52046026852E8001F21F0400142E820
:103720000013002BF6D1C0F88870856700F023F9EC
:103730003DE7020206D54A0004D52046BDE8F04127
:10374000FFF787BEC001C6D50029C4DA2046BDE810
:10375000F041FFF731BE000001000010200100041D
:103760005157000810B5040003D0D4F8880010B1F8
:1037700007E0012010BD002084F88400204600F0FE
:1037800027F82420C4F888002068016821F001018E
:103790000160A06A10B1204601F020FF204602F02F
:1037A00073FA0128E6D02068416821F49041416015
:1037B0002068816821F02A0181602068016841F059
:1037C000010101602046BDE8104001F06BBF000020
:1037D00010B598B00446142111A8FCF753FD4421FC
:1037E0006846FCF74FFD1B492068884230D1012014
:1037F0000024CDE900046846FEF788F808B1FDF71B
:10380000FFF81548016E41F480410166016E01F434
:1038100080411691C16C41F00101C164C06C11A9D5
:1038200000F0010016904FF4C06011900220CDE925
:1038300012040720CDE914404FF09040FDF73AFE06
:10384000002211462520FDF7C9FF2520FDF7B8FF0E
:1038500018B010BD003801400010024030B4D0F85C
:103860008C30202B02D0022030BC7047A9B1A2B10D
:103870000023C3660A4C0368A3420BD05B681B029B
:1038800008D5046854E8003F43F0806344E80035FD
:10389000002DF6D130BC02F031BB0120E4E700007E
:1038A000008000400549064B48780A781A54401CAD
:1038B000487001220348FFF7D1BF00006C000020D0
:1038C000CC030020380300202DE9F8430446D0F84B
:1038D0008800984616460D46202802D00220BDE8F2
:1038E000F883A5B19EB10020C4F890002120C4F84F
:1038F00088001834FDF70CFFA6878146E68754F848
:10390000100C2027183CB0F5805F02D003E00120A6
:10391000E5E7206910B12E46002510E000260EE0F4
:103920008021204602F072FBC0B9DEB116F8010B0F
:1039300021688862B4F85600401EA4F85600B4F816
:1039400056004B464FF00002CDF800800028E7D12A
:103950004FF04001204602F059FB40B1C4F8887096
:103960000320BCE735F8020BC0F30800E0E7C4F819
:1039700088700020B3E77047FEE770B50824002583
:1039800001F0F6FA13E06806050E002001F0D8FAFF
:10399000142003F061F8142003F05EF8012001F018
:1039A000CFFA142003F058F801F0D6FA0543641E4C
:1039B000E4B2E8D2002001F0C3FA142003F04CF87E
:1039C00001F0F8FA284670BD10B5002001F0E6FAC3
:1039D000142003F041F8142003F03EF8012001F018
:1039E000AFFA142003F038F8002001F0A9FABDE87E
:1039F0001040142003F030B870B50446082516E0D6
:103A000001F09EFA142003F027F804F0800001F082
:103A1000C5FA142003F020F86006040E142003F009
:103A20001BF8012001F08CFA142003F015F86D1E2C
:103A3000EDB24FF00000E3D201F082FABDE8704031
:103A4000142003F009B810B5012001F0A7FA1420E2
:103A500003F002F8142002F0FFFF012001F070FAD9
:103A6000142002F0F9FF002001F06AFABDE81040CE
:103A7000142002F0F1BF10B5012001F08FFA1420DC
:103A800002F0EAFF012001F05BFA142002F0E4FFEB
:103A9000002001F083FA142002F0DEFF002001F084
:103AA0004FFABDE81040142002F0D6BF10B5002038
:103AB00001F046FA142002F0CFFF002001F06EFA68
:103AC000142002F0C9FF012001F03AFA142002F09C
:103AD000C3FF012001F062FABDE81040142002F09B
:103AE000BBBF10B5052401F043FA142002F0B4FF67
:103AF000012001F025FA142002F0AEFF05E0641E5B
:103B0000A4B2142002F0A8FF6CB101F025FA00283D
:103B1000F5D101F04FFA002001F012FA142002F062
:103B20009BFF002010BD01F045FAFFF7BFFF012009
:103B300010BD70B515460E460446FFF79CFFA02049
:103B4000FFF75AFFFFF7CDFF3046FFF755FFFFF7AE
:103B5000C8FFFFF790FFA120FFF74EFFFFF7C1FF5F
:103B600009E0FFF70AFF04F8010B15B1FFF72CFF7E
:103B700001E0FFF768FF6D1EEDB2F2D2BDE87040C4
:103B8000FFF794BF70B515460E460446FFF773FF66
:103B9000A020FFF731FFFFF7A4FF304602E000BF8F
:103BA00014F8010BFFF728FFFFF79BFF6D1EEDB226
:103BB000F6D2FFF77BFFBDE870404FF4FA7002F0D9
:103BC0004BBF000070B529480168294C226A891A48
:103BD00032294AD300682062264D204600262978E3
:103BE0000078012905D118B9217981F001012171ED
:103BF0002E706978012906D180F001002070002024
:103C000000F068F86E70A878012809D1207830B1EA
:103C10006078401CC0B26070042800D16670AE703D
:103C2000E878012821D1124861781830012904D0A0
:103C300002290AD0032910D016E00178491CC9B224
:103C40000170182910D106700EE04178491CC9B2E4
:103C500041703C2908D1467006E08178491CC9B200
:103C600081703C2900D18670EE7070BD3800002054
:103C7000000000205600002000B585B014216846E1
:103C8000FCF700FB4FF6FF70009000200321CDE908
:103C90000201019069460248FDF70CFC05B000BD29
:103CA0000008004800B585B014216846FCF7EAFA20
:103CB0004FF6FF7000900120019003200390002038
:103CC000029069460248FDF7F5FB05B000BD000013
:103CD0000008004870B5002406462146204600F042
:103CE00047FA00F085FA4FF49635304600F054FA62
:103CF000641CAC42F9D370BD30B587B0142168465E
:103D0000FCF7C0FA1E48C16C41F00401C164C16CEB
:103D100001F004010591C16C41F00101C164C16C65
:103D200001F001010591C16C41F00201C164C06C58
:103D3000012500F0020005904FF44870CDE9000520
:103D400000240394694602940E48FDF7B3FB280251
:103D500003940090CDE901544FF090446946204609
:103D6000FDF7A8FBFFF79EFFA06940F48070A061FB
:103D700004481830016841F40871016007B030BD93
:103D80000010024000040048203AD2B2034B02EB7C
:103D9000420203EB021200F02DB80000286C00086C
:103DA00070B515460C460646B1F5A07F09D340F222
:103DB0003F1406E021463046FFF7E6FF103CA4B270
:103DC0006D1C2A78002AF5D170BDF0B50E46074665
:103DD000002540F23F1407E021463846FFF7D4FFA4
:103DE000103C6D1CA4B2761C3278002A01D0142D30
:103DF000F2D3F0BD2DE9F04791468A4600260446ED
:103E000000F0B6F9DFF84080012700BF00F0F0F9BC
:103E10005FF0000539F8160007FA05F10842404640
:103E200001D1408800E0008800F0B6F96D1C102D2B
:103E3000F0D3641CE4B25146204600F099F9761C98
:103E4000182EE3D3BDE8F0874000002010B5FFF73F
:103E500053FF002000F044F9084CA080A088A0F592
:103E60000241303906D000F0A6FE002000F038F9FB
:103E7000A08010BD00F016FEF7E700004000002013
:103E8000F8B575480168754C626A891AC8297DD3EE
:103E900000686062002060710146012204F10B009D
:103EA000FFF747FE04F10B000078FCF7F2FA9FEDF4
:103EB0006C1B53EC112BFCF76CFAFCF73BFB2061FD
:103EC00021784FF6FF70002963D0064600F05CF9B8
:103ED00015216548FCF7D6F964A1634802F03EF964
:103EE000614AD0211820FFF75BFF15215E48FCF7DF
:103EF000C9F904F118055FA12A785B4802F02EF990
:103F000060784FF4FC6701287ED0304600F03CF921
:103F1000554AE0216020FFF743FF15215248FCF786
:103F2000B1F96A7853A1504802F018F9304600F010
:103F30002BF92D22C0216020FFF726FF6078022890
:103F400076D0304600F020F9474AB0216020FFF7D4
:103F500027FF15214448FCF795F9AA7845A1424866
:103F600002F0FCF8304600F00FF92D22902160207D
:103F7000FFF70AFF607803286BD0304600F004F9A1
:103F8000BDE8F8408021384A602000E063E0FFF798
:103F900007BF00F0F9F815213348FCF773F937A192
:103FA000314802F0DBF830491820FFF70EFF1521E9
:103FB0002D48FCF767F93548FCF724FD53EC102B2E
:103FC00033A1294802F0CAF827494820FFF7FDFE2F
:103FD00015212548FCF756F92069FCF767FA41ECF2
:103FE000100B2FA153EC102B1F4802F0B7F81E49FD
:103FF0006020FFF7EAFE15211B48FCF743F9207902
:10400000012820D02AA200E01FE02AA1164802F0D1
:10401000A5F815497820FFF7D8FE15211248FCF7BE
:1040200031F911481438817800914378027800E022
:104030000DE024A1143002F091F8BDE8F8400A49DF
:104040009020FFF7C2BE25A2DDE738465EE738467E
:1040500078E7384692E7F8BD3800002000000020DD
:104060000000000000002440A40000205365747488
:10407000696E670025303264000000002020202097
:104080002044697370203120202020002801002066
:104090002020202056313A20252E3266560000007E
:1040A000202020204B203A2025302E3166000000B1
:1040B0004F464600202020204C45443A20257320BE
:1040C0002020200020202020543A20253032642D4A
:1040D000253032642D253032642020004F4E000000
:1040E00070B51D490A6842F400720A600A6842F419
:1040F00080720A60184C103C226842F02002226054
:10410000164A1060086840F02000086000BF00BF39
:1041100000BF206840F020002060206840F48070DC
:104120002060FFF7A9FD4FF09041886A40F480704D
:10413000886200BF00BF00BF0848001F006885B24A
:10414000886940F480708861FFF7ACFD206840F416
:1041500000702060284670BD2804004814080048FC
:1041600001B5BDF800000149488008BD40000020AD
:1041700010B50C460146202000F068F82146BDE845
:104180001040212000F062B801B5BDF800000149DF
:10419000088008BD40000020134A116841F40071F6
:1041A0001160114910390B6843F480730B600B6880
:1041B00043F020030B600D4B1860106840F02000A6
:1041C000106000BF00BF00BF086840F0200008601A
:1041D000086840F48070086000BF00BF00BF086836
:1041E00040F4007008607047280400481408004834
:1041F0001449086840F400700860086840F4807052
:10420000086010481038026842F0200202600E4B2D
:1042100022221A600A6842F020020A6000BF00BF32
:1042200000BF016841F020010160016841F4807124
:10423000016000BF00BF00BF016841F40071016070
:10424000704700002804004814080048184B10B5B7
:104250001A6842F400721A601A6842F480721A6096
:10426000134A103A146844F020041460114C206082
:10427000186840F02000186000BF00BF00BF106841
:1042800040F020001060106840F4807010602160E1
:10429000186840F02000186000BF00BF00BF106821
:1042A00040F020001060106840F48070106010BD75
:1042B000280400481408004870B50D4D044601223A
:1042C00004212846FDF71FFA0A4E01224FF6FF711E
:1042D0003046FDF718FA210200223046FDF713FAA6
:1042E0002846BDE8704000220421FDF70CBA00000A
:1042F000000C00480008004810B5094C01220421B8
:104300002046FDF700FA01224FF6FF710548FDF740
:10431000FAF920460022BDE810400421FDF7F3B968
:10432000000C00480008004870B524482DED048BAF
:104330000168234CE269891AC8293BD30068E0610F
:1043400020799FED208A002560B394ED040A20EEC9
:10435000080A10EE100AFCF7A9F841EC190B1A48EC
:10436000FCF750FB53EC192B51EC100BFCF7CAF87F
:1043700004D2A07980F00100A07114E094ED040A49
:1043800020EE080A10EE100AFCF790F841EC180B2A
:104390000D48FCF737FB53EC182B51EC100BFCF7D6
:1043A00099F800D2A571A079BDEC048BBDE87040EE
:1043B000FFF782BFBDEC048B70BD00003800002009
:1043C00000000020333353402801002000EB81001F
:1043D000006E00F0F84070478068C0F3C00070477E
:1043E0008068C0F3800070478068C0F38000704729
:1043F000042303EAD15310B518444369C1F30451AF
:1044000007248C40A3438A401343436110BD00EB53
:104410008100016E21F000411143016670470000E8
:1044200030B58BB0002408940994202168460A9482
:10443000FBF728FF1C484FF0A041042501604FF412
:104440000031C0E90114C4600461C0E90545047786
:1044500044770121016280F82440C462046380F83B
:104460003840C46380F84040FCF7BAFD08B1FCF75F
:10447000C7FA08A90C480894FCF730FB08B1FCF710
:10448000BFFA0A4800900620CDE901047F20059478
:10449000CDE9030569460448FCF78CFB002801D0F0
:1044A000FCF7AEFA0BB030BDBC0000200008302E87
:1044B00030B589B020216846FBF7E4FE1948184959
:1044C000002401604902C0E90114C46004250461AC
:1044D000C0E90545047744770121016280F8244052
:1044E000C462046380F83840C46380F84040FCF73D
:1044F00077FD08B1FCF784FA0B4800900620CDE95F
:1045000001047F200594CDE9030569460548FCF7C1
:1045100051FB002801D0FCF773FA09B030BD000050
:1045200000010050280100200080F03E2DE9F041FC
:1045300086B014216846FBF7A5FE3648C16C41F0F1
:104540000401C164C16C01F004010591C16C41F02A
:104550002001C164C16C01F020010591C16C41F0E2
:104560000101C164C16C01F001010591C16C41F010
:104570000201C164C16C01F002010591C16C41F0FE
:104580000801C164C06C244E00F008004FF47F4461
:104590000590012221463046FDF7B5F81F4F002255
:1045A00004213846FDF7AFF8DFF874800022C021FF
:1045B0004046FDF7A8F80125CDE900450024029406
:1045C000694630460394FCF775FFCDE9005469460F
:1045D0004FF090400295FCF76DFF07208DE8310009
:1045E00069464046FCF766FF04200090CDE901547F
:1045F000694638460394FCF75DFFC0200090CDE982
:104600000154694640460394FCF754FF06B0BDE8E8
:10461000F08100000010024000080048000C004833
:104620000004004810B586B014216846FBF72AFE46
:10463000214800241F490594C0E900147D218160B0
:1046400041F27071C0E903144FF080414461C0E948
:1046500006410462FDF736FE08B1FCF7D1F92320CC
:104660008DF8000059208DF8010055208DF80200CA
:1046700001940394012269460F480494FDF7ECFE6F
:1046800008B1FCF7BDF905208DF8140003208DF862
:10469000150001208DF8160024208DF81700012246
:1046A00005A90548FDF788FE002801D0FCF7A8F908
:1046B00006B010BD002800409401002010B594B051
:1046C0001C210DA8FBF7DEFD34216846FBF7DAFD5F
:1046D00020481F490024016041F63F71C0E90114E0
:1046E0006321C0E9031444618461FDF7F0FF08B160
:1046F000FCF786F91748FEF706FD08B1FCF780F9CC
:1047000060200D901420CDE90E04109411941294A1
:1047100000220DA90F481394FEF763FC08B1FCF7C3
:104720006FF900944FF40050CDE9044001940294D5
:1047300003940694694607480C94FDF727FF08B1D7
:10474000FCF75EF90348FEF713FC14B010BD00003F
:1047500000440140A002002010B594B01C210DA817
:10476000FBF790FD34216846FBF78CFD20481F497C
:104770000024016040F69F71C0E901146321C0E983
:10478000031444618461FDF7A2FF08B1FCF738F916
:104790001748FEF7B8FC08B1FCF732F960200D901D
:1047A0002820CDE90E0410941194129400220DA932
:1047B0000F481394FEF715FC08B1FCF721F900949B
:1047C0004FF40050CDE90440019402940394069400
:1047D000694607480C94FDF7D9FE08B1FCF710F9BB
:1047E0000348FEF7C5FB14B010BD000000480140AF
:1047F000EC02002010B58CB00024059427480494E6
:104800000694079408940A940994009401940294DD
:104810004FF08041039401604F21C0E901144FF62D
:10482000FF71C0E903148461FDF751FF08B1FCF783
:10483000E7F84FF48050049004A91848FEF744F8B4
:1048400008B1FCF7DDF81548FEF776F908B1FCF77A
:10485000D7F8089408A911480A94FDF7E9FE08B1B1
:10486000FCF7CEF80120CDE9004002940022694611
:104870000A480394FEF7CEF808B1FCF7C1F802200D
:1048800000900190042269460448FEF7C3F800280E
:1048900001D0FCF7B5F80CB010BD0000BC01002041
:1048A00010B58CB00024059427480494069407940E
:1048B00008940A9409940094019402942149039461
:1048C00001604F21C0E901144FF6FF71C0E90314E4
:1048D0008461FDF7FCFE08B1FCF792F84FF48050BC
:1048E000049004A91848FDF7EFFF08B1FCF788F819
:1048F0001548FEF721F908B1FCF782F8089408A9D9
:1049000011480A94FDF794FE08B1FCF779F80120EC
:10491000CDE900400294002269460B480394FEF75B
:1049200079F808B1FCF76CF802200090019004229D
:1049300069460548FEF76EF8002801D0FCF760F8DC
:104940000CB010BD000400400802002010B588B073
:10495000002417480094019402940394049405944D
:104960001249069401604F21C0E9011442F20F710F
:10497000C0E903148461FDF7AAFE08B1FCF740F812
:104980004FF48050009069460948FDF79DFF08B13B
:10499000FCF736F8049404A905480694FDF748FE90
:1049A000002801D0FCF72CF808B010BD000800402A
:1049B00054020020184810B5164901604FF41651F2
:1049C0004160002181600C22C160C0E90412816154
:1049D000C161016241628162FEF7C4FE08B1FCF769
:1049E0000FF800210C48FEF70EFD08B1FCF708F89F
:1049F00000210948FEF7E1FC08B1FCF701F8064880
:104A0000FEF7BAFC002803D0BDE81040FBF7F8BF62
:104A100010BD00000038014038030020FEE7FEE72B
:104A2000704700002DE9F0410C461E46154607462A
:104A30000021DDF81880FEF789FC00EE100A042141
:104A40003846B8EE400A84ED000AFEF77FFC00EE1F
:104A5000100A00213846B8EE400A85ED000A00F041
:104A600069FA0421384600F065FA94ED000ADFED9A
:104A70000B0A80EE801ABCEEC10A10EE100A3080DC
:104A8000D5ED000A94ED001A80EE810ADFED040AEC
:104A900020EE200A88ED000ABDE8F0810024744968
:104AA0000000C84230B501210020FFF7CFFB4FF4D2
:104AB0007A70FBF797FF00210120FFF7C7FB41F257
:104AC00090711020FFF7C2FB4FF41C516020FFF7DC
:104AD000BDFB01216120FFF7B9FB02214620FFF752
:104AE000B5FB48F210011320FFF7B0FB48F2FE01BE
:104AF0001220FFF7ABFB4FF4A0610220FFF7A6FBEB
:104B000041F230010320FFF7A1FB40F203342146BC
:104B10003020FFF79BFB21463120FFF797FB214612
:104B20003220FFF793FBE51E29463320FFF78EFB6B
:104B300003213420FFF78AFB21463520FFF786FB4F
:104B400014213620FFF782FB21463720FFF77EFB3A
:104B500021463820FFF77AFB21463920FFF776FB04
:104B600029463A20FFF772FB03213B20FFF76EFB3B
:104B700021463C20FFF76AFB4FF4A0513D20FFF790
:104B800065FB4FF400719220FFF760FB21469320F4
:104B9000FFF75CFB40F60D019020FFF757FB41F259
:104BA00018010320FFF752FBBDE8304040F27311BB
:104BB0000720FFF74BBB10B543F20801E320FFF7D6
:104BC00045FB1221E720FFF741FB41F23121EF20A5
:104BD000FFF73CFB00210120FFF738FB4FF4E061B9
:104BE0000220FFF733FB41F230010320FFF72EFBD9
:104BF00000210420FFF72AFB40F207210820FFF7DD
:104C000025FB00210920FFF721FB00210A20FFF7E7
:104C10001DFB00210C20FFF719FB00210D20FFF7E1
:104C200015FB00210F20FFF711FB00211020FFF7DB
:104C30000DFB07211120FFF709FB00211220FFF7D0
:104C400005FB00211320FFF701FBC820FCF720FC27
:104C500041F290611020FFF7F9FA40F2272111206C
:104C6000FFF7F4FA3220FCF713FC1D211220FFF7A6
:104C7000EDFA3220FCF70CFC4FF400611320FFF733
:104C8000E5FA14212920FFF7E1FA0B212B20FFF789
:104C9000DDFA3220FCF7FCFB00212020FFF7D6FADA
:104CA00000212120FFF7D2FA07213020FFF7CEFAAA
:104CB00040F207713120FFF7C9FA06213220FFF7D1
:104CC000C5FA40F204713520FFF7C0FA41F60471CD
:104CD0003620FFF7BBFA04213720FFF7B7FA00218F
:104CE0003820FFF7B3FA40F206713920FFF7AEFA29
:104CF00040F201713C20FFF7A9FA0F213D20FFF798
:104D0000A5FA00215020FFF7A1FAEF215120FFF76B
:104D10009DFA00215220FFF799FA40F23F115320EB
:104D2000FFF794FA4FF41C516020FFF78FFA01212E
:104D30006120FFF78BFA00216A20FFF787FA002134
:104D40008020FFF783FA00218120FFF77FFA0021FE
:104D50008220FFF77BFA00218320FFF777FA0021FA
:104D60008420FFF773FA00218520FFF76FFA1021E6
:104D70009020FFF76BFA00219220FFF767FA0321DA
:104D80009320FFF763FA4FF488719520FFF75EFADE
:104D900000219720FFF75AFA00219820FFF756FAD2
:104DA00041F218010320FFF751FABDE8104040F22C
:104DB00073110720FFF74ABA010901EB810100F0E6
:104DC0000F0000EB4100C0B270470022014602E034
:104DD0000A39C9B2521C0A29FAD2100741EA1060F6
:104DE000704700002DE9F041044600680025C168C5
:104DF000490619D4C16841F08001C160FCF788FC04
:104E000006464FF47A78032708E000BFFCF780FCE1
:104E1000801B404502D9032584F825702068C068AE
:104E2000400601D4032DF1D12846BDE8F08170B5CC
:104E3000044600680025C16821F08001C160206837
:104E400081694FF00306890607D42046FDF76AFB07
:104E500098B184F8256003250FE0816921F02001D5
:104E600081612046FDF75EFB10B184F825600325C3
:104E70002068816941F020018161284670BD0000F1
:104E800070B5204886B001681F4DAA6A891AB1F52D
:104E90007A7F35D30068A86200221C491C48FDF7C0
:104EA000E7F9002205F114011948FDF7BFF9174C85
:104EB00005F1180021780278914221D16178427879
:104EC00091421DD1A1788078814219D1687900285A
:104ED00016D1012068712869FBF7E8FA05460E46ED
:104EE0000C48FBF78FFDA07861782278CDE902218C
:104EF000CDE90056049053EC102B07A001F01EF9E9
:104F000006B070BD38000020000000209000002096
:104F10009401002028010020252E32662B252E31F9
:104F2000662B2530326425303264253032640D0A18
:104F300000000000036800225A62FDF72FBE000047
:104F400008B1044801E003481030016841F0400115
:104F5000016070471804004810B580210348FCF731
:104F6000CDFB012800D0002010BD00000004004847
:104F700000B585B014216846FBF784F980200090C5
:104F8000002001900120029002200390694602480F
:104F9000FCF790FA05B000BD0004004808B10448D1
:104FA00001E003481030016841F080010160704762
:104FB0001804004800B585B014216846FBF762F973
:104FC0008020009011200190002002900220039088
:104FD00069460248FCF76EFA05B000BD00040048BF
:104FE0007047FCF79BBB10B594B038216846FBF7BF
:104FF00049F914210EA8FBF745F94FF40070FCF7AE
:105000001FFC012000900004019002200324CDE940
:1050100007041421CDE90A100C900D9009946846FC
:10502000FCF702FF08B172B6FEE70F20CDE90E04CF
:10503000002010901190129002210EA8FCF7AAFDFA
:10504000002801D072B6FEE714B010BD0248016816
:1050500041F470010160704788ED00E00148FDF700
:10506000B5BE0000BC0100200148FDF7AFBE000046
:10507000080200200148FDF7A9BE000054020020EC
:105080002DE9F0430268264B264D274E274C4FF062
:105090008049984207D0484505D0A84203D0B04285
:1050A00001D0A04203D122F070074A683A43204F52
:1050B000DFF880C0DFF8808098420DD048450BD0E3
:1050C000A84209D0B04207D0A04205D0B84203D0D0
:1050D000604501D0404503D122F44075CA682A4397
:1050E0004D6922F080022A4302608A68C2620A681F
:1050F0008262984207D0A04205D0B84203D06045F2
:1051000001D0404501D10969016301214161016973
:10511000C90703D0016921F001010161BDE8F083F5
:10512000002C014000040040000800400034014011
:1051300000400140004401400048014010B501F02A
:105140001F030121046A99408C430462016A9A405A
:105150001143016210BD10B5846842EA032224F4B1
:105160007F440A432243826010BD00008268034BE3
:105170001A400A4342F00701816070478FFFCFFF5A
:105180002DE9F043056A026A22F0010202624368D7
:1051900082691C4C25F0020522400C6822F00302B3
:1051A00014438A68194E2A43174D194FDFF864C01B
:1051B000DFF86490A84207D0B04205D0B84203D0CF
:1051C000604501D0484506D122F00808CA6842EA85
:1051D000080222F00402A84207D0B04205D0B8422B
:1051E00003D0604501D0484505D14D6923F4407393
:1051F0001D438B692B4343608461496841630262AC
:10520000BDE8F0838FFFFEFF002C01400034014019
:10521000004001400044014000480140F0B5056AEB
:10522000026A22F01002026242688369194C1B4E26
:1052300023400C6823F4407343EA042425F0200340
:105240008D6843EA0513144DA84201D0B04206D13F
:10525000CF6823F0800343EA071323F04003A842FA
:105260000AD0B04208D00E4DA84205D00D4DA8423C
:1052700002D00D4DA84207D14D6922F4406242EAA6
:1052800085028D6942EA85024260846149688163D2
:105290000362F0BDFF8FFFFE002C0140003401408F
:1052A000004001400044014000480140F0B5056A5B
:1052B000026A22F4807202624368C269194C1B4E72
:1052C00022400C6822F00302144325F400728D681A
:1052D00042EA0522144DA84201D0B04206D1CF685F
:1052E00022F4006242EA072222F48062A8420AD035
:1052F000B04208D00E4DA84205D00E4DA84202D0B3
:105300000D4DA84207D14D6923F4405343EA0513DC
:105310008D6943EA05134360C4614968C163026251
:10532000F0BD00008FFFFEFF002C01400034014063
:10533000004001400044014000480140F0B5056ACA
:10534000026A22F4805202624268C369194C1B4E01
:1053500023400C6823F4407343EA042425F40053EB
:105360008D6843EA0533144DA84201D0B04206D1FE
:10537000CF6823F4004343EA073323F48043A84271
:105380000AD0B04208D00E4DA84205D00D4DA8421B
:1053900002D00D4DA84207D14D6922F4404242EAA5
:1053A00085128D6942EA85124260C46149680164D0
:1053B0000362F0BDFF8FFFFE002C0140003401406E
:1053C00000400140004401400048014030B5056AFA
:1053D000026A22F4803202624268036D114C23405B
:1053E0000C681C4325F400330D8943EA05430E4D38
:1053F000A8420BD00D4DA84208D00D4DA84205D0B3
:105400000C4DA84202D00C4DA84204D14D6922F4A3
:10541000803242EA05224260046549688164036281
:1054200030BD00008FFFFEFF002C01400034014022
:1054300000400140004401400048014030B5046A8A
:10544000026A22F4801202624268036D114D24F454
:1054500000142B400D6843EA05230D8944EA0554E6
:105460000D4DA8420BD00D4DA84208D00C4DA842BE
:1054700005D00C4DA84202D00B4DA84204D14D6975
:1054800022F4802242EA8522426003654968C164B1
:10549000046230BDFF8FFFFE002C0140003401404C
:1054A00000400140004401400048014010B5036A3B
:1054B000046A24F001040462846924F0F00444EADC
:1054C000021423F00A020A438461026210BD000044
:1054D00070B5056A046A24F0010404628469124EFE
:1054E000B0420ED0B0F1804F0BD0104EB04208D079
:1054F0000F4EB04205D00F4EB04202D00E4EB04219
:1055000003D124F00304144301E044F001041A071A
:1055100024F0F00444EA126225F00A0301F00A01C3
:1055200019438261016270BD002C014000040040FB
:1055300000080040003401400040014010B5036AFB
:10554000046A24F010040462846923F0A00324F4A4
:10555000704444EA023243EA01118261016210BDE3
:1055600030B5046A056A25F010050562856925F4E1
:10557000407545EA022222F470454FF6FF7202EAB6
:10558000033224F0A0032A43A02404EA01111943A2
:105590008261016230BD000030B5416EB9B1026870
:1055A00091689268C1F342610B4B520F9C5CE5001D
:1055B00003F10804A25CB5FBF2F2A0F86A205A5C81
:1055C000615CD200B2FBF1F1A0F8681030BD01219E
:1055D000A0F86A10F8E70000006C000890F82810A6
:1055E000090706D501684A68836B22F400421A4312
:1055F0004A6090F82810C90706D001684A68C36A53
:1056000022F400321A434A6090F82810890706D520
:1056100001684A68036B22F480321A434A6090F8AA
:105620002810490706D501684A68436B22F4802296
:105630001A434A6090F82810C90606D501688A689E
:10564000C36B22F480521A438A6090F828108906AE
:1056500006D501688A68036C22F400521A438A60F6
:1056600090F82810490611D501684A68436C22F465
:1056700080121A434A60416CB1F5801F06D101685F
:105680004A68836C22F4C0021A434A6090F82810DA
:10569000090606D501684A68C06C22F4002202435C
:1056A0004A6070472DE9F84300260446C0F8906030
:1056B000FCF72EF88046206800684FF020050007B0
:1056C0006FF07E4713D543460022290420460097F9
:1056D00000F09CFC58B1216851E8000F20F08000D8
:1056E00041E80002002AF6D1C4F8885021E0206881
:1056F0000068400722D5434600224FF4800120462F
:10570000009700F083FCC8B1216851E8000F20F435
:10571000907041E80002002AF6D12068083050E875
:10572000001F21F0010140E80012002AF5D1C4F861
:105730008C5084F884600320BDE8F883C4F8885056
:10574000C4F88C5044F86C6F666026760020F3E74E
:1057500010B5806A0021A0F85E10A0F85610FDF781
:105760007AFE10BD10B5026852E8001F21F4907156
:1057700042E80013002BF6D10E4B0268083252E8C3
:10578000001F194042E80014002CF6D1C16E012917
:1057900008D1016851E8002F22F0100241E80023EF
:1057A000002BF6D12021C0F88C100021C166416782
:1057B00010BD0000FEFFFFEF10B5B0F86020D0F87C
:1057C0008C300168222B04D0886940F00800886181
:1057D00010BD496A836D11401980816D891C8165F6
:1057E000B0F85E10491EA0F85E10B0F85E100029F7
:1057F000EED1026852E8001F21F4907142E80013D4
:10580000002BF6D10168083151E8002F22F0010287
:1058100041E80023002BF5D12021C0F88C10002195
:1058200041670167154B02689A420BD05268120219
:1058300008D5036853E8002F22F0806243E8002473
:10584000002CF6D1C26E012A02D0FEF72BF810BD53
:10585000C166026852E8001F21F0100142E80013FF
:10586000002BF6D10168CA69D243D20601D41022B6
:105870000A62B0F85C10FDF79EFD10BD008000408C
:105880002DE9F0470446B0F860600068C569D0F8BB
:1058900000A0D0F80880D4F88C10222905D08169A6
:1058A00041F008018161BDE8F087B4F868704FF0FD
:1058B000000975E02068406AA16D30400880A06D45
:1058C000801CA065B4F85E00401EA4F85E0020684D
:1058D000C569690730D0E9070AD05FEACA5107D520
:1058E00001210162D4F8900040F00100C4F890005A
:1058F000A8070BD55FEAC87008D0216802200862AB
:10590000D4F8900040F00400C4F8900068070BD56C
:105910005FEAC87008D0216804200862D4F89000BB
:1059200040F00200C4F89000D4F8900020B1204666
:10593000FDF791FDC4F89090B4F85E0080BB21683B
:1059400051E8000F20F4807041E80002002AF6D1EF
:10595000304A2068083050E8001F114040E800132A
:10596000002BF6D12020C4F88C00C4F8749049466E
:10597000C4F87090284A206890420BD0406800021A
:1059800008D5226852E8000F20F0806342E800301A
:105990000028F6D1E06E012825D02046FDF782FFD1
:1059A0000FB1A80686D4B4F85E0000283FF47BAFA0
:1059B000B4F8681081427FF676AF2068083050E86E
:1059C000001F21F0805140E80012002AF5D1134851
:1059D0006067216851E8000F40F0200041E80002B4
:1059E000002AF6D15FE7E166216851E8000F20F058
:1059F000100041E80002002AF6D12068C169C943BD
:105A0000C90601D410210162B4F85C102046FDF7EC
:105A1000D2FCC5E7FEFFFFEF00800040B957000849
:105A200010B5B0F86020D0F88C300168222B04D07B
:105A3000886940F00800886110BD496A1140826D94
:105A40001170816D491C8165B0F85E10491EA0F887
:105A50005E10B0F85E100029EED1016851E8002F09
:105A600022F4907241E80023002BF6D1016808313E
:105A700051E8002F22F0010241E80023002BF5D16C
:105A80002021C0F88C10002141670167154B026886
:105A90009A420BD05268120208D5036853E8002FCF
:105AA00022F0806243E80024002CF6D1C26E012A65
:105AB00002D0FDF7F7FE10BDC166026852E8001F74
:105AC00021F0100142E80013002BF6D10168CA69E9
:105AD000D243D20601D410220A62B0F85C10FDF75E
