:020000040800F2
:1000000058080020F10100087B4800085D36000810
:100010007948000845090008895E000800000000D2
:100020000000000000000000000000009D4D0008DE
:1000300047090008000000007D480008BD4D000889
:100040000B0200080B0200080B0200080B0200085C
:100050000B0200080B0200080B0200080B0200084C
:100060000B0200080B0200080B0200080B0200083C
:100070000B0200080B0200080B0200080B0200082C
:100080000B020008000000000B0200080B02000831
:100090000B0200080B0200080B0200080B0200080C
:1000A000394E0008514E0008454E00080B0200086A
:1000B0005D4E0008694E0008754E00080B020008EE
:1000C0000B0200080B0200080B0200080B020008DC
:1000D0000B020008755B00080B0200080B02000809
:1000E0000B0200080B0200080B0200080B020008BC
:1000F0000B0200080B0200080B02000800000000C1
:10010000000000000B020008000000000B020008C5
:100110000B020008000000000B0200080B020008A0
:100120000B0200080B0200080B0200080B0200087B
:100130000B02000800000000000000000B02000895
:100140000B0200080B020008000000000000000085
:10015000000000000000000000000000000000009F
:100160000000000000000000000000000B0200087A
:100170000B0200080000000000000000000000006A
:10018000000000000B02000800000000000000005A
:10019000000000000000000000000000000000005F
:1001A00000000000000000000B0200080B02000825
:1001B0000B0200080B0200080B0200080000000000
:1001C000000000000B02000800000000000000001A
:1001D0000B0200080B020008DFF810D000F0F2FA62
:1001E0000048004709680008AFF300805808002065
:1001F0000648804706480047FEE7FEE7FEE7FEE7C1
:10020000FEE7FEE7FEE7FEE7FEE7FEE7294E000811
:10021000D90100082DE9F05F0546002092469B4673
:1002200088460646814640241BE02846414647460C
:10023000224600F083F953465A46C01A914110D322
:1002400011461846224600F06AF92D1A67EB01089C
:100250004F4622460120002100F061F917EB00090A
:100260004E41201EA4F10104DFDC484631462A46F7
:100270004346BDE8F09F40EA01039B0703D009E035
:1002800008C9121F08C0042AFAD203E011F8013B82
:1002900000F8013B521EF9D27047D2B201E000F8DB
:1002A000012B491EFBD270470022F6E710B513461A
:1002B0000A4604461946FFF7F0FF204610BD2DE917
:1002C000FE4F81EA030404F0004421F00041009451
:1002D0004FF0000B23F0004350EA01045ED052EAD5
:1002E00003045BD0C3F30A54C1F30A552C44A4F2AF
:1002F000F3340194A0FB0254C1F3130141F48011C3
:10030000C3F3130343F4801301FB024400FB034EC9
:10031000840A970A44EA815447EA8357A4FB076892
:1003200002958D0A05FB07854FEA932C04FB0C54BC
:100330002705029D4FEA065847EA1637B5EB080530
:100340006EEB070C870E920E47EA811742EA831282
:10035000A7FB0201B6EB0B0164EB00042B0D43EA93
:100360000C335E1844EB1C50DA465146E7FB0201A1
:10037000C5F313044FEA0B3343EA14534FEA043234
:10038000019C43EA0603A4F10C040294009CCDE90D
:1003900000B400F0F2F803B0BDE8F08F0020014691
:1003A000F9E72DE9F04D81EA030404F0004B21F058
:1003B000004514464FF0000A23F0004150EA0502C0
:1003C00020D054EA01021DD0C5F30A570246C5F3F6
:1003D0001303C1F31300C1F30A5640F4801543F42C
:1003E0008013A7EB0608101BD64608F2FD3873EB06
:1003F000050002D308F1010801E092185B41B8F151
:10040000000F03DA00200146BDE8F08D00204FF414
:100410008011064684460EE0171B73EB050705D3D3
:10042000121B63EB050306434CEA010C49084FEA33
:10043000300092185B4150EA0107EDD152EA030007
:1004400012D082EA040083EA0501084305D0101B9C
:10045000AB4106D20122002306E000224FF0004308
:1004600002E06FF0010253101AEB06004CEB08514A
:1004700010EB0A0041EB0B01BDE8F04D00F06EB847
:100480000EB540F2334102910021CDE900110A4638
:100490000B4600F072F803B000BDC1F30A5210B56C
:1004A000C1F3130140F2FF3341F480119A4201DAA3
:1004B000002010BD40F233439A42A2F2334203DCE3
:1004C000524200F03BF810BD904010BD00F00042D9
:1004D00030F000400AD0C10D01F56071C0F3160084
:1004E00042EA0151C208400711437047002001460B
:1004F000704730B50B46014600202022012409E058
:1005000021FA02F59D4205D303FA02F5491B04FACC
:1005100002F52844151EA2F10102F1DC30BD202AAB
:1005200004DB203A00FA02F1002070479140C2F14A
:10053000200320FA03F3194390407047202A04DB7C
:10054000203A21FA02F00021704721FA02F3D0404C
:10055000C2F12002914008431946704710B5141E9D
:1005600073F1000408DA401C41F1000192185B416C
:100570001A4301D120F0010010BD2DE9F04D924643
:100580009B4611B1B1FA81F202E0B0FA80F220325A
:100590009046FFF7C4FF04460F4640EA0A0041EACE
:1005A0000B0153465A46084313D0114653EA010043
:1005B00019D0C8F140025046FFF7C0FF05460E466D
:1005C000504659464246FFF7AAFF084305D001208E
:1005D00004E020463946BDE8F08D0020054346EA98
:1005E000E0762C4337430A986305E40AA0EB080041
:1005F0000022FD0A44EA47540A3002D50020014691
:10060000E9E7010510196941DDE90845001969416B
:10061000BDE8F04DA2E72DE9FE4F804681EA0300D8
:10062000C00F0C46009021F0004123F00045B8EBCC
:100630000200A94105D24046214690461C460B4681
:10064000024623F00040104347D0270DC7F30A00AD
:10065000C3F30A510290401A019040286BDAC3F3A9
:10066000130040F4801B0098924620B10023D2EB87
:10067000030A63EB0B0B01985946C0F14002504648
:10068000FFF74DFF06460D4650465946019A00F0C9
:10069000ABF810EB08006141002487EA115284EAAC
:1006A000E7731A4340D0009A62B3019A012A4FEAD5
:1006B000075215DC001B61EB02014FF0004202EA19
:1006C0000752CDE90042001C41F5801132462B460D
:1006D000FFF753FF03B0BDE8F08F40462146F9E72E
:1006E000001B61EB0201001C41F5801300185B4107
:1006F0002018A2F5001747EB030140EAD570B619A0
:100700006D4111E06D084FEA360645EAC0754FEAC3
:100710000752001B61EB0201001C41F580114908E2
:100720004FEA30000019514132462B4603B0BDE874
:10073000F04FFFF713BF0098012240000023D0EBD9
:10074000020263EBE073009821464FEAE074B8EBD5
:10075000000061EB0401E9E783F000435BE781F00F
:10076000004158E7C1F30A52C1F3130140F2FF33CD
:1007700041F480119A4202DA00200146704740F2AB
:1007800033439A42A2F2334202DC5242FFF7D6BE12
:10079000FFF7C5BE30B5041E71F1000404DB4FF055
:1007A0000044404264EB0101141E73F1000405DBB8
:1007B0001C464FF00043524263EB0403994208BFCA
:1007C000904230BD064C074D06E0E06840F0010362
:1007D00094E8070098471034AC42F6D3FFF700FDC9
:1007E0005C7B00087C7B0008202A06DBCB17203AC4
:1007F00041FA02F043EAE07306E041FA02F3D04026
:10080000C2F12002914008431946704770B5044672
:10081000006881688268C1F3400112F0010F28D09E
:1008200039BB816801F00D01012914D18168124A98
:100830001140891C816021680320086000F008FFD6
:10084000054612E000F004FF401B02280DD9206885
:100850008068C00709D0E06D40F01000E065206EB0
:1008600040F001002066012070BD20688068C0074C
:10087000E8D1002070BD0000C0FFFF7FF8B504463E
:10088000002000902068816811F0010F41D181683B
:10089000214A11422ED18168D5432940491C8160EB
:1008A0001E48806800F0E07000020DD51C481D490C
:1008B0000068B0FBF1F0401C00EB4000800000E05D
:1008C000401E00900028FBD100F0C2FE06461BE04F
:1008D000816811F0010F03D181682940491C8160B2
:1008E00000F0B6FE801B02280ED920680068C043C5
:1008F000C00709D0E06D40F01000E065206E40F0C8
:10090000010020660120F8BD20680168C943C907BD
:10091000DED10020F8BD00003F0000800003005041
:1009200058000020400D03001CB5684604F0B6F9DD
:10093000034800994164BDF80410A0F848101CBD9C
:1009400000000020FEE77047002240F6B83306E0C2
:100950000021491C89B29942FBD3521C92B28242B7
:10096000F6D3704772B6FEE72DE9F0410E462DED45
:10097000028B0746002500F03FFC0A21384600F0B4
:10098000BDFB384600F080FA00240DE0384600F048
:1009900033FC0A21384600F0B1FB384600F074FA07
:1009A00080B2641C0544E4B2B442EFD33046FFF792
:1009B00067FD41EC180B2846FFF762FD53EC182B3E
:1009C000FFF7EFFCBDEC028B41EC100BBDE8F081B2
:1009D000F8B500260446009690F858000D46012808
:1009E0000BD0012084F858002046FFF70FFF0100CC
:1009F000E06D04D040F010002AE00220F8BD20F4A1
:100A0000885040F00200E06520688268134B1A406D
:100A100005F080431A4342F000428260104A206889
:100A20000EE0009B5B1C0093934209D3E06D20F025
:100A3000020040F01000E06584F858600120F8BD25
:100A40008368DB0FEDD1E06D20F0020040F0010083
:100A5000E06584F858600846F8BD0000C0FFFF3F1D
:100A600002DE04002DE9F84F00270446009790F8B5
:100A70005800DFF8E0930D46B846012811D0012652
:100A800084F85860206803F01BFC60B1E06D40F012
:100A90002000E0655FF0010784F858803846BDE823
:100AA000F88F0220FBE7D5E900210C23206803EA38
:100AB00091131844036B01F01F014FF01F0C0CFA47
:100AC00001FCC2F3846223EA0C038A4013430363EC
:100AD000206803F0F5FB8246206803F0EDFB5AEA3C
:100AE00000003CD1AA6829682068B2F1004F37D0D5
:100AF00003F0F2FB2068416921F000414161206868
:100B00006969C268C2F3C102520091402A69042A8D
:100B100031D000EB82002B68026EDFF83CC303F09B
:100B2000F84302EA0C020B431A4342F0004101660B
:100B300020682A69A96900EB8200026E22F08072A7
:100B40000A430266297F22682869012910D0002102
:100B500002EB8000026E22F000720A4302667DE022
:100B6000002203F0B9FB2068416941F00041C5E76C
:100B70004FF00071ECE7002103F098FB4003206880
:100B80004FF0000172D003F091FB90FAA0F0B0FAA0
:100B900080F1286842036ED090FAA0F0B0FA80F09D
:100BA000814204D100221146206803F0A4FB0121F8
:100BB000206803F07BFB400320684FF001015DD00B
:100BC00003F074FB90FAA0F0B0FA80F128684203B9
:100BD00059D090FAA0F0B0FA80F0814204D10022FE
:100BE0000121206803F087FB0221206803F05EFBEF
:100BF000400320684FF0020148D003F057FB90FA01
:100C0000A0F0B0FA80F12868420344D090FAA0F036
:100C1000B0FA80F0814204D100220221206803F062
:100C20006AFB0321206803F041FB400320684FF07A
:100C3000030133D003F03AFB90FAA0F0B0FA80F150
:100C4000286842032FD090FAA0F0B0FA80F08142D9
:100C500004D100220321206803F04DFB2068816845
:100C600011F0010F22D0ACE000E004E003F01EFB25
:100C7000C0F384618DE7C0F3846091E703F016FB55
:100C8000C0F38461A2E7C0F38460A6E703F00EFB23
:100C9000C0F38461B7E7C0F38460BBE703F006FBF1
:100CA000C0F38461CCE7C0F38460D0E72A7B296875
:100CB00050F8B03FC1F3120C23EA0C0302F0180CF9
:100CC000664A22FA0CF20A4013430360E968494578
:100CD00077D1286841031CD090FAA0F1B1FA81F1D4
:100CE000491C01F01F0109294FEA403132D800297F
:100CF00012D000BF90FAA0F1B1FA81F101F1010127
:100D000001F01F0106FA01F609D100BFC0F38461AA
:100D100009E0C0F38461E3E7C0F38461EEE790FA91
:100D2000A0F1B1FA81F101F1010101F01F0146EAE0
:100D3000816102D1C0F3846003E090FAA0F0B0FAC0
:100D400080F000F1010000F01F0000EB400041EADC
:100D5000005132E000290ED090FAA0F1B1FA81F1F1
:100D600001F1010101F01F0106FA01F606D100BFF1
:100D7000C0F3846106E0C0F38461F1E790FAA0F16A
:100D8000B1FA81F101F1010101F01F0146EA81612F
:100D900002D1C0F3846003E090FAA0F0B0FA80F0D2
:100DA00000F1010000F01F002D4A00EB400002EBB3
:100DB000005041EA000141F00071AA68206803F088
:100DC0008BFA28482A6802423FF466AE26488168BA
:100DD000264B01F0E0719A4202D0254B9A421CD179
:100DE0000B021AD42268B2F1A04F7FF455AE82688C
:100DF00041F4000122F0E0720A4382601D481E495E
:100E00000068B0FBF1F0401C00EB4000800000E007
:100E1000401E00900028FBD13EE6184D184BAA4218
:100E200007D1CD0105D422689A42F5D041F08071F6
:100E300009E0144DAA42EFD14A02EDD422689A4249
:100E4000EAD041F48001826822F0E0720A438260B5
:100E500022E6000000007F4000F0FF03FFFF0700D4
:100E6000000020FE0000088000030050000021C3A5
:100E70001000C09058000020400D0300000052C731
:100E800000010050000084CB0068006C7047000037
:100E9000F8B54FF0000504002E46009502D0E06D35
:100EA00010B107E00120F8BD204600F0EBF82666FF
:100EB00084F8586020688168C1F3407119B1816875
:100EC000684A1140816020688168C1F3007189B966
:100ED0008168654A114041F08051816063486449EE
:100EE0000068B0FBF1F04000801C00E0401E009064
:100EF0000028FBD120688168C1F3007141B9E16D20
:100F000041F01001E165216E41F0010121660125EA
:100F100003F0D6F9E16DC90600D430B1E06D40F0C0
:100F20001000E06501252846F8BDE06D20F48070D2
:100F300040F00200E0652068806810F0010F11D1D8
:100F40004FF0A04080684B4900F00100896801F033
:100F50000101084306D148486168826822F47C1286
:100F60000A438260E168E06B627F0843A16841EA5E
:100F70004231084394F8241040EA0140012904D189
:100F8000218D3E4A02EB41410843E16A29B101F457
:100F90007871226B014342EA01002268D168384B24
:100FA00019400143D16020680169626B21F0406102
:100FB00011430161206803F07FF970BB207F94F832
:100FC0003810800340EA41022168C86844F20203F5
:100FD00098431043C86020690028206801690AD03E
:100FE00041F480310161206850F8C01F22696FF31D
:100FF0000D01114307E021F480310161206850F8B0
:10100000C01F6FF30D01016094F8400001280CD05F
:101010002068016921F001010161606901282068EF
:10102000016B21F00F0111D013E0D4E91101084345
:10103000D4E913121143084321680A6940F2FC7392
:101040009A43104340F001000861E6E7226A521E0D
:1010500011430163E06D20F0020040F00100E06503
:1010600061E70000C0FFFF5FC0FFFF7F5800002066
:10107000400D030000010050000300500000FEFF7F
:101080000740F0FF10B598B00446142111A8FFF7EF
:101090000BF944216846FFF707F916492068884292
:1010A00025D1C001009080030F90684600F0CEFB70
:1010B00008B1FFF757FC1048C16C41F40051C164FE
:1010C000C16C01F400511691C16C41F00101C16481
:1010D000C06C11A900F0010016901020119003209F
:1010E0001290002013904FF0904000F083F918B058
:1010F00010BD000000010050001002402DE9F04139
:1011000004463B480F46816801F01F05A169082984
:101110000FD085B1052D0ED0092D0CD0806800F4BC
:10112000604060B1E06D40F02000E0650120BDE866
:10113000F081082604E02068C068C007F1E70426B3
:1011400000F086FA804615E0781C13D000F080FA93
:10115000A0EB0800B84200D867B9206800683042A8
:1011600008D1E06D40F00400E065002084F85800EC
:101170000320DCE7206800683042E5D0E06D40F4F1
:101180000070E065206803F09FF880B1607F70B95F
:101190002068006800070AD5E06D20F48070E065E3
:1011A000E06DC00403D4E06D40F00100E065114A39
:1011B00020684FF0A041904201D10B4600E0034669
:1011C000834210D07DB1052D0DD0092D0BD090425A
:1011D00000D00146C968082E07D0490401D40C216B
:1011E00001600020A3E7C168F5E70821F8E70000E7
:1011F00000030050000100502DE9F041044638483A
:10120000806800F01F05206803F05AF818B1022129
:101210000846BDE8F08194F8580001280CD0012060
:1012200084F858002046FFF729FB01004FF0000327
:1012300004D084F85830EBE70220EAE7E06D40F68E
:101240000162904340F48070E065264A20684FF0C8
:10125000A046904201D1374600E00746874200D0C1
:101260001DB9E76D27F48017E765E76DFF0404D526
:10127000276E27F00607276600E023661C27076015
:1012800084F858302068904201D1334600E003468C
:10129000834215D0A5B1052D12D0092D10D0E36DD4
:1012A00043F48013E365904200D13046C06880016A
:1012B000AED5E06D20F4005040F48050E065A7E723
:1012C000C268920105D5E26D22F4005242F48052C8
:1012D000E2658268044B1A40121D826098E70000A4
:1012E0000003005000010050C0FFFF7F10B590F8D0
:1012F000253000210122022B03D00421C1630121EA
:1013000022E003681C6824F00E041C60836C1C68D7
:1013100024F480741C6003681C6824F001041C60C1
:1013200090F84430046C03F01F0302FA03F3636087
:10133000D0E913345C60436D33B11C6824F48074CD
:101340001C60D0E916345C6080F82520002280F80B
:101350002420084610BD70B590F8252000240121F6
:101360002346022A07D00422C26380F8251080F8A1
:101370002430012429E00268156825F00E05156067
:101380000268156825F001051560826C156825F462
:101390008075156090F84420056C02F01F0201FA78
:1013A00002F26A60D0E913255560426D32B11568CA
:1013B00025F480751560D0E91625556080F8251054
:1013C00080F82430816B01B18847204670BD000051
:1013D00070B5044600F03CF90546601C02D0044894
:1013E0004068044400F034F9401BA042FAD370BDB9
:1013F0004C0000202DE9F04FDFF820920023012659
:101400000324A9F1040B85B00F2709F1040AABF1FD
:10141000040EFAE006FA03F52A407CD091F804C0E5
:101420000CF0030CBCF1010F02D0BCF1020F26D16D
:10143000D0F808C0CDF800C04FEA430C04FA0CF80D
:10144000CDF810C0DDF800C02CEA080CCDF800C0C3
:10145000D1F80C80DDF810C008FA0CF8DDF800C0F7
:1014600048EA0C08C0F80880D0F804C02CEA050C43
:101470000D79C5F300159D4045EA0C0545600D79D1
:10148000ED43AD070ED0C5684FEA430804FA08FCE7
:1014900025EA0C05D1F808C00CFA08FC4CEA050C4A
:1014A000C0F80CC00D7905F00305022D16D1DD083A
:1014B00000EB850CCDF808C0DCF820805D074FEA12
:1014C000D56C07FA0CF528EA05080D6905FA0CF544
:1014D000DDF808C045EA0805CCF8205005684FEA59
:1014E000430CCDF808C004FA0CFC25EA0C0591F871
:1014F00004C00CF00308DDF808C008FA0CF848EA4C
:101500000508C0F800804D6815F4403F7CD0444D7C
:10151000D5F860C000E077E04CF0010CC5F860C081
:101520002D6E23F0030C05F0010500953D4D65443B
:101530000295AD684FEA837C4FEA1C7807FA08FCF5
:1015400025EA0C05B0F1904F06D0DFF8DCC060450D
:1015500005D14FF0010C20E04FF0000C1DE0DFF84A
:10156000CCC0604502D14FF0020C16E0DFF8C0C0DD
:10157000604502D14FF0030C0FE0DFF8B8C06045C2
:1015800002D14FF0040C08E0DFF8ACC0604502D196
:101590004FF0050C01E04FF0060C0CFA08FC4CEA89
:1015A000050C029DC5F808C0D9F80050CC46D1F80A
:1015B000048095435FEAC82800D51543CCF8005055
:1015C000DAF80050D446D1F8048095435FEA8828C1
:1015D00000D51543CCF80050DBF80050DC46D1F8BC
:1015E000048095435FEA883800D51543CCF8005055
:1015F000DEF80050F446D1F8048095435FEAC8381D
:1016000000D51543CCF800505B1C0A6832FA03F58C
:101610007FF400AF05B0BDE8F08F00000804014082
:10162000001002400000014000040048000800488B
:10163000000C0048001000480014004800690840F1
:1016400000D0012070470AB1816170478162704704
:1016500001488068704700004C0000200248816803
:1016600042681144816070474C00002010B500248E
:10167000032000F073F80F2000F008F808B10124EF
:1016800001E000F025F8204610BD000070B50E4EB8
:1016900005460024706898B14FF47A71B1FBF0F000
:1016A0000A490968B1FBF0F000F0F8FE40B9102DCE
:1016B00006D200222946501E00F030F8356000E0C6
:1016C0000124204670BD00004C000020580000207E
:1016D0000A4882B0016E41F001010166016E01F01D
:1016E00001010091816D41F080518165806D00F0B4
:1016F0008050009002B000F0A1B80000001002403D
:10170000002809DB00F01F02012191404009800000
:1017100000F1E020C0F8001170470000F0B40E4B5B
:101720001B680C46C3F30223C3F10705042D00D93F
:101730000425191D072901D2002300E0DB1E012624
:1017400006FA05F1491E214099409E40761E16403A
:101750003143F0BC04F0BEBB0CED00E0064900F0E4
:10176000070208684FF6FF03184040EA0220034AC8
:1017700010430860704700000CED00E00000FA051F
:101780002B492C4B0A6832214A432B4940B1B0F512
:10179000007F086829D020F4C06040F480602CE00D
:1017A0000868C0F34120022804D051F8800F20F4CB
:1017B000807022E0D1F8800020F48070C1F88000B1
:1017C000086820F4C06040F400700860B2FBF3F0D9
:1017D000401C00E0401E4A69520501D50028F9D19D
:1017E000486940050AD503207047C0F3412002280C
:1017F00006D051F8800F40F48070086000207047D8
:10180000D1F8800040F48070C1F88000086820F4AE
:10181000C06040F400700860B2FBF3F0401C00E0D0
:10182000401E4A695205DBD50028F9D1D8E70000EF
:101830005800002040420F000070004002488168BC
:1018400041F4804181607047007000402DE9F84309
:101850000446006800269D4D00035ED5A86D002754
:10186000C00008D4A86D40F08050A865A86D01277D
:1018700000F080500090DFF85892D9F8001041F441
:101880008071C9F80010FFF7E3FE804606E000BF54
:10189000FFF7DEFEA0EB080002282BD8D9F80000E5
:1018A000C005F5D5D5F8900010F4407014D0216C27
:1018B000814211D0D5F89000D5F8901020F44070F6
:1018C00041F48031C5F89010D5F8901021F48031A2
:1018D000C5F89010C5F89000C00711D0FFF7B8FE0A
:1018E000804641F2883907E0FFF7B2FEA0EB08011D
:1018F000494501D903260BE0D5F890008007F3D5C0
:10190000D5F89000216C20F440700843C5F8900091
:101910001FB1A86D20F08050A8652078C00707D0BF
:10192000D5F88800616820F003000843C5F88800F6
:101930002078800707D5D5F88800A16820F00C0032
:101940000843C5F888002078400707D5D5F88800F7
:10195000E16820F030000843C5F8880020780007CF
:1019600007D5D5F88800216920F0C0000843C5F8E4
:1019700088002078800607D5D5F88800616920F4B2
:1019800040600843C5F888002078400607D5D5F8A0
:101990008800A16920F440500843C5F888002078E9
:1019A000000607D5D5F88800E16920F440400843D7
:1019B000C5F888002088C00507D5D5F88800216AB9
:1019C00020F440300843C5F888002088800507D5FA
:1019D000D5F88800616A20F440200843C5F88800E3
:1019E000208840050FD5D5F88800A16A20F4401062
:1019F0000843C5F88800A06AB0F5801F03D1E868E5
:101A000040F48010E860208800050FD5D5F88800E4
:101A1000E16A20F440000843C5F88800E06AB0F5A8
:101A2000800F03D1E86840F48010E8602088C0048B
:101A30000FD5D5F88800216B20F040700843C5F819
:101A40008800206BB0F1807F03D1E86840F48010FB
:101A5000E86020884FF0006180040ED5D5F888003A
:101A6000626B20F040601043C5F88800606B8842CC
:101A700003D1E86840F48010E860208840040ED567
:101A8000D5F88800A26B20F040601043C5F88800AC
:101A9000A06B884203D1E86840F48010E860208899
:101AA00000040FD5D5F88800E16B20F040500843C2
:101AB000C5F88800E06BB0F1805F03D1E86840F4BE
:101AC0008030E8603046BDE8F88300000010024036
:101AD000007000402DE9F0470E4605004FF000076A
:101AE00025D0DFF8AC81D8F8000000F00F00B0423C
:101AF0000CD2D8F8001021F00F013143C8F80010C3
:101B0000D8F8000000F00F00B04210D12968614CF5
:101B1000C80741F2883A5AD06868DFF87C910328F8
:101B200008D0022820682DD0400500282CDB012099
:101B3000BDE8F08720688001F9D5E06800F0030275
:101B4000E068C0F30310401C032A19D0534A00BFB9
:101B5000B2FBF0F0E268C2F306225043E268C2F33F
:101B60004162521C5200B0FBF2F0484517D9A06800
:101B700010F0F00F0CD0880711D5A86840B10EE026
:101B8000474AE5E78003D0E700F0B6F8484506D9B4
:101B9000A06820F0F00040F08000A0608027A068DE
:101BA000696820F003000843A060FFF751FD8146FB
:101BB00006E000BFFFF74CFDA0EB090151453AD804
:101BC000A068696800F00C00B0EB810FF2D12868C2
:101BD000810714D5400703D5A06840F4E060A060F9
:101BE0002878000705D5A06820F4605040F4E06034
:101BF000A060A068A96820F0F000084304E0802FEE
:101C000003D1A06820F0F000A060D8F80010404692
:101C100001F00F01B14216D9016821F00F013143E3
:101C20000160FFF715FD074607E000BFFFF710FD55
:101C3000C11B514501D903207AE7D8F8000000F014
:101C40000F00B042F2D12878400705D5A068E968B6
:101C500020F4E0600843A0602878000706D5A0685B
:101C6000296920F4605040EAC100A06000F044F807
:101C7000A1680C4AC1F30311515C01F01F01C84077
:101C80000949086009480068BDE8F047FFF7FEBC55
:101C9000002002400010024000B4C4040024F400FC
:101CA00000366E0174690008580000204C000020C6
:101CB0000548064900688968054AC1F30221515C5C
:101CC00001F01F01C840704758000020001002407A
:101CD000846900080548064900688968054AC1F317
:101CE000C221515C01F01F01C8407047580000201C
:101CF0000010024084690008184910B58868C0F3D4
:101D000081021748012A0BD08A68164BC2F3810260
:101D1000022A06D08A68C2F38102032A03D0002077
:101D200010BD184610BDCA6802F00304CA68C2F3A9
:101D30000312521C032C02D0B0FBF2F001E0B3FB03
:101D4000F2F0CA68C968C2F306225043C1F3416188
:101D5000491C4900B0FBF1F010BD0000001002402A
:101D60000024F40000366E012DE9F84304007AD017
:101D70002078F84DC00747D0A868E96800F00C004B
:101D800001F003010C2802D0082817D001E0032934
:101D900014D06068B0F5803F17D0B0F5A02F286848
:101DA00017D020F480302860286820F48020286034
:101DB0006068E0B1FFF74CFC064614E02868800339
:101DC00022D560680028D2D01EE0286840F4803018
:101DD000EDE740F480202860F7E700BFFFF738FC0C
:101DE000801B642870D828688003F7D50CE0FFF7C3
:101DF0002FFC064605E000BFFFF72AFC801B642885
:101E0000F0D828688003F7D4207880074CD5A868DC
:101E1000E96800F00C0001F003010C2802D004284E
:101E20000DD001E002290AD0E068002828682BD0F4
:101E300040F480702860FFF70BFC064619E0286824
:101E4000400502D5E068002891D06868217C20F028
:101E5000FE4040EA01606860BF480068FFF716FC7A
:101E6000002800D120E072E1FFF7F2FB801B02287E
:101E7000B8D828684005F7D56868217C20F0FE4076
:101E800040EA016068600FE020F480702860FFF78E
:101E9000DFFB064605E000BFFFF7DAFB801B0228E8
:101EA000A0D828684005F7D42078000729D56069B4
:101EB0000028D5F8940013D040F00100C5F8940034
:101EC000FFF7C6FB064606E090E000BFFFF7C0FB49
:101ED000801B022886D8D5F894008007F6D510E03C
:101EE00020F00100C5F89400FFF7B2FB064604E0BD
:101EF000FFF7AEFB801B022878D8D5F89400800746
:101F0000F6D42078400761D5A86D0026C00008D41B
:101F1000A86D40F08050A865A86D012600F08050A3
:101F200000908E480168C90511D40168804641F4CB
:101F300080710160FFF78CFB074604E0FFF788FB28
:101F4000C01B022852D8D8F80000C005F6D5A068FA
:101F5000012815D00528D5F8900016D020F00100F2
:101F6000C5F89000D5F8900020F00400C5F8900066
:101F7000A06841F28838B8B1FFF76AFB07460EE067
:101F8000D5F8900040F00100F0E740F00400C5F8FB
:101F90009000F5E7FFF75CFBC11B414526D8D5F85B
:101FA00090008007F6D50CE0FFF752FB074604E0EF
:101FB000FFF74EFBC11B414518D8D5F890008007AC
:101FC000F6D41EB1A86D20F08050A8652078800658
:101FD00029D5A0690028D5F8980013D040F0010059
:101FE000C5F89800FFF734FB064606E075E000BF31
:101FF000FFF72EFB801B02286FD8D5F898008007CA
:10200000F6D510E020F00100C5F89800FFF720FB9E
:10201000064604E0FFF71CFB801B02285DD8D5F8BC
:1020200098008007F6D4E069F0B3A968C1F3810194
:1020300003295DD00228286820F08070286003D032
:10204000FFF706FB04464BE0FFF702FB064604E001
:10205000FFF7FEFA801B02283FD828688001F7D4DA
:10206000F4E908016FF00F0202EB01110843218A25
:102070005204490802EB4151A26841EA0221084397
:10208000217D4FF07E42490802EB41610843217BEC
:1020900040EAC160E968324A11400843E8602868B4
:1020A00040F08070286000E05EE0E86840F08070FA
:1020B000E860FFF7CDFA044605E000BFFFF7C8FA75
:1020C000001B022809D828688001F7D54CE000BF22
:1020D000FFF7BEFA001B022802D90320BDE8F883EF
:1020E00028688001F4D4E8681E490840E8603BE0B5
:1020F0000128F3D0E868226A00F00301914226D15A
:10210000616A00F0F0020901103991421FD1A26A00
:1021100000F4FE41B1EB022F19D194F82C2000F00D
:102120007841B1EBC26F12D1218E00F4C002490890
:102130004905A1F50011914209D194F8341000F03D
:10214000C06049084906A1F1007181420CD001200C
:10215000C4E70000001002404C0000200070004066
:102160000C809F01FCFFEEFE0020B7E710B5006871
:102170000B4641680D480140080CD870C1F3042497
:102180005C7001F03F049C70C1F34231197052B988
:1021900002F0FFFCD870587802F0FBFC5870987879
:1021A00002F0F7FC9870002010BD00003FFFFF0018
:1021B00010B50B4601688968596001680969C1F367
:1021C0000E019960006801680D480140C1F30540A7
:1021D0001870C1F306245C7001F07F049C70890DB7
:1021E000D97052B902F0D5FC1870587802F0D1FCC1
:1021F0005870987802F0CDFC9870002010BD000057
:102200007F7F7F0070B504004FF0010040D094F84C
:10221000250028B9002084F82400204600F040F86A
:10222000022084F825002068C168C943C90630D55A
:10223000CA214162216853204862204602F0BEFC58
:1022400010BB20688169154A114081612168886945
:102250006268A369104322691A4310438861218987
:10226000E06840EA014021680861204602F0CBFCAA
:1022700050B9D4E90721114322686369956925F0B3
:1022800060452B43194391612268FF21516208B1D7
:1022900070BD0020012184F8251070BDBFFF8FFBA9
:1022A00010B592B0044644216846FDF7FDFF104981
:1022B000206888421AD14FF4002000904FF44070FB
:1022C00010906846FFF7C2FA08B1FEF74BFB0948C9
:1022D00050F8901F41F4004140F83819016841F46A
:1022E00080610160006800F48060119012B010BD40
:1022F000002800400010024070B5044690F8240009
:102300000B4601281BD0012684F82460022084F8A3
:102310002500B2B19878D97840EA01455878197803
:10232000000240EA413005432168CA204862216822
:1023300053204862204602F041FCD0B120E0022048
:1023400070BD5878C10603D500F0EF000A30587010
:10235000D87802F027FC0504587802F023FC45EAFF
:102360000025987802F01EFC0543187845EA4035B0
:10237000DAE70848054020684560204602F043FC43
:102380002268FF21516208B984F82560002184F891
:10239000241070BD3FFFFF002DE9F041044690F886
:1023A000240090460D46012811D0012784F824709E
:1023B000022084F825002168CA2048622168532041
:1023C0004862204602F0FAFB002618B129E00220FC
:1023D000BDE8F0812068B8F1000F80694FEA4060E5
:1023E00024D0002800DBEE70A8782978EA7840EA4B
:1023F00001406978090241EA8251084318490840BE
:10240000216808602068816921F480218161D5E913
:102410000301084321688A6910438861204602F05D
:10242000F2FB2268FF215162A0B115E0002800DB19
:10243000EE70287802F0B6FB0304687802F0B2FB75
:1024400043EA0023A87802F0ADFB0343E87843EAAF
:102450008050D3E784F8257084F82460B8E7000042
:102460007F7F7F0070B504460B482168C860FFF786
:10247000EFF805464FF47A7607E000BFFFF7E8F87B
:10248000401BB04201D9032070BD2068C06880069F
:10249000F4D5002070BD00005F00010010B5401EA3
:1024A000B0F1807F01D3012010BD4FF0E0246061C6
:1024B0000F21601703F00EFD0020A06107202061AE
:1024C000002010BD704770477047704770477047D5
:1024D000F0B590F83C20012A3AD0012580F83C5014
:1024E000022280F83D2003685A689C68194E1A4FF2
:1024F000B34201D0BB4204D122F4700C4A6842EAD4
:102500000C02DFF858C002EA0C02D1F800C04CEA15
:10251000020CC3F804C00268B2420DD0B2F1804F81
:102520000AD00F4B9A4207D00E4B9A4204D0BA42BF
:1025300002D00D4B9A4204D1896824F080031943DC
:10254000916080F83D50002180F83C100846F0BDB5
:102550000220F0BD002C0140003401408FFFFFFD40
:10256000000400400008004000400140704710B5E2
:10257000040003D094F83D0010B107E0012010BD25
:10258000002084F83C00204600F022F8022084F865
:102590003D00211D206802F073FC012084F84800F2
:1025A00084F83E0084F83F0084F8400084F841003D
:1025B00084F8420084F8430084F8440084F845001D
:1025C00084F8460084F8470084F83D00002010BDE0
:1025D00070B586B0044614216846FDF765FE246890
:1025E00000225C49022301254FF09040B4F1804F56
:1025F00026D0594EB44242D18C6D44F002048C6511
:102600008C6D04F002040594CC6C44F00104CC649D
:10261000C96C01F00101059180210091CDE90132E1
:102620006946CDE90323FEF7E5FE002211461D2091
:10263000FFF774F85FF01D00FFF762F806B070BD99
:102640008C6D44F001048C658C6D04F001040594DC
:10265000CC6C44F00104CC64C96C0093CDE9013228
:1026600001F00101CDE9045103926946FEF7C2FE73
:10267000002211461C20FFF751F81C20DCE7374EE2
:10268000B4420ED1886D40F004008865886D002248
:1026900000F00400059011461E20FFF73FF81E20B1
:1026A000CAE72F4EB44220D10C6E44F480340C663D
:1026B0000C6E04F480340594CC6C44F00104CC64BA
:1026C000C96C01F00101059104210091CDE90132AD
:1026D0000921CDE903216946FEF78CFE002211464F
:1026E0001820FFF71BF81820A6E71E4EB4421FD192
:1026F0000C6E44F400340C660C6E04F40034059443
:10270000CC6C44F00104CC64C96C01F0010105916A
:1027100040210091CDE90132CDE903256946FEF75C
:1027200069FE002211461920FEF7F8FF192083E701
:102730000D48844282D1086E40F480200866086EFD
:10274000002200F48020059011461A20FEF7E6FFD3
:102750001A2071E700100240000400400008004009
:1027600000400140004401400048014090F83D1005
:10277000012901D001207047022180F83D10016835
:10278000CA6842F00102CA600068104988420ED04F
:10279000B0F1804F0BD00E49884208D00D498842D5
:1027A00005D00D49884202D00C49884207D1816882
:1027B0000B4A1140062906D0B1F5803F03D00168CD
:1027C00041F001010160002070470000002C014031
:1027D0000004004000080040003401400040014077
:1027E0000700010070B5044690F83C000025012860
:1027F00014D0012684F83C60022084F83D00226851
:102800009068364B184020F47F409060086870282C
:102810002ED010DC10F00F0F03D021E04FF002009B
:1028200070BD4FEA2012072A1AD2DFE802F0525296
:1028300052524A3840002A4BC21A984249D009DC09
:10284000B0F5805F0DD0B0F5005F1CD0B0F1101F67
:1028500006D13EE0102A3CD0202A3AD0502A38D067
:10286000012584F83D60002084F83C00284670BDB6
:10287000CB68D1E90121206802F06DFB20688168F6
:1028800041F0770109E0CB68D1E90121206802F02D
:1028900062FB2068816841F480418160E1E7CA6899
:1028A0004968206802F06CFB5021206806E0CA6885
:1028B0004968206802F0ACFB6021206802F056FBFA
:1028C000CFE7CA684968206802F05AFB40212068B7
:1028D000F4E7226801461046F0E7000088FFCEFFCB
:1028E000200010002DE9F04104462DED048B006816
:1028F0006D499FED6E9B00266E4F88425BD107F1BC
:1029000010054FF00001287BC00720460FD000F0D3
:102910007DFB296945F821002869401C2861206851
:10292000016A21F00A0101622068016A12E000F0E8
:102930006DFB296945F821002869401C286103289E
:102940000DD02068016A21F00A0101622068016A45
:1029500041F002010162287B401C287327E02868AF
:10296000A9688046081AFDF78BFD41EC180B6968D1
:10297000A1EB0800FDF784FD53EC182BFDF711FDCA
:1029800053EC192BFDF79BFCFDF787FD38602068A1
:1029900046622068016A21F00A0101622068016A2A
:1029A00001620021204600F055F92E732E610021AE
:1029B000414800F04FF94149206888425BD13D4DC4
:1029C0004FF004012435287BC00720460FD000F0CB
:1029D0001DFB296945F821002869401C28612068F1
:1029E000016A21F0A00101622068016A12E000F092
:1029F0000DFB296945F821002869401C286103283E
:102A00000DD02068016A21F0A00101622068016AEE
:102A100041F020010162287B401C287327E02868D0
:102A2000A9688046081AFDF72BFD41EC180B696870
:102A3000A1EB0800FDF724FD53EC182BFDF7B1FCCA
:102A400053EC192BFDF73BFCFDF727FD7860206860
:102A500046622068016A21F0A00101622068016AD3
:102A600001620421204600F0F5F82E732E61042146
:102A7000134800F0EFF82068B0F1804F0FD11148F3
:102A80000168486A4E621049B1FBF0F0B860042159
:102A9000BDEC048BBDE8F0410A4800F0DBB8BDECAA
:102AA000048BBDE8F08100000044014000000000FC
:102AB0000000594000040020D4020020000400401F
:102AC000F0010020A401002040420F002DE9F04158
:102AD000054690F83C0000260C46012810D0012045
:102AE00085F83C0072B1042A1CD0082A2CD00C2A8C
:102AF00050D00126002085F83C003046BDE8F0812A
:102B00000220FBE7D4E90012E368286802F04AFAE1
:102B10002868816921F00C01816128688169A268B7
:102B200011430FE0D4E90012E368286802F082FA4A
:102B30002868816921F44061816128688169A268FF
:102B400041EA02218161D5E72868D4E9002C277B7E
:102B5000036A016A21F480710162C16923F4206370
:102B600021F0030141EA0C0121F0F00C39074FF488
:102B700020674CEA116107EA02221A43C16102622E
:102B80002868C16921F00C01C1612868C169A26887
:102B900011432BE02868D4E90021E768036AD0F8E4
:102BA00020C02CF4805CC0F820C0D0F81CC023F4F6
:102BB00020432CF4407C4CEA012121F4704C4FF668
:102BC000FF7101EA07314FF4204741EA0C0107EA9F
:102BD00002321A43C16102622868C16921F440616E
:102BE000C1612868C169A26841EA0221C16181E727
:102BF00010B5040003D094F83D0010B107E00120A7
:102C000010BD002084F83C00204600F022F802208D
:102C100084F83D00211D206802F032F9012084F87B
:102C2000480084F83E0084F83F0084F8400084F8AF
:102C3000410084F8420084F8430084F8440084F89A
:102C4000450084F8460084F8470084F83D000020E1
:102C500010BD704730B50446002571B1042911D06C
:102C6000082914D00C2917D0102918D094F8430043
:102C700094F84720012817D114E094F83E0094F806
:102C80004420F7E794F83F0094F84520F2E794F8E1
:102C9000400094F84620EDE794F84100E8E794F806
:102CA0004200E5E7012A01D0012030BD022079B1C0
:102CB000042916D008291DD00C2949D010294AD042
:102CC00084F8430084F847000C2947D001253DE0F3
:102CD00084F83E0084F844002068C26842F0020292
:102CE00010E084F83F0084F845002068C26842F094
:102CF000040207E084F8400084F846002068C268B7
:102D000042F00802C2600122206802F017F9164959
:102D1000206888420ED0B0F1804F0BD01349884212
:102D200008D01349884205D01249884202D012497E
:102D3000884207D18168114A1140062906D0B1F5B1
:102D4000803F03D0016841F001010160284630BD99
:102D500084F84100B6E784F84200B3E72068C2680F
:102D600042F01002CEE70000002C014000040040B9
:102D7000000800400034014000400140070001000D
:102D80002DE9F04104460068C66805694FF0000768
:102D9000A90713D5B10711D5F91E016101202077CC
:102DA000206880698007204602D0FFF79BFD04E081
:102DB00000F0B7F8204600F0B5F82777680716D579
:102DC000700714D521686FF0040008610220207795
:102DD0002068806910F4407F204602D0FFF782FD12
:102DE00004E000F09EF8204600F09CF827772807C2
:102DF00015D5300713D521686FF00800086104204D
:102E000020772068C0698007204602D0FFF76AFD5E
:102E100004E000F086F8204600F084F82777E80602
:102E200016D5F00614D521686FF01000086108204F
:102E300020772068C06910F4407F204602D0FFF759
:102E400051FD04E000F06DF8204600F06BF82777A4
:102E5000E80708D0F00706D021686FF0010008618C
:102E6000204600F061F8280601D4A80408D53006F1
:102E700006D521686FF4025008612046FFF723FB56
:102E8000E80508D5300606D521686FF48070086122
:102E90002046FFF717FB680608D5700606D521689F
:102EA0006FF040000861204600F0C5F8A80608D57C
:102EB000B00606D521686FF0200008612046FFF7B4
:102EC00003FBE80208D5F00206D521686FF48010F4
:102ED00008612046FFF7FAFAA80208D5B00206D525
:102EE00021686FF4001008612046FFF7EEFA6802CF
:102EF00008D5700206D521686FF48000086120466D
:102F0000FFF7E5FA28020AD5300208D521686FF4E8
:102F1000000008612046BDE8F041FFF727BBBDE88F
:102F2000F081704770470000F8B500683449884266
:102F300051D1344C01212046FEF780FB8DF8000072
:102F400002212046FEF77AFB8DF80100042120467D
:102F5000FEF774FB8DF8020001214FF09040FEF760
:102F60006DFB8DF80300284E00200125321DA2F1D3
:102F70000C01EC46A6F1040E044601F11C0300BF4F
:102F80001CF800703754002F0F5C10D0022F23D094
:102F9000175CEFB11EF800707F1CFFB20EF80070D6
:102FA000142F15D3184F08373D54145410E027B18F
:102FB000012F06D0022F06D00AE00D5423F810404E
:102FC00006E002270F5433F810707F1C23F81070AE
:102FD000401C0428D4DBF8BD33F81070322F0CD21B
:102FE000175C97F00107175402D00EF8004002E07A
:102FF000054F0C373D540C54EAE7034F1037F9E7FF
:1030000000080040000400486A000020024600203A
:1030100041B1042909D008290AD00C2901D110682E
:10302000006C70471068406B70471068806B704789
:103030001068C06B7047704790F88410012918D051
:10304000012180F884102421C0F8881001680A68E2
:103050000B6823F001030B6022F00051002242664E
:10306000036819602021C0F8881080F88420104679
:103070007047022070477047704770B5044690F85B
:10308000840001281DD0012084F884002420C4F885
:10309000880020680568026822F00102026020684A
:1030A000826822F060620A438260204601F0DEFFFF
:1030B000206805602020C4F88800002084F884007F
:1030C00070BD022070BD70B5044690F884000128E0
:1030D0001DD0012084F884002420C4F888002068D2
:1030E0000568026822F0010202602068826822F00E
:1030F00060420A438260204601F0B8FF2068056004
:103100002020C4F88800002084F8840070BD0220CC
:1031100070BD7047704770472DE9F0410368044661
:10312000D86919689A6840F60F0528424FF00005E3
:103130004FF002060AD187067ED501F0200702F083
:10314000805C57EA0C0777D0616F3AE1B24FDFF845
:10315000CCC2174001EA0C0C57EA0C0C6CD05FEAA9
:10316000C07C0CD05FEAC15C09D54FF0010CC3F8FC
:1031700020C0D4F8903043F00103C4F890308307A6
:1031800009D5D30707D023681E62D4F8903043F0E6
:103190000403C4F8903043070AD5D30708D0266843
:1031A00004233362D4F8903043F00203C4F8903023
:1031B00003070CD501F020033B4308D02668082301
:1031C0003362D4F8903043F00803C4F8903003051C
:1031D0000BD54B0109D526684FF400633362D4F850
:1031E000903043F02003C4F89030D4F89030002B96
:1031F0003DD0800609D501F0200002F0805108433F
:1032000003D0616F09B120468847D4F89000216847
:103210008968490602D410F0280F2AD0204602F00F
:103220000BF82068806840061ED52068083050E8FA
:10323000001F21F0400100E021E040E80012002AD8
:10324000F3D1D4F8800078B175498163D4F8800057
:10325000FEF781F800280AD0D4F88000816B00E0E6
:103260002046BDE8F04108472046FFF754FFBDE87F
:10327000F0812046FFF74FFFC4F89050F7E7D4F8ED
:103280006CC02027BCF1010F7ED15FEAC06C7BD5FA
:103290005FEAC16C78D5102018622068806840060B
:1032A00045D5D4F88010086840680004000CDED0D2
:1032B000B4F85C208242DAD9A4F85E00086800689D
:1032C00080062CD4216851E8000F20F4807041E87A
:1032D0000002002AF6D12068083050E8001F21F0D3
:1032E000010140E80012002AF5D12068083050E8BA
:1032F000001F21F0400140E80012002AF5D1C4F877
:103300008C70E566206850E8001F21F0100140E84D
:103310000012002AF6D1D4F88000FDF7E7FF2667F7
:10332000B4F85C00B4F85E10401A81B230E0B4F832
:103330005C00B4F85E10401A81B2B4F85E00002858
:1033400095D0002993D0226852E8000F20F49070A5
:1033500042E80003002BF6D12F4BDB4320680830F6
:1033600050E8002F1A4040E8002CBCF1000FF5D1C6
:10337000C4F88C70E5666567226852E8000F20F09B
:10338000100042E8000300E006E0002BF4D12667BD
:103390002046FFF770FE6AE7C60209D5560207D538
:1033A0004FF4801018622046BDE8F041FFF7B2BE2E
:1033B00003060AD501F0800302F40002134304D08F
:1033C000A16F00297FF44CAF51E7420611D54A06A0
:1033D0000FD52046026852E8001F21F0400142E864
:1033E0000013002BF6D1C0F88870856700F035F91E
:1033F0003DE7020206D54A0004D52046BDE8F0416B
:10340000FFF787BEC001C6D50029C4DA2046BDE853
:10341000F041FFF731BE0000010000102001000460
:103420002552000810B5040003D0D4F8880010B16C
:1034300007E0012010BD002084F88400204600F041
:1034400027F82420C4F888002068016821F00101D1
:103450000160A06A10B1204601F02AFE204602F069
:103460007DF90128E6D02068416821F4904141604F
:103470002068816821F02A0181602068016841F09C
:10348000010101602046BDE8104001F075BE00005A
:1034900010B598B00446142111A8FCF705FF44218B
:1034A0006846FCF701FF1B492068884230D10120A3
:1034B0000024CDE900046846FEF7C8F908B1FDF71D
:1034C00051FA1548016E41F480410166016E01F424
:1034D00080411691C16C41F00101C164C06C11A919
:1034E00000F0010016904FF4C06011900220CDE969
:1034F00012040720CDE914404FF09040FDF77AFF09
:10350000002211462520FEF709F92520FEF7F8F8DC
:1035100018B010BD003801400010024030B4D0F89F
:103520008C30202B02D0022030BC7047A9B1A2B150
:103530000023C3660A4C0368A3420BD05B681B02DE
:1035400008D5046854E8003F43F0806344E8003540
:10355000002DF6D130BC02F03BBA0120E4E70000B8
:103560000080004030B40E4A0168914215D10D49E7
:1035700000230A781D2A07D20B4C4D78A554521C03
:10358000D2B20A70A35402E00B7001224A600549CE
:10359000012230BC491CFFF7C1BF30BC704700009E
:1035A0000038014088000020380400202DE9F8434D
:1035B0000446D0F88800984616460D46202802D0CA
:1035C0000220BDE8F883A5B19EB10020C4F89000A8
:1035D0002120C4F888001834FEF73AF8A6878146FF
:1035E000E68754F8100C2027183CB0F5805F02D015
:1035F00003E00120E5E7206910B12E46002510E028
:1036000000260EE08021204602F06AFAC0B9DEB141
:1036100016F8010B21688862B4F85600401EA4F821
:103620005600B4F856004B464FF00002CDF800802B
:103630000028E7D14FF04001204602F051FA40B196
:10364000C4F888700320BCE735F8020BC0F308000B
:10365000E0E7C4F888700020B3E77047FEE770B574
:103660000824002501F062FB13E06806050E002027
:1036700001F044FB142003F0B3F8142003F0B0F879
:10368000012001F03BFB142003F0AAF801F042FBFB
:103690000543641EE4B2E8D2002001F02FFB1420A1
:1036A00003F09EF801F064FB284670BD10B50020C1
:1036B00001F052FB142003F093F8142003F090F86B
:1036C000012001F01BFB142003F08AF8002001F018
:1036D00015FBBDE81040142003F082B870B5044615
:1036E000082516E001F00AFB142003F079F804F035
:1036F000800001F031FB142003F072F86006040E24
:10370000142003F06DF8012001F0F8FA142003F002
:1037100067F86D1EEDB24FF00000E3D201F0EEFA53
:10372000BDE87040142003F05BB810B5012001F033
:1037300013FB142003F054F8142003F051F8012077
:1037400001F0DCFA142003F04BF8002001F0D6FA67
:10375000BDE81040142003F043B810B5012001F07B
:10376000FBFA142003F03CF8012001F0C7FA142002
:1037700003F036F8002001F0EFFA142003F030F8DF
:10378000002001F0BBFABDE81040142003F028B877
:1037900010B5002001F0B2FA142003F021F8002047
:1037A00001F0DAFA142003F01BF8012001F0A6FA68
:1037B000142003F015F8012001F0CEFABDE8104006
:1037C000142003F00DB810B5052401F0AFFA142051
:1037D00003F006F8012001F091FA142003F000F83C
:1037E00005E0641EA4B2142002F0FAFF6CB101F0EF
:1037F00091FA0028F5D101F0BBFA002001F07EFA21
:10380000142002F0EDFF002010BD01F0B1FAFFF727
:10381000BFFF012010BD70B515460E460446FFF7E8
:103820009CFFA020FFF75AFFFFF7CDFF3046FFF7C0
:1038300055FFFFF7C8FFFFF790FFA120FFF74EFFEE
:10384000FFF7C1FF09E0FFF70AFF04F8010B15B10C
:10385000FFF72CFF01E0FFF768FF6D1EEDB2F2D21B
:10386000BDE87040FFF794BF70B515460E4604469C
:10387000FFF773FFA020FFF731FFFFF7A4FF3046EB
:1038800002E000BF14F8010BFFF728FFFFF79BFFD2
:103890006D1EEDB2F6D2FFF77BFFBDE870404FF42E
:1038A000FA7002F09DBF000070B555480168554C94
:1038B000226A891A32297BD300682062524D002681
:1038C0002878012807D1207880F00100207000209E
:1038D00000F0D8F82E70687801280ED1207858B101
:1038E000E0880A3080B2E08021890A3121813C28B9
:1038F00002D90A20E08020816E70A878012813D1B7
:10390000207860B1608942F2107100F57A7080B25F
:103910006081884207D94FF47A70608103E0207992
:1039200080F001002071AE70E878012867D120791D
:10393000E8BBD4ED0B0A3549C4ED0D0AF0EE021ACE
:10394000086800EE100A0A28B8EE401A9FED300A07
:1039500011EE210A9FED2F1A84ED0B0A02D884ED97
:103960000B1A05E05A2803D39FED2B0A84ED0B0AAE
:1039700094ED0B0A70EE600AC4ED0F0AF5EEC00A72
:10398000F1EE10FA03D2F1EE600AC4ED0F0AD4EDA5
:103990000C1AF7EE022AC4ED0E1A486800EE900ADF
:1039A000B8EE602ADFED1D0A52EE220A01E025E0A2
:1039B00025E0C4ED0C0A0A2802D884ED0C1A05E0B3
:1039C0005A2803D3DFED160AC4ED0C0AD4ED0C0A15
:1039D00070EEE10AC4ED100AF5EEC00AF1EE10FA3D
:1039E00003D2F1EE600AC4ED100A0E4801F0D8F9D6
:1039F0000C4894ED0C0A143001F0D2F9EE7070BD51
:103A0000540000200000002072000020000400206C
:103A10000000B441000000000000344300003441C5
:103A20000000B442E800002000B585B014216846CB
:103A3000FCF73AFC4FF6FF70009000200321CDE91F
:103A40000201019069460248FDF7D4FC05B000BDB3
:103A50000008004800B585B014216846FCF724FC36
:103A60004FF6FF700090012001900320039000208A
:103A7000029069460248FDF7BDFC05B000BD00009C
:103A80000008004870B5002406462146204600F094
:103A9000C9FA00F007FB4FF49635304600F0D6FA2D
:103AA000641CAC42F9D370BD30B587B014216846B0
:103AB000FCF7FAFB1E48C16C41F00401C164C16C03
:103AC00001F004010591C16C41F00101C164C16CB8
:103AD00001F001010591C16C41F00201C164C06CAB
:103AE000012500F0020005904FF44870CDE9000573
:103AF00000240394694602940E48FDF77BFC2802DB
:103B000003940090CDE901544FF09044694620465B
:103B1000FDF770FCFFF79EFFA06940F48070A06184
:103B200004481830016841F40871016007B030BDE5
:103B30000010024000040048203AD2B2034B02EBCE
:103B4000420203EB021200F019B800008C69000871
:103B500070B515460C460646B1F5A07F09D340F274
:103B60003F1406E021463046FFF7E6FF103CA4B2C2
:103B70006D1C2A78002AF5D170BD00002DE9F047B0
:103B800091468A460026044600F04CFADFF8408051
:103B9000012700BF00F086FA5FF0000539F8160033
:103BA00007FA05F10842404601D1408800E000884C
:103BB00000F04CFA6D1C102DF0D3641CE4B2514699
:103BC000204600F02FFA761C182EE3D3BDE8F087CC
:103BD0005C00002010B5FFF767FF002000F0DAF965
:103BE000084CA080A088A0F50241303906D000F032
:103BF000CFFE002000F0CEF9A08010BD00F03FFE07
:103C0000F7E700005C00002070B5BA480168BA4CC4
:103C1000626A891A64297DD300686062B74D0A21FF
:103C20002889E081B648FCF79FFE51EC100BFCF7A9
:103C300034FC80B240F66E710123A081884201D924
:103C4000A2782AB1884205D80020A070E0706EE00A
:103C5000A37001E0A078D8B32079012867D1E0787B
:103C6000B0BBD4ED0B0AC4ED0D0A286800EE100AB3
:103C7000B8EE401A9FEDA30AF0EE021A11EE210AE7
:103C800084ED0B0A9FEDA01A0A2802D884ED0B1AC6
:103C900005E05A2803D39FED9D0A84ED0B0A94EDAD
:103CA0000B0A70EE600AC4ED0F0AF5EEC00AF1EEE1
:103CB00010FA03D2F1EE600AC4ED0F0AD4ED0C1A2B
:103CC000C4ED0E1A686800EE900AB8EE602A00E0B3
:103CD0002DE0DFED8F0AF7EE022A0A2852EE220AC3
:103CE000C4ED0C0A02D884ED0C1A05E05A2803D35F
:103CF000DFED880AC4ED0C0AD4ED0C0A70EEE10A7F
:103D0000C4ED100AF5EEC00AF1EE10FA05D2F1EE9C
:103D1000600A00E0EDE0C4ED100A7F4801F040F8D1
:103D20007D4894ED0C0A143001F03AF8E3702178E4
:103D30004FF6FF704FF48875E9B300F07FF97648CD
:103D400015211838FCF7B0FA734874A1183802F03E
:103D5000ADF8714AC021183A1820FFF7F9FE6E48F5
:103D600015211838FCF7A0FA6B48E2886DA11838C5
:103D700002F09CF8684A2946183A3020FFF7E8FE1E
:103D8000654815211838FCF78FFA6348228968A125
:103D9000183802F08BF8604A2946183A4820FFF795
:103DA000D7FE5D4815211838FCF77EFA5A4862891B
:103DB00062A1183800E006E002F078F8564A294679
:103DC000183A602091E000F039F95348152118386D
:103DD000FCF76AFA50485BA1183802F067F84E4ABF
:103DE000C021183A1820FFF7B3FE4B4815211838A8
:103DF000FCF75AFAE06AFCF769FB41EC100B464805
:103E000053EC102B51A1183802F050F8424A2946C1
:103E1000183A3020FFF79CFE3F4815211838FCF770
:103E200043FA206BFCF752FB41EC100B3A4853EC81
:103E3000102B49A1183802F039F8374A2946183AA8
:103E40004820FFF785FE344815211838FCF72CFA76
:103E50003148E28943A1183802F028F82E4A294651
:103E6000183A6020FFF774FE2B4815211838FCF72C
:103E70001BFAE06BFCF72AFB41EC100B264853ECD5
:103E8000102B3BA1183802F011F8234A2946183AA2
:103E90009020FFF75DFE204815211838FCF704FA42
:103EA000206CFCF713FB41EC100B1B4853EC102B60
:103EB00032A1183801F0FAFF174A2946183AA8200B
:103EC000FFF746FE144815211838FCF7EDF9207964
:103ED00008B1422200E041220F482BA1183801F01E
:103EE000E5FF0D4A2946183AC020BDE87040FFF7AB
:103EF0002FBE70BD540000200000002000040020F0
:103F0000100100200000B441000000000000344314
:103F1000000034410000B442E8000020504152410A
:103F2000000000005061783A256420200000000065
:103F30005062783A256420200000000050663A253F
:103F4000642020004441544100000000613A252EC5
:103F50003166202000000000623A252E31662020C4
:103F600000000000663A2564487A20200000000026
:103F700061783A252E3066202000000062783A25CC
:103F80002E306620200000006D6F64653A256320A6
:103F90002000000070B51D490A6842F400720A60F2
:103FA0000A6842F480720A60184C103C226842F0A1
:103FB00020022260164A1060086840F02000086065
:103FC00000BF00BF00BF206840F0200020602068D4
:103FD00040F480702060FFF727FD4FF09041886A21
:103FE00040F48070886200BF00BF00BF0848001F17
:103FF000006885B2886940F480708861FFF72AFD07
:10400000206840F400702060284670BD28040048F5
:104010001408004801B5BDF800000149488008BDFA
:104020005C00002010B50C460146202000F068F826
:104030002146BDE81040212000F062B801B5BDF86E
:1040400000000149088008BD5C000020134A116887
:1040500041F400711160114910390B6843F4807309
:104060000B600B6843F020030B600D4B1860106869
:1040700040F02000106000BF00BF00BF086840F0A3
:1040800020000860086840F48070086000BF00BF2E
:1040900000BF086840F400700860704728040048BA
:1040A000140800481449086840F400700860086863
:1040B00040F48070086010481038026842F0200216
:1040C00002600E4B22221A600A6842F020020A6047
:1040D00000BF00BF00BF016841F02001016001681E
:1040E00041F48071016000BF00BF00BF016841F46E
:1040F000007101607047000028040048140800485F
:10410000184B10B51A6842F400721A601A6842F42B
:1041100080721A60134A103A146844F02004146044
:10412000114C2060186840F02000186000BF00BFEC
:1041300000BF106840F020001060106840F48070EC
:1041400010602160186840F02000186000BF00BFB8
:1041500000BF106840F020001060106840F48070CC
:10416000106010BD280400481408004870B50D4DBB
:104170000446012204212846FDF765FA0A4E012271
:104180004FF6FF713046FDF75EFA210200223046FD
:10419000FDF759FA2846BDE8704000220421FDF7DA
:1041A00052BA0000000C00480008004810B5094C45
:1041B000012204212046FDF746FA01224FF6FF7145
:1041C0000548FDF740FA20460022BDE810400421D2
:1041D000FDF739BA000C0048000800482F490A686A
:1041E0002F48C369D21AC82A56D30968C161C18849
:1041F000D0ED0F0A00EE101A0146B8EE400A4978D9
:10420000F4EEC00AF1EE10FA02DD41F0010101E026
:1042100001F00E0141700189D0ED100A00EE101A74
:104220004178B8EE400AF4EEC00AF1EE10FA02DD71
:1042300041F0020101E001F00D014170C1894289A4
:104240009142417802D941F0040101E001F00B01F3
:10425000417001790029417815D001F007014170C2
:1042600090ED0B0ADFED0F0A0F4A30EEC00AD0EDD9
:104270000C0A30EE200A10EE101A9142417805DA4D
:1042800041F0100104E041F00801E8E701F00F01FE
:104290004170C8B2FFF76ABF7047000054000020A9
:1042A000000000200000B4420000204100EB81002B
:1042B000006E00F0F84070478068C0F3C00070479F
:1042C0008068C0F380007047C06810F4406F01D070
:1042D0000020704701207047042303EAD15310B532
:1042E00018444369C1F3045107248C40A3438A4016
:1042F0001343436110BD00EB8100016E21F00041CA
:10430000114301667047000030B589B0202168462E
:10431000FBF7CAFF19481849002401604902C0E9A7
:104320000114C46004250461C0E90545047744779D
:104330000121016280F82440C462046380F838409F
:10434000C46380F84040FCF7A3FD08B1FCF70AFB0A
:104350000B48009006200190072002907F200594D2
:10436000CDE9030569460548FCF77CFB002801D030
:10437000FCF7F8FA09B030BD000100501001002030
:10438000000052472DE9F04387B014216846FBF73F
:104390008BFF4348C16C41F00401C164C16C01F062
:1043A00004010591C16C41F02001C164C16C01F0B0
:1043B00020010591C16C41F00101C164C16C01F0A3
:1043C00001010591C16C41F00201C164C16C01F0B1
:1043D00002010591C16C41F00801C164C06C314E0D
:1043E00000F008004FF47F4405900122214630463A
:1043F000FDF729F94FF09047002208213846FDF7D4
:1044000022F9DFF8A480002204214046FDF71BF9C1
:10441000DFF898900022C0214846FDF714F90125E5
:10442000CDE9004500240294694630460394FCF728
:10443000E1FFCDE90054694638460295FCF7DAFF02
:1044400008200090CDE90154694638460394FCF7F2
:10445000D1FF07208DE8310069464846FCF7CAFFC6
:1044600004200090CDE90154694640460394FCF7CE
:10447000C1FF40200090CDE90154694648460394AD
:10448000FCF7B8FF8020CDE900050220CDE902400D
:1044900069464846FCF7AEFF07B0BDE8F083000070
:1044A0000010024000080048000C004800040048CA
:1044B00010B586B014216846FBF7F6FE21480024AB
:1044C0001F490594C0E900147D21816041F270719B
:1044D000C0E903144FF080414461C0E90641046221
:1044E000FDF790FE08B1FCF73DFA23208DF800009F
:1044F00059208DF8010055208DF802000194039495
:10450000012269460F480494FDF746FF08B1FCF705
:1045100029FA05208DF8140003208DF815000120DC
:104520008DF8160024208DF81700012205A90548F2
:10453000FDF7E2FE002801D0FCF714FA06B010BD2A
:10454000002800407C01002010B58CB000240594A8
:10455000224804940694079408940A9409940094B9
:10456000019402941C49039401604F21C0E9011495
:104570004FF6FF71C0E9031444618461FDF7F7FF52
:1045800008B1FCF7EFF94FF48050049004A91348E8
:10459000FEF728F908B1FCF7E5F91048FEF728FB0B
:1045A00008B1FCF7DFF9089408A90C480A94FDF754
:1045B0008FFF08B1FCF7D6F90120CDE90040029445
:1045C0000022694605480394FEF780FA002801D0CE
:1045D000FCF7C8F90CB010BD004001408802002073
:1045E0001FB50024164800940194029413490394C3
:1045F00001604F21C0E901144FF6FF71C0E90314B7
:1046000044618461FDF7B3FF08B1FCF7ABF90C48D6
:10461000FEF7EEFA08B1FCF7A5F90A200090012098
:10462000CDE901040022694605480394FEF74EFADD
:10463000002801D0FCF796F91FBD0000004401409E
:10464000D40200200C4810B50A4901604F21416096
:1046500000214FF6FF72C0E90212016141618161E0
:10466000FDF785FF002803D0BDE81040FCF77AB9BC
:1046700010BD0000004801402003002010B58CB0A0
:1046800000240594214804940694079408940A94FD
:1046900009940094019402944FF0804103940160C6
:1046A0004F21C0E901144FF6FF71C0E90314846182
:1046B000FDF75DFF08B1FCF755F94FF48050049009
:1046C00004A91248FEF78EF808B1FCF74BF90F4821
:1046D000FEF78EFA08B1FCF745F9089408A90B48D3
:1046E0000A94FDF7F5FE08B1FCF73CF90120CDE98D
:1046F000004002940422694604480394FEF7E6F958
:10470000002801D0FCF72EF90CB010BDA401002048
:1047100010B58CB0002405942248049406940794A4
:1047200008940A9409940094019402941C490394F7
:1047300001604F21C0E901144FF6FF71C0E9031475
:104740008461FDF714FF08B1FCF70CF94FF48050B9
:10475000049004A91348FEF745F808B1FCF702F9E4
:104760001048FEF745FA08B1FCF7FCF8089408A9D0
:104770000C480A94FDF7ACFE08B1FCF7F3F80A20E8
:1047800000900120CDE90104042269460548039404
:10479000FEF79CF9002801D0FCF7E4F80CB010BD3E
:1047A00000040040F001002010B588B00024174834
:1047B000009401940294039404940594124906947D
:1047C00001604F21C0E9011442F20F71C0E90314E6
:1047D0008461FDF7CCFE08B1FCF7C4F84FF48050BB
:1047E000009069460948FDF7FDFF08B1FCF7BAF8EB
:1047F000049404A905480694FDF76AFE002801D038
:10480000FCF7B0F808B010BD000800403C020020E2
:10481000184810B5164901604FF416514160002147
:1048200081600C22C160C0E904128161C161016232
:1048300041628162FEF7F6FD08B1FCF793F80021B2
:104840000C48FEF740FC08B1FCF78CF80021094841
:10485000FEF713FC08B1FCF785F80648FEF7ECFB01
:10486000002803D0BDE81040FCF77CB810BD000064
:10487000003801406C030020FEE7FEE7704730B5CA
:1048800001210020FFF73CFC4FF47A70FCF75CF844
:1048900000210120FFF734FC41F290711020FFF756
:1048A0002FFC4FF41C516020FFF72AFC01216120EE
:1048B000FFF726FC02214620FFF722FC48F21001F8
:1048C0001320FFF71DFC48F2FE011220FFF718FC31
:1048D0004FF4A0610220FFF713FC41F230010320E6
:1048E000FFF70EFC40F2033421463020FFF708FCAE
:1048F00021463120FFF704FC21463220FFF700FC5F
:10490000E51E29463320FFF7FBFB03213420FFF788
:10491000F7FB21463520FFF7F3FB14213620FFF784
:10492000EFFB21463720FFF7EBFB21463820FFF74E
:10493000E7FB21463920FFF7E3FB29463A20FFF742
:10494000DFFB03213B20FFF7DBFB21463C20FFF789
:10495000D7FB4FF4A0513D20FFF7D2FB4FF400717D
:104960009220FFF7CDFB21469320FFF7C9FB40F6CD
:104970000D019020FFF7C4FB41F218010320FFF75F
:10498000BFFBBDE8304040F273110720FFF7B8BB12
:1049900010B543F20801E320FFF7B2FB1221E72034
:1049A000FFF7AEFB41F23121EF20FFF7A9FB002119
:1049B0000120FFF7A5FB4FF4E0610220FFF7A0FB09
:1049C00041F230010320FFF79BFB00210420FFF799
:1049D00097FB40F207210820FFF792FB00210920F6
:1049E000FFF78EFB00210A20FFF78AFB00210C2035
:1049F000FFF786FB00210D20FFF782FB00210F202F
:104A0000FFF77EFB00211020FFF77AFB0721112022
:104A1000FFF776FB00211220FFF772FB0021132025
:104A2000FFF76EFBC820FCF7D3FC41F29061102029
:104A3000FFF766FB40F227211120FFF761FB3220D0
:104A4000FCF7C6FC1D211220FFF75AFB3220FCF7B1
:104A5000BFFC4FF400611320FFF752FB1421292003
:104A6000FFF74EFB0B212B20FFF74AFB3220FCF710
:104A7000AFFC00212020FFF743FB00212120FFF79E
:104A80003FFB07213020FFF73BFB40F2077131204D
:104A9000FFF736FB06213220FFF732FB40F20471AC
:104AA0003520FFF72DFB41F604713620FFF728FB78
:104AB00004213720FFF724FB00213820FFF720FBDB
:104AC00040F206713920FFF71BFB40F201713C20D8
:104AD000FFF716FB0F213D20FFF712FB00215020AE
:104AE000FFF70EFBEF215120FFF70AFB00215220B8
:104AF000FFF706FB40F23F115320FFF701FB4FF495
:104B00001C516020FFF7FCFA01216120FFF7F8FA41
:104B100000216A20FFF7F4FA00218020FFF7F0FA65
:104B200000218120FFF7ECFA00218220FFF7E8FA4C
:104B300000218320FFF7E4FA00218420FFF7E0FA48
:104B400000218520FFF7DCFA10219020FFF7D8FA2A
:104B500000219220FFF7D4FA03219320FFF7D0FA27
:104B60004FF488719520FFF7CBFA00219720FFF7CB
:104B7000C7FA00219820FFF7C3FA41F21801032079
:104B8000FFF7BEFABDE8104040F273110720FFF7AF
:104B9000B7BA010901EB810100F00F0000EB410001
:104BA000C0B270470022014602E00A39C9B2521C65
:104BB0000A29FAD2100741EA106070472DE9F04146
:104BC000044600680025C168490619D4C16841F04F
:104BD0008001C160FCF73CFD06464FF47A7803275C
:104BE00008E000BFFCF734FD801B404502D90325D7
:104BF00084F825702068C068400601D4032DF1D1E7
:104C00002846BDE8F08170B5044600680025C168FB
:104C100021F08001C160206881694FF00306890698
:104C200007D42046FDF71EFC98B184F825600325C3
:104C30000FE0816921F0200181612046FDF712FC1F
:104C400010B184F8256003252068816941F02001B6
:104C50008161284670BD00000C4810B502680C49FF
:104C60008B6AD21AB2F57A7F0ED30068886200226E
:104C700008490948FDF79CFA05490022BDE81040A3
:104C800018310548FDF772BA10BD0000540000202D
:104C900000000020940000207C0100207CB5044628
:104CA0001548FCF7A9FA4FF0FF3529461248FCF7E2
:104CB00025FA1148FCF7E8F8ADF800000E48FCF7BB
:104CC0009BFA29460C48FCF719FA0B48FCF7DCF86C
:104CD000ADF802000848FCF78FFA29460648FCF7B1
:104CE0000DFA0548FCF7D0F8ADF8040000982060F4
:104CF000BDF80400A0807CBD1001002008B104486C
:104D000001E003481030016841F040010160704744
:104D10001804004810B580210348FCF78FFC0128D7
:104D200000D0002010BD00000004004800B585B090
:104D300014216846FBF7B8FA80200090002001900B
:104D4000012002900220039069460248FCF752FBC2
:104D500005B000BD0004004808B1044801E0034864
:104D60001030016841F0800101607047180400486C
:104D700000B585B014216846FBF796FA80200090B4
:104D80001120019000200290022003906946024801
:104D9000FCF730FB05B000BD000400487047000080
:104DA0005FF0040100EB8102491E52ED010A002967
:104DB000C2ED000AF6DC80ED000A7047FCF74EBC3D
:104DC00010B594B038216846FBF76EFA14210EA88E
:104DD000FBF76AFA4FF40070FCF7D2FC0120009058
:104DE0000004019002200324CDE907041421CDE939
:104DF0000A100C900D9009946846FCF7B5FF08B1B5
:104E000072B6FEE70F20CDE90E040020109011903D
:104E1000129002210EA8FCF75DFE002801D072B6A8
:104E2000FEE714B010BD00000248016841F47001B3
:104E30000160704788ED00E00148FDF7A1BF000068
:104E4000880200200148FDF79BBF000020030020DE
:104E50000148FDF795BF0000D40200200148FDF78E
:104E60008FBF0000A40100200148FDF789BF0000AA
:104E7000F00100200148FDF783BF00003C02002044
:104E80002DE9F0430268264B264D274E274C4FF064
:104E90008049984207D0484505D0A84203D0B04287
:104EA00001D0A04203D122F070074A683A43204F54
:104EB000DFF880C0DFF8808098420DD048450BD0E5
:104EC000A84209D0B04207D0A04205D0B84203D0D2
:104ED000604501D0404503D122F44075CA682A4399
:104EE0004D6922F080022A4302608A68C2620A6821
:104EF0008262984207D0A04205D0B84203D06045F4
:104F000001D0404501D10969016301214161016975
:104F1000C90703D0016921F001010161BDE8F083F7
:104F2000002C014000040040000800400034014013
:104F300000400140004401400048014010B501F02C
:104F40001F030121046A99408C430462016A9A405C
:104F50001143016210BD10B5846842EA032224F4B3
:104F60007F440A432243826010BD00008268034BE5
:104F70001A400A4342F00701816070478FFFCFFF5C
:104F800010B5036A046A24F001040462846924F001
:104F9000F00444EA021423F00A020A438461026224
:104FA00010BD000070B5056A046A24F001040462B3
:104FB0008469124EB0420ED0B0F1804F0BD0104E2B
:104FC000B04208D00F4EB04205D00F4EB04202D0D2
:104FD0000E4EB04203D124F00304144301E044F028
:104FE00001041A0724F0F00444EA126225F00A03CF
:104FF00001F00A0119438261016270BD002C014079
:10500000000400400008004000340140004001401E
:1050100010B5036A046A24F010040462846923F062
:10502000A00324F4704444EA023243EA011182618D
:10503000016210BD30B5046A056A25F010050562ED
:10504000856925F4407545EA022222F470454FF641
:10505000FF7202EA033224F0A0032A43A02404EAE8
:10506000011119438261016230BD000030B5416E0B
:10507000B9B1026891689268C1F342610B4B520F5B
:105080009C5CE50003F10804A25CB5FBF2F2A0F819
:105090006A205A5C615CD200B2FBF1F1A0F86810A2
:1050A00030BD0121A0F86A10F8E70000646900082B
:1050B00090F82810090706D501684A68836B22F426
:1050C00000421A434A6090F82810C90706D00168C8
:1050D0004A68C36A22F400321A434A6090F82810E2
:1050E000890706D501684A68036B22F480321A43A7
:1050F0004A6090F82810490706D501684A68436B52
:1051000022F480221A434A6090F82810C90606D576
:1051100001688A68C36B22F480521A438A6090F84F
:105120002810890606D501688A68036C22F40052AB
:105130001A438A6090F82810490611D501684A6818
:10514000436C22F480121A434A60416CB1F5801F0F
:1051500006D101684A68836C22F4C0021A434A608F
:1051600090F82810090606D501684A68C06C22F438
:10517000002202434A6070472DE9F84300260446A6
:10518000C0F89060FCF764FA8046206800684FF031
:10519000200500076FF07E4713D5434600222904FF
:1051A0002046009700F09CFC58B1216851E8000FA0
:1051B00020F0800041E80002002AF6D1C4F88850AF
:1051C00021E020680068400722D5434600224FF4C2
:1051D00080012046009700F083FCC8B1216851E8A7
:1051E000000F20F4907041E80002002AF6D12068F8
:1051F000083050E8001F21F0010140E80012002AA9
:10520000F5D1C4F88C5084F884600320BDE8F8839D
:10521000C4F88850C4F88C5044F86C6F66602676E9
:105220000020F3E710B5806A0021A0F85E10A0F816
:105230005610FDF770FF10BD10B5026852E8001F50
:1052400021F4907142E80013002BF6D10E4B026856
:10525000083252E8001F194042E80014002CF6D131
:10526000C16E012908D1016851E8002F22F0100217
:1052700041E80023002BF6D12021C0F88C1000213A
:10528000C166416710BD0000FEFFFFEF10B5B0F82A
:105290006020D0F88C300168222B04D0886940F05F
:1052A0000800886110BD496A836D11401980816DC5
:1052B000891C8165B0F85E10491EA0F85E10B0F838
:1052C0005E100029EED1026852E8001F21F49071AF
:1052D00042E80013002BF6D10168083151E8002F95
:1052E00022F0010241E80023002BF5D12021C0F873
:1052F0008C10002141670167154B02689A420BD060
:105300005268120208D5036853E8002F22F0806229
:1053100043E80024002CF6D1C26E012A02D0FEF729
:1053200021F910BDC166026852E8001F21F010018A
:1053300042E80013002BF6D10168CA69D243D206B5
:1053400001D410220A62B0F85C10FDF794FE10BD83
:10535000008000402DE9F0470446B0F86060006826
:10536000C569D0F800A0D0F80880D4F88C102229A4
:1053700005D0816941F008018161BDE8F087B4F88A
:1053800068704FF0000975E02068406AA16D3040F8
:105390000880A06D801CA065B4F85E00401EA4F8D3
:1053A0005E002068C569690730D0E9070AD05FEA66
:1053B000CA5107D501210162D4F8900040F00100E4
:1053C000C4F89000A8070BD55FEAC87008D0216820
:1053D00002200862D4F8900040F00400C4F8900065
:1053E00068070BD55FEAC87008D0216804200862FE
:1053F000D4F8900040F00200C4F89000D4F8900077
:1054000020B12046FDF787FEC4F89090B4F85E0006
:1054100080BB216851E8000F20F4807041E8000251
:10542000002AF6D1304A2068083050E8001F1140A9
:1054300040E80013002BF6D12020C4F88C00C4F8FB
:1054400074904946C4F87090284A206890420BD066
:105450004068000208D5226852E8000F20F08063FF
:1054600042E800300028F6D1E06E012825D0204621
:10547000FEF778F80FB1A80686D4B4F85E000028CD
:105480003FF47BAFB4F8681081427FF676AF2068B6
:10549000083050E8001F21F0805140E80012002A37
:1054A000F5D113486067216851E8000F40F02000F3
:1054B00041E80002002AF6D15FE7E166216851E881
:1054C000000F20F0100041E80002002AF6D1206809
:1054D000C169C943C90601D410210162B4F85C1046
:1054E0002046FDF7C8FDC5E7FEFFFFEF0080004046
:1054F0008D52000810B5B0F86020D0F88C300168EB
:10550000222B04D0886940F00800886110BD496AE8
:105510001140826D1170816D491C8165B0F85E107B
:10552000491EA0F85E10B0F85E100029EED10168A7
:1055300051E8002F22F4907241E80023002BF6D1AD
:105540000168083151E8002F22F0010241E80023F0
:10555000002BF5D12021C0F88C1000214167016794
:10556000154B02689A420BD05268120208D50368A4
:1055700053E8002F22F0806243E80024002CF6D18B
:10558000C26E012A02D0FDF7EDFF10BDC1660268B0
:1055900052E8001F21F0100142E80013002BF6D161
:1055A0000168CA69D243D20601D410220A62B0F857
:1055B0005C10FDF760FD10BD008000402DE9F04754
:1055C0000446B0F860600068C569D0F800A0D0F863
:1055D0000880D4F88C10222905D0816941F0080197
:1055E0008161BDE8F087B4F868704FF0000975E09C
:1055F0002068406AA16D30400870A06D401CA06515
:10560000B4F85E00401EA4F85E002068C569690712
:1056100030D0E9070AD05FEACA5107D501210162FB
:10562000D4F8900040F00100C4F89000A8070BD512
:105630005FEAC87008D0216802200862D4F89000A0
:1056400040F00400C4F8900068070BD55FEAC8700A
:1056500008D0216804200862D4F8900040F00200CD
:10566000C4F89000D4F8900020B12046FDF753FD17
:10567000C4F89090B4F85E0080BB216851E8000F38
:1056800020F4807041E80002002AF6D1304A2068F8
:10569000083050E8001F114040E80013002BF6D1FD
:1056A0002020C4F88C00C4F874904A46C4F8709066
:1056B0002849206888420BD04068000208D521683C
:1056C00051E8000F20F0806041E80003002BF6D184
:1056D000E06E012825D02046FDF744FF0FB1A80653
:1056E00086D4B4F85E0000283FF47BAFB4F86810AD
:1056F00081427FF676AF2068083050E8001F21F025
:10570000805140E80012002AF5D1134860672068F4
:1057100050E8001F41F0200140E80012002AF6D1B5
:105720005FE7E266216851E8000F20F0100041E8D1
:105730000002002AF6D12068C169C943C90601D414
:1057400010210162B4F85C102046FDF794FCC5E717
:10575000FEFFFFEF00800040F55400082DE9F04106
:105760000446016880682269E36910436269002584
:105770001A431043DFF82CC20A688B4B1A400243CD
:105780000A6020684168E26821F440511143416099
:105790002168A069614501D0226A10438A68834B61
:1057A0001A4002438A602068C16A626A21F00F01D0
:1057B0001143C1627E4923687E488B420DD1D0F8E7
:1057C000880010F0030006D0012855D0022842D0EE
:1057D00003283FD152E001203DE077498B420BD1B5
:1057E000D0F8880010F00C0035D0042833D00828F9
:1057F00040D00C282ED141E070498B420BD1D0F81B
:10580000880010F0300026D0102835D0202831D064
:1058100030281FD132E06A498B420BD1D0F8880082
:1058200010F0C00017D0402826D0802822D0C028F1
:1058300010D123E063450DD1D0F8880010F440600A
:1058400009D0B0F5806F17D0B0F5006F12D0B0F569
:10585000406F13D010205B495B4F00264FF400428D
:1058600063453BD160B1022813D004280BD008282F
:1058700072D10DE00220EEE70420ECE70820EAE711
:10588000FCF716FA01E0FCF737FA010001D17CE0E1
:105890001146606A37F810206768B1FBF2F007EB39
:1058A0004703834270D8B0EB073F6DD8002308460A
:1058B0001946FAF7AFFC090241EA106102027808C2
:1058C000101871413A460023FAF7A4FC3F4AA0F5AC
:1058D0004071914258D82168C86056E0E3694FF69C
:1058E000EF7893422CD109284ED2DFE800F005086A
:1058F000114D0D4D4D4D1000FCF7DAF901E0FCF7AC
:10590000E9F9010004D140E0FCF7F6F9F9E71146A6
:10591000606A37F81000B1FBF0F04100606801EBFD
:105920005001B1FBF0F0A0F1100141452CD84FF629
:10593000F0710140C0F3420001432068C16024E0DF
:10594000092821D2DFE800F0050912200E202020CE
:105950001100FCF7ADF902E016E0FCF7BBF901001D
:1059600004D112E0FCF7C8F9F9E71146606A37F88C
:105970001000B1FBF0F1606801EB5001B1FBF0F0F9
:10598000A0F1100141450AD901250120A4F86A00BF
:1059900024F8680F2846E6602661BDE8F08180B2F1
:1059A00099E7000000800040F369FFCFFFF4FF118A
:1059B0000038014000100240004400400048004010
:1059C000004C00400024F4004C690008FFFC0F006C
:1059D00070B58165A0F85C20A0F85E2000234367C5
:1059E00081684FF48056FF24B14204D10169F9B9AE
:1059F00040F2FF1122E07F25C1B1B1F1805F1AD0E2
:105A0000A0F86030C0F890302221C0F88C100168F6
:105A1000083151E8003F43F0010341E80034002C15
:105A2000F5D1416EB1F1005F0ED031E0016941B9AD
:105A3000A0F86040E6E7016919B13F21A0F86010C5
:105A4000E0E7A0F86050DDE7B0F8681091421FD899
:105A50008168B14201D10169B9B11D49416701694C
:105A600041B1026852E8001F41F4807142E800131E
:105A7000002BF6D10168083151E8002F42F0805226
:105A800041E80023002BF5D120E012494167F1E7FE
:105A90008168B14201D1016969B10F49416701696A
:105AA00059B1026852E8001F41F4907142E80013B6
:105AB000002BF6D10AE009494167026852E8001F4D
:105AC00041F0200142E80013002BF6D1002070BD08
:105AD000BD55000855530008F55400088D520008C4
